{"contracts/Lotto.sol":{"Lotto":{"abi":[{"inputs":[{"internalType":"string","name":"_helloMessage","type":"string"}],"stateMutability":"nonpayable","type":"constructor"},{"inputs":[],"name":"hello","outputs":[{"internalType":"string","name":"","type":"string"}],"stateMutability":"view","type":"function"},{"inputs":[{"internalType":"string","name":"_helloMessage","type":"string"}],"name":"setHello","outputs":[],"stateMutability":"nonpayable","type":"function"}],"evm":{"bytecode":{"linkReferences":{},"object":"60806040523480156200001157600080fd5b5060405162000cbc38038062000cbc8339818101604052810190620000379190620002a8565b6200004d816200006d60201b620001ce1760201c565b8060009080519060200190620000659291906200016e565b50506200052d565b6200010d816040516024016200008491906200033a565b6040516020818303038152906040527f41304fac000000000000000000000000000000000000000000000000000000007bffffffffffffffffffffffffffffffffffffffffffffffffffffffff19166020820180517bffffffffffffffffffffffffffffffffffffffffffffffffffffffff83818316178352505050506200011060201b60201c565b50565b6200013681620001316200013960201b62000267176200015a60201b60201c565b60201c565b50565b60006a636f6e736f6c652e6c6f679050600080835160208501845afa505050565b620001ff60201b6200034c17819050919050565b8280546200017c906200040f565b90600052602060002090601f016020900481019282620001a05760008555620001ec565b82601f10620001bb57805160ff1916838001178555620001ec565b82800160010185558215620001ec579182015b82811115620001eb578251825591602001919060010190620001ce565b5b509050620001fb91906200020b565b5090565b62000209620004d9565b565b5b80821115620002265760008160009055506001016200020c565b5090565b6000620002416200023b8462000387565b6200035e565b90508281526020810184848401111562000260576200025f6200050d565b5b6200026d848285620003d9565b509392505050565b600082601f8301126200028d576200028c62000508565b5b81516200029f8482602086016200022a565b91505092915050565b600060208284031215620002c157620002c062000517565b5b600082015167ffffffffffffffff811115620002e257620002e162000512565b5b620002f08482850162000275565b91505092915050565b60006200030682620003bd565b620003128185620003c8565b935062000324818560208601620003d9565b6200032f816200051c565b840191505092915050565b60006020820190508181036000830152620003568184620002f9565b905092915050565b60006200036a6200037d565b905062000378828262000445565b919050565b6000604051905090565b600067ffffffffffffffff821115620003a557620003a4620004aa565b5b620003b0826200051c565b9050602081019050919050565b600081519050919050565b600082825260208201905092915050565b60005b83811015620003f9578082015181840152602081019050620003dc565b8381111562000409576000848401525b50505050565b600060028204905060018216806200042857607f821691505b602082108114156200043f576200043e6200047b565b5b50919050565b62000450826200051c565b810181811067ffffffffffffffff82111715620004725762000471620004aa565b5b80604052505050565b7f4e487b7100000000000000000000000000000000000000000000000000000000600052602260045260246000fd5b7f4e487b7100000000000000000000000000000000000000000000000000000000600052604160045260246000fd5b7f4e487b7100000000000000000000000000000000000000000000000000000000600052605160045260246000fd5b600080fd5b600080fd5b600080fd5b600080fd5b6000601f19601f8301169050919050565b61077f806200053d6000396000f3fe608060405234801561001057600080fd5b50600436106100365760003560e01c806319ff1d211461003b578063435ffe9414610059575b600080fd5b610043610075565b60405161005091906104eb565b60405180910390f35b610073600480360381019061006e9190610469565b610107565b005b6060600080546100849061060d565b80601f01602080910402602001604051908101604052809291908181526020018280546100b09061060d565b80156100fd5780601f106100d2576101008083540402835291602001916100fd565b820191906000526020600020905b8154815290600101906020018083116100e057829003601f168201915b5050505050905090565b6101b460405180606001604052806027815260200161072360279139600080546101309061060d565b80601f016020809104026020016040519081016040528092919081815260200182805461015c9061060d565b80156101a95780601f1061017e576101008083540402835291602001916101a9565b820191906000526020600020905b81548152906001019060200180831161018c57829003601f168201915b505050505083610288565b80600090805190602001906101ca929190610356565b5050565b610264816040516024016101e291906104eb565b6040516020818303038152906040527f41304fac000000000000000000000000000000000000000000000000000000007bffffffffffffffffffffffffffffffffffffffffffffffffffffffff19166020820180517bffffffffffffffffffffffffffffffffffffffffffffffffffffffff8381831617835250505050610327565b50565b60006a636f6e736f6c652e6c6f679050600080835160208501845afa505050565b6103228383836040516024016102a09392919061050d565b6040516020818303038152906040527f2ced7cef000000000000000000000000000000000000000000000000000000007bffffffffffffffffffffffffffffffffffffffffffffffffffffffff19166020820180517bffffffffffffffffffffffffffffffffffffffffffffffffffffffff8381831617835250505050610327565b505050565b61033e81610336610267610341565b63ffffffff16565b50565b61034c819050919050565b6103546106ce565b565b8280546103629061060d565b90600052602060002090601f01602090048101928261038457600085556103cb565b82601f1061039d57805160ff19168380011785556103cb565b828001600101855582156103cb579182015b828111156103ca5782518255916020019190600101906103af565b5b5090506103d891906103dc565b5090565b5b808211156103f55760008160009055506001016103dd565b5090565b600061040c6104078461057e565b610559565b90508281526020810184848401111561042857610427610702565b5b6104338482856105cb565b509392505050565b600082601f8301126104505761044f6106fd565b5b81356104608482602086016103f9565b91505092915050565b60006020828403121561047f5761047e61070c565b5b600082013567ffffffffffffffff81111561049d5761049c610707565b5b6104a98482850161043b565b91505092915050565b60006104bd826105af565b6104c781856105ba565b93506104d78185602086016105da565b6104e081610711565b840191505092915050565b6000602082019050818103600083015261050581846104b2565b905092915050565b6000606082019050818103600083015261052781866104b2565b9050818103602083015261053b81856104b2565b9050818103604083015261054f81846104b2565b9050949350505050565b6000610563610574565b905061056f828261063f565b919050565b6000604051905090565b600067ffffffffffffffff8211156105995761059861069f565b5b6105a282610711565b9050602081019050919050565b600081519050919050565b600082825260208201905092915050565b82818337600083830152505050565b60005b838110156105f85780820151818401526020810190506105dd565b83811115610607576000848401525b50505050565b6000600282049050600182168061062557607f821691505b6020821081141561063957610638610670565b5b50919050565b61064882610711565b810181811067ffffffffffffffff821117156106675761066661069f565b5b80604052505050565b7f4e487b7100000000000000000000000000000000000000000000000000000000600052602260045260246000fd5b7f4e487b7100000000000000000000000000000000000000000000000000000000600052604160045260246000fd5b7f4e487b7100000000000000000000000000000000000000000000000000000000600052605160045260246000fd5b600080fd5b600080fd5b600080fd5b600080fd5b6000601f19601f830116905091905056fe4368616e67696e672068656c6c6f4d6573736167652066726f6d202725732720746f2027257327a26469706673582212202c550c5df28e3d58a2b17b43a0ae7cb6219c417f2143fc66786495146e41886764736f6c63430008060033","opcodes":"PUSH1 0x80 PUSH1 0x40 MSTORE CALLVALUE DUP1 ISZERO PUSH3 0x11 JUMPI PUSH1 0x0 DUP1 REVERT JUMPDEST POP PUSH1 0x40 MLOAD PUSH3 0xCBC CODESIZE SUB DUP1 PUSH3 0xCBC DUP4 CODECOPY DUP2 DUP2 ADD PUSH1 0x40 MSTORE DUP2 ADD SWAP1 PUSH3 0x37 SWAP2 SWAP1 PUSH3 0x2A8 JUMP JUMPDEST PUSH3 0x4D DUP2 PUSH3 0x6D PUSH1 0x20 SHL PUSH3 0x1CE OR PUSH1 0x20 SHR JUMP JUMPDEST DUP1 PUSH1 0x0 SWAP1 DUP1 MLOAD SWAP1 PUSH1 0x20 ADD SWAP1 PUSH3 0x65 SWAP3 SWAP2 SWAP1 PUSH3 0x16E JUMP JUMPDEST POP POP PUSH3 0x52D JUMP JUMPDEST PUSH3 0x10D DUP2 PUSH1 0x40 MLOAD PUSH1 0x24 ADD PUSH3 0x84 SWAP2 SWAP1 PUSH3 0x33A JUMP JUMPDEST PUSH1 0x40 MLOAD PUSH1 0x20 DUP2 DUP4 SUB SUB DUP2 MSTORE SWAP1 PUSH1 0x40 MSTORE PUSH32 0x41304FAC00000000000000000000000000000000000000000000000000000000 PUSH28 0xFFFFFFFFFFFFFFFFFFFFFFFFFFFFFFFFFFFFFFFFFFFFFFFFFFFFFFFF NOT AND PUSH1 0x20 DUP3 ADD DUP1 MLOAD PUSH28 0xFFFFFFFFFFFFFFFFFFFFFFFFFFFFFFFFFFFFFFFFFFFFFFFFFFFFFFFF DUP4 DUP2 DUP4 AND OR DUP4 MSTORE POP POP POP POP PUSH3 0x110 PUSH1 0x20 SHL PUSH1 0x20 SHR JUMP JUMPDEST POP JUMP JUMPDEST PUSH3 0x136 DUP2 PUSH3 0x131 PUSH3 0x139 PUSH1 0x20 SHL PUSH3 0x267 OR PUSH3 0x15A PUSH1 0x20 SHL PUSH1 0x20 SHR JUMP JUMPDEST PUSH1 0x20 SHR JUMP JUMPDEST POP JUMP JUMPDEST PUSH1 0x0 PUSH11 0x636F6E736F6C652E6C6F67 SWAP1 POP PUSH1 0x0 DUP1 DUP4 MLOAD PUSH1 0x20 DUP6 ADD DUP5 GAS STATICCALL POP POP POP JUMP JUMPDEST PUSH3 0x1FF PUSH1 0x20 SHL PUSH3 0x34C OR DUP2 SWAP1 POP SWAP2 SWAP1 POP JUMP JUMPDEST DUP3 DUP1 SLOAD PUSH3 0x17C SWAP1 PUSH3 0x40F JUMP JUMPDEST SWAP1 PUSH1 0x0 MSTORE PUSH1 0x20 PUSH1 0x0 KECCAK256 SWAP1 PUSH1 0x1F ADD PUSH1 0x20 SWAP1 DIV DUP2 ADD SWAP3 DUP3 PUSH3 0x1A0 JUMPI PUSH1 0x0 DUP6 SSTORE PUSH3 0x1EC JUMP JUMPDEST DUP3 PUSH1 0x1F LT PUSH3 0x1BB JUMPI DUP1 MLOAD PUSH1 0xFF NOT AND DUP4 DUP1 ADD OR DUP6 SSTORE PUSH3 0x1EC JUMP JUMPDEST DUP3 DUP1 ADD PUSH1 0x1 ADD DUP6 SSTORE DUP3 ISZERO PUSH3 0x1EC JUMPI SWAP2 DUP3 ADD JUMPDEST DUP3 DUP2 GT ISZERO PUSH3 0x1EB JUMPI DUP3 MLOAD DUP3 SSTORE SWAP2 PUSH1 0x20 ADD SWAP2 SWAP1 PUSH1 0x1 ADD SWAP1 PUSH3 0x1CE JUMP JUMPDEST JUMPDEST POP SWAP1 POP PUSH3 0x1FB SWAP2 SWAP1 PUSH3 0x20B JUMP JUMPDEST POP SWAP1 JUMP JUMPDEST PUSH3 0x209 PUSH3 0x4D9 JUMP JUMPDEST JUMP JUMPDEST JUMPDEST DUP1 DUP3 GT ISZERO PUSH3 0x226 JUMPI PUSH1 0x0 DUP2 PUSH1 0x0 SWAP1 SSTORE POP PUSH1 0x1 ADD PUSH3 0x20C JUMP JUMPDEST POP SWAP1 JUMP JUMPDEST PUSH1 0x0 PUSH3 0x241 PUSH3 0x23B DUP5 PUSH3 0x387 JUMP JUMPDEST PUSH3 0x35E JUMP JUMPDEST SWAP1 POP DUP3 DUP2 MSTORE PUSH1 0x20 DUP2 ADD DUP5 DUP5 DUP5 ADD GT ISZERO PUSH3 0x260 JUMPI PUSH3 0x25F PUSH3 0x50D JUMP JUMPDEST JUMPDEST PUSH3 0x26D DUP5 DUP3 DUP6 PUSH3 0x3D9 JUMP JUMPDEST POP SWAP4 SWAP3 POP POP POP JUMP JUMPDEST PUSH1 0x0 DUP3 PUSH1 0x1F DUP4 ADD SLT PUSH3 0x28D JUMPI PUSH3 0x28C PUSH3 0x508 JUMP JUMPDEST JUMPDEST DUP2 MLOAD PUSH3 0x29F DUP5 DUP3 PUSH1 0x20 DUP7 ADD PUSH3 0x22A JUMP JUMPDEST SWAP2 POP POP SWAP3 SWAP2 POP POP JUMP JUMPDEST PUSH1 0x0 PUSH1 0x20 DUP3 DUP5 SUB SLT ISZERO PUSH3 0x2C1 JUMPI PUSH3 0x2C0 PUSH3 0x517 JUMP JUMPDEST JUMPDEST PUSH1 0x0 DUP3 ADD MLOAD PUSH8 0xFFFFFFFFFFFFFFFF DUP2 GT ISZERO PUSH3 0x2E2 JUMPI PUSH3 0x2E1 PUSH3 0x512 JUMP JUMPDEST JUMPDEST PUSH3 0x2F0 DUP5 DUP3 DUP6 ADD PUSH3 0x275 JUMP JUMPDEST SWAP2 POP POP SWAP3 SWAP2 POP POP JUMP JUMPDEST PUSH1 0x0 PUSH3 0x306 DUP3 PUSH3 0x3BD JUMP JUMPDEST PUSH3 0x312 DUP2 DUP6 PUSH3 0x3C8 JUMP JUMPDEST SWAP4 POP PUSH3 0x324 DUP2 DUP6 PUSH1 0x20 DUP7 ADD PUSH3 0x3D9 JUMP JUMPDEST PUSH3 0x32F DUP2 PUSH3 0x51C JUMP JUMPDEST DUP5 ADD SWAP2 POP POP SWAP3 SWAP2 POP POP JUMP JUMPDEST PUSH1 0x0 PUSH1 0x20 DUP3 ADD SWAP1 POP DUP2 DUP2 SUB PUSH1 0x0 DUP4 ADD MSTORE PUSH3 0x356 DUP2 DUP5 PUSH3 0x2F9 JUMP JUMPDEST SWAP1 POP SWAP3 SWAP2 POP POP JUMP JUMPDEST PUSH1 0x0 PUSH3 0x36A PUSH3 0x37D JUMP JUMPDEST SWAP1 POP PUSH3 0x378 DUP3 DUP3 PUSH3 0x445 JUMP JUMPDEST SWAP2 SWAP1 POP JUMP JUMPDEST PUSH1 0x0 PUSH1 0x40 MLOAD SWAP1 POP SWAP1 JUMP JUMPDEST PUSH1 0x0 PUSH8 0xFFFFFFFFFFFFFFFF DUP3 GT ISZERO PUSH3 0x3A5 JUMPI PUSH3 0x3A4 PUSH3 0x4AA JUMP JUMPDEST JUMPDEST PUSH3 0x3B0 DUP3 PUSH3 0x51C JUMP JUMPDEST SWAP1 POP PUSH1 0x20 DUP2 ADD SWAP1 POP SWAP2 SWAP1 POP JUMP JUMPDEST PUSH1 0x0 DUP2 MLOAD SWAP1 POP SWAP2 SWAP1 POP JUMP JUMPDEST PUSH1 0x0 DUP3 DUP3 MSTORE PUSH1 0x20 DUP3 ADD SWAP1 POP SWAP3 SWAP2 POP POP JUMP JUMPDEST PUSH1 0x0 JUMPDEST DUP4 DUP2 LT ISZERO PUSH3 0x3F9 JUMPI DUP1 DUP3 ADD MLOAD DUP2 DUP5 ADD MSTORE PUSH1 0x20 DUP2 ADD SWAP1 POP PUSH3 0x3DC JUMP JUMPDEST DUP4 DUP2 GT ISZERO PUSH3 0x409 JUMPI PUSH1 0x0 DUP5 DUP5 ADD MSTORE JUMPDEST POP POP POP POP JUMP JUMPDEST PUSH1 0x0 PUSH1 0x2 DUP3 DIV SWAP1 POP PUSH1 0x1 DUP3 AND DUP1 PUSH3 0x428 JUMPI PUSH1 0x7F DUP3 AND SWAP2 POP JUMPDEST PUSH1 0x20 DUP3 LT DUP2 EQ ISZERO PUSH3 0x43F JUMPI PUSH3 0x43E PUSH3 0x47B JUMP JUMPDEST JUMPDEST POP SWAP2 SWAP1 POP JUMP JUMPDEST PUSH3 0x450 DUP3 PUSH3 0x51C JUMP JUMPDEST DUP2 ADD DUP2 DUP2 LT PUSH8 0xFFFFFFFFFFFFFFFF DUP3 GT OR ISZERO PUSH3 0x472 JUMPI PUSH3 0x471 PUSH3 0x4AA JUMP JUMPDEST JUMPDEST DUP1 PUSH1 0x40 MSTORE POP POP POP JUMP JUMPDEST PUSH32 0x4E487B7100000000000000000000000000000000000000000000000000000000 PUSH1 0x0 MSTORE PUSH1 0x22 PUSH1 0x4 MSTORE PUSH1 0x24 PUSH1 0x0 REVERT JUMPDEST PUSH32 0x4E487B7100000000000000000000000000000000000000000000000000000000 PUSH1 0x0 MSTORE PUSH1 0x41 PUSH1 0x4 MSTORE PUSH1 0x24 PUSH1 0x0 REVERT JUMPDEST PUSH32 0x4E487B7100000000000000000000000000000000000000000000000000000000 PUSH1 0x0 MSTORE PUSH1 0x51 PUSH1 0x4 MSTORE PUSH1 0x24 PUSH1 0x0 REVERT JUMPDEST PUSH1 0x0 DUP1 REVERT JUMPDEST PUSH1 0x0 DUP1 REVERT JUMPDEST PUSH1 0x0 DUP1 REVERT JUMPDEST PUSH1 0x0 DUP1 REVERT JUMPDEST PUSH1 0x0 PUSH1 0x1F NOT PUSH1 0x1F DUP4 ADD AND SWAP1 POP SWAP2 SWAP1 POP JUMP JUMPDEST PUSH2 0x77F DUP1 PUSH3 0x53D PUSH1 0x0 CODECOPY PUSH1 0x0 RETURN INVALID PUSH1 0x80 PUSH1 0x40 MSTORE CALLVALUE DUP1 ISZERO PUSH2 0x10 JUMPI PUSH1 0x0 DUP1 REVERT JUMPDEST POP PUSH1 0x4 CALLDATASIZE LT PUSH2 0x36 JUMPI PUSH1 0x0 CALLDATALOAD PUSH1 0xE0 SHR DUP1 PUSH4 0x19FF1D21 EQ PUSH2 0x3B JUMPI DUP1 PUSH4 0x435FFE94 EQ PUSH2 0x59 JUMPI JUMPDEST PUSH1 0x0 DUP1 REVERT JUMPDEST PUSH2 0x43 PUSH2 0x75 JUMP JUMPDEST PUSH1 0x40 MLOAD PUSH2 0x50 SWAP2 SWAP1 PUSH2 0x4EB JUMP JUMPDEST PUSH1 0x40 MLOAD DUP1 SWAP2 SUB SWAP1 RETURN JUMPDEST PUSH2 0x73 PUSH1 0x4 DUP1 CALLDATASIZE SUB DUP2 ADD SWAP1 PUSH2 0x6E SWAP2 SWAP1 PUSH2 0x469 JUMP JUMPDEST PUSH2 0x107 JUMP JUMPDEST STOP JUMPDEST PUSH1 0x60 PUSH1 0x0 DUP1 SLOAD PUSH2 0x84 SWAP1 PUSH2 0x60D JUMP JUMPDEST DUP1 PUSH1 0x1F ADD PUSH1 0x20 DUP1 SWAP2 DIV MUL PUSH1 0x20 ADD PUSH1 0x40 MLOAD SWAP1 DUP2 ADD PUSH1 0x40 MSTORE DUP1 SWAP3 SWAP2 SWAP1 DUP2 DUP2 MSTORE PUSH1 0x20 ADD DUP3 DUP1 SLOAD PUSH2 0xB0 SWAP1 PUSH2 0x60D JUMP JUMPDEST DUP1 ISZERO PUSH2 0xFD JUMPI DUP1 PUSH1 0x1F LT PUSH2 0xD2 JUMPI PUSH2 0x100 DUP1 DUP4 SLOAD DIV MUL DUP4 MSTORE SWAP2 PUSH1 0x20 ADD SWAP2 PUSH2 0xFD JUMP JUMPDEST DUP3 ADD SWAP2 SWAP1 PUSH1 0x0 MSTORE PUSH1 0x20 PUSH1 0x0 KECCAK256 SWAP1 JUMPDEST DUP2 SLOAD DUP2 MSTORE SWAP1 PUSH1 0x1 ADD SWAP1 PUSH1 0x20 ADD DUP1 DUP4 GT PUSH2 0xE0 JUMPI DUP3 SWAP1 SUB PUSH1 0x1F AND DUP3 ADD SWAP2 JUMPDEST POP POP POP POP POP SWAP1 POP SWAP1 JUMP JUMPDEST PUSH2 0x1B4 PUSH1 0x40 MLOAD DUP1 PUSH1 0x60 ADD PUSH1 0x40 MSTORE DUP1 PUSH1 0x27 DUP2 MSTORE PUSH1 0x20 ADD PUSH2 0x723 PUSH1 0x27 SWAP2 CODECOPY PUSH1 0x0 DUP1 SLOAD PUSH2 0x130 SWAP1 PUSH2 0x60D JUMP JUMPDEST DUP1 PUSH1 0x1F ADD PUSH1 0x20 DUP1 SWAP2 DIV MUL PUSH1 0x20 ADD PUSH1 0x40 MLOAD SWAP1 DUP2 ADD PUSH1 0x40 MSTORE DUP1 SWAP3 SWAP2 SWAP1 DUP2 DUP2 MSTORE PUSH1 0x20 ADD DUP3 DUP1 SLOAD PUSH2 0x15C SWAP1 PUSH2 0x60D JUMP JUMPDEST DUP1 ISZERO PUSH2 0x1A9 JUMPI DUP1 PUSH1 0x1F LT PUSH2 0x17E JUMPI PUSH2 0x100 DUP1 DUP4 SLOAD DIV MUL DUP4 MSTORE SWAP2 PUSH1 0x20 ADD SWAP2 PUSH2 0x1A9 JUMP JUMPDEST DUP3 ADD SWAP2 SWAP1 PUSH1 0x0 MSTORE PUSH1 0x20 PUSH1 0x0 KECCAK256 SWAP1 JUMPDEST DUP2 SLOAD DUP2 MSTORE SWAP1 PUSH1 0x1 ADD SWAP1 PUSH1 0x20 ADD DUP1 DUP4 GT PUSH2 0x18C JUMPI DUP3 SWAP1 SUB PUSH1 0x1F AND DUP3 ADD SWAP2 JUMPDEST POP POP POP POP POP DUP4 PUSH2 0x288 JUMP JUMPDEST DUP1 PUSH1 0x0 SWAP1 DUP1 MLOAD SWAP1 PUSH1 0x20 ADD SWAP1 PUSH2 0x1CA SWAP3 SWAP2 SWAP1 PUSH2 0x356 JUMP JUMPDEST POP POP JUMP JUMPDEST PUSH2 0x264 DUP2 PUSH1 0x40 MLOAD PUSH1 0x24 ADD PUSH2 0x1E2 SWAP2 SWAP1 PUSH2 0x4EB JUMP JUMPDEST PUSH1 0x40 MLOAD PUSH1 0x20 DUP2 DUP4 SUB SUB DUP2 MSTORE SWAP1 PUSH1 0x40 MSTORE PUSH32 0x41304FAC00000000000000000000000000000000000000000000000000000000 PUSH28 0xFFFFFFFFFFFFFFFFFFFFFFFFFFFFFFFFFFFFFFFFFFFFFFFFFFFFFFFF NOT AND PUSH1 0x20 DUP3 ADD DUP1 MLOAD PUSH28 0xFFFFFFFFFFFFFFFFFFFFFFFFFFFFFFFFFFFFFFFFFFFFFFFFFFFFFFFF DUP4 DUP2 DUP4 AND OR DUP4 MSTORE POP POP POP POP PUSH2 0x327 JUMP JUMPDEST POP JUMP JUMPDEST PUSH1 0x0 PUSH11 0x636F6E736F6C652E6C6F67 SWAP1 POP PUSH1 0x0 DUP1 DUP4 MLOAD PUSH1 0x20 DUP6 ADD DUP5 GAS STATICCALL POP POP POP JUMP JUMPDEST PUSH2 0x322 DUP4 DUP4 DUP4 PUSH1 0x40 MLOAD PUSH1 0x24 ADD PUSH2 0x2A0 SWAP4 SWAP3 SWAP2 SWAP1 PUSH2 0x50D JUMP JUMPDEST PUSH1 0x40 MLOAD PUSH1 0x20 DUP2 DUP4 SUB SUB DUP2 MSTORE SWAP1 PUSH1 0x40 MSTORE PUSH32 0x2CED7CEF00000000000000000000000000000000000000000000000000000000 PUSH28 0xFFFFFFFFFFFFFFFFFFFFFFFFFFFFFFFFFFFFFFFFFFFFFFFFFFFFFFFF NOT AND PUSH1 0x20 DUP3 ADD DUP1 MLOAD PUSH28 0xFFFFFFFFFFFFFFFFFFFFFFFFFFFFFFFFFFFFFFFFFFFFFFFFFFFFFFFF DUP4 DUP2 DUP4 AND OR DUP4 MSTORE POP POP POP POP PUSH2 0x327 JUMP JUMPDEST POP POP POP JUMP JUMPDEST PUSH2 0x33E DUP2 PUSH2 0x336 PUSH2 0x267 PUSH2 0x341 JUMP JUMPDEST PUSH4 0xFFFFFFFF AND JUMP JUMPDEST POP JUMP JUMPDEST PUSH2 0x34C DUP2 SWAP1 POP SWAP2 SWAP1 POP JUMP JUMPDEST PUSH2 0x354 PUSH2 0x6CE JUMP JUMPDEST JUMP JUMPDEST DUP3 DUP1 SLOAD PUSH2 0x362 SWAP1 PUSH2 0x60D JUMP JUMPDEST SWAP1 PUSH1 0x0 MSTORE PUSH1 0x20 PUSH1 0x0 KECCAK256 SWAP1 PUSH1 0x1F ADD PUSH1 0x20 SWAP1 DIV DUP2 ADD SWAP3 DUP3 PUSH2 0x384 JUMPI PUSH1 0x0 DUP6 SSTORE PUSH2 0x3CB JUMP JUMPDEST DUP3 PUSH1 0x1F LT PUSH2 0x39D JUMPI DUP1 MLOAD PUSH1 0xFF NOT AND DUP4 DUP1 ADD OR DUP6 SSTORE PUSH2 0x3CB JUMP JUMPDEST DUP3 DUP1 ADD PUSH1 0x1 ADD DUP6 SSTORE DUP3 ISZERO PUSH2 0x3CB JUMPI SWAP2 DUP3 ADD JUMPDEST DUP3 DUP2 GT ISZERO PUSH2 0x3CA JUMPI DUP3 MLOAD DUP3 SSTORE SWAP2 PUSH1 0x20 ADD SWAP2 SWAP1 PUSH1 0x1 ADD SWAP1 PUSH2 0x3AF JUMP JUMPDEST JUMPDEST POP SWAP1 POP PUSH2 0x3D8 SWAP2 SWAP1 PUSH2 0x3DC JUMP JUMPDEST POP SWAP1 JUMP JUMPDEST JUMPDEST DUP1 DUP3 GT ISZERO PUSH2 0x3F5 JUMPI PUSH1 0x0 DUP2 PUSH1 0x0 SWAP1 SSTORE POP PUSH1 0x1 ADD PUSH2 0x3DD JUMP JUMPDEST POP SWAP1 JUMP JUMPDEST PUSH1 0x0 PUSH2 0x40C PUSH2 0x407 DUP5 PUSH2 0x57E JUMP JUMPDEST PUSH2 0x559 JUMP JUMPDEST SWAP1 POP DUP3 DUP2 MSTORE PUSH1 0x20 DUP2 ADD DUP5 DUP5 DUP5 ADD GT ISZERO PUSH2 0x428 JUMPI PUSH2 0x427 PUSH2 0x702 JUMP JUMPDEST JUMPDEST PUSH2 0x433 DUP5 DUP3 DUP6 PUSH2 0x5CB JUMP JUMPDEST POP SWAP4 SWAP3 POP POP POP JUMP JUMPDEST PUSH1 0x0 DUP3 PUSH1 0x1F DUP4 ADD SLT PUSH2 0x450 JUMPI PUSH2 0x44F PUSH2 0x6FD JUMP JUMPDEST JUMPDEST DUP2 CALLDATALOAD PUSH2 0x460 DUP5 DUP3 PUSH1 0x20 DUP7 ADD PUSH2 0x3F9 JUMP JUMPDEST SWAP2 POP POP SWAP3 SWAP2 POP POP JUMP JUMPDEST PUSH1 0x0 PUSH1 0x20 DUP3 DUP5 SUB SLT ISZERO PUSH2 0x47F JUMPI PUSH2 0x47E PUSH2 0x70C JUMP JUMPDEST JUMPDEST PUSH1 0x0 DUP3 ADD CALLDATALOAD PUSH8 0xFFFFFFFFFFFFFFFF DUP2 GT ISZERO PUSH2 0x49D JUMPI PUSH2 0x49C PUSH2 0x707 JUMP JUMPDEST JUMPDEST PUSH2 0x4A9 DUP5 DUP3 DUP6 ADD PUSH2 0x43B JUMP JUMPDEST SWAP2 POP POP SWAP3 SWAP2 POP POP JUMP JUMPDEST PUSH1 0x0 PUSH2 0x4BD DUP3 PUSH2 0x5AF JUMP JUMPDEST PUSH2 0x4C7 DUP2 DUP6 PUSH2 0x5BA JUMP JUMPDEST SWAP4 POP PUSH2 0x4D7 DUP2 DUP6 PUSH1 0x20 DUP7 ADD PUSH2 0x5DA JUMP JUMPDEST PUSH2 0x4E0 DUP2 PUSH2 0x711 JUMP JUMPDEST DUP5 ADD SWAP2 POP POP SWAP3 SWAP2 POP POP JUMP JUMPDEST PUSH1 0x0 PUSH1 0x20 DUP3 ADD SWAP1 POP DUP2 DUP2 SUB PUSH1 0x0 DUP4 ADD MSTORE PUSH2 0x505 DUP2 DUP5 PUSH2 0x4B2 JUMP JUMPDEST SWAP1 POP SWAP3 SWAP2 POP POP JUMP JUMPDEST PUSH1 0x0 PUSH1 0x60 DUP3 ADD SWAP1 POP DUP2 DUP2 SUB PUSH1 0x0 DUP4 ADD MSTORE PUSH2 0x527 DUP2 DUP7 PUSH2 0x4B2 JUMP JUMPDEST SWAP1 POP DUP2 DUP2 SUB PUSH1 0x20 DUP4 ADD MSTORE PUSH2 0x53B DUP2 DUP6 PUSH2 0x4B2 JUMP JUMPDEST SWAP1 POP DUP2 DUP2 SUB PUSH1 0x40 DUP4 ADD MSTORE PUSH2 0x54F DUP2 DUP5 PUSH2 0x4B2 JUMP JUMPDEST SWAP1 POP SWAP5 SWAP4 POP POP POP POP JUMP JUMPDEST PUSH1 0x0 PUSH2 0x563 PUSH2 0x574 JUMP JUMPDEST SWAP1 POP PUSH2 0x56F DUP3 DUP3 PUSH2 0x63F JUMP JUMPDEST SWAP2 SWAP1 POP JUMP JUMPDEST PUSH1 0x0 PUSH1 0x40 MLOAD SWAP1 POP SWAP1 JUMP JUMPDEST PUSH1 0x0 PUSH8 0xFFFFFFFFFFFFFFFF DUP3 GT ISZERO PUSH2 0x599 JUMPI PUSH2 0x598 PUSH2 0x69F JUMP JUMPDEST JUMPDEST PUSH2 0x5A2 DUP3 PUSH2 0x711 JUMP JUMPDEST SWAP1 POP PUSH1 0x20 DUP2 ADD SWAP1 POP SWAP2 SWAP1 POP JUMP JUMPDEST PUSH1 0x0 DUP2 MLOAD SWAP1 POP SWAP2 SWAP1 POP JUMP JUMPDEST PUSH1 0x0 DUP3 DUP3 MSTORE PUSH1 0x20 DUP3 ADD SWAP1 POP SWAP3 SWAP2 POP POP JUMP JUMPDEST DUP3 DUP2 DUP4 CALLDATACOPY PUSH1 0x0 DUP4 DUP4 ADD MSTORE POP POP POP JUMP JUMPDEST PUSH1 0x0 JUMPDEST DUP4 DUP2 LT ISZERO PUSH2 0x5F8 JUMPI DUP1 DUP3 ADD MLOAD DUP2 DUP5 ADD MSTORE PUSH1 0x20 DUP2 ADD SWAP1 POP PUSH2 0x5DD JUMP JUMPDEST DUP4 DUP2 GT ISZERO PUSH2 0x607 JUMPI PUSH1 0x0 DUP5 DUP5 ADD MSTORE JUMPDEST POP POP POP POP JUMP JUMPDEST PUSH1 0x0 PUSH1 0x2 DUP3 DIV SWAP1 POP PUSH1 0x1 DUP3 AND DUP1 PUSH2 0x625 JUMPI PUSH1 0x7F DUP3 AND SWAP2 POP JUMPDEST PUSH1 0x20 DUP3 LT DUP2 EQ ISZERO PUSH2 0x639 JUMPI PUSH2 0x638 PUSH2 0x670 JUMP JUMPDEST JUMPDEST POP SWAP2 SWAP1 POP JUMP JUMPDEST PUSH2 0x648 DUP3 PUSH2 0x711 JUMP JUMPDEST DUP2 ADD DUP2 DUP2 LT PUSH8 0xFFFFFFFFFFFFFFFF DUP3 GT OR ISZERO PUSH2 0x667 JUMPI PUSH2 0x666 PUSH2 0x69F JUMP JUMPDEST JUMPDEST DUP1 PUSH1 0x40 MSTORE POP POP POP JUMP JUMPDEST PUSH32 0x4E487B7100000000000000000000000000000000000000000000000000000000 PUSH1 0x0 MSTORE PUSH1 0x22 PUSH1 0x4 MSTORE PUSH1 0x24 PUSH1 0x0 REVERT JUMPDEST PUSH32 0x4E487B7100000000000000000000000000000000000000000000000000000000 PUSH1 0x0 MSTORE PUSH1 0x41 PUSH1 0x4 MSTORE PUSH1 0x24 PUSH1 0x0 REVERT JUMPDEST PUSH32 0x4E487B7100000000000000000000000000000000000000000000000000000000 PUSH1 0x0 MSTORE PUSH1 0x51 PUSH1 0x4 MSTORE PUSH1 0x24 PUSH1 0x0 REVERT JUMPDEST PUSH1 0x0 DUP1 REVERT JUMPDEST PUSH1 0x0 DUP1 REVERT JUMPDEST PUSH1 0x0 DUP1 REVERT JUMPDEST PUSH1 0x0 DUP1 REVERT JUMPDEST PUSH1 0x0 PUSH1 0x1F NOT PUSH1 0x1F DUP4 ADD AND SWAP1 POP SWAP2 SWAP1 POP JUMP INVALID NUMBER PUSH9 0x616E67696E67206865 PUSH13 0x6C6F4D6573736167652066726F PUSH14 0x202725732720746F2027257327A2 PUSH5 0x6970667358 0x22 SLT KECCAK256 0x2C SSTORE 0xC 0x5D CALLCODE DUP15 RETURNDATASIZE PC LOG2 0xB1 PUSH28 0x43A0AE7CB6219C417F2143FC66786495146E41886764736F6C634300 ADDMOD MOD STOP CALLER "},"methodIdentifiers":{"hello()":"19ff1d21","setHello(string)":"435ffe94"}}}}}