{"contracts/Lotto.sol":{"Lotto666":{"abi":[{"inputs":[{"internalType":"address","name":"_usdTokenAddress","type":"address"},{"internalType":"address","name":"_randomGeneratorAddress","type":"address"},{"internalType":"address","name":"_treasuryAddress","type":"address"}],"stateMutability":"nonpayable","type":"constructor"},{"anonymous":false,"inputs":[{"indexed":true,"internalType":"uint256","name":"startTime","type":"uint256"},{"indexed":false,"internalType":"uint256","name":"finalNumber","type":"uint256"},{"indexed":false,"internalType":"uint256","name":"countWinningTickets","type":"uint256"}],"name":"LotteryDrawn","type":"event"},{"anonymous":false,"inputs":[{"indexed":true,"internalType":"uint256","name":"startTime","type":"uint256"}],"name":"LotterySet","type":"event"},{"anonymous":false,"inputs":[{"indexed":true,"internalType":"address","name":"randomGenerator","type":"address"}],"name":"NewRandomGenerator","type":"event"},{"anonymous":false,"inputs":[{"indexed":true,"internalType":"address","name":"treasury","type":"address"}],"name":"NewTreasuryAddress","type":"event"},{"anonymous":false,"inputs":[{"indexed":true,"internalType":"address","name":"previousOwner","type":"address"},{"indexed":true,"internalType":"address","name":"newOwner","type":"address"}],"name":"OwnershipTransferred","type":"event"},{"anonymous":false,"inputs":[{"indexed":true,"internalType":"address","name":"claimer","type":"address"},{"indexed":false,"internalType":"uint256","name":"amount","type":"uint256"}],"name":"TicketsClaim","type":"event"},{"anonymous":false,"inputs":[{"indexed":true,"internalType":"address","name":"buyer","type":"address"},{"indexed":false,"internalType":"uint256","name":"numberTickets","type":"uint256"}],"name":"TicketsPurchase","type":"event"},{"inputs":[{"internalType":"uint224[]","name":"_ticketNumbers","type":"uint224[]"}],"name":"buyTickets","outputs":[],"stateMutability":"nonpayable","type":"function"},{"inputs":[{"internalType":"uint256[]","name":"_ticketIds","type":"uint256[]"}],"name":"claimTickets","outputs":[],"stateMutability":"nonpayable","type":"function"},{"inputs":[],"name":"closeBlockNumber","outputs":[{"internalType":"uint256","name":"","type":"uint256"}],"stateMutability":"view","type":"function"},{"inputs":[],"name":"closeLottery","outputs":[],"stateMutability":"nonpayable","type":"function"},{"inputs":[],"name":"currentTicketId","outputs":[{"internalType":"uint256","name":"","type":"uint256"}],"stateMutability":"view","type":"function"},{"inputs":[],"name":"endRewardTime","outputs":[{"internalType":"uint256","name":"","type":"uint256"}],"stateMutability":"view","type":"function"},{"inputs":[],"name":"endTime","outputs":[{"internalType":"uint256","name":"","type":"uint256"}],"stateMutability":"view","type":"function"},{"inputs":[],"name":"finalNumber","outputs":[{"internalType":"uint256","name":"","type":"uint256"}],"stateMutability":"view","type":"function"},{"inputs":[],"name":"jackpotAmount","outputs":[{"internalType":"uint256","name":"","type":"uint256"}],"stateMutability":"view","type":"function"},{"inputs":[],"name":"lotteryLength","outputs":[{"internalType":"uint256","name":"","type":"uint256"}],"stateMutability":"view","type":"function"},{"inputs":[],"name":"owner","outputs":[{"internalType":"address","name":"","type":"address"}],"stateMutability":"view","type":"function"},{"inputs":[],"name":"randomGenerator","outputs":[{"internalType":"contract IRandomNumberGenerator","name":"","type":"address"}],"stateMutability":"view","type":"function"},{"inputs":[],"name":"renounceOwnership","outputs":[],"stateMutability":"nonpayable","type":"function"},{"inputs":[{"internalType":"uint256","name":"seedHash","type":"uint256"}],"name":"requestRandomness","outputs":[],"stateMutability":"nonpayable","type":"function"},{"inputs":[],"name":"requestRandomnessBlockNumber","outputs":[{"internalType":"uint256","name":"","type":"uint256"}],"stateMutability":"view","type":"function"},{"inputs":[{"internalType":"uint256","name":"_startTime","type":"uint256"},{"internalType":"uint256","name":"_endTime","type":"uint256"}],"name":"resetForNewLottery","outputs":[],"stateMutability":"nonpayable","type":"function"},{"inputs":[{"internalType":"uint256","name":"seed","type":"uint256"}],"name":"revealRandomness","outputs":[],"stateMutability":"nonpayable","type":"function"},{"inputs":[],"name":"rewardingLength","outputs":[{"internalType":"uint256","name":"","type":"uint256"}],"stateMutability":"view","type":"function"},{"inputs":[{"internalType":"uint256","name":"","type":"uint256"}],"name":"rewardsBreakdown","outputs":[{"internalType":"uint256","name":"","type":"uint256"}],"stateMutability":"view","type":"function"},{"inputs":[{"internalType":"uint256","name":"","type":"uint256"}],"name":"rewardsForBracket","outputs":[{"internalType":"uint256","name":"","type":"uint256"}],"stateMutability":"view","type":"function"},{"inputs":[{"internalType":"uint256","name":"_endRewardTime","type":"uint256"}],"name":"setEndRewardTime","outputs":[],"stateMutability":"nonpayable","type":"function"},{"inputs":[{"internalType":"uint256","name":"_endTime","type":"uint256"}],"name":"setEndTime","outputs":[],"stateMutability":"nonpayable","type":"function"},{"inputs":[{"internalType":"address","name":"_randomGeneratorAddress","type":"address"}],"name":"setRandomGenerator","outputs":[],"stateMutability":"nonpayable","type":"function"},{"inputs":[{"internalType":"uint256[6]","name":"_rewardsBreakdown","type":"uint256[6]"}],"name":"setRewardsBreakdown","outputs":[],"stateMutability":"nonpayable","type":"function"},{"inputs":[{"internalType":"uint256","name":"_startTime","type":"uint256"}],"name":"setStartTime","outputs":[],"stateMutability":"nonpayable","type":"function"},{"inputs":[{"internalType":"uint256","name":"_ticketPrice","type":"uint256"}],"name":"setTicketPrice","outputs":[],"stateMutability":"nonpayable","type":"function"},{"inputs":[{"internalType":"address","name":"_treasuryAddress","type":"address"}],"name":"setTreasuryAddresses","outputs":[],"stateMutability":"nonpayable","type":"function"},{"inputs":[{"internalType":"uint256","name":"_treasuryFee","type":"uint256"}],"name":"setTreasuryFee","outputs":[],"stateMutability":"nonpayable","type":"function"},{"inputs":[{"internalType":"address","name":"_usdTokenAddress","type":"address"}],"name":"setUSDToken","outputs":[],"stateMutability":"nonpayable","type":"function"},{"inputs":[],"name":"startLottery","outputs":[],"stateMutability":"nonpayable","type":"function"},{"inputs":[],"name":"startTime","outputs":[{"internalType":"uint256","name":"","type":"uint256"}],"stateMutability":"view","type":"function"},{"inputs":[],"name":"status","outputs":[{"internalType":"enum Lotto666.Status","name":"","type":"uint8"}],"stateMutability":"view","type":"function"},{"inputs":[{"internalType":"uint256","name":"randomNumber","type":"uint256"}],"name":"ticketNumber","outputs":[{"internalType":"uint256","name":"","type":"uint256"}],"stateMutability":"pure","type":"function"},{"inputs":[],"name":"ticketPrice","outputs":[{"internalType":"uint256","name":"","type":"uint256"}],"stateMutability":"view","type":"function"},{"inputs":[{"internalType":"address","name":"newOwner","type":"address"}],"name":"transferOwnership","outputs":[],"stateMutability":"nonpayable","type":"function"},{"inputs":[],"name":"treasuryAddress","outputs":[{"internalType":"address","name":"","type":"address"}],"stateMutability":"view","type":"function"},{"inputs":[],"name":"treasuryFee","outputs":[{"internalType":"uint256","name":"","type":"uint256"}],"stateMutability":"view","type":"function"},{"inputs":[],"name":"usdToken","outputs":[{"internalType":"contract IERC20","name":"","type":"address"}],"stateMutability":"view","type":"function"},{"inputs":[],"name":"viewResult","outputs":[{"internalType":"uint32[]","name":"","type":"uint32[]"}],"stateMutability":"view","type":"function"},{"inputs":[{"internalType":"uint256","name":"ticketId","type":"uint256"}],"name":"viewTicket","outputs":[{"internalType":"uint32[]","name":"","type":"uint32[]"},{"internalType":"uint32","name":"","type":"uint32"},{"internalType":"address","name":"","type":"address"}],"stateMutability":"view","type":"function"},{"inputs":[{"internalType":"uint256","name":"number","type":"uint256"}],"name":"viewTicketNumber","outputs":[{"internalType":"uint32[]","name":"","type":"uint32[]"}],"stateMutability":"pure","type":"function"}],"evm":{"bytecode":{"linkReferences":{},"object":"60806040526001600255671bc16d674ec800006004556000600755600060085560006009556000600b5562069780600c5562026ac0600d556000600e60006101000a81548160ff0219169083600381111562000060576200005f6200041f565b5b02179055506040518060c00160405280600060ff168152602001600f60ff168152602001600f60ff168152602001600f60ff168152602001600f60ff168152602001602860ff168152506012906006620000bc9291906200030f565b506040518060c00160405280600060ff168152602001600060ff168152602001600060ff168152602001600060ff168152602001600060ff168152602001600060ff168152506018906006620001149291906200030f565b506000601e553480156200012757600080fd5b5060405162004ecf38038062004ecf83398181016040528101906200014d91906200038f565b600160008190555062000175620001696200024160201b60201c565b6200024960201b60201c565b82600560006101000a81548173ffffffffffffffffffffffffffffffffffffffff021916908373ffffffffffffffffffffffffffffffffffffffff16021790555081600660006101000a81548173ffffffffffffffffffffffffffffffffffffffff021916908373ffffffffffffffffffffffffffffffffffffffff16021790555080600360006101000a81548173ffffffffffffffffffffffffffffffffffffffff021916908373ffffffffffffffffffffffffffffffffffffffff1602179055505050506200046d565b600033905090565b6000600160009054906101000a900473ffffffffffffffffffffffffffffffffffffffff16905081600160006101000a81548173ffffffffffffffffffffffffffffffffffffffff021916908373ffffffffffffffffffffffffffffffffffffffff1602179055508173ffffffffffffffffffffffffffffffffffffffff168173ffffffffffffffffffffffffffffffffffffffff167f8be0079c531659141344cd1fd0a4f28419497f9722a3daafe3b4186f6b6457e060405160405180910390a35050565b826006810192821562000346579160200282015b8281111562000345578251829060ff1690559160200191906001019062000323565b5b50905062000355919062000359565b5090565b5b80821115620003745760008160009055506001016200035a565b5090565b600081519050620003898162000453565b92915050565b600080600060608486031215620003ab57620003aa6200044e565b5b6000620003bb8682870162000378565b9350506020620003ce8682870162000378565b9250506040620003e18682870162000378565b9150509250925092565b6000620003f882620003ff565b9050919050565b600073ffffffffffffffffffffffffffffffffffffffff82169050919050565b7f4e487b7100000000000000000000000000000000000000000000000000000000600052602160045260246000fd5b600080fd5b6200045e81620003eb565b81146200046a57600080fd5b50565b614a52806200047d6000396000f3fe608060405234801561001057600080fd5b50600436106102535760003560e01c80636fd0981611610146578063c5f956af116100c3578063dcbad90d11610087578063dcbad90d1461067a578063e76a052614610698578063e94f6955146106b4578063ec573d1c146106d2578063f2fde38b146106ee578063f897a22b1461070a57610253565b8063c5f956af146105e8578063cc32d17614610606578063ccb98ffc14610624578063d75cd44414610640578063dae58da81461065c57610253565b806388c618551161010a57806388c61855146105425780638da5cb5b1461055e57806397ff1cac1461057c578063b1eac37e146105ac578063c079fead146105ca57610253565b80636fd09816146104d8578063715018a6146104e25780637363ae1f146104ec57806377e741c71461050857806378e979251461052457610253565b80633b05cb2f116101d45780634bc19fee116101985780634bc19fee146104345780635fea10c614610450578063686465b81461046c57806368f5f2b01461048a5780636b9a7d01146104a657610253565b80633b05cb2f1461038e5780633cff0380146103be5780633e0a322d146103dc57806342043170146103f857806349c01d3f1461041657610253565b80631d0769ca1161021b5780631d0769ca146102ea578063200d2ed21461031a578063218fe3a5146103385780633197cbb614610354578063358792471461037257610253565b806302a24770146102585780631209b1f6146102765780631598165014610294578063160344e2146102b05780631ca1502f146102ba575b600080fd5b610260610728565b60405161026d9190613d3f565b60405180910390f35b61027e61072e565b60405161028b9190613d3f565b60405180910390f35b6102ae60048036038101906102a99190613260565b610734565b005b6102b8610746565b005b6102d460048036038101906102cf9190613260565b6108e5565b6040516102e191906138cc565b60405180910390f35b61030460048036038101906102ff9190613260565b6109b4565b6040516103119190613d3f565b60405180910390f35b6103226109cf565b60405161032f9190613962565b60405180910390f35b610352600480360381019061034d9190613112565b6109e2565b005b61035c610a2e565b6040516103699190613d3f565b60405180910390f35b61038c6004803603810190610387919061313f565b610a34565b005b6103a860048036038101906103a39190613260565b610f50565b6040516103b59190613d3f565b60405180910390f35b6103c66110e8565b6040516103d391906138cc565b60405180910390f35b6103f660048036038101906103f19190613260565b61116f565b005b610400611181565b60405161040d9190613d3f565b60405180910390f35b61041e611187565b60405161042b9190613d3f565b60405180910390f35b61044e60048036038101906104499190613112565b61118d565b005b61046a600480360381019061046591906132ba565b61121c565b005b610474611497565b6040516104819190613d3f565b60405180910390f35b6104a4600480360381019061049f919061318c565b61149d565b005b6104c060048036038101906104bb9190613260565b611530565b6040516104cf939291906138ee565b60405180910390f35b6104e06116c8565b005b6104ea61186e565b005b61050660048036038101906105019190613260565b611882565b005b610522600480360381019061051d9190613260565b611ad7565b005b61052c611ae9565b6040516105399190613d3f565b60405180910390f35b61055c600480360381019061055791906131b9565b611aef565b005b610566611f7c565b6040516105739190613851565b60405180910390f35b61059660048036038101906105919190613260565b611fa6565b6040516105a39190613d3f565b60405180910390f35b6105b4611fc1565b6040516105c19190613d3f565b60405180910390f35b6105d2611fc7565b6040516105df9190613d3f565b60405180910390f35b6105f0611fcd565b6040516105fd9190613851565b60405180910390f35b61060e611ff3565b60405161061b9190613d3f565b60405180910390f35b61063e60048036038101906106399190613260565b611ff9565b005b61065a60048036038101906106559190613260565b61200b565b005b6106646122c0565b6040516106719190613d3f565b60405180910390f35b6106826122c6565b60405161068f9190613947565b60405180910390f35b6106b260048036038101906106ad9190613260565b6122ec565b005b6106bc6122fe565b6040516106c99190613d3f565b60405180910390f35b6106ec60048036038101906106e79190613112565b612304565b005b61070860048036038101906107039190613112565b612393565b005b610712612417565b60405161071f919061392c565b60405180910390f35b60115481565b60045481565b61073c61243d565b8060048190555050565b61074f336124bb565b1561078f576040517f08c379a000000000000000000000000000000000000000000000000000000000815260040161078690613a5f565b60405180910390fd5b3273ffffffffffffffffffffffffffffffffffffffff163373ffffffffffffffffffffffffffffffffffffffff16146107fd576040517f08c379a00000000000000000000000000000000000000000000000000000000081526004016107f490613b9f565b60405180910390fd5b600060038111156108115761081061423c565b5b600e60009054906101000a900460ff1660038111156108335761083261423c565b5b14610873576040517f08c379a000000000000000000000000000000000000000000000000000000000815260040161086a90613a9f565b60405180910390fd5b42600f5411156108b8576040517f08c379a00000000000000000000000000000000000000000000000000000000081526004016108af9061399f565b60405180910390fd5b6001600e60006101000a81548160ff021916908360038111156108de576108dd61423c565b5b0217905550565b60606000600667ffffffffffffffff8111156109045761090361429a565b5b6040519080825280602002602001820160405280156109325781602001602082028036833780820191505090505b50905060005b60068110156109aa57600160428561095091906141ad565b61095a9190613e8f565b82828151811061096d5761096c61426b565b5b602002602001019063ffffffff16908163ffffffff1681525050610100846109959190613ec9565b935080806109a290614137565b915050610938565b5080915050919050565b601881600681106109c457600080fd5b016000915090505481565b600e60009054906101000a900460ff1681565b6109ea61243d565b80600560006101000a81548173ffffffffffffffffffffffffffffffffffffffff021916908373ffffffffffffffffffffffffffffffffffffffff16021790555050565b60105481565b610a3d336124bb565b15610a7d576040517f08c379a0000000000000000000000000000000000000000000000000000000008152600401610a7490613a5f565b60405180910390fd5b3273ffffffffffffffffffffffffffffffffffffffff163373ffffffffffffffffffffffffffffffffffffffff1614610aeb576040517f08c379a0000000000000000000000000000000000000000000000000000000008152600401610ae290613b9f565b60405180910390fd5b610af36124ce565b60016003811115610b0757610b0661423c565b5b600e60009054906101000a900460ff166003811115610b2957610b2861423c565b5b14610b69576040517f08c379a0000000000000000000000000000000000000000000000000000000008152600401610b6090613c1f565b60405180910390fd5b6010544210610bad576040517f08c379a0000000000000000000000000000000000000000000000000000000008152600401610ba490613bff565b60405180910390fd5b60008282905011610bf3576040517f08c379a0000000000000000000000000000000000000000000000000000000008152600401610bea90613b7f565b60405180910390fd5b60045482829050610c049190613efa565b600560009054906101000a900473ffffffffffffffffffffffffffffffffffffffff1673ffffffffffffffffffffffffffffffffffffffff166370a08231336040518263ffffffff1660e01b8152600401610c5f9190613851565b60206040518083038186803b158015610c7757600080fd5b505afa158015610c8b573d6000803e3d6000fd5b505050506040513d601f19601f82011682018060405250810190610caf919061328d565b1015610cf0576040517f08c379a0000000000000000000000000000000000000000000000000000000008152600401610ce790613b5f565b60405180910390fd5b610d6333600360009054906101000a900473ffffffffffffffffffffffffffffffffffffffff16600454600560009054906101000a900473ffffffffffffffffffffffffffffffffffffffff1673ffffffffffffffffffffffffffffffffffffffff1661251e909392919063ffffffff16565b60005b82829050811015610ef2576040518060600160405280848484818110610d8f57610d8e61426b565b5b9050602002016020810190610da49190613233565b7bffffffffffffffffffffffffffffffffffffffffffffffffffffffff168152602001600063ffffffff1681526020013373ffffffffffffffffffffffffffffffffffffffff16815250600a6000600b6000815480929190610e0590614137565b91905055815260200190815260200160002060008201518160000160006101000a8154817bffffffffffffffffffffffffffffffffffffffffffffffffffffffff02191690837bffffffffffffffffffffffffffffffffffffffffffffffffffffffff160217905550602082015181600001601c6101000a81548163ffffffff021916908363ffffffff16021790555060408201518160010160006101000a81548173ffffffffffffffffffffffffffffffffffffffff021916908373ffffffffffffffffffffffffffffffffffffffff1602179055509050508080610eea90614137565b915050610d66565b503373ffffffffffffffffffffffffffffffffffffffff167fe23b461eeed3050b94c37e728bd38158dbcd40bb83994f44bfb639678c6a102983839050604051610f3c9190613d3f565b60405180910390a2610f4c6125a7565b5050565b600080604267ffffffffffffffff811115610f6e57610f6d61429a565b5b604051908082528060200260200182016040528015610f9c5781602001602082028036833780820191505090505b5090506000805b6006811015611062576042816042610fbb9190613f54565b86610fc691906141ad565b83610fd19190613e39565b610fdb91906141ad565b915061010085610feb9190613ec9565b94505b60008383815181106110035761100261426b565b5b602002602001015160ff161461102657818061101e90614137565b925050610fee565b600183838151811061103b5761103a61426b565b5b602002602001019060ff16908160ff1681525050808061105a90614137565b915050610fa3565b506000905060006041905060005b60068110156110dc57600184838151811061108e5761108d61426b565b5b602002602001015160ff1614156110c95781610100846110ae9190613efa565b6110b89190613e39565b925080806110c590614137565b9150505b81806110d4906140dc565b925050611070565b50819350505050919050565b60606003808111156110fd576110fc61423c565b5b600e60009054906101000a900460ff16600381111561111f5761111e61423c565b5b1461115f576040517f08c379a000000000000000000000000000000000000000000000000000000000815260040161115690613b1f565b60405180910390fd5b61116a601e546108e5565b905090565b61117761243d565b80600f8190555050565b600d5481565b600c5481565b61119561243d565b80600660006101000a81548173ffffffffffffffffffffffffffffffffffffffff021916908373ffffffffffffffffffffffffffffffffffffffff1602179055508073ffffffffffffffffffffffffffffffffffffffff167f383f8cb39dfa7c3fb901a460dd449ea924868f0a92ff03da64740fffa5f1de6260405160405180910390a250565b61122461243d565b6003808111156112375761123661423c565b5b600e60009054906101000a900460ff1660038111156112595761125861423c565b5b14156112a45760115442116112a3576040517f08c379a000000000000000000000000000000000000000000000000000000000815260040161129a90613c9f565b60405180910390fd5b5b6000821415806112b5575060008114155b6112f4576040517f08c379a00000000000000000000000000000000000000000000000000000000081526004016112eb906139ff565b60405180910390fd5b6000811461130d57600c548161130a9190613f54565b91505b42821161134f576040517f08c379a000000000000000000000000000000000000000000000000000000000815260040161134690613aff565b60405180910390fd5b6000600e60006101000a81548160ff021916908360038111156113755761137461423c565b5b021790555081600f81905550600c548261138f9190613e39565b601081905550600d546010546113a59190613e39565b6011819055506000600b81905550600560009054906101000a900473ffffffffffffffffffffffffffffffffffffffff1673ffffffffffffffffffffffffffffffffffffffff166370a08231306040518263ffffffff1660e01b815260040161140e9190613851565b60206040518083038186803b15801561142657600080fd5b505afa15801561143a573d6000803e3d6000fd5b505050506040513d601f19601f8201168201806040525081019061145e919061328d565b600981905550600f547f931b31da73fd887ac2b49ca80ca85bcd1a4c2803b58f53d7d9fcc85ebec3b9fa60405160405180910390a25050565b600b5481565b6114a561243d565b600060038111156114b9576114b861423c565b5b600e60009054906101000a900460ff1660038111156114db576114da61423c565b5b1461151b576040517f08c379a000000000000000000000000000000000000000000000000000000000815260040161151290613a7f565b60405180910390fd5b80601290600661152c929190612f0e565b5050565b6060600080600b548410611579576040517f08c379a0000000000000000000000000000000000000000000000000000000008152600401611570906139df565b60405180910390fd5b6000600a60008681526020019081526020016000206040518060600160405290816000820160009054906101000a90047bffffffffffffffffffffffffffffffffffffffffffffffffffffffff167bffffffffffffffffffffffffffffffffffffffffffffffffffffffff167bffffffffffffffffffffffffffffffffffffffffffffffffffffffff16815260200160008201601c9054906101000a900463ffffffff1663ffffffff1663ffffffff1681526020016001820160009054906101000a900473ffffffffffffffffffffffffffffffffffffffff1673ffffffffffffffffffffffffffffffffffffffff1673ffffffffffffffffffffffffffffffffffffffff168152505090506116b081600001517bffffffffffffffffffffffffffffffffffffffffffffffffffffffff166108e5565b81602001518260400151935093509350509193909250565b6116d1336124bb565b15611711576040517f08c379a000000000000000000000000000000000000000000000000000000000815260040161170890613a5f565b60405180910390fd5b3273ffffffffffffffffffffffffffffffffffffffff163373ffffffffffffffffffffffffffffffffffffffff161461177f576040517f08c379a000000000000000000000000000000000000000000000000000000000815260040161177690613b9f565b60405180910390fd5b4260105411156117c4576040517f08c379a00000000000000000000000000000000000000000000000000000000081526004016117bb90613c5f565b60405180910390fd5b600160038111156117d8576117d761423c565b5b600e60009054906101000a900460ff1660038111156117fa576117f961423c565b5b1461183a576040517f08c379a000000000000000000000000000000000000000000000000000000000815260040161183190613c1f565b60405180910390fd5b6002600e60006101000a81548160ff021916908360038111156118605761185f61423c565b5b021790555043600781905550565b61187661243d565b61188060006125b1565b565b61188b336124bb565b156118cb576040517f08c379a00000000000000000000000000000000000000000000000000000000081526004016118c290613a5f565b60405180910390fd5b3273ffffffffffffffffffffffffffffffffffffffff163373ffffffffffffffffffffffffffffffffffffffff1614611939576040517f08c379a000000000000000000000000000000000000000000000000000000000815260040161193090613b9f565b60405180910390fd5b61194161243d565b600260038111156119555761195461423c565b5b600e60009054906101000a900460ff1660038111156119775761197661423c565b5b146119b7576040517f08c379a00000000000000000000000000000000000000000000000000000000081526004016119ae90613cff565b60405180910390fd5b42601154116119fb576040517f08c379a00000000000000000000000000000000000000000000000000000000081526004016119f290613a3f565b60405180910390fd5b600754431415611a40576040517f08c379a0000000000000000000000000000000000000000000000000000000008152600401611a37906139bf565b60405180910390fd5b43600881905550600660009054906101000a900473ffffffffffffffffffffffffffffffffffffffff1673ffffffffffffffffffffffffffffffffffffffff1663ce0d44a5826040518263ffffffff1660e01b8152600401611aa29190613d3f565b600060405180830381600087803b158015611abc57600080fd5b505af1158015611ad0573d6000803e3d6000fd5b5050505050565b611adf61243d565b8060028190555050565b600f5481565b611af8336124bb565b15611b38576040517f08c379a0000000000000000000000000000000000000000000000000000000008152600401611b2f90613a5f565b60405180910390fd5b3273ffffffffffffffffffffffffffffffffffffffff163373ffffffffffffffffffffffffffffffffffffffff1614611ba6576040517f08c379a0000000000000000000000000000000000000000000000000000000008152600401611b9d90613b9f565b60405180910390fd5b611bae6124ce565b600380811115611bc157611bc061423c565b5b600e60009054906101000a900460ff166003811115611be357611be261423c565b5b14611c23576040517f08c379a0000000000000000000000000000000000000000000000000000000008152600401611c1a90613b1f565b60405180910390fd5b60008282905011611c69576040517f08c379a0000000000000000000000000000000000000000000000000000000008152600401611c6090613c3f565b60405180910390fd5b6011544210611cad576040517f08c379a0000000000000000000000000000000000000000000000000000000008152600401611ca490613abf565b60405180910390fd5b6000805b83839050811015611e90573373ffffffffffffffffffffffffffffffffffffffff16600a6000868685818110611cea57611ce961426b565b5b90506020020135815260200190815260200160002060010160009054906101000a900473ffffffffffffffffffffffffffffffffffffffff1673ffffffffffffffffffffffffffffffffffffffff1614611d79576040517f08c379a0000000000000000000000000000000000000000000000000000000008152600401611d7090613d1f565b60405180910390fd5b6018600a6000868685818110611d9257611d9161426b565b5b905060200201358152602001908152602001600020600001601c9054906101000a900463ffffffff1663ffffffff1660068110611dd257611dd161426b565b5b015482611ddf9190613e39565b9150600a6000858584818110611df857611df761426b565b5b905060200201358152602001908152602001600020600080820160006101000a8154907bffffffffffffffffffffffffffffffffffffffffffffffffffffffff021916905560008201601c6101000a81549063ffffffff02191690556001820160006101000a81549073ffffffffffffffffffffffffffffffffffffffff021916905550508080611e8890614137565b915050611cb1565b5060008111611ed4576040517f08c379a0000000000000000000000000000000000000000000000000000000008152600401611ecb90613bbf565b60405180910390fd5b611f213382600560009054906101000a900473ffffffffffffffffffffffffffffffffffffffff1673ffffffffffffffffffffffffffffffffffffffff166126779092919063ffffffff16565b3373ffffffffffffffffffffffffffffffffffffffff167fc471ef95ea81f4f24bb1a51ba0bd8904858507d29dfdbde1882413b20fcc36ee82604051611f679190613d3f565b60405180910390a250611f786125a7565b5050565b6000600160009054906101000a900473ffffffffffffffffffffffffffffffffffffffff16905090565b60128160068110611fb657600080fd5b016000915090505481565b60095481565b60075481565b600360009054906101000a900473ffffffffffffffffffffffffffffffffffffffff1681565b60025481565b61200161243d565b8060108190555050565b612014336124bb565b15612054576040517f08c379a000000000000000000000000000000000000000000000000000000000815260040161204b90613a5f565b60405180910390fd5b3273ffffffffffffffffffffffffffffffffffffffff163373ffffffffffffffffffffffffffffffffffffffff16146120c2576040517f08c379a00000000000000000000000000000000000000000000000000000000081526004016120b990613b9f565b60405180910390fd5b6120ca61243d565b600260038111156120de576120dd61423c565b5b600e60009054906101000a900460ff166003811115612100576120ff61423c565b5b14612140576040517f08c379a000000000000000000000000000000000000000000000000000000000815260040161213790613cff565b60405180910390fd5b4260115411612184576040517f08c379a000000000000000000000000000000000000000000000000000000000815260040161217b90613a3f565b60405180910390fd5b6008544314156121c9576040517f08c379a00000000000000000000000000000000000000000000000000000000081526004016121c090613b3f565b60405180910390fd5b6003600e60006101000a81548160ff021916908360038111156121ef576121ee61423c565b5b02179055506000600660009054906101000a900473ffffffffffffffffffffffffffffffffffffffff1673ffffffffffffffffffffffffffffffffffffffff166389c16e08836040518263ffffffff1660e01b81526004016122519190613d3f565b602060405180830381600087803b15801561226b57600080fd5b505af115801561227f573d6000803e3d6000fd5b505050506040513d601f19601f820116820180604052508101906122a3919061328d565b90506122ae81610f50565b601e819055506122bc6126fd565b5050565b601e5481565b600660009054906101000a900473ffffffffffffffffffffffffffffffffffffffff1681565b6122f461243d565b8060118190555050565b60085481565b61230c61243d565b80600360006101000a81548173ffffffffffffffffffffffffffffffffffffffff021916908373ffffffffffffffffffffffffffffffffffffffff1602179055508073ffffffffffffffffffffffffffffffffffffffff167f8b4531436af204a864adc47c345e10cb5c4df79165aa0cb85fc45ac5b551517b60405160405180910390a250565b61239b61243d565b600073ffffffffffffffffffffffffffffffffffffffff168173ffffffffffffffffffffffffffffffffffffffff16141561240b576040517f08c379a000000000000000000000000000000000000000000000000000000000815260040161240290613a1f565b60405180910390fd5b612414816125b1565b50565b600560009054906101000a900473ffffffffffffffffffffffffffffffffffffffff1681565b612445612c70565b73ffffffffffffffffffffffffffffffffffffffff16612463611f7c565b73ffffffffffffffffffffffffffffffffffffffff16146124b9576040517f08c379a00000000000000000000000000000000000000000000000000000000081526004016124b090613bdf565b60405180910390fd5b565b600080823b905060008111915050919050565b60026000541415612514576040517f08c379a000000000000000000000000000000000000000000000000000000000815260040161250b90613cdf565b60405180910390fd5b6002600081905550565b6125a1846323b872dd60e01b85858560405160240161253f9392919061386c565b604051602081830303815290604052907bffffffffffffffffffffffffffffffffffffffffffffffffffffffff19166020820180517bffffffffffffffffffffffffffffffffffffffffffffffffffffffff8381831617835250505050612c78565b50505050565b6001600081905550565b6000600160009054906101000a900473ffffffffffffffffffffffffffffffffffffffff16905081600160006101000a81548173ffffffffffffffffffffffffffffffffffffffff021916908373ffffffffffffffffffffffffffffffffffffffff1602179055508173ffffffffffffffffffffffffffffffffffffffff168173ffffffffffffffffffffffffffffffffffffffff167f8be0079c531659141344cd1fd0a4f28419497f9722a3daafe3b4186f6b6457e060405160405180910390a35050565b6126f88363a9059cbb60e01b84846040516024016126969291906138a3565b604051602081830303815290604052907bffffffffffffffffffffffffffffffffffffffffffffffffffffffff19166020820180517bffffffffffffffffffffffffffffffffffffffffffffffffffffffff8381831617835250505050612c78565b505050565b6000600667ffffffffffffffff81111561271a5761271961429a565b5b6040519080825280602002602001820160405280156127485781602001602082028036833780820191505090505b50905060005b600b54811015612951576000600a600083815260200190815260200160002090506000601e54905060008260000160009054906101000a90047bffffffffffffffffffffffffffffffffffffffffffffffffffffffff167bffffffffffffffffffffffffffffffffffffffffffffffffffffffff1690506000805b6006811015612834576042836127df91906141ad565b6042856127ec91906141ad565b14156128015781806127fd90614180565b9250505b6101008461280f9190613ec9565b93506101008361281f9190613ec9565b9250808061282c90614137565b9150506127c9565b5060008163ffffffff1611156128b6576001816128519190613f88565b84600001601c6101000a81548163ffffffff021916908363ffffffff160217905550856001826128819190613f88565b63ffffffff16815181106128985761289761426b565b5b6020026020010180518091906128ad90614137565b8152505061293a565b600a6000868152602001908152602001600020600080820160006101000a8154907bffffffffffffffffffffffffffffffffffffffffffffffffffffffff021916905560008201601c6101000a81549063ffffffff02191690556001820160006101000a81549073ffffffffffffffffffffffffffffffffffffffff021916905550505b50505050808061294990614137565b91505061274e565b506000600954600560009054906101000a900473ffffffffffffffffffffffffffffffffffffffff1673ffffffffffffffffffffffffffffffffffffffff166370a08231306040518263ffffffff1660e01b81526004016129b29190613851565b60206040518083038186803b1580156129ca57600080fd5b505afa1580156129de573d6000803e3d6000fd5b505050506040513d601f19601f82011682018060405250810190612a02919061328d565b612a0c9190613f54565b90506000606460025483612a209190613efa565b612a2a9190613ec9565b9050600560009054906101000a900473ffffffffffffffffffffffffffffffffffffffff1673ffffffffffffffffffffffffffffffffffffffff1663a9059cbb600360009054906101000a900473ffffffffffffffffffffffffffffffffffffffff16836040518363ffffffff1660e01b8152600401612aab9291906138a3565b602060405180830381600087803b158015612ac557600080fd5b505af1158015612ad9573d6000803e3d6000fd5b505050506040513d601f19601f82011682018060405250810190612afd9190613206565b508082612b0a9190613f54565b915060005b6005811015612b9657838181518110612b2b57612b2a61426b565b5b6020026020010151606460128360068110612b4957612b4861426b565b5b015485612b569190613efa565b612b609190613ec9565b612b6a9190613ec9565b60188260068110612b7e57612b7d61426b565b5b01819055508080612b8e90614137565b915050612b0f565b5082600581518110612bab57612baa61426b565b5b602002602001015160646012600560068110612bca57612bc961426b565b5b015484612bd79190613efa565b612be19190613ec9565b600954612bee9190613e39565b612bf89190613ec9565b6018600560068110612c0d57612c0c61426b565b5b0181905550600f547f9d53f2b115229c0fb6c01a6dcc67fcc582e8eea41b8d0318191c52190c9d3de6601e5485600581518110612c4d57612c4c61426b565b5b6020026020010151604051612c63929190613d5a565b60405180910390a2505050565b600033905090565b6000612cda826040518060400160405280602081526020017f5361666545524332303a206c6f772d6c6576656c2063616c6c206661696c65648152508573ffffffffffffffffffffffffffffffffffffffff16612d409092919063ffffffff16565b9050600081511480612cfc575080806020019051810190612cfb9190613206565b5b612d3b576040517f08c379a0000000000000000000000000000000000000000000000000000000008152600401612d3290613cbf565b60405180910390fd5b505050565b6060612d4f8484600085612d58565b90509392505050565b606082471015612d9d576040517f08c379a0000000000000000000000000000000000000000000000000000000008152600401612d9490613adf565b60405180910390fd5b6000808673ffffffffffffffffffffffffffffffffffffffff168587604051612dc6919061383a565b60006040518083038185875af1925050503d8060008114612e03576040519150601f19603f3d011682016040523d82523d6000602084013e612e08565b606091505b5091509150612e1987838387612e25565b92505050949350505050565b60608315612e8857600083511415612e8057612e4085612e9b565b612e7f576040517f08c379a0000000000000000000000000000000000000000000000000000000008152600401612e7690613c7f565b60405180910390fd5b5b829050612e93565b612e928383612ebe565b5b949350505050565b6000808273ffffffffffffffffffffffffffffffffffffffff163b119050919050565b600082511115612ed15781518083602001fd5b806040517f08c379a0000000000000000000000000000000000000000000000000000000008152600401612f05919061397d565b60405180910390fd5b8260068101928215612f3d579160200282015b82811115612f3c578251825591602001919060010190612f21565b5b509050612f4a9190612f4e565b5090565b5b80821115612f67576000816000905550600101612f4f565b5090565b6000612f7e612f7984613da8565b613d83565b90508082856020860282011115612f9857612f976142d3565b5b60005b85811015612fc85781612fae88826130e8565b845260208401935060208301925050600181019050612f9b565b5050509392505050565b600081359050612fe1816149c0565b92915050565b60008083601f840112612ffd57612ffc6142ce565b5b8235905067ffffffffffffffff81111561301a576130196142c9565b5b602083019150836020820283011115613036576130356142d3565b5b9250929050565b600082601f830112613052576130516142ce565b5b600661305f848285612f6b565b91505092915050565b60008083601f84011261307e5761307d6142ce565b5b8235905067ffffffffffffffff81111561309b5761309a6142c9565b5b6020830191508360208202830111156130b7576130b66142d3565b5b9250929050565b6000815190506130cd816149d7565b92915050565b6000813590506130e2816149ee565b92915050565b6000813590506130f781614a05565b92915050565b60008151905061310c81614a05565b92915050565b600060208284031215613128576131276142dd565b5b600061313684828501612fd2565b91505092915050565b60008060208385031215613156576131556142dd565b5b600083013567ffffffffffffffff811115613174576131736142d8565b5b61318085828601612fe7565b92509250509250929050565b600060c082840312156131a2576131a16142dd565b5b60006131b08482850161303d565b91505092915050565b600080602083850312156131d0576131cf6142dd565b5b600083013567ffffffffffffffff8111156131ee576131ed6142d8565b5b6131fa85828601613068565b92509250509250929050565b60006020828403121561321c5761321b6142dd565b5b600061322a848285016130be565b91505092915050565b600060208284031215613249576132486142dd565b5b6000613257848285016130d3565b91505092915050565b600060208284031215613276576132756142dd565b5b6000613284848285016130e8565b91505092915050565b6000602082840312156132a3576132a26142dd565b5b60006132b1848285016130fd565b91505092915050565b600080604083850312156132d1576132d06142dd565b5b60006132df858286016130e8565b92505060206132f0858286016130e8565b9150509250929050565b6000613306838361381c565b60208301905092915050565b61331b81613fbc565b82525050565b600061332c82613dde565b6133368185613e0c565b935061334183613dce565b8060005b8381101561337257815161335988826132fa565b975061336483613dff565b925050600181019050613345565b5085935050505092915050565b600061338a82613de9565b6133948185613e1d565b93506133a48185602086016140a9565b80840191505092915050565b6133b98161404f565b82525050565b6133c881614073565b82525050565b6133d781614097565b82525050565b60006133e882613df4565b6133f28185613e28565b93506134028185602086016140a9565b61340b816142e2565b840191505092915050565b6000613423602583613e28565b915061342e826142f3565b604082019050919050565b6000613446604483613e28565b915061345182614342565b606082019050919050565b6000613469601083613e28565b9150613474826143b7565b602082019050919050565b600061348c602983613e28565b9150613497826143e0565b604082019050919050565b60006134af602683613e28565b91506134ba8261442f565b604082019050919050565b60006134d2602783613e28565b91506134dd8261447e565b604082019050919050565b60006134f5601483613e28565b9150613500826144cd565b602082019050919050565b6000613518601883613e28565b9150613523826144f6565b602082019050919050565b600061353b601783613e28565b91506135468261451f565b602082019050919050565b600061355e602883613e28565b915061356982614548565b604082019050919050565b6000613581602683613e28565b915061358c82614597565b604082019050919050565b60006135a4602783613e28565b91506135af826145e6565b604082019050919050565b60006135c7601583613e28565b91506135d282614635565b602082019050919050565b60006135ea604883613e28565b91506135f58261465e565b606082019050919050565b600061360d601c83613e28565b9150613618826146d3565b602082019050919050565b6000613630601483613e28565b915061363b826146fc565b602082019050919050565b6000613653601a83613e28565b915061365e82614725565b602082019050919050565b6000613676600983613e28565b91506136818261474e565b602082019050919050565b6000613699602083613e28565b91506136a482614777565b602082019050919050565b60006136bc602083613e28565b91506136c7826147a0565b602082019050919050565b60006136df601083613e28565b91506136ea826147c9565b602082019050919050565b6000613702601683613e28565b915061370d826147f2565b602082019050919050565b6000613725602383613e28565b91506137308261481b565b604082019050919050565b6000613748601d83613e28565b91506137538261486a565b602082019050919050565b600061376b602183613e28565b915061377682614893565b604082019050919050565b600061378e602a83613e28565b9150613799826148e2565b604082019050919050565b60006137b1601f83613e28565b91506137bc82614931565b602082019050919050565b60006137d4601283613e28565b91506137df8261495a565b602082019050919050565b60006137f7601b83613e28565b915061380282614983565b602082019050919050565b61381681614035565b82525050565b6138258161403f565b82525050565b6138348161403f565b82525050565b6000613846828461337f565b915081905092915050565b60006020820190506138666000830184613312565b92915050565b60006060820190506138816000830186613312565b61388e6020830185613312565b61389b604083018461380d565b949350505050565b60006040820190506138b86000830185613312565b6138c5602083018461380d565b9392505050565b600060208201905081810360008301526138e68184613321565b905092915050565b600060608201905081810360008301526139088186613321565b9050613917602083018561382b565b6139246040830184613312565b949350505050565b600060208201905061394160008301846133b0565b92915050565b600060208201905061395c60008301846133bf565b92915050565b600060208201905061397760008301846133ce565b92915050565b6000602082019050818103600083015261399781846133dd565b905092915050565b600060208201905081810360008301526139b881613416565b9050919050565b600060208201905081810360008301526139d881613439565b9050919050565b600060208201905081810360008301526139f88161345c565b9050919050565b60006020820190508181036000830152613a188161347f565b9050919050565b60006020820190508181036000830152613a38816134a2565b9050919050565b60006020820190508181036000830152613a58816134c5565b9050919050565b60006020820190508181036000830152613a78816134e8565b9050919050565b60006020820190508181036000830152613a988161350b565b9050919050565b60006020820190508181036000830152613ab88161352e565b9050919050565b60006020820190508181036000830152613ad881613551565b9050919050565b60006020820190508181036000830152613af881613574565b9050919050565b60006020820190508181036000830152613b1881613597565b9050919050565b60006020820190508181036000830152613b38816135ba565b9050919050565b60006020820190508181036000830152613b58816135dd565b9050919050565b60006020820190508181036000830152613b7881613600565b9050919050565b60006020820190508181036000830152613b9881613623565b9050919050565b60006020820190508181036000830152613bb881613646565b9050919050565b60006020820190508181036000830152613bd881613669565b9050919050565b60006020820190508181036000830152613bf88161368c565b9050919050565b60006020820190508181036000830152613c18816136af565b9050919050565b60006020820190508181036000830152613c38816136d2565b9050919050565b60006020820190508181036000830152613c58816136f5565b9050919050565b60006020820190508181036000830152613c7881613718565b9050919050565b60006020820190508181036000830152613c988161373b565b9050919050565b60006020820190508181036000830152613cb88161375e565b9050919050565b60006020820190508181036000830152613cd881613781565b9050919050565b60006020820190508181036000830152613cf8816137a4565b9050919050565b60006020820190508181036000830152613d18816137c7565b9050919050565b60006020820190508181036000830152613d38816137ea565b9050919050565b6000602082019050613d54600083018461380d565b92915050565b6000604082019050613d6f600083018561380d565b613d7c602083018461380d565b9392505050565b6000613d8d613d9e565b9050613d998282614106565b919050565b6000604051905090565b600067ffffffffffffffff821115613dc357613dc261429a565b5b602082029050919050565b6000819050602082019050919050565b600081519050919050565b600081519050919050565b600081519050919050565b6000602082019050919050565b600082825260208201905092915050565b600081905092915050565b600082825260208201905092915050565b6000613e4482614035565b9150613e4f83614035565b9250827fffffffffffffffffffffffffffffffffffffffffffffffffffffffffffffffff03821115613e8457613e836141de565b5b828201905092915050565b6000613e9a8261403f565b9150613ea58361403f565b92508263ffffffff03821115613ebe57613ebd6141de565b5b828201905092915050565b6000613ed482614035565b9150613edf83614035565b925082613eef57613eee61420d565b5b828204905092915050565b6000613f0582614035565b9150613f1083614035565b9250817fffffffffffffffffffffffffffffffffffffffffffffffffffffffffffffffff0483118215151615613f4957613f486141de565b5b828202905092915050565b6000613f5f82614035565b9150613f6a83614035565b925082821015613f7d57613f7c6141de565b5b828203905092915050565b6000613f938261403f565b9150613f9e8361403f565b925082821015613fb157613fb06141de565b5b828203905092915050565b6000613fc782613fed565b9050919050565b60008115159050919050565b6000819050613fe8826149ac565b919050565b600073ffffffffffffffffffffffffffffffffffffffff82169050919050565b60007bffffffffffffffffffffffffffffffffffffffffffffffffffffffff82169050919050565b6000819050919050565b600063ffffffff82169050919050565b600061405a82614061565b9050919050565b600061406c82613fed565b9050919050565b600061407e82614085565b9050919050565b600061409082613fed565b9050919050565b60006140a282613fda565b9050919050565b60005b838110156140c75780820151818401526020810190506140ac565b838111156140d6576000848401525b50505050565b60006140e782614035565b915060008214156140fb576140fa6141de565b5b600182039050919050565b61410f826142e2565b810181811067ffffffffffffffff8211171561412e5761412d61429a565b5b80604052505050565b600061414282614035565b91507fffffffffffffffffffffffffffffffffffffffffffffffffffffffffffffffff821415614175576141746141de565b5b600182019050919050565b600061418b8261403f565b915063ffffffff8214156141a2576141a16141de565b5b600182019050919050565b60006141b882614035565b91506141c383614035565b9250826141d3576141d261420d565b5b828206905092915050565b7f4e487b7100000000000000000000000000000000000000000000000000000000600052601160045260246000fd5b7f4e487b7100000000000000000000000000000000000000000000000000000000600052601260045260246000fd5b7f4e487b7100000000000000000000000000000000000000000000000000000000600052602160045260246000fd5b7f4e487b7100000000000000000000000000000000000000000000000000000000600052603260045260246000fd5b7f4e487b7100000000000000000000000000000000000000000000000000000000600052604160045260246000fd5b600080fd5b600080fd5b600080fd5b600080fd5b600080fd5b6000601f19601f8301169050919050565b7f43616e6e6f74207374617274206c6f7474657279206265666f7265207374617260008201527f7454696d65000000000000000000000000000000000000000000000000000000602082015250565b7f7265717565737452616e646f6d6e6573732063616e6e6f742062652063616c6c60008201527f656420696e207468652073616d6520626c6f636b20617320636c6f73654c6f7460208201527f7465727900000000000000000000000000000000000000000000000000000000604082015250565b7f496e76616c6964207469636b6574496400000000000000000000000000000000600082015250565b7f43616e6e6f742072657365742077697468203020737461727454696d6520616e60008201527f6420656e6454696d650000000000000000000000000000000000000000000000602082015250565b7f4f776e61626c653a206e6577206f776e657220697320746865207a65726f206160008201527f6464726573730000000000000000000000000000000000000000000000000000602082015250565b7f43616e6e6f742064726177206c6f747465727920616674657220656e6452657760008201527f61726454696d6500000000000000000000000000000000000000000000000000602082015250565b7f436f6e7472616374206e6f7420616c6c6f776564000000000000000000000000600082015250565b7f43616e2774206368616e67652072657761726473206e6f770000000000000000600082015250565b7f4c6f747465727920616c72656164792073746172746564000000000000000000600082015250565b7f43616e6e6f7420636c61696d207469636b65747320616674657220656e64526560008201527f7761726454696d65000000000000000000000000000000000000000000000000602082015250565b7f416464726573733a20696e73756666696369656e742062616c616e636520666f60008201527f722063616c6c0000000000000000000000000000000000000000000000000000602082015250565b7f43616e6e6f74207374617274207769746820737461727454696d6520696e207460008201527f6865207061737400000000000000000000000000000000000000000000000000602082015250565b7f4c6f7474657279206e6f7420636c61696d61626c650000000000000000000000600082015250565b7f72657665616c52616e646f6d6e6573732063616e6e6f742062652063616c6c6560008201527f6420696e207468652073616d6520626c6f636b2061732072657175657374526160208201527f6e646f6d6e657373000000000000000000000000000000000000000000000000604082015250565b7f4e6f7420656e6f7567682055534420746f20627579207469636b657400000000600082015250565b7f43616e6e6f74206275792030207469636b657473000000000000000000000000600082015250565b7f50726f787920636f6e7472616374206e6f7420616c6c6f776564000000000000600082015250565b7f4e6f207265776172640000000000000000000000000000000000000000000000600082015250565b7f4f776e61626c653a2063616c6c6572206973206e6f7420746865206f776e6572600082015250565b7f43616e6e6f7420627579207469636b65747320616674657220656e6454696d65600082015250565b7f4c6f7474657279206e6f74206f70656e00000000000000000000000000000000600082015250565b7f43616e6e6f7420636c61696d2030207469636b65747300000000000000000000600082015250565b7f43616e6e6f7420636c6f7365206c6f7474657279206265666f726520656e645460008201527f696d650000000000000000000000000000000000000000000000000000000000602082015250565b7f416464726573733a2063616c6c20746f206e6f6e2d636f6e7472616374000000600082015250565b7f43616e6e6f74207265736574206265666f726520656e6452657761726454696d60008201527f6500000000000000000000000000000000000000000000000000000000000000602082015250565b7f5361666545524332303a204552433230206f7065726174696f6e20646964206e60008201527f6f74207375636365656400000000000000000000000000000000000000000000602082015250565b7f5265656e7472616e637947756172643a207265656e7472616e742063616c6c00600082015250565b7f4c6f7474657279206e6f7420636c6f7365640000000000000000000000000000600082015250565b7f4e6f7420746865206f776e6572206f6620746865207469636b65740000000000600082015250565b600481106149bd576149bc61423c565b5b50565b6149c981613fbc565b81146149d457600080fd5b50565b6149e081613fce565b81146149eb57600080fd5b50565b6149f78161400d565b8114614a0257600080fd5b50565b614a0e81614035565b8114614a1957600080fd5b5056fea2646970667358221220384be2c0ef1bfda839700bd9d271f2c1493e06947ff001c24e083da6df9417a364736f6c63430008060033","opcodes":"PUSH1 0x80 PUSH1 0x40 MSTORE PUSH1 0x1 PUSH1 0x2 SSTORE PUSH8 0x1BC16D674EC80000 PUSH1 0x4 SSTORE PUSH1 0x0 PUSH1 0x7 SSTORE PUSH1 0x0 PUSH1 0x8 SSTORE PUSH1 0x0 PUSH1 0x9 SSTORE PUSH1 0x0 PUSH1 0xB SSTORE PUSH3 0x69780 PUSH1 0xC SSTORE PUSH3 0x26AC0 PUSH1 0xD SSTORE PUSH1 0x0 PUSH1 0xE PUSH1 0x0 PUSH2 0x100 EXP DUP2 SLOAD DUP2 PUSH1 0xFF MUL NOT AND SWAP1 DUP4 PUSH1 0x3 DUP2 GT ISZERO PUSH3 0x60 JUMPI PUSH3 0x5F PUSH3 0x41F JUMP JUMPDEST JUMPDEST MUL OR SWAP1 SSTORE POP PUSH1 0x40 MLOAD DUP1 PUSH1 0xC0 ADD PUSH1 0x40 MSTORE DUP1 PUSH1 0x0 PUSH1 0xFF AND DUP2 MSTORE PUSH1 0x20 ADD PUSH1 0xF PUSH1 0xFF AND DUP2 MSTORE PUSH1 0x20 ADD PUSH1 0xF PUSH1 0xFF AND DUP2 MSTORE PUSH1 0x20 ADD PUSH1 0xF PUSH1 0xFF AND DUP2 MSTORE PUSH1 0x20 ADD PUSH1 0xF PUSH1 0xFF AND DUP2 MSTORE PUSH1 0x20 ADD PUSH1 0x28 PUSH1 0xFF AND DUP2 MSTORE POP PUSH1 0x12 SWAP1 PUSH1 0x6 PUSH3 0xBC SWAP3 SWAP2 SWAP1 PUSH3 0x30F JUMP JUMPDEST POP PUSH1 0x40 MLOAD DUP1 PUSH1 0xC0 ADD PUSH1 0x40 MSTORE DUP1 PUSH1 0x0 PUSH1 0xFF AND DUP2 MSTORE PUSH1 0x20 ADD PUSH1 0x0 PUSH1 0xFF AND DUP2 MSTORE PUSH1 0x20 ADD PUSH1 0x0 PUSH1 0xFF AND DUP2 MSTORE PUSH1 0x20 ADD PUSH1 0x0 PUSH1 0xFF AND DUP2 MSTORE PUSH1 0x20 ADD PUSH1 0x0 PUSH1 0xFF AND DUP2 MSTORE PUSH1 0x20 ADD PUSH1 0x0 PUSH1 0xFF AND DUP2 MSTORE POP PUSH1 0x18 SWAP1 PUSH1 0x6 PUSH3 0x114 SWAP3 SWAP2 SWAP1 PUSH3 0x30F JUMP JUMPDEST POP PUSH1 0x0 PUSH1 0x1E SSTORE CALLVALUE DUP1 ISZERO PUSH3 0x127 JUMPI PUSH1 0x0 DUP1 REVERT JUMPDEST POP PUSH1 0x40 MLOAD PUSH3 0x4ECF CODESIZE SUB DUP1 PUSH3 0x4ECF DUP4 CODECOPY DUP2 DUP2 ADD PUSH1 0x40 MSTORE DUP2 ADD SWAP1 PUSH3 0x14D SWAP2 SWAP1 PUSH3 0x38F JUMP JUMPDEST PUSH1 0x1 PUSH1 0x0 DUP2 SWAP1 SSTORE POP PUSH3 0x175 PUSH3 0x169 PUSH3 0x241 PUSH1 0x20 SHL PUSH1 0x20 SHR JUMP JUMPDEST PUSH3 0x249 PUSH1 0x20 SHL PUSH1 0x20 SHR JUMP JUMPDEST DUP3 PUSH1 0x5 PUSH1 0x0 PUSH2 0x100 EXP DUP2 SLOAD DUP2 PUSH20 0xFFFFFFFFFFFFFFFFFFFFFFFFFFFFFFFFFFFFFFFF MUL NOT AND SWAP1 DUP4 PUSH20 0xFFFFFFFFFFFFFFFFFFFFFFFFFFFFFFFFFFFFFFFF AND MUL OR SWAP1 SSTORE POP DUP2 PUSH1 0x6 PUSH1 0x0 PUSH2 0x100 EXP DUP2 SLOAD DUP2 PUSH20 0xFFFFFFFFFFFFFFFFFFFFFFFFFFFFFFFFFFFFFFFF MUL NOT AND SWAP1 DUP4 PUSH20 0xFFFFFFFFFFFFFFFFFFFFFFFFFFFFFFFFFFFFFFFF AND MUL OR SWAP1 SSTORE POP DUP1 PUSH1 0x3 PUSH1 0x0 PUSH2 0x100 EXP DUP2 SLOAD DUP2 PUSH20 0xFFFFFFFFFFFFFFFFFFFFFFFFFFFFFFFFFFFFFFFF MUL NOT AND SWAP1 DUP4 PUSH20 0xFFFFFFFFFFFFFFFFFFFFFFFFFFFFFFFFFFFFFFFF AND MUL OR SWAP1 SSTORE POP POP POP POP PUSH3 0x46D JUMP JUMPDEST PUSH1 0x0 CALLER SWAP1 POP SWAP1 JUMP JUMPDEST PUSH1 0x0 PUSH1 0x1 PUSH1 0x0 SWAP1 SLOAD SWAP1 PUSH2 0x100 EXP SWAP1 DIV PUSH20 0xFFFFFFFFFFFFFFFFFFFFFFFFFFFFFFFFFFFFFFFF AND SWAP1 POP DUP2 PUSH1 0x1 PUSH1 0x0 PUSH2 0x100 EXP DUP2 SLOAD DUP2 PUSH20 0xFFFFFFFFFFFFFFFFFFFFFFFFFFFFFFFFFFFFFFFF MUL NOT AND SWAP1 DUP4 PUSH20 0xFFFFFFFFFFFFFFFFFFFFFFFFFFFFFFFFFFFFFFFF AND MUL OR SWAP1 SSTORE POP DUP2 PUSH20 0xFFFFFFFFFFFFFFFFFFFFFFFFFFFFFFFFFFFFFFFF AND DUP2 PUSH20 0xFFFFFFFFFFFFFFFFFFFFFFFFFFFFFFFFFFFFFFFF AND PUSH32 0x8BE0079C531659141344CD1FD0A4F28419497F9722A3DAAFE3B4186F6B6457E0 PUSH1 0x40 MLOAD PUSH1 0x40 MLOAD DUP1 SWAP2 SUB SWAP1 LOG3 POP POP JUMP JUMPDEST DUP3 PUSH1 0x6 DUP2 ADD SWAP3 DUP3 ISZERO PUSH3 0x346 JUMPI SWAP2 PUSH1 0x20 MUL DUP3 ADD JUMPDEST DUP3 DUP2 GT ISZERO PUSH3 0x345 JUMPI DUP3 MLOAD DUP3 SWAP1 PUSH1 0xFF AND SWAP1 SSTORE SWAP2 PUSH1 0x20 ADD SWAP2 SWAP1 PUSH1 0x1 ADD SWAP1 PUSH3 0x323 JUMP JUMPDEST JUMPDEST POP SWAP1 POP PUSH3 0x355 SWAP2 SWAP1 PUSH3 0x359 JUMP JUMPDEST POP SWAP1 JUMP JUMPDEST JUMPDEST DUP1 DUP3 GT ISZERO PUSH3 0x374 JUMPI PUSH1 0x0 DUP2 PUSH1 0x0 SWAP1 SSTORE POP PUSH1 0x1 ADD PUSH3 0x35A JUMP JUMPDEST POP SWAP1 JUMP JUMPDEST PUSH1 0x0 DUP2 MLOAD SWAP1 POP PUSH3 0x389 DUP2 PUSH3 0x453 JUMP JUMPDEST SWAP3 SWAP2 POP POP JUMP JUMPDEST PUSH1 0x0 DUP1 PUSH1 0x0 PUSH1 0x60 DUP5 DUP7 SUB SLT ISZERO PUSH3 0x3AB JUMPI PUSH3 0x3AA PUSH3 0x44E JUMP JUMPDEST JUMPDEST PUSH1 0x0 PUSH3 0x3BB DUP7 DUP3 DUP8 ADD PUSH3 0x378 JUMP JUMPDEST SWAP4 POP POP PUSH1 0x20 PUSH3 0x3CE DUP7 DUP3 DUP8 ADD PUSH3 0x378 JUMP JUMPDEST SWAP3 POP POP PUSH1 0x40 PUSH3 0x3E1 DUP7 DUP3 DUP8 ADD PUSH3 0x378 JUMP JUMPDEST SWAP2 POP POP SWAP3 POP SWAP3 POP SWAP3 JUMP JUMPDEST PUSH1 0x0 PUSH3 0x3F8 DUP3 PUSH3 0x3FF JUMP JUMPDEST SWAP1 POP SWAP2 SWAP1 POP JUMP JUMPDEST PUSH1 0x0 PUSH20 0xFFFFFFFFFFFFFFFFFFFFFFFFFFFFFFFFFFFFFFFF DUP3 AND SWAP1 POP SWAP2 SWAP1 POP JUMP JUMPDEST PUSH32 0x4E487B7100000000000000000000000000000000000000000000000000000000 PUSH1 0x0 MSTORE PUSH1 0x21 PUSH1 0x4 MSTORE PUSH1 0x24 PUSH1 0x0 REVERT JUMPDEST PUSH1 0x0 DUP1 REVERT JUMPDEST PUSH3 0x45E DUP2 PUSH3 0x3EB JUMP JUMPDEST DUP2 EQ PUSH3 0x46A JUMPI PUSH1 0x0 DUP1 REVERT JUMPDEST POP JUMP JUMPDEST PUSH2 0x4A52 DUP1 PUSH3 0x47D PUSH1 0x0 CODECOPY PUSH1 0x0 RETURN INVALID PUSH1 0x80 PUSH1 0x40 MSTORE CALLVALUE DUP1 ISZERO PUSH2 0x10 JUMPI PUSH1 0x0 DUP1 REVERT JUMPDEST POP PUSH1 0x4 CALLDATASIZE LT PUSH2 0x253 JUMPI PUSH1 0x0 CALLDATALOAD PUSH1 0xE0 SHR DUP1 PUSH4 0x6FD09816 GT PUSH2 0x146 JUMPI DUP1 PUSH4 0xC5F956AF GT PUSH2 0xC3 JUMPI DUP1 PUSH4 0xDCBAD90D GT PUSH2 0x87 JUMPI DUP1 PUSH4 0xDCBAD90D EQ PUSH2 0x67A JUMPI DUP1 PUSH4 0xE76A0526 EQ PUSH2 0x698 JUMPI DUP1 PUSH4 0xE94F6955 EQ PUSH2 0x6B4 JUMPI DUP1 PUSH4 0xEC573D1C EQ PUSH2 0x6D2 JUMPI DUP1 PUSH4 0xF2FDE38B EQ PUSH2 0x6EE JUMPI DUP1 PUSH4 0xF897A22B EQ PUSH2 0x70A JUMPI PUSH2 0x253 JUMP JUMPDEST DUP1 PUSH4 0xC5F956AF EQ PUSH2 0x5E8 JUMPI DUP1 PUSH4 0xCC32D176 EQ PUSH2 0x606 JUMPI DUP1 PUSH4 0xCCB98FFC EQ PUSH2 0x624 JUMPI DUP1 PUSH4 0xD75CD444 EQ PUSH2 0x640 JUMPI DUP1 PUSH4 0xDAE58DA8 EQ PUSH2 0x65C JUMPI PUSH2 0x253 JUMP JUMPDEST DUP1 PUSH4 0x88C61855 GT PUSH2 0x10A JUMPI DUP1 PUSH4 0x88C61855 EQ PUSH2 0x542 JUMPI DUP1 PUSH4 0x8DA5CB5B EQ PUSH2 0x55E JUMPI DUP1 PUSH4 0x97FF1CAC EQ PUSH2 0x57C JUMPI DUP1 PUSH4 0xB1EAC37E EQ PUSH2 0x5AC JUMPI DUP1 PUSH4 0xC079FEAD EQ PUSH2 0x5CA JUMPI PUSH2 0x253 JUMP JUMPDEST DUP1 PUSH4 0x6FD09816 EQ PUSH2 0x4D8 JUMPI DUP1 PUSH4 0x715018A6 EQ PUSH2 0x4E2 JUMPI DUP1 PUSH4 0x7363AE1F EQ PUSH2 0x4EC JUMPI DUP1 PUSH4 0x77E741C7 EQ PUSH2 0x508 JUMPI DUP1 PUSH4 0x78E97925 EQ PUSH2 0x524 JUMPI PUSH2 0x253 JUMP JUMPDEST DUP1 PUSH4 0x3B05CB2F GT PUSH2 0x1D4 JUMPI DUP1 PUSH4 0x4BC19FEE GT PUSH2 0x198 JUMPI DUP1 PUSH4 0x4BC19FEE EQ PUSH2 0x434 JUMPI DUP1 PUSH4 0x5FEA10C6 EQ PUSH2 0x450 JUMPI DUP1 PUSH4 0x686465B8 EQ PUSH2 0x46C JUMPI DUP1 PUSH4 0x68F5F2B0 EQ PUSH2 0x48A JUMPI DUP1 PUSH4 0x6B9A7D01 EQ PUSH2 0x4A6 JUMPI PUSH2 0x253 JUMP JUMPDEST DUP1 PUSH4 0x3B05CB2F EQ PUSH2 0x38E JUMPI DUP1 PUSH4 0x3CFF0380 EQ PUSH2 0x3BE JUMPI DUP1 PUSH4 0x3E0A322D EQ PUSH2 0x3DC JUMPI DUP1 PUSH4 0x42043170 EQ PUSH2 0x3F8 JUMPI DUP1 PUSH4 0x49C01D3F EQ PUSH2 0x416 JUMPI PUSH2 0x253 JUMP JUMPDEST DUP1 PUSH4 0x1D0769CA GT PUSH2 0x21B JUMPI DUP1 PUSH4 0x1D0769CA EQ PUSH2 0x2EA JUMPI DUP1 PUSH4 0x200D2ED2 EQ PUSH2 0x31A JUMPI DUP1 PUSH4 0x218FE3A5 EQ PUSH2 0x338 JUMPI DUP1 PUSH4 0x3197CBB6 EQ PUSH2 0x354 JUMPI DUP1 PUSH4 0x35879247 EQ PUSH2 0x372 JUMPI PUSH2 0x253 JUMP JUMPDEST DUP1 PUSH4 0x2A24770 EQ PUSH2 0x258 JUMPI DUP1 PUSH4 0x1209B1F6 EQ PUSH2 0x276 JUMPI DUP1 PUSH4 0x15981650 EQ PUSH2 0x294 JUMPI DUP1 PUSH4 0x160344E2 EQ PUSH2 0x2B0 JUMPI DUP1 PUSH4 0x1CA1502F EQ PUSH2 0x2BA JUMPI JUMPDEST PUSH1 0x0 DUP1 REVERT JUMPDEST PUSH2 0x260 PUSH2 0x728 JUMP JUMPDEST PUSH1 0x40 MLOAD PUSH2 0x26D SWAP2 SWAP1 PUSH2 0x3D3F JUMP JUMPDEST PUSH1 0x40 MLOAD DUP1 SWAP2 SUB SWAP1 RETURN JUMPDEST PUSH2 0x27E PUSH2 0x72E JUMP JUMPDEST PUSH1 0x40 MLOAD PUSH2 0x28B SWAP2 SWAP1 PUSH2 0x3D3F JUMP JUMPDEST PUSH1 0x40 MLOAD DUP1 SWAP2 SUB SWAP1 RETURN JUMPDEST PUSH2 0x2AE PUSH1 0x4 DUP1 CALLDATASIZE SUB DUP2 ADD SWAP1 PUSH2 0x2A9 SWAP2 SWAP1 PUSH2 0x3260 JUMP JUMPDEST PUSH2 0x734 JUMP JUMPDEST STOP JUMPDEST PUSH2 0x2B8 PUSH2 0x746 JUMP JUMPDEST STOP JUMPDEST PUSH2 0x2D4 PUSH1 0x4 DUP1 CALLDATASIZE SUB DUP2 ADD SWAP1 PUSH2 0x2CF SWAP2 SWAP1 PUSH2 0x3260 JUMP JUMPDEST PUSH2 0x8E5 JUMP JUMPDEST PUSH1 0x40 MLOAD PUSH2 0x2E1 SWAP2 SWAP1 PUSH2 0x38CC JUMP JUMPDEST PUSH1 0x40 MLOAD DUP1 SWAP2 SUB SWAP1 RETURN JUMPDEST PUSH2 0x304 PUSH1 0x4 DUP1 CALLDATASIZE SUB DUP2 ADD SWAP1 PUSH2 0x2FF SWAP2 SWAP1 PUSH2 0x3260 JUMP JUMPDEST PUSH2 0x9B4 JUMP JUMPDEST PUSH1 0x40 MLOAD PUSH2 0x311 SWAP2 SWAP1 PUSH2 0x3D3F JUMP JUMPDEST PUSH1 0x40 MLOAD DUP1 SWAP2 SUB SWAP1 RETURN JUMPDEST PUSH2 0x322 PUSH2 0x9CF JUMP JUMPDEST PUSH1 0x40 MLOAD PUSH2 0x32F SWAP2 SWAP1 PUSH2 0x3962 JUMP JUMPDEST PUSH1 0x40 MLOAD DUP1 SWAP2 SUB SWAP1 RETURN JUMPDEST PUSH2 0x352 PUSH1 0x4 DUP1 CALLDATASIZE SUB DUP2 ADD SWAP1 PUSH2 0x34D SWAP2 SWAP1 PUSH2 0x3112 JUMP JUMPDEST PUSH2 0x9E2 JUMP JUMPDEST STOP JUMPDEST PUSH2 0x35C PUSH2 0xA2E JUMP JUMPDEST PUSH1 0x40 MLOAD PUSH2 0x369 SWAP2 SWAP1 PUSH2 0x3D3F JUMP JUMPDEST PUSH1 0x40 MLOAD DUP1 SWAP2 SUB SWAP1 RETURN JUMPDEST PUSH2 0x38C PUSH1 0x4 DUP1 CALLDATASIZE SUB DUP2 ADD SWAP1 PUSH2 0x387 SWAP2 SWAP1 PUSH2 0x313F JUMP JUMPDEST PUSH2 0xA34 JUMP JUMPDEST STOP JUMPDEST PUSH2 0x3A8 PUSH1 0x4 DUP1 CALLDATASIZE SUB DUP2 ADD SWAP1 PUSH2 0x3A3 SWAP2 SWAP1 PUSH2 0x3260 JUMP JUMPDEST PUSH2 0xF50 JUMP JUMPDEST PUSH1 0x40 MLOAD PUSH2 0x3B5 SWAP2 SWAP1 PUSH2 0x3D3F JUMP JUMPDEST PUSH1 0x40 MLOAD DUP1 SWAP2 SUB SWAP1 RETURN JUMPDEST PUSH2 0x3C6 PUSH2 0x10E8 JUMP JUMPDEST PUSH1 0x40 MLOAD PUSH2 0x3D3 SWAP2 SWAP1 PUSH2 0x38CC JUMP JUMPDEST PUSH1 0x40 MLOAD DUP1 SWAP2 SUB SWAP1 RETURN JUMPDEST PUSH2 0x3F6 PUSH1 0x4 DUP1 CALLDATASIZE SUB DUP2 ADD SWAP1 PUSH2 0x3F1 SWAP2 SWAP1 PUSH2 0x3260 JUMP JUMPDEST PUSH2 0x116F JUMP JUMPDEST STOP JUMPDEST PUSH2 0x400 PUSH2 0x1181 JUMP JUMPDEST PUSH1 0x40 MLOAD PUSH2 0x40D SWAP2 SWAP1 PUSH2 0x3D3F JUMP JUMPDEST PUSH1 0x40 MLOAD DUP1 SWAP2 SUB SWAP1 RETURN JUMPDEST PUSH2 0x41E PUSH2 0x1187 JUMP JUMPDEST PUSH1 0x40 MLOAD PUSH2 0x42B SWAP2 SWAP1 PUSH2 0x3D3F JUMP JUMPDEST PUSH1 0x40 MLOAD DUP1 SWAP2 SUB SWAP1 RETURN JUMPDEST PUSH2 0x44E PUSH1 0x4 DUP1 CALLDATASIZE SUB DUP2 ADD SWAP1 PUSH2 0x449 SWAP2 SWAP1 PUSH2 0x3112 JUMP JUMPDEST PUSH2 0x118D JUMP JUMPDEST STOP JUMPDEST PUSH2 0x46A PUSH1 0x4 DUP1 CALLDATASIZE SUB DUP2 ADD SWAP1 PUSH2 0x465 SWAP2 SWAP1 PUSH2 0x32BA JUMP JUMPDEST PUSH2 0x121C JUMP JUMPDEST STOP JUMPDEST PUSH2 0x474 PUSH2 0x1497 JUMP JUMPDEST PUSH1 0x40 MLOAD PUSH2 0x481 SWAP2 SWAP1 PUSH2 0x3D3F JUMP JUMPDEST PUSH1 0x40 MLOAD DUP1 SWAP2 SUB SWAP1 RETURN JUMPDEST PUSH2 0x4A4 PUSH1 0x4 DUP1 CALLDATASIZE SUB DUP2 ADD SWAP1 PUSH2 0x49F SWAP2 SWAP1 PUSH2 0x318C JUMP JUMPDEST PUSH2 0x149D JUMP JUMPDEST STOP JUMPDEST PUSH2 0x4C0 PUSH1 0x4 DUP1 CALLDATASIZE SUB DUP2 ADD SWAP1 PUSH2 0x4BB SWAP2 SWAP1 PUSH2 0x3260 JUMP JUMPDEST PUSH2 0x1530 JUMP JUMPDEST PUSH1 0x40 MLOAD PUSH2 0x4CF SWAP4 SWAP3 SWAP2 SWAP1 PUSH2 0x38EE JUMP JUMPDEST PUSH1 0x40 MLOAD DUP1 SWAP2 SUB SWAP1 RETURN JUMPDEST PUSH2 0x4E0 PUSH2 0x16C8 JUMP JUMPDEST STOP JUMPDEST PUSH2 0x4EA PUSH2 0x186E JUMP JUMPDEST STOP JUMPDEST PUSH2 0x506 PUSH1 0x4 DUP1 CALLDATASIZE SUB DUP2 ADD SWAP1 PUSH2 0x501 SWAP2 SWAP1 PUSH2 0x3260 JUMP JUMPDEST PUSH2 0x1882 JUMP JUMPDEST STOP JUMPDEST PUSH2 0x522 PUSH1 0x4 DUP1 CALLDATASIZE SUB DUP2 ADD SWAP1 PUSH2 0x51D SWAP2 SWAP1 PUSH2 0x3260 JUMP JUMPDEST PUSH2 0x1AD7 JUMP JUMPDEST STOP JUMPDEST PUSH2 0x52C PUSH2 0x1AE9 JUMP JUMPDEST PUSH1 0x40 MLOAD PUSH2 0x539 SWAP2 SWAP1 PUSH2 0x3D3F JUMP JUMPDEST PUSH1 0x40 MLOAD DUP1 SWAP2 SUB SWAP1 RETURN JUMPDEST PUSH2 0x55C PUSH1 0x4 DUP1 CALLDATASIZE SUB DUP2 ADD SWAP1 PUSH2 0x557 SWAP2 SWAP1 PUSH2 0x31B9 JUMP JUMPDEST PUSH2 0x1AEF JUMP JUMPDEST STOP JUMPDEST PUSH2 0x566 PUSH2 0x1F7C JUMP JUMPDEST PUSH1 0x40 MLOAD PUSH2 0x573 SWAP2 SWAP1 PUSH2 0x3851 JUMP JUMPDEST PUSH1 0x40 MLOAD DUP1 SWAP2 SUB SWAP1 RETURN JUMPDEST PUSH2 0x596 PUSH1 0x4 DUP1 CALLDATASIZE SUB DUP2 ADD SWAP1 PUSH2 0x591 SWAP2 SWAP1 PUSH2 0x3260 JUMP JUMPDEST PUSH2 0x1FA6 JUMP JUMPDEST PUSH1 0x40 MLOAD PUSH2 0x5A3 SWAP2 SWAP1 PUSH2 0x3D3F JUMP JUMPDEST PUSH1 0x40 MLOAD DUP1 SWAP2 SUB SWAP1 RETURN JUMPDEST PUSH2 0x5B4 PUSH2 0x1FC1 JUMP JUMPDEST PUSH1 0x40 MLOAD PUSH2 0x5C1 SWAP2 SWAP1 PUSH2 0x3D3F JUMP JUMPDEST PUSH1 0x40 MLOAD DUP1 SWAP2 SUB SWAP1 RETURN JUMPDEST PUSH2 0x5D2 PUSH2 0x1FC7 JUMP JUMPDEST PUSH1 0x40 MLOAD PUSH2 0x5DF SWAP2 SWAP1 PUSH2 0x3D3F JUMP JUMPDEST PUSH1 0x40 MLOAD DUP1 SWAP2 SUB SWAP1 RETURN JUMPDEST PUSH2 0x5F0 PUSH2 0x1FCD JUMP JUMPDEST PUSH1 0x40 MLOAD PUSH2 0x5FD SWAP2 SWAP1 PUSH2 0x3851 JUMP JUMPDEST PUSH1 0x40 MLOAD DUP1 SWAP2 SUB SWAP1 RETURN JUMPDEST PUSH2 0x60E PUSH2 0x1FF3 JUMP JUMPDEST PUSH1 0x40 MLOAD PUSH2 0x61B SWAP2 SWAP1 PUSH2 0x3D3F JUMP JUMPDEST PUSH1 0x40 MLOAD DUP1 SWAP2 SUB SWAP1 RETURN JUMPDEST PUSH2 0x63E PUSH1 0x4 DUP1 CALLDATASIZE SUB DUP2 ADD SWAP1 PUSH2 0x639 SWAP2 SWAP1 PUSH2 0x3260 JUMP JUMPDEST PUSH2 0x1FF9 JUMP JUMPDEST STOP JUMPDEST PUSH2 0x65A PUSH1 0x4 DUP1 CALLDATASIZE SUB DUP2 ADD SWAP1 PUSH2 0x655 SWAP2 SWAP1 PUSH2 0x3260 JUMP JUMPDEST PUSH2 0x200B JUMP JUMPDEST STOP JUMPDEST PUSH2 0x664 PUSH2 0x22C0 JUMP JUMPDEST PUSH1 0x40 MLOAD PUSH2 0x671 SWAP2 SWAP1 PUSH2 0x3D3F JUMP JUMPDEST PUSH1 0x40 MLOAD DUP1 SWAP2 SUB SWAP1 RETURN JUMPDEST PUSH2 0x682 PUSH2 0x22C6 JUMP JUMPDEST PUSH1 0x40 MLOAD PUSH2 0x68F SWAP2 SWAP1 PUSH2 0x3947 JUMP JUMPDEST PUSH1 0x40 MLOAD DUP1 SWAP2 SUB SWAP1 RETURN JUMPDEST PUSH2 0x6B2 PUSH1 0x4 DUP1 CALLDATASIZE SUB DUP2 ADD SWAP1 PUSH2 0x6AD SWAP2 SWAP1 PUSH2 0x3260 JUMP JUMPDEST PUSH2 0x22EC JUMP JUMPDEST STOP JUMPDEST PUSH2 0x6BC PUSH2 0x22FE JUMP JUMPDEST PUSH1 0x40 MLOAD PUSH2 0x6C9 SWAP2 SWAP1 PUSH2 0x3D3F JUMP JUMPDEST PUSH1 0x40 MLOAD DUP1 SWAP2 SUB SWAP1 RETURN JUMPDEST PUSH2 0x6EC PUSH1 0x4 DUP1 CALLDATASIZE SUB DUP2 ADD SWAP1 PUSH2 0x6E7 SWAP2 SWAP1 PUSH2 0x3112 JUMP JUMPDEST PUSH2 0x2304 JUMP JUMPDEST STOP JUMPDEST PUSH2 0x708 PUSH1 0x4 DUP1 CALLDATASIZE SUB DUP2 ADD SWAP1 PUSH2 0x703 SWAP2 SWAP1 PUSH2 0x3112 JUMP JUMPDEST PUSH2 0x2393 JUMP JUMPDEST STOP JUMPDEST PUSH2 0x712 PUSH2 0x2417 JUMP JUMPDEST PUSH1 0x40 MLOAD PUSH2 0x71F SWAP2 SWAP1 PUSH2 0x392C JUMP JUMPDEST PUSH1 0x40 MLOAD DUP1 SWAP2 SUB SWAP1 RETURN JUMPDEST PUSH1 0x11 SLOAD DUP2 JUMP JUMPDEST PUSH1 0x4 SLOAD DUP2 JUMP JUMPDEST PUSH2 0x73C PUSH2 0x243D JUMP JUMPDEST DUP1 PUSH1 0x4 DUP2 SWAP1 SSTORE POP POP JUMP JUMPDEST PUSH2 0x74F CALLER PUSH2 0x24BB JUMP JUMPDEST ISZERO PUSH2 0x78F JUMPI PUSH1 0x40 MLOAD PUSH32 0x8C379A000000000000000000000000000000000000000000000000000000000 DUP2 MSTORE PUSH1 0x4 ADD PUSH2 0x786 SWAP1 PUSH2 0x3A5F JUMP JUMPDEST PUSH1 0x40 MLOAD DUP1 SWAP2 SUB SWAP1 REVERT JUMPDEST ORIGIN PUSH20 0xFFFFFFFFFFFFFFFFFFFFFFFFFFFFFFFFFFFFFFFF AND CALLER PUSH20 0xFFFFFFFFFFFFFFFFFFFFFFFFFFFFFFFFFFFFFFFF AND EQ PUSH2 0x7FD JUMPI PUSH1 0x40 MLOAD PUSH32 0x8C379A000000000000000000000000000000000000000000000000000000000 DUP2 MSTORE PUSH1 0x4 ADD PUSH2 0x7F4 SWAP1 PUSH2 0x3B9F JUMP JUMPDEST PUSH1 0x40 MLOAD DUP1 SWAP2 SUB SWAP1 REVERT JUMPDEST PUSH1 0x0 PUSH1 0x3 DUP2 GT ISZERO PUSH2 0x811 JUMPI PUSH2 0x810 PUSH2 0x423C JUMP JUMPDEST JUMPDEST PUSH1 0xE PUSH1 0x0 SWAP1 SLOAD SWAP1 PUSH2 0x100 EXP SWAP1 DIV PUSH1 0xFF AND PUSH1 0x3 DUP2 GT ISZERO PUSH2 0x833 JUMPI PUSH2 0x832 PUSH2 0x423C JUMP JUMPDEST JUMPDEST EQ PUSH2 0x873 JUMPI PUSH1 0x40 MLOAD PUSH32 0x8C379A000000000000000000000000000000000000000000000000000000000 DUP2 MSTORE PUSH1 0x4 ADD PUSH2 0x86A SWAP1 PUSH2 0x3A9F JUMP JUMPDEST PUSH1 0x40 MLOAD DUP1 SWAP2 SUB SWAP1 REVERT JUMPDEST TIMESTAMP PUSH1 0xF SLOAD GT ISZERO PUSH2 0x8B8 JUMPI PUSH1 0x40 MLOAD PUSH32 0x8C379A000000000000000000000000000000000000000000000000000000000 DUP2 MSTORE PUSH1 0x4 ADD PUSH2 0x8AF SWAP1 PUSH2 0x399F JUMP JUMPDEST PUSH1 0x40 MLOAD DUP1 SWAP2 SUB SWAP1 REVERT JUMPDEST PUSH1 0x1 PUSH1 0xE PUSH1 0x0 PUSH2 0x100 EXP DUP2 SLOAD DUP2 PUSH1 0xFF MUL NOT AND SWAP1 DUP4 PUSH1 0x3 DUP2 GT ISZERO PUSH2 0x8DE JUMPI PUSH2 0x8DD PUSH2 0x423C JUMP JUMPDEST JUMPDEST MUL OR SWAP1 SSTORE POP JUMP JUMPDEST PUSH1 0x60 PUSH1 0x0 PUSH1 0x6 PUSH8 0xFFFFFFFFFFFFFFFF DUP2 GT ISZERO PUSH2 0x904 JUMPI PUSH2 0x903 PUSH2 0x429A JUMP JUMPDEST JUMPDEST PUSH1 0x40 MLOAD SWAP1 DUP1 DUP3 MSTORE DUP1 PUSH1 0x20 MUL PUSH1 0x20 ADD DUP3 ADD PUSH1 0x40 MSTORE DUP1 ISZERO PUSH2 0x932 JUMPI DUP2 PUSH1 0x20 ADD PUSH1 0x20 DUP3 MUL DUP1 CALLDATASIZE DUP4 CALLDATACOPY DUP1 DUP3 ADD SWAP2 POP POP SWAP1 POP JUMPDEST POP SWAP1 POP PUSH1 0x0 JUMPDEST PUSH1 0x6 DUP2 LT ISZERO PUSH2 0x9AA JUMPI PUSH1 0x1 PUSH1 0x42 DUP6 PUSH2 0x950 SWAP2 SWAP1 PUSH2 0x41AD JUMP JUMPDEST PUSH2 0x95A SWAP2 SWAP1 PUSH2 0x3E8F JUMP JUMPDEST DUP3 DUP3 DUP2 MLOAD DUP2 LT PUSH2 0x96D JUMPI PUSH2 0x96C PUSH2 0x426B JUMP JUMPDEST JUMPDEST PUSH1 0x20 MUL PUSH1 0x20 ADD ADD SWAP1 PUSH4 0xFFFFFFFF AND SWAP1 DUP2 PUSH4 0xFFFFFFFF AND DUP2 MSTORE POP POP PUSH2 0x100 DUP5 PUSH2 0x995 SWAP2 SWAP1 PUSH2 0x3EC9 JUMP JUMPDEST SWAP4 POP DUP1 DUP1 PUSH2 0x9A2 SWAP1 PUSH2 0x4137 JUMP JUMPDEST SWAP2 POP POP PUSH2 0x938 JUMP JUMPDEST POP DUP1 SWAP2 POP POP SWAP2 SWAP1 POP JUMP JUMPDEST PUSH1 0x18 DUP2 PUSH1 0x6 DUP2 LT PUSH2 0x9C4 JUMPI PUSH1 0x0 DUP1 REVERT JUMPDEST ADD PUSH1 0x0 SWAP2 POP SWAP1 POP SLOAD DUP2 JUMP JUMPDEST PUSH1 0xE PUSH1 0x0 SWAP1 SLOAD SWAP1 PUSH2 0x100 EXP SWAP1 DIV PUSH1 0xFF AND DUP2 JUMP JUMPDEST PUSH2 0x9EA PUSH2 0x243D JUMP JUMPDEST DUP1 PUSH1 0x5 PUSH1 0x0 PUSH2 0x100 EXP DUP2 SLOAD DUP2 PUSH20 0xFFFFFFFFFFFFFFFFFFFFFFFFFFFFFFFFFFFFFFFF MUL NOT AND SWAP1 DUP4 PUSH20 0xFFFFFFFFFFFFFFFFFFFFFFFFFFFFFFFFFFFFFFFF AND MUL OR SWAP1 SSTORE POP POP JUMP JUMPDEST PUSH1 0x10 SLOAD DUP2 JUMP JUMPDEST PUSH2 0xA3D CALLER PUSH2 0x24BB JUMP JUMPDEST ISZERO PUSH2 0xA7D JUMPI PUSH1 0x40 MLOAD PUSH32 0x8C379A000000000000000000000000000000000000000000000000000000000 DUP2 MSTORE PUSH1 0x4 ADD PUSH2 0xA74 SWAP1 PUSH2 0x3A5F JUMP JUMPDEST PUSH1 0x40 MLOAD DUP1 SWAP2 SUB SWAP1 REVERT JUMPDEST ORIGIN PUSH20 0xFFFFFFFFFFFFFFFFFFFFFFFFFFFFFFFFFFFFFFFF AND CALLER PUSH20 0xFFFFFFFFFFFFFFFFFFFFFFFFFFFFFFFFFFFFFFFF AND EQ PUSH2 0xAEB JUMPI PUSH1 0x40 MLOAD PUSH32 0x8C379A000000000000000000000000000000000000000000000000000000000 DUP2 MSTORE PUSH1 0x4 ADD PUSH2 0xAE2 SWAP1 PUSH2 0x3B9F JUMP JUMPDEST PUSH1 0x40 MLOAD DUP1 SWAP2 SUB SWAP1 REVERT JUMPDEST PUSH2 0xAF3 PUSH2 0x24CE JUMP JUMPDEST PUSH1 0x1 PUSH1 0x3 DUP2 GT ISZERO PUSH2 0xB07 JUMPI PUSH2 0xB06 PUSH2 0x423C JUMP JUMPDEST JUMPDEST PUSH1 0xE PUSH1 0x0 SWAP1 SLOAD SWAP1 PUSH2 0x100 EXP SWAP1 DIV PUSH1 0xFF AND PUSH1 0x3 DUP2 GT ISZERO PUSH2 0xB29 JUMPI PUSH2 0xB28 PUSH2 0x423C JUMP JUMPDEST JUMPDEST EQ PUSH2 0xB69 JUMPI PUSH1 0x40 MLOAD PUSH32 0x8C379A000000000000000000000000000000000000000000000000000000000 DUP2 MSTORE PUSH1 0x4 ADD PUSH2 0xB60 SWAP1 PUSH2 0x3C1F JUMP JUMPDEST PUSH1 0x40 MLOAD DUP1 SWAP2 SUB SWAP1 REVERT JUMPDEST PUSH1 0x10 SLOAD TIMESTAMP LT PUSH2 0xBAD JUMPI PUSH1 0x40 MLOAD PUSH32 0x8C379A000000000000000000000000000000000000000000000000000000000 DUP2 MSTORE PUSH1 0x4 ADD PUSH2 0xBA4 SWAP1 PUSH2 0x3BFF JUMP JUMPDEST PUSH1 0x40 MLOAD DUP1 SWAP2 SUB SWAP1 REVERT JUMPDEST PUSH1 0x0 DUP3 DUP3 SWAP1 POP GT PUSH2 0xBF3 JUMPI PUSH1 0x40 MLOAD PUSH32 0x8C379A000000000000000000000000000000000000000000000000000000000 DUP2 MSTORE PUSH1 0x4 ADD PUSH2 0xBEA SWAP1 PUSH2 0x3B7F JUMP JUMPDEST PUSH1 0x40 MLOAD DUP1 SWAP2 SUB SWAP1 REVERT JUMPDEST PUSH1 0x4 SLOAD DUP3 DUP3 SWAP1 POP PUSH2 0xC04 SWAP2 SWAP1 PUSH2 0x3EFA JUMP JUMPDEST PUSH1 0x5 PUSH1 0x0 SWAP1 SLOAD SWAP1 PUSH2 0x100 EXP SWAP1 DIV PUSH20 0xFFFFFFFFFFFFFFFFFFFFFFFFFFFFFFFFFFFFFFFF AND PUSH20 0xFFFFFFFFFFFFFFFFFFFFFFFFFFFFFFFFFFFFFFFF AND PUSH4 0x70A08231 CALLER PUSH1 0x40 MLOAD DUP3 PUSH4 0xFFFFFFFF AND PUSH1 0xE0 SHL DUP2 MSTORE PUSH1 0x4 ADD PUSH2 0xC5F SWAP2 SWAP1 PUSH2 0x3851 JUMP JUMPDEST PUSH1 0x20 PUSH1 0x40 MLOAD DUP1 DUP4 SUB DUP2 DUP7 DUP1 EXTCODESIZE ISZERO DUP1 ISZERO PUSH2 0xC77 JUMPI PUSH1 0x0 DUP1 REVERT JUMPDEST POP GAS STATICCALL ISZERO DUP1 ISZERO PUSH2 0xC8B JUMPI RETURNDATASIZE PUSH1 0x0 DUP1 RETURNDATACOPY RETURNDATASIZE PUSH1 0x0 REVERT JUMPDEST POP POP POP POP PUSH1 0x40 MLOAD RETURNDATASIZE PUSH1 0x1F NOT PUSH1 0x1F DUP3 ADD AND DUP3 ADD DUP1 PUSH1 0x40 MSTORE POP DUP2 ADD SWAP1 PUSH2 0xCAF SWAP2 SWAP1 PUSH2 0x328D JUMP JUMPDEST LT ISZERO PUSH2 0xCF0 JUMPI PUSH1 0x40 MLOAD PUSH32 0x8C379A000000000000000000000000000000000000000000000000000000000 DUP2 MSTORE PUSH1 0x4 ADD PUSH2 0xCE7 SWAP1 PUSH2 0x3B5F JUMP JUMPDEST PUSH1 0x40 MLOAD DUP1 SWAP2 SUB SWAP1 REVERT JUMPDEST PUSH2 0xD63 CALLER PUSH1 0x3 PUSH1 0x0 SWAP1 SLOAD SWAP1 PUSH2 0x100 EXP SWAP1 DIV PUSH20 0xFFFFFFFFFFFFFFFFFFFFFFFFFFFFFFFFFFFFFFFF AND PUSH1 0x4 SLOAD PUSH1 0x5 PUSH1 0x0 SWAP1 SLOAD SWAP1 PUSH2 0x100 EXP SWAP1 DIV PUSH20 0xFFFFFFFFFFFFFFFFFFFFFFFFFFFFFFFFFFFFFFFF AND PUSH20 0xFFFFFFFFFFFFFFFFFFFFFFFFFFFFFFFFFFFFFFFF AND PUSH2 0x251E SWAP1 SWAP4 SWAP3 SWAP2 SWAP1 PUSH4 0xFFFFFFFF AND JUMP JUMPDEST PUSH1 0x0 JUMPDEST DUP3 DUP3 SWAP1 POP DUP2 LT ISZERO PUSH2 0xEF2 JUMPI PUSH1 0x40 MLOAD DUP1 PUSH1 0x60 ADD PUSH1 0x40 MSTORE DUP1 DUP5 DUP5 DUP5 DUP2 DUP2 LT PUSH2 0xD8F JUMPI PUSH2 0xD8E PUSH2 0x426B JUMP JUMPDEST JUMPDEST SWAP1 POP PUSH1 0x20 MUL ADD PUSH1 0x20 DUP2 ADD SWAP1 PUSH2 0xDA4 SWAP2 SWAP1 PUSH2 0x3233 JUMP JUMPDEST PUSH28 0xFFFFFFFFFFFFFFFFFFFFFFFFFFFFFFFFFFFFFFFFFFFFFFFFFFFFFFFF AND DUP2 MSTORE PUSH1 0x20 ADD PUSH1 0x0 PUSH4 0xFFFFFFFF AND DUP2 MSTORE PUSH1 0x20 ADD CALLER PUSH20 0xFFFFFFFFFFFFFFFFFFFFFFFFFFFFFFFFFFFFFFFF AND DUP2 MSTORE POP PUSH1 0xA PUSH1 0x0 PUSH1 0xB PUSH1 0x0 DUP2 SLOAD DUP1 SWAP3 SWAP2 SWAP1 PUSH2 0xE05 SWAP1 PUSH2 0x4137 JUMP JUMPDEST SWAP2 SWAP1 POP SSTORE DUP2 MSTORE PUSH1 0x20 ADD SWAP1 DUP2 MSTORE PUSH1 0x20 ADD PUSH1 0x0 KECCAK256 PUSH1 0x0 DUP3 ADD MLOAD DUP2 PUSH1 0x0 ADD PUSH1 0x0 PUSH2 0x100 EXP DUP2 SLOAD DUP2 PUSH28 0xFFFFFFFFFFFFFFFFFFFFFFFFFFFFFFFFFFFFFFFFFFFFFFFFFFFFFFFF MUL NOT AND SWAP1 DUP4 PUSH28 0xFFFFFFFFFFFFFFFFFFFFFFFFFFFFFFFFFFFFFFFFFFFFFFFFFFFFFFFF AND MUL OR SWAP1 SSTORE POP PUSH1 0x20 DUP3 ADD MLOAD DUP2 PUSH1 0x0 ADD PUSH1 0x1C PUSH2 0x100 EXP DUP2 SLOAD DUP2 PUSH4 0xFFFFFFFF MUL NOT AND SWAP1 DUP4 PUSH4 0xFFFFFFFF AND MUL OR SWAP1 SSTORE POP PUSH1 0x40 DUP3 ADD MLOAD DUP2 PUSH1 0x1 ADD PUSH1 0x0 PUSH2 0x100 EXP DUP2 SLOAD DUP2 PUSH20 0xFFFFFFFFFFFFFFFFFFFFFFFFFFFFFFFFFFFFFFFF MUL NOT AND SWAP1 DUP4 PUSH20 0xFFFFFFFFFFFFFFFFFFFFFFFFFFFFFFFFFFFFFFFF AND MUL OR SWAP1 SSTORE POP SWAP1 POP POP DUP1 DUP1 PUSH2 0xEEA SWAP1 PUSH2 0x4137 JUMP JUMPDEST SWAP2 POP POP PUSH2 0xD66 JUMP JUMPDEST POP CALLER PUSH20 0xFFFFFFFFFFFFFFFFFFFFFFFFFFFFFFFFFFFFFFFF AND PUSH32 0xE23B461EEED3050B94C37E728BD38158DBCD40BB83994F44BFB639678C6A1029 DUP4 DUP4 SWAP1 POP PUSH1 0x40 MLOAD PUSH2 0xF3C SWAP2 SWAP1 PUSH2 0x3D3F JUMP JUMPDEST PUSH1 0x40 MLOAD DUP1 SWAP2 SUB SWAP1 LOG2 PUSH2 0xF4C PUSH2 0x25A7 JUMP JUMPDEST POP POP JUMP JUMPDEST PUSH1 0x0 DUP1 PUSH1 0x42 PUSH8 0xFFFFFFFFFFFFFFFF DUP2 GT ISZERO PUSH2 0xF6E JUMPI PUSH2 0xF6D PUSH2 0x429A JUMP JUMPDEST JUMPDEST PUSH1 0x40 MLOAD SWAP1 DUP1 DUP3 MSTORE DUP1 PUSH1 0x20 MUL PUSH1 0x20 ADD DUP3 ADD PUSH1 0x40 MSTORE DUP1 ISZERO PUSH2 0xF9C JUMPI DUP2 PUSH1 0x20 ADD PUSH1 0x20 DUP3 MUL DUP1 CALLDATASIZE DUP4 CALLDATACOPY DUP1 DUP3 ADD SWAP2 POP POP SWAP1 POP JUMPDEST POP SWAP1 POP PUSH1 0x0 DUP1 JUMPDEST PUSH1 0x6 DUP2 LT ISZERO PUSH2 0x1062 JUMPI PUSH1 0x42 DUP2 PUSH1 0x42 PUSH2 0xFBB SWAP2 SWAP1 PUSH2 0x3F54 JUMP JUMPDEST DUP7 PUSH2 0xFC6 SWAP2 SWAP1 PUSH2 0x41AD JUMP JUMPDEST DUP4 PUSH2 0xFD1 SWAP2 SWAP1 PUSH2 0x3E39 JUMP JUMPDEST PUSH2 0xFDB SWAP2 SWAP1 PUSH2 0x41AD JUMP JUMPDEST SWAP2 POP PUSH2 0x100 DUP6 PUSH2 0xFEB SWAP2 SWAP1 PUSH2 0x3EC9 JUMP JUMPDEST SWAP5 POP JUMPDEST PUSH1 0x0 DUP4 DUP4 DUP2 MLOAD DUP2 LT PUSH2 0x1003 JUMPI PUSH2 0x1002 PUSH2 0x426B JUMP JUMPDEST JUMPDEST PUSH1 0x20 MUL PUSH1 0x20 ADD ADD MLOAD PUSH1 0xFF AND EQ PUSH2 0x1026 JUMPI DUP2 DUP1 PUSH2 0x101E SWAP1 PUSH2 0x4137 JUMP JUMPDEST SWAP3 POP POP PUSH2 0xFEE JUMP JUMPDEST PUSH1 0x1 DUP4 DUP4 DUP2 MLOAD DUP2 LT PUSH2 0x103B JUMPI PUSH2 0x103A PUSH2 0x426B JUMP JUMPDEST JUMPDEST PUSH1 0x20 MUL PUSH1 0x20 ADD ADD SWAP1 PUSH1 0xFF AND SWAP1 DUP2 PUSH1 0xFF AND DUP2 MSTORE POP POP DUP1 DUP1 PUSH2 0x105A SWAP1 PUSH2 0x4137 JUMP JUMPDEST SWAP2 POP POP PUSH2 0xFA3 JUMP JUMPDEST POP PUSH1 0x0 SWAP1 POP PUSH1 0x0 PUSH1 0x41 SWAP1 POP PUSH1 0x0 JUMPDEST PUSH1 0x6 DUP2 LT ISZERO PUSH2 0x10DC JUMPI PUSH1 0x1 DUP5 DUP4 DUP2 MLOAD DUP2 LT PUSH2 0x108E JUMPI PUSH2 0x108D PUSH2 0x426B JUMP JUMPDEST JUMPDEST PUSH1 0x20 MUL PUSH1 0x20 ADD ADD MLOAD PUSH1 0xFF AND EQ ISZERO PUSH2 0x10C9 JUMPI DUP2 PUSH2 0x100 DUP5 PUSH2 0x10AE SWAP2 SWAP1 PUSH2 0x3EFA JUMP JUMPDEST PUSH2 0x10B8 SWAP2 SWAP1 PUSH2 0x3E39 JUMP JUMPDEST SWAP3 POP DUP1 DUP1 PUSH2 0x10C5 SWAP1 PUSH2 0x4137 JUMP JUMPDEST SWAP2 POP POP JUMPDEST DUP2 DUP1 PUSH2 0x10D4 SWAP1 PUSH2 0x40DC JUMP JUMPDEST SWAP3 POP POP PUSH2 0x1070 JUMP JUMPDEST POP DUP2 SWAP4 POP POP POP POP SWAP2 SWAP1 POP JUMP JUMPDEST PUSH1 0x60 PUSH1 0x3 DUP1 DUP2 GT ISZERO PUSH2 0x10FD JUMPI PUSH2 0x10FC PUSH2 0x423C JUMP JUMPDEST JUMPDEST PUSH1 0xE PUSH1 0x0 SWAP1 SLOAD SWAP1 PUSH2 0x100 EXP SWAP1 DIV PUSH1 0xFF AND PUSH1 0x3 DUP2 GT ISZERO PUSH2 0x111F JUMPI PUSH2 0x111E PUSH2 0x423C JUMP JUMPDEST JUMPDEST EQ PUSH2 0x115F JUMPI PUSH1 0x40 MLOAD PUSH32 0x8C379A000000000000000000000000000000000000000000000000000000000 DUP2 MSTORE PUSH1 0x4 ADD PUSH2 0x1156 SWAP1 PUSH2 0x3B1F JUMP JUMPDEST PUSH1 0x40 MLOAD DUP1 SWAP2 SUB SWAP1 REVERT JUMPDEST PUSH2 0x116A PUSH1 0x1E SLOAD PUSH2 0x8E5 JUMP JUMPDEST SWAP1 POP SWAP1 JUMP JUMPDEST PUSH2 0x1177 PUSH2 0x243D JUMP JUMPDEST DUP1 PUSH1 0xF DUP2 SWAP1 SSTORE POP POP JUMP JUMPDEST PUSH1 0xD SLOAD DUP2 JUMP JUMPDEST PUSH1 0xC SLOAD DUP2 JUMP JUMPDEST PUSH2 0x1195 PUSH2 0x243D JUMP JUMPDEST DUP1 PUSH1 0x6 PUSH1 0x0 PUSH2 0x100 EXP DUP2 SLOAD DUP2 PUSH20 0xFFFFFFFFFFFFFFFFFFFFFFFFFFFFFFFFFFFFFFFF MUL NOT AND SWAP1 DUP4 PUSH20 0xFFFFFFFFFFFFFFFFFFFFFFFFFFFFFFFFFFFFFFFF AND MUL OR SWAP1 SSTORE POP DUP1 PUSH20 0xFFFFFFFFFFFFFFFFFFFFFFFFFFFFFFFFFFFFFFFF AND PUSH32 0x383F8CB39DFA7C3FB901A460DD449EA924868F0A92FF03DA64740FFFA5F1DE62 PUSH1 0x40 MLOAD PUSH1 0x40 MLOAD DUP1 SWAP2 SUB SWAP1 LOG2 POP JUMP JUMPDEST PUSH2 0x1224 PUSH2 0x243D JUMP JUMPDEST PUSH1 0x3 DUP1 DUP2 GT ISZERO PUSH2 0x1237 JUMPI PUSH2 0x1236 PUSH2 0x423C JUMP JUMPDEST JUMPDEST PUSH1 0xE PUSH1 0x0 SWAP1 SLOAD SWAP1 PUSH2 0x100 EXP SWAP1 DIV PUSH1 0xFF AND PUSH1 0x3 DUP2 GT ISZERO PUSH2 0x1259 JUMPI PUSH2 0x1258 PUSH2 0x423C JUMP JUMPDEST JUMPDEST EQ ISZERO PUSH2 0x12A4 JUMPI PUSH1 0x11 SLOAD TIMESTAMP GT PUSH2 0x12A3 JUMPI PUSH1 0x40 MLOAD PUSH32 0x8C379A000000000000000000000000000000000000000000000000000000000 DUP2 MSTORE PUSH1 0x4 ADD PUSH2 0x129A SWAP1 PUSH2 0x3C9F JUMP JUMPDEST PUSH1 0x40 MLOAD DUP1 SWAP2 SUB SWAP1 REVERT JUMPDEST JUMPDEST PUSH1 0x0 DUP3 EQ ISZERO DUP1 PUSH2 0x12B5 JUMPI POP PUSH1 0x0 DUP2 EQ ISZERO JUMPDEST PUSH2 0x12F4 JUMPI PUSH1 0x40 MLOAD PUSH32 0x8C379A000000000000000000000000000000000000000000000000000000000 DUP2 MSTORE PUSH1 0x4 ADD PUSH2 0x12EB SWAP1 PUSH2 0x39FF JUMP JUMPDEST PUSH1 0x40 MLOAD DUP1 SWAP2 SUB SWAP1 REVERT JUMPDEST PUSH1 0x0 DUP2 EQ PUSH2 0x130D JUMPI PUSH1 0xC SLOAD DUP2 PUSH2 0x130A SWAP2 SWAP1 PUSH2 0x3F54 JUMP JUMPDEST SWAP2 POP JUMPDEST TIMESTAMP DUP3 GT PUSH2 0x134F JUMPI PUSH1 0x40 MLOAD PUSH32 0x8C379A000000000000000000000000000000000000000000000000000000000 DUP2 MSTORE PUSH1 0x4 ADD PUSH2 0x1346 SWAP1 PUSH2 0x3AFF JUMP JUMPDEST PUSH1 0x40 MLOAD DUP1 SWAP2 SUB SWAP1 REVERT JUMPDEST PUSH1 0x0 PUSH1 0xE PUSH1 0x0 PUSH2 0x100 EXP DUP2 SLOAD DUP2 PUSH1 0xFF MUL NOT AND SWAP1 DUP4 PUSH1 0x3 DUP2 GT ISZERO PUSH2 0x1375 JUMPI PUSH2 0x1374 PUSH2 0x423C JUMP JUMPDEST JUMPDEST MUL OR SWAP1 SSTORE POP DUP2 PUSH1 0xF DUP2 SWAP1 SSTORE POP PUSH1 0xC SLOAD DUP3 PUSH2 0x138F SWAP2 SWAP1 PUSH2 0x3E39 JUMP JUMPDEST PUSH1 0x10 DUP2 SWAP1 SSTORE POP PUSH1 0xD SLOAD PUSH1 0x10 SLOAD PUSH2 0x13A5 SWAP2 SWAP1 PUSH2 0x3E39 JUMP JUMPDEST PUSH1 0x11 DUP2 SWAP1 SSTORE POP PUSH1 0x0 PUSH1 0xB DUP2 SWAP1 SSTORE POP PUSH1 0x5 PUSH1 0x0 SWAP1 SLOAD SWAP1 PUSH2 0x100 EXP SWAP1 DIV PUSH20 0xFFFFFFFFFFFFFFFFFFFFFFFFFFFFFFFFFFFFFFFF AND PUSH20 0xFFFFFFFFFFFFFFFFFFFFFFFFFFFFFFFFFFFFFFFF AND PUSH4 0x70A08231 ADDRESS PUSH1 0x40 MLOAD DUP3 PUSH4 0xFFFFFFFF AND PUSH1 0xE0 SHL DUP2 MSTORE PUSH1 0x4 ADD PUSH2 0x140E SWAP2 SWAP1 PUSH2 0x3851 JUMP JUMPDEST PUSH1 0x20 PUSH1 0x40 MLOAD DUP1 DUP4 SUB DUP2 DUP7 DUP1 EXTCODESIZE ISZERO DUP1 ISZERO PUSH2 0x1426 JUMPI PUSH1 0x0 DUP1 REVERT JUMPDEST POP GAS STATICCALL ISZERO DUP1 ISZERO PUSH2 0x143A JUMPI RETURNDATASIZE PUSH1 0x0 DUP1 RETURNDATACOPY RETURNDATASIZE PUSH1 0x0 REVERT JUMPDEST POP POP POP POP PUSH1 0x40 MLOAD RETURNDATASIZE PUSH1 0x1F NOT PUSH1 0x1F DUP3 ADD AND DUP3 ADD DUP1 PUSH1 0x40 MSTORE POP DUP2 ADD SWAP1 PUSH2 0x145E SWAP2 SWAP1 PUSH2 0x328D JUMP JUMPDEST PUSH1 0x9 DUP2 SWAP1 SSTORE POP PUSH1 0xF SLOAD PUSH32 0x931B31DA73FD887AC2B49CA80CA85BCD1A4C2803B58F53D7D9FCC85EBEC3B9FA PUSH1 0x40 MLOAD PUSH1 0x40 MLOAD DUP1 SWAP2 SUB SWAP1 LOG2 POP POP JUMP JUMPDEST PUSH1 0xB SLOAD DUP2 JUMP JUMPDEST PUSH2 0x14A5 PUSH2 0x243D JUMP JUMPDEST PUSH1 0x0 PUSH1 0x3 DUP2 GT ISZERO PUSH2 0x14B9 JUMPI PUSH2 0x14B8 PUSH2 0x423C JUMP JUMPDEST JUMPDEST PUSH1 0xE PUSH1 0x0 SWAP1 SLOAD SWAP1 PUSH2 0x100 EXP SWAP1 DIV PUSH1 0xFF AND PUSH1 0x3 DUP2 GT ISZERO PUSH2 0x14DB JUMPI PUSH2 0x14DA PUSH2 0x423C JUMP JUMPDEST JUMPDEST EQ PUSH2 0x151B JUMPI PUSH1 0x40 MLOAD PUSH32 0x8C379A000000000000000000000000000000000000000000000000000000000 DUP2 MSTORE PUSH1 0x4 ADD PUSH2 0x1512 SWAP1 PUSH2 0x3A7F JUMP JUMPDEST PUSH1 0x40 MLOAD DUP1 SWAP2 SUB SWAP1 REVERT JUMPDEST DUP1 PUSH1 0x12 SWAP1 PUSH1 0x6 PUSH2 0x152C SWAP3 SWAP2 SWAP1 PUSH2 0x2F0E JUMP JUMPDEST POP POP JUMP JUMPDEST PUSH1 0x60 PUSH1 0x0 DUP1 PUSH1 0xB SLOAD DUP5 LT PUSH2 0x1579 JUMPI PUSH1 0x40 MLOAD PUSH32 0x8C379A000000000000000000000000000000000000000000000000000000000 DUP2 MSTORE PUSH1 0x4 ADD PUSH2 0x1570 SWAP1 PUSH2 0x39DF JUMP JUMPDEST PUSH1 0x40 MLOAD DUP1 SWAP2 SUB SWAP1 REVERT JUMPDEST PUSH1 0x0 PUSH1 0xA PUSH1 0x0 DUP7 DUP2 MSTORE PUSH1 0x20 ADD SWAP1 DUP2 MSTORE PUSH1 0x20 ADD PUSH1 0x0 KECCAK256 PUSH1 0x40 MLOAD DUP1 PUSH1 0x60 ADD PUSH1 0x40 MSTORE SWAP1 DUP2 PUSH1 0x0 DUP3 ADD PUSH1 0x0 SWAP1 SLOAD SWAP1 PUSH2 0x100 EXP SWAP1 DIV PUSH28 0xFFFFFFFFFFFFFFFFFFFFFFFFFFFFFFFFFFFFFFFFFFFFFFFFFFFFFFFF AND PUSH28 0xFFFFFFFFFFFFFFFFFFFFFFFFFFFFFFFFFFFFFFFFFFFFFFFFFFFFFFFF AND PUSH28 0xFFFFFFFFFFFFFFFFFFFFFFFFFFFFFFFFFFFFFFFFFFFFFFFFFFFFFFFF AND DUP2 MSTORE PUSH1 0x20 ADD PUSH1 0x0 DUP3 ADD PUSH1 0x1C SWAP1 SLOAD SWAP1 PUSH2 0x100 EXP SWAP1 DIV PUSH4 0xFFFFFFFF AND PUSH4 0xFFFFFFFF AND PUSH4 0xFFFFFFFF AND DUP2 MSTORE PUSH1 0x20 ADD PUSH1 0x1 DUP3 ADD PUSH1 0x0 SWAP1 SLOAD SWAP1 PUSH2 0x100 EXP SWAP1 DIV PUSH20 0xFFFFFFFFFFFFFFFFFFFFFFFFFFFFFFFFFFFFFFFF AND PUSH20 0xFFFFFFFFFFFFFFFFFFFFFFFFFFFFFFFFFFFFFFFF AND PUSH20 0xFFFFFFFFFFFFFFFFFFFFFFFFFFFFFFFFFFFFFFFF AND DUP2 MSTORE POP POP SWAP1 POP PUSH2 0x16B0 DUP2 PUSH1 0x0 ADD MLOAD PUSH28 0xFFFFFFFFFFFFFFFFFFFFFFFFFFFFFFFFFFFFFFFFFFFFFFFFFFFFFFFF AND PUSH2 0x8E5 JUMP JUMPDEST DUP2 PUSH1 0x20 ADD MLOAD DUP3 PUSH1 0x40 ADD MLOAD SWAP4 POP SWAP4 POP SWAP4 POP POP SWAP2 SWAP4 SWAP1 SWAP3 POP JUMP JUMPDEST PUSH2 0x16D1 CALLER PUSH2 0x24BB JUMP JUMPDEST ISZERO PUSH2 0x1711 JUMPI PUSH1 0x40 MLOAD PUSH32 0x8C379A000000000000000000000000000000000000000000000000000000000 DUP2 MSTORE PUSH1 0x4 ADD PUSH2 0x1708 SWAP1 PUSH2 0x3A5F JUMP JUMPDEST PUSH1 0x40 MLOAD DUP1 SWAP2 SUB SWAP1 REVERT JUMPDEST ORIGIN PUSH20 0xFFFFFFFFFFFFFFFFFFFFFFFFFFFFFFFFFFFFFFFF AND CALLER PUSH20 0xFFFFFFFFFFFFFFFFFFFFFFFFFFFFFFFFFFFFFFFF AND EQ PUSH2 0x177F JUMPI PUSH1 0x40 MLOAD PUSH32 0x8C379A000000000000000000000000000000000000000000000000000000000 DUP2 MSTORE PUSH1 0x4 ADD PUSH2 0x1776 SWAP1 PUSH2 0x3B9F JUMP JUMPDEST PUSH1 0x40 MLOAD DUP1 SWAP2 SUB SWAP1 REVERT JUMPDEST TIMESTAMP PUSH1 0x10 SLOAD GT ISZERO PUSH2 0x17C4 JUMPI PUSH1 0x40 MLOAD PUSH32 0x8C379A000000000000000000000000000000000000000000000000000000000 DUP2 MSTORE PUSH1 0x4 ADD PUSH2 0x17BB SWAP1 PUSH2 0x3C5F JUMP JUMPDEST PUSH1 0x40 MLOAD DUP1 SWAP2 SUB SWAP1 REVERT JUMPDEST PUSH1 0x1 PUSH1 0x3 DUP2 GT ISZERO PUSH2 0x17D8 JUMPI PUSH2 0x17D7 PUSH2 0x423C JUMP JUMPDEST JUMPDEST PUSH1 0xE PUSH1 0x0 SWAP1 SLOAD SWAP1 PUSH2 0x100 EXP SWAP1 DIV PUSH1 0xFF AND PUSH1 0x3 DUP2 GT ISZERO PUSH2 0x17FA JUMPI PUSH2 0x17F9 PUSH2 0x423C JUMP JUMPDEST JUMPDEST EQ PUSH2 0x183A JUMPI PUSH1 0x40 MLOAD PUSH32 0x8C379A000000000000000000000000000000000000000000000000000000000 DUP2 MSTORE PUSH1 0x4 ADD PUSH2 0x1831 SWAP1 PUSH2 0x3C1F JUMP JUMPDEST PUSH1 0x40 MLOAD DUP1 SWAP2 SUB SWAP1 REVERT JUMPDEST PUSH1 0x2 PUSH1 0xE PUSH1 0x0 PUSH2 0x100 EXP DUP2 SLOAD DUP2 PUSH1 0xFF MUL NOT AND SWAP1 DUP4 PUSH1 0x3 DUP2 GT ISZERO PUSH2 0x1860 JUMPI PUSH2 0x185F PUSH2 0x423C JUMP JUMPDEST JUMPDEST MUL OR SWAP1 SSTORE POP NUMBER PUSH1 0x7 DUP2 SWAP1 SSTORE POP JUMP JUMPDEST PUSH2 0x1876 PUSH2 0x243D JUMP JUMPDEST PUSH2 0x1880 PUSH1 0x0 PUSH2 0x25B1 JUMP JUMPDEST JUMP JUMPDEST PUSH2 0x188B CALLER PUSH2 0x24BB JUMP JUMPDEST ISZERO PUSH2 0x18CB JUMPI PUSH1 0x40 MLOAD PUSH32 0x8C379A000000000000000000000000000000000000000000000000000000000 DUP2 MSTORE PUSH1 0x4 ADD PUSH2 0x18C2 SWAP1 PUSH2 0x3A5F JUMP JUMPDEST PUSH1 0x40 MLOAD DUP1 SWAP2 SUB SWAP1 REVERT JUMPDEST ORIGIN PUSH20 0xFFFFFFFFFFFFFFFFFFFFFFFFFFFFFFFFFFFFFFFF AND CALLER PUSH20 0xFFFFFFFFFFFFFFFFFFFFFFFFFFFFFFFFFFFFFFFF AND EQ PUSH2 0x1939 JUMPI PUSH1 0x40 MLOAD PUSH32 0x8C379A000000000000000000000000000000000000000000000000000000000 DUP2 MSTORE PUSH1 0x4 ADD PUSH2 0x1930 SWAP1 PUSH2 0x3B9F JUMP JUMPDEST PUSH1 0x40 MLOAD DUP1 SWAP2 SUB SWAP1 REVERT JUMPDEST PUSH2 0x1941 PUSH2 0x243D JUMP JUMPDEST PUSH1 0x2 PUSH1 0x3 DUP2 GT ISZERO PUSH2 0x1955 JUMPI PUSH2 0x1954 PUSH2 0x423C JUMP JUMPDEST JUMPDEST PUSH1 0xE PUSH1 0x0 SWAP1 SLOAD SWAP1 PUSH2 0x100 EXP SWAP1 DIV PUSH1 0xFF AND PUSH1 0x3 DUP2 GT ISZERO PUSH2 0x1977 JUMPI PUSH2 0x1976 PUSH2 0x423C JUMP JUMPDEST JUMPDEST EQ PUSH2 0x19B7 JUMPI PUSH1 0x40 MLOAD PUSH32 0x8C379A000000000000000000000000000000000000000000000000000000000 DUP2 MSTORE PUSH1 0x4 ADD PUSH2 0x19AE SWAP1 PUSH2 0x3CFF JUMP JUMPDEST PUSH1 0x40 MLOAD DUP1 SWAP2 SUB SWAP1 REVERT JUMPDEST TIMESTAMP PUSH1 0x11 SLOAD GT PUSH2 0x19FB JUMPI PUSH1 0x40 MLOAD PUSH32 0x8C379A000000000000000000000000000000000000000000000000000000000 DUP2 MSTORE PUSH1 0x4 ADD PUSH2 0x19F2 SWAP1 PUSH2 0x3A3F JUMP JUMPDEST PUSH1 0x40 MLOAD DUP1 SWAP2 SUB SWAP1 REVERT JUMPDEST PUSH1 0x7 SLOAD NUMBER EQ ISZERO PUSH2 0x1A40 JUMPI PUSH1 0x40 MLOAD PUSH32 0x8C379A000000000000000000000000000000000000000000000000000000000 DUP2 MSTORE PUSH1 0x4 ADD PUSH2 0x1A37 SWAP1 PUSH2 0x39BF JUMP JUMPDEST PUSH1 0x40 MLOAD DUP1 SWAP2 SUB SWAP1 REVERT JUMPDEST NUMBER PUSH1 0x8 DUP2 SWAP1 SSTORE POP PUSH1 0x6 PUSH1 0x0 SWAP1 SLOAD SWAP1 PUSH2 0x100 EXP SWAP1 DIV PUSH20 0xFFFFFFFFFFFFFFFFFFFFFFFFFFFFFFFFFFFFFFFF AND PUSH20 0xFFFFFFFFFFFFFFFFFFFFFFFFFFFFFFFFFFFFFFFF AND PUSH4 0xCE0D44A5 DUP3 PUSH1 0x40 MLOAD DUP3 PUSH4 0xFFFFFFFF AND PUSH1 0xE0 SHL DUP2 MSTORE PUSH1 0x4 ADD PUSH2 0x1AA2 SWAP2 SWAP1 PUSH2 0x3D3F JUMP JUMPDEST PUSH1 0x0 PUSH1 0x40 MLOAD DUP1 DUP4 SUB DUP2 PUSH1 0x0 DUP8 DUP1 EXTCODESIZE ISZERO DUP1 ISZERO PUSH2 0x1ABC JUMPI PUSH1 0x0 DUP1 REVERT JUMPDEST POP GAS CALL ISZERO DUP1 ISZERO PUSH2 0x1AD0 JUMPI RETURNDATASIZE PUSH1 0x0 DUP1 RETURNDATACOPY RETURNDATASIZE PUSH1 0x0 REVERT JUMPDEST POP POP POP POP POP JUMP JUMPDEST PUSH2 0x1ADF PUSH2 0x243D JUMP JUMPDEST DUP1 PUSH1 0x2 DUP2 SWAP1 SSTORE POP POP JUMP JUMPDEST PUSH1 0xF SLOAD DUP2 JUMP JUMPDEST PUSH2 0x1AF8 CALLER PUSH2 0x24BB JUMP JUMPDEST ISZERO PUSH2 0x1B38 JUMPI PUSH1 0x40 MLOAD PUSH32 0x8C379A000000000000000000000000000000000000000000000000000000000 DUP2 MSTORE PUSH1 0x4 ADD PUSH2 0x1B2F SWAP1 PUSH2 0x3A5F JUMP JUMPDEST PUSH1 0x40 MLOAD DUP1 SWAP2 SUB SWAP1 REVERT JUMPDEST ORIGIN PUSH20 0xFFFFFFFFFFFFFFFFFFFFFFFFFFFFFFFFFFFFFFFF AND CALLER PUSH20 0xFFFFFFFFFFFFFFFFFFFFFFFFFFFFFFFFFFFFFFFF AND EQ PUSH2 0x1BA6 JUMPI PUSH1 0x40 MLOAD PUSH32 0x8C379A000000000000000000000000000000000000000000000000000000000 DUP2 MSTORE PUSH1 0x4 ADD PUSH2 0x1B9D SWAP1 PUSH2 0x3B9F JUMP JUMPDEST PUSH1 0x40 MLOAD DUP1 SWAP2 SUB SWAP1 REVERT JUMPDEST PUSH2 0x1BAE PUSH2 0x24CE JUMP JUMPDEST PUSH1 0x3 DUP1 DUP2 GT ISZERO PUSH2 0x1BC1 JUMPI PUSH2 0x1BC0 PUSH2 0x423C JUMP JUMPDEST JUMPDEST PUSH1 0xE PUSH1 0x0 SWAP1 SLOAD SWAP1 PUSH2 0x100 EXP SWAP1 DIV PUSH1 0xFF AND PUSH1 0x3 DUP2 GT ISZERO PUSH2 0x1BE3 JUMPI PUSH2 0x1BE2 PUSH2 0x423C JUMP JUMPDEST JUMPDEST EQ PUSH2 0x1C23 JUMPI PUSH1 0x40 MLOAD PUSH32 0x8C379A000000000000000000000000000000000000000000000000000000000 DUP2 MSTORE PUSH1 0x4 ADD PUSH2 0x1C1A SWAP1 PUSH2 0x3B1F JUMP JUMPDEST PUSH1 0x40 MLOAD DUP1 SWAP2 SUB SWAP1 REVERT JUMPDEST PUSH1 0x0 DUP3 DUP3 SWAP1 POP GT PUSH2 0x1C69 JUMPI PUSH1 0x40 MLOAD PUSH32 0x8C379A000000000000000000000000000000000000000000000000000000000 DUP2 MSTORE PUSH1 0x4 ADD PUSH2 0x1C60 SWAP1 PUSH2 0x3C3F JUMP JUMPDEST PUSH1 0x40 MLOAD DUP1 SWAP2 SUB SWAP1 REVERT JUMPDEST PUSH1 0x11 SLOAD TIMESTAMP LT PUSH2 0x1CAD JUMPI PUSH1 0x40 MLOAD PUSH32 0x8C379A000000000000000000000000000000000000000000000000000000000 DUP2 MSTORE PUSH1 0x4 ADD PUSH2 0x1CA4 SWAP1 PUSH2 0x3ABF JUMP JUMPDEST PUSH1 0x40 MLOAD DUP1 SWAP2 SUB SWAP1 REVERT JUMPDEST PUSH1 0x0 DUP1 JUMPDEST DUP4 DUP4 SWAP1 POP DUP2 LT ISZERO PUSH2 0x1E90 JUMPI CALLER PUSH20 0xFFFFFFFFFFFFFFFFFFFFFFFFFFFFFFFFFFFFFFFF AND PUSH1 0xA PUSH1 0x0 DUP7 DUP7 DUP6 DUP2 DUP2 LT PUSH2 0x1CEA JUMPI PUSH2 0x1CE9 PUSH2 0x426B JUMP JUMPDEST JUMPDEST SWAP1 POP PUSH1 0x20 MUL ADD CALLDATALOAD DUP2 MSTORE PUSH1 0x20 ADD SWAP1 DUP2 MSTORE PUSH1 0x20 ADD PUSH1 0x0 KECCAK256 PUSH1 0x1 ADD PUSH1 0x0 SWAP1 SLOAD SWAP1 PUSH2 0x100 EXP SWAP1 DIV PUSH20 0xFFFFFFFFFFFFFFFFFFFFFFFFFFFFFFFFFFFFFFFF AND PUSH20 0xFFFFFFFFFFFFFFFFFFFFFFFFFFFFFFFFFFFFFFFF AND EQ PUSH2 0x1D79 JUMPI PUSH1 0x40 MLOAD PUSH32 0x8C379A000000000000000000000000000000000000000000000000000000000 DUP2 MSTORE PUSH1 0x4 ADD PUSH2 0x1D70 SWAP1 PUSH2 0x3D1F JUMP JUMPDEST PUSH1 0x40 MLOAD DUP1 SWAP2 SUB SWAP1 REVERT JUMPDEST PUSH1 0x18 PUSH1 0xA PUSH1 0x0 DUP7 DUP7 DUP6 DUP2 DUP2 LT PUSH2 0x1D92 JUMPI PUSH2 0x1D91 PUSH2 0x426B JUMP JUMPDEST JUMPDEST SWAP1 POP PUSH1 0x20 MUL ADD CALLDATALOAD DUP2 MSTORE PUSH1 0x20 ADD SWAP1 DUP2 MSTORE PUSH1 0x20 ADD PUSH1 0x0 KECCAK256 PUSH1 0x0 ADD PUSH1 0x1C SWAP1 SLOAD SWAP1 PUSH2 0x100 EXP SWAP1 DIV PUSH4 0xFFFFFFFF AND PUSH4 0xFFFFFFFF AND PUSH1 0x6 DUP2 LT PUSH2 0x1DD2 JUMPI PUSH2 0x1DD1 PUSH2 0x426B JUMP JUMPDEST JUMPDEST ADD SLOAD DUP3 PUSH2 0x1DDF SWAP2 SWAP1 PUSH2 0x3E39 JUMP JUMPDEST SWAP2 POP PUSH1 0xA PUSH1 0x0 DUP6 DUP6 DUP5 DUP2 DUP2 LT PUSH2 0x1DF8 JUMPI PUSH2 0x1DF7 PUSH2 0x426B JUMP JUMPDEST JUMPDEST SWAP1 POP PUSH1 0x20 MUL ADD CALLDATALOAD DUP2 MSTORE PUSH1 0x20 ADD SWAP1 DUP2 MSTORE PUSH1 0x20 ADD PUSH1 0x0 KECCAK256 PUSH1 0x0 DUP1 DUP3 ADD PUSH1 0x0 PUSH2 0x100 EXP DUP2 SLOAD SWAP1 PUSH28 0xFFFFFFFFFFFFFFFFFFFFFFFFFFFFFFFFFFFFFFFFFFFFFFFFFFFFFFFF MUL NOT AND SWAP1 SSTORE PUSH1 0x0 DUP3 ADD PUSH1 0x1C PUSH2 0x100 EXP DUP2 SLOAD SWAP1 PUSH4 0xFFFFFFFF MUL NOT AND SWAP1 SSTORE PUSH1 0x1 DUP3 ADD PUSH1 0x0 PUSH2 0x100 EXP DUP2 SLOAD SWAP1 PUSH20 0xFFFFFFFFFFFFFFFFFFFFFFFFFFFFFFFFFFFFFFFF MUL NOT AND SWAP1 SSTORE POP POP DUP1 DUP1 PUSH2 0x1E88 SWAP1 PUSH2 0x4137 JUMP JUMPDEST SWAP2 POP POP PUSH2 0x1CB1 JUMP JUMPDEST POP PUSH1 0x0 DUP2 GT PUSH2 0x1ED4 JUMPI PUSH1 0x40 MLOAD PUSH32 0x8C379A000000000000000000000000000000000000000000000000000000000 DUP2 MSTORE PUSH1 0x4 ADD PUSH2 0x1ECB SWAP1 PUSH2 0x3BBF JUMP JUMPDEST PUSH1 0x40 MLOAD DUP1 SWAP2 SUB SWAP1 REVERT JUMPDEST PUSH2 0x1F21 CALLER DUP3 PUSH1 0x5 PUSH1 0x0 SWAP1 SLOAD SWAP1 PUSH2 0x100 EXP SWAP1 DIV PUSH20 0xFFFFFFFFFFFFFFFFFFFFFFFFFFFFFFFFFFFFFFFF AND PUSH20 0xFFFFFFFFFFFFFFFFFFFFFFFFFFFFFFFFFFFFFFFF AND PUSH2 0x2677 SWAP1 SWAP3 SWAP2 SWAP1 PUSH4 0xFFFFFFFF AND JUMP JUMPDEST CALLER PUSH20 0xFFFFFFFFFFFFFFFFFFFFFFFFFFFFFFFFFFFFFFFF AND PUSH32 0xC471EF95EA81F4F24BB1A51BA0BD8904858507D29DFDBDE1882413B20FCC36EE DUP3 PUSH1 0x40 MLOAD PUSH2 0x1F67 SWAP2 SWAP1 PUSH2 0x3D3F JUMP JUMPDEST PUSH1 0x40 MLOAD DUP1 SWAP2 SUB SWAP1 LOG2 POP PUSH2 0x1F78 PUSH2 0x25A7 JUMP JUMPDEST POP POP JUMP JUMPDEST PUSH1 0x0 PUSH1 0x1 PUSH1 0x0 SWAP1 SLOAD SWAP1 PUSH2 0x100 EXP SWAP1 DIV PUSH20 0xFFFFFFFFFFFFFFFFFFFFFFFFFFFFFFFFFFFFFFFF AND SWAP1 POP SWAP1 JUMP JUMPDEST PUSH1 0x12 DUP2 PUSH1 0x6 DUP2 LT PUSH2 0x1FB6 JUMPI PUSH1 0x0 DUP1 REVERT JUMPDEST ADD PUSH1 0x0 SWAP2 POP SWAP1 POP SLOAD DUP2 JUMP JUMPDEST PUSH1 0x9 SLOAD DUP2 JUMP JUMPDEST PUSH1 0x7 SLOAD DUP2 JUMP JUMPDEST PUSH1 0x3 PUSH1 0x0 SWAP1 SLOAD SWAP1 PUSH2 0x100 EXP SWAP1 DIV PUSH20 0xFFFFFFFFFFFFFFFFFFFFFFFFFFFFFFFFFFFFFFFF AND DUP2 JUMP JUMPDEST PUSH1 0x2 SLOAD DUP2 JUMP JUMPDEST PUSH2 0x2001 PUSH2 0x243D JUMP JUMPDEST DUP1 PUSH1 0x10 DUP2 SWAP1 SSTORE POP POP JUMP JUMPDEST PUSH2 0x2014 CALLER PUSH2 0x24BB JUMP JUMPDEST ISZERO PUSH2 0x2054 JUMPI PUSH1 0x40 MLOAD PUSH32 0x8C379A000000000000000000000000000000000000000000000000000000000 DUP2 MSTORE PUSH1 0x4 ADD PUSH2 0x204B SWAP1 PUSH2 0x3A5F JUMP JUMPDEST PUSH1 0x40 MLOAD DUP1 SWAP2 SUB SWAP1 REVERT JUMPDEST ORIGIN PUSH20 0xFFFFFFFFFFFFFFFFFFFFFFFFFFFFFFFFFFFFFFFF AND CALLER PUSH20 0xFFFFFFFFFFFFFFFFFFFFFFFFFFFFFFFFFFFFFFFF AND EQ PUSH2 0x20C2 JUMPI PUSH1 0x40 MLOAD PUSH32 0x8C379A000000000000000000000000000000000000000000000000000000000 DUP2 MSTORE PUSH1 0x4 ADD PUSH2 0x20B9 SWAP1 PUSH2 0x3B9F JUMP JUMPDEST PUSH1 0x40 MLOAD DUP1 SWAP2 SUB SWAP1 REVERT JUMPDEST PUSH2 0x20CA PUSH2 0x243D JUMP JUMPDEST PUSH1 0x2 PUSH1 0x3 DUP2 GT ISZERO PUSH2 0x20DE JUMPI PUSH2 0x20DD PUSH2 0x423C JUMP JUMPDEST JUMPDEST PUSH1 0xE PUSH1 0x0 SWAP1 SLOAD SWAP1 PUSH2 0x100 EXP SWAP1 DIV PUSH1 0xFF AND PUSH1 0x3 DUP2 GT ISZERO PUSH2 0x2100 JUMPI PUSH2 0x20FF PUSH2 0x423C JUMP JUMPDEST JUMPDEST EQ PUSH2 0x2140 JUMPI PUSH1 0x40 MLOAD PUSH32 0x8C379A000000000000000000000000000000000000000000000000000000000 DUP2 MSTORE PUSH1 0x4 ADD PUSH2 0x2137 SWAP1 PUSH2 0x3CFF JUMP JUMPDEST PUSH1 0x40 MLOAD DUP1 SWAP2 SUB SWAP1 REVERT JUMPDEST TIMESTAMP PUSH1 0x11 SLOAD GT PUSH2 0x2184 JUMPI PUSH1 0x40 MLOAD PUSH32 0x8C379A000000000000000000000000000000000000000000000000000000000 DUP2 MSTORE PUSH1 0x4 ADD PUSH2 0x217B SWAP1 PUSH2 0x3A3F JUMP JUMPDEST PUSH1 0x40 MLOAD DUP1 SWAP2 SUB SWAP1 REVERT JUMPDEST PUSH1 0x8 SLOAD NUMBER EQ ISZERO PUSH2 0x21C9 JUMPI PUSH1 0x40 MLOAD PUSH32 0x8C379A000000000000000000000000000000000000000000000000000000000 DUP2 MSTORE PUSH1 0x4 ADD PUSH2 0x21C0 SWAP1 PUSH2 0x3B3F JUMP JUMPDEST PUSH1 0x40 MLOAD DUP1 SWAP2 SUB SWAP1 REVERT JUMPDEST PUSH1 0x3 PUSH1 0xE PUSH1 0x0 PUSH2 0x100 EXP DUP2 SLOAD DUP2 PUSH1 0xFF MUL NOT AND SWAP1 DUP4 PUSH1 0x3 DUP2 GT ISZERO PUSH2 0x21EF JUMPI PUSH2 0x21EE PUSH2 0x423C JUMP JUMPDEST JUMPDEST MUL OR SWAP1 SSTORE POP PUSH1 0x0 PUSH1 0x6 PUSH1 0x0 SWAP1 SLOAD SWAP1 PUSH2 0x100 EXP SWAP1 DIV PUSH20 0xFFFFFFFFFFFFFFFFFFFFFFFFFFFFFFFFFFFFFFFF AND PUSH20 0xFFFFFFFFFFFFFFFFFFFFFFFFFFFFFFFFFFFFFFFF AND PUSH4 0x89C16E08 DUP4 PUSH1 0x40 MLOAD DUP3 PUSH4 0xFFFFFFFF AND PUSH1 0xE0 SHL DUP2 MSTORE PUSH1 0x4 ADD PUSH2 0x2251 SWAP2 SWAP1 PUSH2 0x3D3F JUMP JUMPDEST PUSH1 0x20 PUSH1 0x40 MLOAD DUP1 DUP4 SUB DUP2 PUSH1 0x0 DUP8 DUP1 EXTCODESIZE ISZERO DUP1 ISZERO PUSH2 0x226B JUMPI PUSH1 0x0 DUP1 REVERT JUMPDEST POP GAS CALL ISZERO DUP1 ISZERO PUSH2 0x227F JUMPI RETURNDATASIZE PUSH1 0x0 DUP1 RETURNDATACOPY RETURNDATASIZE PUSH1 0x0 REVERT JUMPDEST POP POP POP POP PUSH1 0x40 MLOAD RETURNDATASIZE PUSH1 0x1F NOT PUSH1 0x1F DUP3 ADD AND DUP3 ADD DUP1 PUSH1 0x40 MSTORE POP DUP2 ADD SWAP1 PUSH2 0x22A3 SWAP2 SWAP1 PUSH2 0x328D JUMP JUMPDEST SWAP1 POP PUSH2 0x22AE DUP2 PUSH2 0xF50 JUMP JUMPDEST PUSH1 0x1E DUP2 SWAP1 SSTORE POP PUSH2 0x22BC PUSH2 0x26FD JUMP JUMPDEST POP POP JUMP JUMPDEST PUSH1 0x1E SLOAD DUP2 JUMP JUMPDEST PUSH1 0x6 PUSH1 0x0 SWAP1 SLOAD SWAP1 PUSH2 0x100 EXP SWAP1 DIV PUSH20 0xFFFFFFFFFFFFFFFFFFFFFFFFFFFFFFFFFFFFFFFF AND DUP2 JUMP JUMPDEST PUSH2 0x22F4 PUSH2 0x243D JUMP JUMPDEST DUP1 PUSH1 0x11 DUP2 SWAP1 SSTORE POP POP JUMP JUMPDEST PUSH1 0x8 SLOAD DUP2 JUMP JUMPDEST PUSH2 0x230C PUSH2 0x243D JUMP JUMPDEST DUP1 PUSH1 0x3 PUSH1 0x0 PUSH2 0x100 EXP DUP2 SLOAD DUP2 PUSH20 0xFFFFFFFFFFFFFFFFFFFFFFFFFFFFFFFFFFFFFFFF MUL NOT AND SWAP1 DUP4 PUSH20 0xFFFFFFFFFFFFFFFFFFFFFFFFFFFFFFFFFFFFFFFF AND MUL OR SWAP1 SSTORE POP DUP1 PUSH20 0xFFFFFFFFFFFFFFFFFFFFFFFFFFFFFFFFFFFFFFFF AND PUSH32 0x8B4531436AF204A864ADC47C345E10CB5C4DF79165AA0CB85FC45AC5B551517B PUSH1 0x40 MLOAD PUSH1 0x40 MLOAD DUP1 SWAP2 SUB SWAP1 LOG2 POP JUMP JUMPDEST PUSH2 0x239B PUSH2 0x243D JUMP JUMPDEST PUSH1 0x0 PUSH20 0xFFFFFFFFFFFFFFFFFFFFFFFFFFFFFFFFFFFFFFFF AND DUP2 PUSH20 0xFFFFFFFFFFFFFFFFFFFFFFFFFFFFFFFFFFFFFFFF AND EQ ISZERO PUSH2 0x240B JUMPI PUSH1 0x40 MLOAD PUSH32 0x8C379A000000000000000000000000000000000000000000000000000000000 DUP2 MSTORE PUSH1 0x4 ADD PUSH2 0x2402 SWAP1 PUSH2 0x3A1F JUMP JUMPDEST PUSH1 0x40 MLOAD DUP1 SWAP2 SUB SWAP1 REVERT JUMPDEST PUSH2 0x2414 DUP2 PUSH2 0x25B1 JUMP JUMPDEST POP JUMP JUMPDEST PUSH1 0x5 PUSH1 0x0 SWAP1 SLOAD SWAP1 PUSH2 0x100 EXP SWAP1 DIV PUSH20 0xFFFFFFFFFFFFFFFFFFFFFFFFFFFFFFFFFFFFFFFF AND DUP2 JUMP JUMPDEST PUSH2 0x2445 PUSH2 0x2C70 JUMP JUMPDEST PUSH20 0xFFFFFFFFFFFFFFFFFFFFFFFFFFFFFFFFFFFFFFFF AND PUSH2 0x2463 PUSH2 0x1F7C JUMP JUMPDEST PUSH20 0xFFFFFFFFFFFFFFFFFFFFFFFFFFFFFFFFFFFFFFFF AND EQ PUSH2 0x24B9 JUMPI PUSH1 0x40 MLOAD PUSH32 0x8C379A000000000000000000000000000000000000000000000000000000000 DUP2 MSTORE PUSH1 0x4 ADD PUSH2 0x24B0 SWAP1 PUSH2 0x3BDF JUMP JUMPDEST PUSH1 0x40 MLOAD DUP1 SWAP2 SUB SWAP1 REVERT JUMPDEST JUMP JUMPDEST PUSH1 0x0 DUP1 DUP3 EXTCODESIZE SWAP1 POP PUSH1 0x0 DUP2 GT SWAP2 POP POP SWAP2 SWAP1 POP JUMP JUMPDEST PUSH1 0x2 PUSH1 0x0 SLOAD EQ ISZERO PUSH2 0x2514 JUMPI PUSH1 0x40 MLOAD PUSH32 0x8C379A000000000000000000000000000000000000000000000000000000000 DUP2 MSTORE PUSH1 0x4 ADD PUSH2 0x250B SWAP1 PUSH2 0x3CDF JUMP JUMPDEST PUSH1 0x40 MLOAD DUP1 SWAP2 SUB SWAP1 REVERT JUMPDEST PUSH1 0x2 PUSH1 0x0 DUP2 SWAP1 SSTORE POP JUMP JUMPDEST PUSH2 0x25A1 DUP5 PUSH4 0x23B872DD PUSH1 0xE0 SHL DUP6 DUP6 DUP6 PUSH1 0x40 MLOAD PUSH1 0x24 ADD PUSH2 0x253F SWAP4 SWAP3 SWAP2 SWAP1 PUSH2 0x386C JUMP JUMPDEST PUSH1 0x40 MLOAD PUSH1 0x20 DUP2 DUP4 SUB SUB DUP2 MSTORE SWAP1 PUSH1 0x40 MSTORE SWAP1 PUSH28 0xFFFFFFFFFFFFFFFFFFFFFFFFFFFFFFFFFFFFFFFFFFFFFFFFFFFFFFFF NOT AND PUSH1 0x20 DUP3 ADD DUP1 MLOAD PUSH28 0xFFFFFFFFFFFFFFFFFFFFFFFFFFFFFFFFFFFFFFFFFFFFFFFFFFFFFFFF DUP4 DUP2 DUP4 AND OR DUP4 MSTORE POP POP POP POP PUSH2 0x2C78 JUMP JUMPDEST POP POP POP POP JUMP JUMPDEST PUSH1 0x1 PUSH1 0x0 DUP2 SWAP1 SSTORE POP JUMP JUMPDEST PUSH1 0x0 PUSH1 0x1 PUSH1 0x0 SWAP1 SLOAD SWAP1 PUSH2 0x100 EXP SWAP1 DIV PUSH20 0xFFFFFFFFFFFFFFFFFFFFFFFFFFFFFFFFFFFFFFFF AND SWAP1 POP DUP2 PUSH1 0x1 PUSH1 0x0 PUSH2 0x100 EXP DUP2 SLOAD DUP2 PUSH20 0xFFFFFFFFFFFFFFFFFFFFFFFFFFFFFFFFFFFFFFFF MUL NOT AND SWAP1 DUP4 PUSH20 0xFFFFFFFFFFFFFFFFFFFFFFFFFFFFFFFFFFFFFFFF AND MUL OR SWAP1 SSTORE POP DUP2 PUSH20 0xFFFFFFFFFFFFFFFFFFFFFFFFFFFFFFFFFFFFFFFF AND DUP2 PUSH20 0xFFFFFFFFFFFFFFFFFFFFFFFFFFFFFFFFFFFFFFFF AND PUSH32 0x8BE0079C531659141344CD1FD0A4F28419497F9722A3DAAFE3B4186F6B6457E0 PUSH1 0x40 MLOAD PUSH1 0x40 MLOAD DUP1 SWAP2 SUB SWAP1 LOG3 POP POP JUMP JUMPDEST PUSH2 0x26F8 DUP4 PUSH4 0xA9059CBB PUSH1 0xE0 SHL DUP5 DUP5 PUSH1 0x40 MLOAD PUSH1 0x24 ADD PUSH2 0x2696 SWAP3 SWAP2 SWAP1 PUSH2 0x38A3 JUMP JUMPDEST PUSH1 0x40 MLOAD PUSH1 0x20 DUP2 DUP4 SUB SUB DUP2 MSTORE SWAP1 PUSH1 0x40 MSTORE SWAP1 PUSH28 0xFFFFFFFFFFFFFFFFFFFFFFFFFFFFFFFFFFFFFFFFFFFFFFFFFFFFFFFF NOT AND PUSH1 0x20 DUP3 ADD DUP1 MLOAD PUSH28 0xFFFFFFFFFFFFFFFFFFFFFFFFFFFFFFFFFFFFFFFFFFFFFFFFFFFFFFFF DUP4 DUP2 DUP4 AND OR DUP4 MSTORE POP POP POP POP PUSH2 0x2C78 JUMP JUMPDEST POP POP POP JUMP JUMPDEST PUSH1 0x0 PUSH1 0x6 PUSH8 0xFFFFFFFFFFFFFFFF DUP2 GT ISZERO PUSH2 0x271A JUMPI PUSH2 0x2719 PUSH2 0x429A JUMP JUMPDEST JUMPDEST PUSH1 0x40 MLOAD SWAP1 DUP1 DUP3 MSTORE DUP1 PUSH1 0x20 MUL PUSH1 0x20 ADD DUP3 ADD PUSH1 0x40 MSTORE DUP1 ISZERO PUSH2 0x2748 JUMPI DUP2 PUSH1 0x20 ADD PUSH1 0x20 DUP3 MUL DUP1 CALLDATASIZE DUP4 CALLDATACOPY DUP1 DUP3 ADD SWAP2 POP POP SWAP1 POP JUMPDEST POP SWAP1 POP PUSH1 0x0 JUMPDEST PUSH1 0xB SLOAD DUP2 LT ISZERO PUSH2 0x2951 JUMPI PUSH1 0x0 PUSH1 0xA PUSH1 0x0 DUP4 DUP2 MSTORE PUSH1 0x20 ADD SWAP1 DUP2 MSTORE PUSH1 0x20 ADD PUSH1 0x0 KECCAK256 SWAP1 POP PUSH1 0x0 PUSH1 0x1E SLOAD SWAP1 POP PUSH1 0x0 DUP3 PUSH1 0x0 ADD PUSH1 0x0 SWAP1 SLOAD SWAP1 PUSH2 0x100 EXP SWAP1 DIV PUSH28 0xFFFFFFFFFFFFFFFFFFFFFFFFFFFFFFFFFFFFFFFFFFFFFFFFFFFFFFFF AND PUSH28 0xFFFFFFFFFFFFFFFFFFFFFFFFFFFFFFFFFFFFFFFFFFFFFFFFFFFFFFFF AND SWAP1 POP PUSH1 0x0 DUP1 JUMPDEST PUSH1 0x6 DUP2 LT ISZERO PUSH2 0x2834 JUMPI PUSH1 0x42 DUP4 PUSH2 0x27DF SWAP2 SWAP1 PUSH2 0x41AD JUMP JUMPDEST PUSH1 0x42 DUP6 PUSH2 0x27EC SWAP2 SWAP1 PUSH2 0x41AD JUMP JUMPDEST EQ ISZERO PUSH2 0x2801 JUMPI DUP2 DUP1 PUSH2 0x27FD SWAP1 PUSH2 0x4180 JUMP JUMPDEST SWAP3 POP POP JUMPDEST PUSH2 0x100 DUP5 PUSH2 0x280F SWAP2 SWAP1 PUSH2 0x3EC9 JUMP JUMPDEST SWAP4 POP PUSH2 0x100 DUP4 PUSH2 0x281F SWAP2 SWAP1 PUSH2 0x3EC9 JUMP JUMPDEST SWAP3 POP DUP1 DUP1 PUSH2 0x282C SWAP1 PUSH2 0x4137 JUMP JUMPDEST SWAP2 POP POP PUSH2 0x27C9 JUMP JUMPDEST POP PUSH1 0x0 DUP2 PUSH4 0xFFFFFFFF AND GT ISZERO PUSH2 0x28B6 JUMPI PUSH1 0x1 DUP2 PUSH2 0x2851 SWAP2 SWAP1 PUSH2 0x3F88 JUMP JUMPDEST DUP5 PUSH1 0x0 ADD PUSH1 0x1C PUSH2 0x100 EXP DUP2 SLOAD DUP2 PUSH4 0xFFFFFFFF MUL NOT AND SWAP1 DUP4 PUSH4 0xFFFFFFFF AND MUL OR SWAP1 SSTORE POP DUP6 PUSH1 0x1 DUP3 PUSH2 0x2881 SWAP2 SWAP1 PUSH2 0x3F88 JUMP JUMPDEST PUSH4 0xFFFFFFFF AND DUP2 MLOAD DUP2 LT PUSH2 0x2898 JUMPI PUSH2 0x2897 PUSH2 0x426B JUMP JUMPDEST JUMPDEST PUSH1 0x20 MUL PUSH1 0x20 ADD ADD DUP1 MLOAD DUP1 SWAP2 SWAP1 PUSH2 0x28AD SWAP1 PUSH2 0x4137 JUMP JUMPDEST DUP2 MSTORE POP POP PUSH2 0x293A JUMP JUMPDEST PUSH1 0xA PUSH1 0x0 DUP7 DUP2 MSTORE PUSH1 0x20 ADD SWAP1 DUP2 MSTORE PUSH1 0x20 ADD PUSH1 0x0 KECCAK256 PUSH1 0x0 DUP1 DUP3 ADD PUSH1 0x0 PUSH2 0x100 EXP DUP2 SLOAD SWAP1 PUSH28 0xFFFFFFFFFFFFFFFFFFFFFFFFFFFFFFFFFFFFFFFFFFFFFFFFFFFFFFFF MUL NOT AND SWAP1 SSTORE PUSH1 0x0 DUP3 ADD PUSH1 0x1C PUSH2 0x100 EXP DUP2 SLOAD SWAP1 PUSH4 0xFFFFFFFF MUL NOT AND SWAP1 SSTORE PUSH1 0x1 DUP3 ADD PUSH1 0x0 PUSH2 0x100 EXP DUP2 SLOAD SWAP1 PUSH20 0xFFFFFFFFFFFFFFFFFFFFFFFFFFFFFFFFFFFFFFFF MUL NOT AND SWAP1 SSTORE POP POP JUMPDEST POP POP POP POP DUP1 DUP1 PUSH2 0x2949 SWAP1 PUSH2 0x4137 JUMP JUMPDEST SWAP2 POP POP PUSH2 0x274E JUMP JUMPDEST POP PUSH1 0x0 PUSH1 0x9 SLOAD PUSH1 0x5 PUSH1 0x0 SWAP1 SLOAD SWAP1 PUSH2 0x100 EXP SWAP1 DIV PUSH20 0xFFFFFFFFFFFFFFFFFFFFFFFFFFFFFFFFFFFFFFFF AND PUSH20 0xFFFFFFFFFFFFFFFFFFFFFFFFFFFFFFFFFFFFFFFF AND PUSH4 0x70A08231 ADDRESS PUSH1 0x40 MLOAD DUP3 PUSH4 0xFFFFFFFF AND PUSH1 0xE0 SHL DUP2 MSTORE PUSH1 0x4 ADD PUSH2 0x29B2 SWAP2 SWAP1 PUSH2 0x3851 JUMP JUMPDEST PUSH1 0x20 PUSH1 0x40 MLOAD DUP1 DUP4 SUB DUP2 DUP7 DUP1 EXTCODESIZE ISZERO DUP1 ISZERO PUSH2 0x29CA JUMPI PUSH1 0x0 DUP1 REVERT JUMPDEST POP GAS STATICCALL ISZERO DUP1 ISZERO PUSH2 0x29DE JUMPI RETURNDATASIZE PUSH1 0x0 DUP1 RETURNDATACOPY RETURNDATASIZE PUSH1 0x0 REVERT JUMPDEST POP POP POP POP PUSH1 0x40 MLOAD RETURNDATASIZE PUSH1 0x1F NOT PUSH1 0x1F DUP3 ADD AND DUP3 ADD DUP1 PUSH1 0x40 MSTORE POP DUP2 ADD SWAP1 PUSH2 0x2A02 SWAP2 SWAP1 PUSH2 0x328D JUMP JUMPDEST PUSH2 0x2A0C SWAP2 SWAP1 PUSH2 0x3F54 JUMP JUMPDEST SWAP1 POP PUSH1 0x0 PUSH1 0x64 PUSH1 0x2 SLOAD DUP4 PUSH2 0x2A20 SWAP2 SWAP1 PUSH2 0x3EFA JUMP JUMPDEST PUSH2 0x2A2A SWAP2 SWAP1 PUSH2 0x3EC9 JUMP JUMPDEST SWAP1 POP PUSH1 0x5 PUSH1 0x0 SWAP1 SLOAD SWAP1 PUSH2 0x100 EXP SWAP1 DIV PUSH20 0xFFFFFFFFFFFFFFFFFFFFFFFFFFFFFFFFFFFFFFFF AND PUSH20 0xFFFFFFFFFFFFFFFFFFFFFFFFFFFFFFFFFFFFFFFF AND PUSH4 0xA9059CBB PUSH1 0x3 PUSH1 0x0 SWAP1 SLOAD SWAP1 PUSH2 0x100 EXP SWAP1 DIV PUSH20 0xFFFFFFFFFFFFFFFFFFFFFFFFFFFFFFFFFFFFFFFF AND DUP4 PUSH1 0x40 MLOAD DUP4 PUSH4 0xFFFFFFFF AND PUSH1 0xE0 SHL DUP2 MSTORE PUSH1 0x4 ADD PUSH2 0x2AAB SWAP3 SWAP2 SWAP1 PUSH2 0x38A3 JUMP JUMPDEST PUSH1 0x20 PUSH1 0x40 MLOAD DUP1 DUP4 SUB DUP2 PUSH1 0x0 DUP8 DUP1 EXTCODESIZE ISZERO DUP1 ISZERO PUSH2 0x2AC5 JUMPI PUSH1 0x0 DUP1 REVERT JUMPDEST POP GAS CALL ISZERO DUP1 ISZERO PUSH2 0x2AD9 JUMPI RETURNDATASIZE PUSH1 0x0 DUP1 RETURNDATACOPY RETURNDATASIZE PUSH1 0x0 REVERT JUMPDEST POP POP POP POP PUSH1 0x40 MLOAD RETURNDATASIZE PUSH1 0x1F NOT PUSH1 0x1F DUP3 ADD AND DUP3 ADD DUP1 PUSH1 0x40 MSTORE POP DUP2 ADD SWAP1 PUSH2 0x2AFD SWAP2 SWAP1 PUSH2 0x3206 JUMP JUMPDEST POP DUP1 DUP3 PUSH2 0x2B0A SWAP2 SWAP1 PUSH2 0x3F54 JUMP JUMPDEST SWAP2 POP PUSH1 0x0 JUMPDEST PUSH1 0x5 DUP2 LT ISZERO PUSH2 0x2B96 JUMPI DUP4 DUP2 DUP2 MLOAD DUP2 LT PUSH2 0x2B2B JUMPI PUSH2 0x2B2A PUSH2 0x426B JUMP JUMPDEST JUMPDEST PUSH1 0x20 MUL PUSH1 0x20 ADD ADD MLOAD PUSH1 0x64 PUSH1 0x12 DUP4 PUSH1 0x6 DUP2 LT PUSH2 0x2B49 JUMPI PUSH2 0x2B48 PUSH2 0x426B JUMP JUMPDEST JUMPDEST ADD SLOAD DUP6 PUSH2 0x2B56 SWAP2 SWAP1 PUSH2 0x3EFA JUMP JUMPDEST PUSH2 0x2B60 SWAP2 SWAP1 PUSH2 0x3EC9 JUMP JUMPDEST PUSH2 0x2B6A SWAP2 SWAP1 PUSH2 0x3EC9 JUMP JUMPDEST PUSH1 0x18 DUP3 PUSH1 0x6 DUP2 LT PUSH2 0x2B7E JUMPI PUSH2 0x2B7D PUSH2 0x426B JUMP JUMPDEST JUMPDEST ADD DUP2 SWAP1 SSTORE POP DUP1 DUP1 PUSH2 0x2B8E SWAP1 PUSH2 0x4137 JUMP JUMPDEST SWAP2 POP POP PUSH2 0x2B0F JUMP JUMPDEST POP DUP3 PUSH1 0x5 DUP2 MLOAD DUP2 LT PUSH2 0x2BAB JUMPI PUSH2 0x2BAA PUSH2 0x426B JUMP JUMPDEST JUMPDEST PUSH1 0x20 MUL PUSH1 0x20 ADD ADD MLOAD PUSH1 0x64 PUSH1 0x12 PUSH1 0x5 PUSH1 0x6 DUP2 LT PUSH2 0x2BCA JUMPI PUSH2 0x2BC9 PUSH2 0x426B JUMP JUMPDEST JUMPDEST ADD SLOAD DUP5 PUSH2 0x2BD7 SWAP2 SWAP1 PUSH2 0x3EFA JUMP JUMPDEST PUSH2 0x2BE1 SWAP2 SWAP1 PUSH2 0x3EC9 JUMP JUMPDEST PUSH1 0x9 SLOAD PUSH2 0x2BEE SWAP2 SWAP1 PUSH2 0x3E39 JUMP JUMPDEST PUSH2 0x2BF8 SWAP2 SWAP1 PUSH2 0x3EC9 JUMP JUMPDEST PUSH1 0x18 PUSH1 0x5 PUSH1 0x6 DUP2 LT PUSH2 0x2C0D JUMPI PUSH2 0x2C0C PUSH2 0x426B JUMP JUMPDEST JUMPDEST ADD DUP2 SWAP1 SSTORE POP PUSH1 0xF SLOAD PUSH32 0x9D53F2B115229C0FB6C01A6DCC67FCC582E8EEA41B8D0318191C52190C9D3DE6 PUSH1 0x1E SLOAD DUP6 PUSH1 0x5 DUP2 MLOAD DUP2 LT PUSH2 0x2C4D JUMPI PUSH2 0x2C4C PUSH2 0x426B JUMP JUMPDEST JUMPDEST PUSH1 0x20 MUL PUSH1 0x20 ADD ADD MLOAD PUSH1 0x40 MLOAD PUSH2 0x2C63 SWAP3 SWAP2 SWAP1 PUSH2 0x3D5A JUMP JUMPDEST PUSH1 0x40 MLOAD DUP1 SWAP2 SUB SWAP1 LOG2 POP POP POP JUMP JUMPDEST PUSH1 0x0 CALLER SWAP1 POP SWAP1 JUMP JUMPDEST PUSH1 0x0 PUSH2 0x2CDA DUP3 PUSH1 0x40 MLOAD DUP1 PUSH1 0x40 ADD PUSH1 0x40 MSTORE DUP1 PUSH1 0x20 DUP2 MSTORE PUSH1 0x20 ADD PUSH32 0x5361666545524332303A206C6F772D6C6576656C2063616C6C206661696C6564 DUP2 MSTORE POP DUP6 PUSH20 0xFFFFFFFFFFFFFFFFFFFFFFFFFFFFFFFFFFFFFFFF AND PUSH2 0x2D40 SWAP1 SWAP3 SWAP2 SWAP1 PUSH4 0xFFFFFFFF AND JUMP JUMPDEST SWAP1 POP PUSH1 0x0 DUP2 MLOAD EQ DUP1 PUSH2 0x2CFC JUMPI POP DUP1 DUP1 PUSH1 0x20 ADD SWAP1 MLOAD DUP2 ADD SWAP1 PUSH2 0x2CFB SWAP2 SWAP1 PUSH2 0x3206 JUMP JUMPDEST JUMPDEST PUSH2 0x2D3B JUMPI PUSH1 0x40 MLOAD PUSH32 0x8C379A000000000000000000000000000000000000000000000000000000000 DUP2 MSTORE PUSH1 0x4 ADD PUSH2 0x2D32 SWAP1 PUSH2 0x3CBF JUMP JUMPDEST PUSH1 0x40 MLOAD DUP1 SWAP2 SUB SWAP1 REVERT JUMPDEST POP POP POP JUMP JUMPDEST PUSH1 0x60 PUSH2 0x2D4F DUP5 DUP5 PUSH1 0x0 DUP6 PUSH2 0x2D58 JUMP JUMPDEST SWAP1 POP SWAP4 SWAP3 POP POP POP JUMP JUMPDEST PUSH1 0x60 DUP3 SELFBALANCE LT ISZERO PUSH2 0x2D9D JUMPI PUSH1 0x40 MLOAD PUSH32 0x8C379A000000000000000000000000000000000000000000000000000000000 DUP2 MSTORE PUSH1 0x4 ADD PUSH2 0x2D94 SWAP1 PUSH2 0x3ADF JUMP JUMPDEST PUSH1 0x40 MLOAD DUP1 SWAP2 SUB SWAP1 REVERT JUMPDEST PUSH1 0x0 DUP1 DUP7 PUSH20 0xFFFFFFFFFFFFFFFFFFFFFFFFFFFFFFFFFFFFFFFF AND DUP6 DUP8 PUSH1 0x40 MLOAD PUSH2 0x2DC6 SWAP2 SWAP1 PUSH2 0x383A JUMP JUMPDEST PUSH1 0x0 PUSH1 0x40 MLOAD DUP1 DUP4 SUB DUP2 DUP6 DUP8 GAS CALL SWAP3 POP POP POP RETURNDATASIZE DUP1 PUSH1 0x0 DUP2 EQ PUSH2 0x2E03 JUMPI PUSH1 0x40 MLOAD SWAP2 POP PUSH1 0x1F NOT PUSH1 0x3F RETURNDATASIZE ADD AND DUP3 ADD PUSH1 0x40 MSTORE RETURNDATASIZE DUP3 MSTORE RETURNDATASIZE PUSH1 0x0 PUSH1 0x20 DUP5 ADD RETURNDATACOPY PUSH2 0x2E08 JUMP JUMPDEST PUSH1 0x60 SWAP2 POP JUMPDEST POP SWAP2 POP SWAP2 POP PUSH2 0x2E19 DUP8 DUP4 DUP4 DUP8 PUSH2 0x2E25 JUMP JUMPDEST SWAP3 POP POP POP SWAP5 SWAP4 POP POP POP POP JUMP JUMPDEST PUSH1 0x60 DUP4 ISZERO PUSH2 0x2E88 JUMPI PUSH1 0x0 DUP4 MLOAD EQ ISZERO PUSH2 0x2E80 JUMPI PUSH2 0x2E40 DUP6 PUSH2 0x2E9B JUMP JUMPDEST PUSH2 0x2E7F JUMPI PUSH1 0x40 MLOAD PUSH32 0x8C379A000000000000000000000000000000000000000000000000000000000 DUP2 MSTORE PUSH1 0x4 ADD PUSH2 0x2E76 SWAP1 PUSH2 0x3C7F JUMP JUMPDEST PUSH1 0x40 MLOAD DUP1 SWAP2 SUB SWAP1 REVERT JUMPDEST JUMPDEST DUP3 SWAP1 POP PUSH2 0x2E93 JUMP JUMPDEST PUSH2 0x2E92 DUP4 DUP4 PUSH2 0x2EBE JUMP JUMPDEST JUMPDEST SWAP5 SWAP4 POP POP POP POP JUMP JUMPDEST PUSH1 0x0 DUP1 DUP3 PUSH20 0xFFFFFFFFFFFFFFFFFFFFFFFFFFFFFFFFFFFFFFFF AND EXTCODESIZE GT SWAP1 POP SWAP2 SWAP1 POP JUMP JUMPDEST PUSH1 0x0 DUP3 MLOAD GT ISZERO PUSH2 0x2ED1 JUMPI DUP2 MLOAD DUP1 DUP4 PUSH1 0x20 ADD REVERT JUMPDEST DUP1 PUSH1 0x40 MLOAD PUSH32 0x8C379A000000000000000000000000000000000000000000000000000000000 DUP2 MSTORE PUSH1 0x4 ADD PUSH2 0x2F05 SWAP2 SWAP1 PUSH2 0x397D JUMP JUMPDEST PUSH1 0x40 MLOAD DUP1 SWAP2 SUB SWAP1 REVERT JUMPDEST DUP3 PUSH1 0x6 DUP2 ADD SWAP3 DUP3 ISZERO PUSH2 0x2F3D JUMPI SWAP2 PUSH1 0x20 MUL DUP3 ADD JUMPDEST DUP3 DUP2 GT ISZERO PUSH2 0x2F3C JUMPI DUP3 MLOAD DUP3 SSTORE SWAP2 PUSH1 0x20 ADD SWAP2 SWAP1 PUSH1 0x1 ADD SWAP1 PUSH2 0x2F21 JUMP JUMPDEST JUMPDEST POP SWAP1 POP PUSH2 0x2F4A SWAP2 SWAP1 PUSH2 0x2F4E JUMP JUMPDEST POP SWAP1 JUMP JUMPDEST JUMPDEST DUP1 DUP3 GT ISZERO PUSH2 0x2F67 JUMPI PUSH1 0x0 DUP2 PUSH1 0x0 SWAP1 SSTORE POP PUSH1 0x1 ADD PUSH2 0x2F4F JUMP JUMPDEST POP SWAP1 JUMP JUMPDEST PUSH1 0x0 PUSH2 0x2F7E PUSH2 0x2F79 DUP5 PUSH2 0x3DA8 JUMP JUMPDEST PUSH2 0x3D83 JUMP JUMPDEST SWAP1 POP DUP1 DUP3 DUP6 PUSH1 0x20 DUP7 MUL DUP3 ADD GT ISZERO PUSH2 0x2F98 JUMPI PUSH2 0x2F97 PUSH2 0x42D3 JUMP JUMPDEST JUMPDEST PUSH1 0x0 JUMPDEST DUP6 DUP2 LT ISZERO PUSH2 0x2FC8 JUMPI DUP2 PUSH2 0x2FAE DUP9 DUP3 PUSH2 0x30E8 JUMP JUMPDEST DUP5 MSTORE PUSH1 0x20 DUP5 ADD SWAP4 POP PUSH1 0x20 DUP4 ADD SWAP3 POP POP PUSH1 0x1 DUP2 ADD SWAP1 POP PUSH2 0x2F9B JUMP JUMPDEST POP POP POP SWAP4 SWAP3 POP POP POP JUMP JUMPDEST PUSH1 0x0 DUP2 CALLDATALOAD SWAP1 POP PUSH2 0x2FE1 DUP2 PUSH2 0x49C0 JUMP JUMPDEST SWAP3 SWAP2 POP POP JUMP JUMPDEST PUSH1 0x0 DUP1 DUP4 PUSH1 0x1F DUP5 ADD SLT PUSH2 0x2FFD JUMPI PUSH2 0x2FFC PUSH2 0x42CE JUMP JUMPDEST JUMPDEST DUP3 CALLDATALOAD SWAP1 POP PUSH8 0xFFFFFFFFFFFFFFFF DUP2 GT ISZERO PUSH2 0x301A JUMPI PUSH2 0x3019 PUSH2 0x42C9 JUMP JUMPDEST JUMPDEST PUSH1 0x20 DUP4 ADD SWAP2 POP DUP4 PUSH1 0x20 DUP3 MUL DUP4 ADD GT ISZERO PUSH2 0x3036 JUMPI PUSH2 0x3035 PUSH2 0x42D3 JUMP JUMPDEST JUMPDEST SWAP3 POP SWAP3 SWAP1 POP JUMP JUMPDEST PUSH1 0x0 DUP3 PUSH1 0x1F DUP4 ADD SLT PUSH2 0x3052 JUMPI PUSH2 0x3051 PUSH2 0x42CE JUMP JUMPDEST JUMPDEST PUSH1 0x6 PUSH2 0x305F DUP5 DUP3 DUP6 PUSH2 0x2F6B JUMP JUMPDEST SWAP2 POP POP SWAP3 SWAP2 POP POP JUMP JUMPDEST PUSH1 0x0 DUP1 DUP4 PUSH1 0x1F DUP5 ADD SLT PUSH2 0x307E JUMPI PUSH2 0x307D PUSH2 0x42CE JUMP JUMPDEST JUMPDEST DUP3 CALLDATALOAD SWAP1 POP PUSH8 0xFFFFFFFFFFFFFFFF DUP2 GT ISZERO PUSH2 0x309B JUMPI PUSH2 0x309A PUSH2 0x42C9 JUMP JUMPDEST JUMPDEST PUSH1 0x20 DUP4 ADD SWAP2 POP DUP4 PUSH1 0x20 DUP3 MUL DUP4 ADD GT ISZERO PUSH2 0x30B7 JUMPI PUSH2 0x30B6 PUSH2 0x42D3 JUMP JUMPDEST JUMPDEST SWAP3 POP SWAP3 SWAP1 POP JUMP JUMPDEST PUSH1 0x0 DUP2 MLOAD SWAP1 POP PUSH2 0x30CD DUP2 PUSH2 0x49D7 JUMP JUMPDEST SWAP3 SWAP2 POP POP JUMP JUMPDEST PUSH1 0x0 DUP2 CALLDATALOAD SWAP1 POP PUSH2 0x30E2 DUP2 PUSH2 0x49EE JUMP JUMPDEST SWAP3 SWAP2 POP POP JUMP JUMPDEST PUSH1 0x0 DUP2 CALLDATALOAD SWAP1 POP PUSH2 0x30F7 DUP2 PUSH2 0x4A05 JUMP JUMPDEST SWAP3 SWAP2 POP POP JUMP JUMPDEST PUSH1 0x0 DUP2 MLOAD SWAP1 POP PUSH2 0x310C DUP2 PUSH2 0x4A05 JUMP JUMPDEST SWAP3 SWAP2 POP POP JUMP JUMPDEST PUSH1 0x0 PUSH1 0x20 DUP3 DUP5 SUB SLT ISZERO PUSH2 0x3128 JUMPI PUSH2 0x3127 PUSH2 0x42DD JUMP JUMPDEST JUMPDEST PUSH1 0x0 PUSH2 0x3136 DUP5 DUP3 DUP6 ADD PUSH2 0x2FD2 JUMP JUMPDEST SWAP2 POP POP SWAP3 SWAP2 POP POP JUMP JUMPDEST PUSH1 0x0 DUP1 PUSH1 0x20 DUP4 DUP6 SUB SLT ISZERO PUSH2 0x3156 JUMPI PUSH2 0x3155 PUSH2 0x42DD JUMP JUMPDEST JUMPDEST PUSH1 0x0 DUP4 ADD CALLDATALOAD PUSH8 0xFFFFFFFFFFFFFFFF DUP2 GT ISZERO PUSH2 0x3174 JUMPI PUSH2 0x3173 PUSH2 0x42D8 JUMP JUMPDEST JUMPDEST PUSH2 0x3180 DUP6 DUP3 DUP7 ADD PUSH2 0x2FE7 JUMP JUMPDEST SWAP3 POP SWAP3 POP POP SWAP3 POP SWAP3 SWAP1 POP JUMP JUMPDEST PUSH1 0x0 PUSH1 0xC0 DUP3 DUP5 SUB SLT ISZERO PUSH2 0x31A2 JUMPI PUSH2 0x31A1 PUSH2 0x42DD JUMP JUMPDEST JUMPDEST PUSH1 0x0 PUSH2 0x31B0 DUP5 DUP3 DUP6 ADD PUSH2 0x303D JUMP JUMPDEST SWAP2 POP POP SWAP3 SWAP2 POP POP JUMP JUMPDEST PUSH1 0x0 DUP1 PUSH1 0x20 DUP4 DUP6 SUB SLT ISZERO PUSH2 0x31D0 JUMPI PUSH2 0x31CF PUSH2 0x42DD JUMP JUMPDEST JUMPDEST PUSH1 0x0 DUP4 ADD CALLDATALOAD PUSH8 0xFFFFFFFFFFFFFFFF DUP2 GT ISZERO PUSH2 0x31EE JUMPI PUSH2 0x31ED PUSH2 0x42D8 JUMP JUMPDEST JUMPDEST PUSH2 0x31FA DUP6 DUP3 DUP7 ADD PUSH2 0x3068 JUMP JUMPDEST SWAP3 POP SWAP3 POP POP SWAP3 POP SWAP3 SWAP1 POP JUMP JUMPDEST PUSH1 0x0 PUSH1 0x20 DUP3 DUP5 SUB SLT ISZERO PUSH2 0x321C JUMPI PUSH2 0x321B PUSH2 0x42DD JUMP JUMPDEST JUMPDEST PUSH1 0x0 PUSH2 0x322A DUP5 DUP3 DUP6 ADD PUSH2 0x30BE JUMP JUMPDEST SWAP2 POP POP SWAP3 SWAP2 POP POP JUMP JUMPDEST PUSH1 0x0 PUSH1 0x20 DUP3 DUP5 SUB SLT ISZERO PUSH2 0x3249 JUMPI PUSH2 0x3248 PUSH2 0x42DD JUMP JUMPDEST JUMPDEST PUSH1 0x0 PUSH2 0x3257 DUP5 DUP3 DUP6 ADD PUSH2 0x30D3 JUMP JUMPDEST SWAP2 POP POP SWAP3 SWAP2 POP POP JUMP JUMPDEST PUSH1 0x0 PUSH1 0x20 DUP3 DUP5 SUB SLT ISZERO PUSH2 0x3276 JUMPI PUSH2 0x3275 PUSH2 0x42DD JUMP JUMPDEST JUMPDEST PUSH1 0x0 PUSH2 0x3284 DUP5 DUP3 DUP6 ADD PUSH2 0x30E8 JUMP JUMPDEST SWAP2 POP POP SWAP3 SWAP2 POP POP JUMP JUMPDEST PUSH1 0x0 PUSH1 0x20 DUP3 DUP5 SUB SLT ISZERO PUSH2 0x32A3 JUMPI PUSH2 0x32A2 PUSH2 0x42DD JUMP JUMPDEST JUMPDEST PUSH1 0x0 PUSH2 0x32B1 DUP5 DUP3 DUP6 ADD PUSH2 0x30FD JUMP JUMPDEST SWAP2 POP POP SWAP3 SWAP2 POP POP JUMP JUMPDEST PUSH1 0x0 DUP1 PUSH1 0x40 DUP4 DUP6 SUB SLT ISZERO PUSH2 0x32D1 JUMPI PUSH2 0x32D0 PUSH2 0x42DD JUMP JUMPDEST JUMPDEST PUSH1 0x0 PUSH2 0x32DF DUP6 DUP3 DUP7 ADD PUSH2 0x30E8 JUMP JUMPDEST SWAP3 POP POP PUSH1 0x20 PUSH2 0x32F0 DUP6 DUP3 DUP7 ADD PUSH2 0x30E8 JUMP JUMPDEST SWAP2 POP POP SWAP3 POP SWAP3 SWAP1 POP JUMP JUMPDEST PUSH1 0x0 PUSH2 0x3306 DUP4 DUP4 PUSH2 0x381C JUMP JUMPDEST PUSH1 0x20 DUP4 ADD SWAP1 POP SWAP3 SWAP2 POP POP JUMP JUMPDEST PUSH2 0x331B DUP2 PUSH2 0x3FBC JUMP JUMPDEST DUP3 MSTORE POP POP JUMP JUMPDEST PUSH1 0x0 PUSH2 0x332C DUP3 PUSH2 0x3DDE JUMP JUMPDEST PUSH2 0x3336 DUP2 DUP6 PUSH2 0x3E0C JUMP JUMPDEST SWAP4 POP PUSH2 0x3341 DUP4 PUSH2 0x3DCE JUMP JUMPDEST DUP1 PUSH1 0x0 JUMPDEST DUP4 DUP2 LT ISZERO PUSH2 0x3372 JUMPI DUP2 MLOAD PUSH2 0x3359 DUP9 DUP3 PUSH2 0x32FA JUMP JUMPDEST SWAP8 POP PUSH2 0x3364 DUP4 PUSH2 0x3DFF JUMP JUMPDEST SWAP3 POP POP PUSH1 0x1 DUP2 ADD SWAP1 POP PUSH2 0x3345 JUMP JUMPDEST POP DUP6 SWAP4 POP POP POP POP SWAP3 SWAP2 POP POP JUMP JUMPDEST PUSH1 0x0 PUSH2 0x338A DUP3 PUSH2 0x3DE9 JUMP JUMPDEST PUSH2 0x3394 DUP2 DUP6 PUSH2 0x3E1D JUMP JUMPDEST SWAP4 POP PUSH2 0x33A4 DUP2 DUP6 PUSH1 0x20 DUP7 ADD PUSH2 0x40A9 JUMP JUMPDEST DUP1 DUP5 ADD SWAP2 POP POP SWAP3 SWAP2 POP POP JUMP JUMPDEST PUSH2 0x33B9 DUP2 PUSH2 0x404F JUMP JUMPDEST DUP3 MSTORE POP POP JUMP JUMPDEST PUSH2 0x33C8 DUP2 PUSH2 0x4073 JUMP JUMPDEST DUP3 MSTORE POP POP JUMP JUMPDEST PUSH2 0x33D7 DUP2 PUSH2 0x4097 JUMP JUMPDEST DUP3 MSTORE POP POP JUMP JUMPDEST PUSH1 0x0 PUSH2 0x33E8 DUP3 PUSH2 0x3DF4 JUMP JUMPDEST PUSH2 0x33F2 DUP2 DUP6 PUSH2 0x3E28 JUMP JUMPDEST SWAP4 POP PUSH2 0x3402 DUP2 DUP6 PUSH1 0x20 DUP7 ADD PUSH2 0x40A9 JUMP JUMPDEST PUSH2 0x340B DUP2 PUSH2 0x42E2 JUMP JUMPDEST DUP5 ADD SWAP2 POP POP SWAP3 SWAP2 POP POP JUMP JUMPDEST PUSH1 0x0 PUSH2 0x3423 PUSH1 0x25 DUP4 PUSH2 0x3E28 JUMP JUMPDEST SWAP2 POP PUSH2 0x342E DUP3 PUSH2 0x42F3 JUMP JUMPDEST PUSH1 0x40 DUP3 ADD SWAP1 POP SWAP2 SWAP1 POP JUMP JUMPDEST PUSH1 0x0 PUSH2 0x3446 PUSH1 0x44 DUP4 PUSH2 0x3E28 JUMP JUMPDEST SWAP2 POP PUSH2 0x3451 DUP3 PUSH2 0x4342 JUMP JUMPDEST PUSH1 0x60 DUP3 ADD SWAP1 POP SWAP2 SWAP1 POP JUMP JUMPDEST PUSH1 0x0 PUSH2 0x3469 PUSH1 0x10 DUP4 PUSH2 0x3E28 JUMP JUMPDEST SWAP2 POP PUSH2 0x3474 DUP3 PUSH2 0x43B7 JUMP JUMPDEST PUSH1 0x20 DUP3 ADD SWAP1 POP SWAP2 SWAP1 POP JUMP JUMPDEST PUSH1 0x0 PUSH2 0x348C PUSH1 0x29 DUP4 PUSH2 0x3E28 JUMP JUMPDEST SWAP2 POP PUSH2 0x3497 DUP3 PUSH2 0x43E0 JUMP JUMPDEST PUSH1 0x40 DUP3 ADD SWAP1 POP SWAP2 SWAP1 POP JUMP JUMPDEST PUSH1 0x0 PUSH2 0x34AF PUSH1 0x26 DUP4 PUSH2 0x3E28 JUMP JUMPDEST SWAP2 POP PUSH2 0x34BA DUP3 PUSH2 0x442F JUMP JUMPDEST PUSH1 0x40 DUP3 ADD SWAP1 POP SWAP2 SWAP1 POP JUMP JUMPDEST PUSH1 0x0 PUSH2 0x34D2 PUSH1 0x27 DUP4 PUSH2 0x3E28 JUMP JUMPDEST SWAP2 POP PUSH2 0x34DD DUP3 PUSH2 0x447E JUMP JUMPDEST PUSH1 0x40 DUP3 ADD SWAP1 POP SWAP2 SWAP1 POP JUMP JUMPDEST PUSH1 0x0 PUSH2 0x34F5 PUSH1 0x14 DUP4 PUSH2 0x3E28 JUMP JUMPDEST SWAP2 POP PUSH2 0x3500 DUP3 PUSH2 0x44CD JUMP JUMPDEST PUSH1 0x20 DUP3 ADD SWAP1 POP SWAP2 SWAP1 POP JUMP JUMPDEST PUSH1 0x0 PUSH2 0x3518 PUSH1 0x18 DUP4 PUSH2 0x3E28 JUMP JUMPDEST SWAP2 POP PUSH2 0x3523 DUP3 PUSH2 0x44F6 JUMP JUMPDEST PUSH1 0x20 DUP3 ADD SWAP1 POP SWAP2 SWAP1 POP JUMP JUMPDEST PUSH1 0x0 PUSH2 0x353B PUSH1 0x17 DUP4 PUSH2 0x3E28 JUMP JUMPDEST SWAP2 POP PUSH2 0x3546 DUP3 PUSH2 0x451F JUMP JUMPDEST PUSH1 0x20 DUP3 ADD SWAP1 POP SWAP2 SWAP1 POP JUMP JUMPDEST PUSH1 0x0 PUSH2 0x355E PUSH1 0x28 DUP4 PUSH2 0x3E28 JUMP JUMPDEST SWAP2 POP PUSH2 0x3569 DUP3 PUSH2 0x4548 JUMP JUMPDEST PUSH1 0x40 DUP3 ADD SWAP1 POP SWAP2 SWAP1 POP JUMP JUMPDEST PUSH1 0x0 PUSH2 0x3581 PUSH1 0x26 DUP4 PUSH2 0x3E28 JUMP JUMPDEST SWAP2 POP PUSH2 0x358C DUP3 PUSH2 0x4597 JUMP JUMPDEST PUSH1 0x40 DUP3 ADD SWAP1 POP SWAP2 SWAP1 POP JUMP JUMPDEST PUSH1 0x0 PUSH2 0x35A4 PUSH1 0x27 DUP4 PUSH2 0x3E28 JUMP JUMPDEST SWAP2 POP PUSH2 0x35AF DUP3 PUSH2 0x45E6 JUMP JUMPDEST PUSH1 0x40 DUP3 ADD SWAP1 POP SWAP2 SWAP1 POP JUMP JUMPDEST PUSH1 0x0 PUSH2 0x35C7 PUSH1 0x15 DUP4 PUSH2 0x3E28 JUMP JUMPDEST SWAP2 POP PUSH2 0x35D2 DUP3 PUSH2 0x4635 JUMP JUMPDEST PUSH1 0x20 DUP3 ADD SWAP1 POP SWAP2 SWAP1 POP JUMP JUMPDEST PUSH1 0x0 PUSH2 0x35EA PUSH1 0x48 DUP4 PUSH2 0x3E28 JUMP JUMPDEST SWAP2 POP PUSH2 0x35F5 DUP3 PUSH2 0x465E JUMP JUMPDEST PUSH1 0x60 DUP3 ADD SWAP1 POP SWAP2 SWAP1 POP JUMP JUMPDEST PUSH1 0x0 PUSH2 0x360D PUSH1 0x1C DUP4 PUSH2 0x3E28 JUMP JUMPDEST SWAP2 POP PUSH2 0x3618 DUP3 PUSH2 0x46D3 JUMP JUMPDEST PUSH1 0x20 DUP3 ADD SWAP1 POP SWAP2 SWAP1 POP JUMP JUMPDEST PUSH1 0x0 PUSH2 0x3630 PUSH1 0x14 DUP4 PUSH2 0x3E28 JUMP JUMPDEST SWAP2 POP PUSH2 0x363B DUP3 PUSH2 0x46FC JUMP JUMPDEST PUSH1 0x20 DUP3 ADD SWAP1 POP SWAP2 SWAP1 POP JUMP JUMPDEST PUSH1 0x0 PUSH2 0x3653 PUSH1 0x1A DUP4 PUSH2 0x3E28 JUMP JUMPDEST SWAP2 POP PUSH2 0x365E DUP3 PUSH2 0x4725 JUMP JUMPDEST PUSH1 0x20 DUP3 ADD SWAP1 POP SWAP2 SWAP1 POP JUMP JUMPDEST PUSH1 0x0 PUSH2 0x3676 PUSH1 0x9 DUP4 PUSH2 0x3E28 JUMP JUMPDEST SWAP2 POP PUSH2 0x3681 DUP3 PUSH2 0x474E JUMP JUMPDEST PUSH1 0x20 DUP3 ADD SWAP1 POP SWAP2 SWAP1 POP JUMP JUMPDEST PUSH1 0x0 PUSH2 0x3699 PUSH1 0x20 DUP4 PUSH2 0x3E28 JUMP JUMPDEST SWAP2 POP PUSH2 0x36A4 DUP3 PUSH2 0x4777 JUMP JUMPDEST PUSH1 0x20 DUP3 ADD SWAP1 POP SWAP2 SWAP1 POP JUMP JUMPDEST PUSH1 0x0 PUSH2 0x36BC PUSH1 0x20 DUP4 PUSH2 0x3E28 JUMP JUMPDEST SWAP2 POP PUSH2 0x36C7 DUP3 PUSH2 0x47A0 JUMP JUMPDEST PUSH1 0x20 DUP3 ADD SWAP1 POP SWAP2 SWAP1 POP JUMP JUMPDEST PUSH1 0x0 PUSH2 0x36DF PUSH1 0x10 DUP4 PUSH2 0x3E28 JUMP JUMPDEST SWAP2 POP PUSH2 0x36EA DUP3 PUSH2 0x47C9 JUMP JUMPDEST PUSH1 0x20 DUP3 ADD SWAP1 POP SWAP2 SWAP1 POP JUMP JUMPDEST PUSH1 0x0 PUSH2 0x3702 PUSH1 0x16 DUP4 PUSH2 0x3E28 JUMP JUMPDEST SWAP2 POP PUSH2 0x370D DUP3 PUSH2 0x47F2 JUMP JUMPDEST PUSH1 0x20 DUP3 ADD SWAP1 POP SWAP2 SWAP1 POP JUMP JUMPDEST PUSH1 0x0 PUSH2 0x3725 PUSH1 0x23 DUP4 PUSH2 0x3E28 JUMP JUMPDEST SWAP2 POP PUSH2 0x3730 DUP3 PUSH2 0x481B JUMP JUMPDEST PUSH1 0x40 DUP3 ADD SWAP1 POP SWAP2 SWAP1 POP JUMP JUMPDEST PUSH1 0x0 PUSH2 0x3748 PUSH1 0x1D DUP4 PUSH2 0x3E28 JUMP JUMPDEST SWAP2 POP PUSH2 0x3753 DUP3 PUSH2 0x486A JUMP JUMPDEST PUSH1 0x20 DUP3 ADD SWAP1 POP SWAP2 SWAP1 POP JUMP JUMPDEST PUSH1 0x0 PUSH2 0x376B PUSH1 0x21 DUP4 PUSH2 0x3E28 JUMP JUMPDEST SWAP2 POP PUSH2 0x3776 DUP3 PUSH2 0x4893 JUMP JUMPDEST PUSH1 0x40 DUP3 ADD SWAP1 POP SWAP2 SWAP1 POP JUMP JUMPDEST PUSH1 0x0 PUSH2 0x378E PUSH1 0x2A DUP4 PUSH2 0x3E28 JUMP JUMPDEST SWAP2 POP PUSH2 0x3799 DUP3 PUSH2 0x48E2 JUMP JUMPDEST PUSH1 0x40 DUP3 ADD SWAP1 POP SWAP2 SWAP1 POP JUMP JUMPDEST PUSH1 0x0 PUSH2 0x37B1 PUSH1 0x1F DUP4 PUSH2 0x3E28 JUMP JUMPDEST SWAP2 POP PUSH2 0x37BC DUP3 PUSH2 0x4931 JUMP JUMPDEST PUSH1 0x20 DUP3 ADD SWAP1 POP SWAP2 SWAP1 POP JUMP JUMPDEST PUSH1 0x0 PUSH2 0x37D4 PUSH1 0x12 DUP4 PUSH2 0x3E28 JUMP JUMPDEST SWAP2 POP PUSH2 0x37DF DUP3 PUSH2 0x495A JUMP JUMPDEST PUSH1 0x20 DUP3 ADD SWAP1 POP SWAP2 SWAP1 POP JUMP JUMPDEST PUSH1 0x0 PUSH2 0x37F7 PUSH1 0x1B DUP4 PUSH2 0x3E28 JUMP JUMPDEST SWAP2 POP PUSH2 0x3802 DUP3 PUSH2 0x4983 JUMP JUMPDEST PUSH1 0x20 DUP3 ADD SWAP1 POP SWAP2 SWAP1 POP JUMP JUMPDEST PUSH2 0x3816 DUP2 PUSH2 0x4035 JUMP JUMPDEST DUP3 MSTORE POP POP JUMP JUMPDEST PUSH2 0x3825 DUP2 PUSH2 0x403F JUMP JUMPDEST DUP3 MSTORE POP POP JUMP JUMPDEST PUSH2 0x3834 DUP2 PUSH2 0x403F JUMP JUMPDEST DUP3 MSTORE POP POP JUMP JUMPDEST PUSH1 0x0 PUSH2 0x3846 DUP3 DUP5 PUSH2 0x337F JUMP JUMPDEST SWAP2 POP DUP2 SWAP1 POP SWAP3 SWAP2 POP POP JUMP JUMPDEST PUSH1 0x0 PUSH1 0x20 DUP3 ADD SWAP1 POP PUSH2 0x3866 PUSH1 0x0 DUP4 ADD DUP5 PUSH2 0x3312 JUMP JUMPDEST SWAP3 SWAP2 POP POP JUMP JUMPDEST PUSH1 0x0 PUSH1 0x60 DUP3 ADD SWAP1 POP PUSH2 0x3881 PUSH1 0x0 DUP4 ADD DUP7 PUSH2 0x3312 JUMP JUMPDEST PUSH2 0x388E PUSH1 0x20 DUP4 ADD DUP6 PUSH2 0x3312 JUMP JUMPDEST PUSH2 0x389B PUSH1 0x40 DUP4 ADD DUP5 PUSH2 0x380D JUMP JUMPDEST SWAP5 SWAP4 POP POP POP POP JUMP JUMPDEST PUSH1 0x0 PUSH1 0x40 DUP3 ADD SWAP1 POP PUSH2 0x38B8 PUSH1 0x0 DUP4 ADD DUP6 PUSH2 0x3312 JUMP JUMPDEST PUSH2 0x38C5 PUSH1 0x20 DUP4 ADD DUP5 PUSH2 0x380D JUMP JUMPDEST SWAP4 SWAP3 POP POP POP JUMP JUMPDEST PUSH1 0x0 PUSH1 0x20 DUP3 ADD SWAP1 POP DUP2 DUP2 SUB PUSH1 0x0 DUP4 ADD MSTORE PUSH2 0x38E6 DUP2 DUP5 PUSH2 0x3321 JUMP JUMPDEST SWAP1 POP SWAP3 SWAP2 POP POP JUMP JUMPDEST PUSH1 0x0 PUSH1 0x60 DUP3 ADD SWAP1 POP DUP2 DUP2 SUB PUSH1 0x0 DUP4 ADD MSTORE PUSH2 0x3908 DUP2 DUP7 PUSH2 0x3321 JUMP JUMPDEST SWAP1 POP PUSH2 0x3917 PUSH1 0x20 DUP4 ADD DUP6 PUSH2 0x382B JUMP JUMPDEST PUSH2 0x3924 PUSH1 0x40 DUP4 ADD DUP5 PUSH2 0x3312 JUMP JUMPDEST SWAP5 SWAP4 POP POP POP POP JUMP JUMPDEST PUSH1 0x0 PUSH1 0x20 DUP3 ADD SWAP1 POP PUSH2 0x3941 PUSH1 0x0 DUP4 ADD DUP5 PUSH2 0x33B0 JUMP JUMPDEST SWAP3 SWAP2 POP POP JUMP JUMPDEST PUSH1 0x0 PUSH1 0x20 DUP3 ADD SWAP1 POP PUSH2 0x395C PUSH1 0x0 DUP4 ADD DUP5 PUSH2 0x33BF JUMP JUMPDEST SWAP3 SWAP2 POP POP JUMP JUMPDEST PUSH1 0x0 PUSH1 0x20 DUP3 ADD SWAP1 POP PUSH2 0x3977 PUSH1 0x0 DUP4 ADD DUP5 PUSH2 0x33CE JUMP JUMPDEST SWAP3 SWAP2 POP POP JUMP JUMPDEST PUSH1 0x0 PUSH1 0x20 DUP3 ADD SWAP1 POP DUP2 DUP2 SUB PUSH1 0x0 DUP4 ADD MSTORE PUSH2 0x3997 DUP2 DUP5 PUSH2 0x33DD JUMP JUMPDEST SWAP1 POP SWAP3 SWAP2 POP POP JUMP JUMPDEST PUSH1 0x0 PUSH1 0x20 DUP3 ADD SWAP1 POP DUP2 DUP2 SUB PUSH1 0x0 DUP4 ADD MSTORE PUSH2 0x39B8 DUP2 PUSH2 0x3416 JUMP JUMPDEST SWAP1 POP SWAP2 SWAP1 POP JUMP JUMPDEST PUSH1 0x0 PUSH1 0x20 DUP3 ADD SWAP1 POP DUP2 DUP2 SUB PUSH1 0x0 DUP4 ADD MSTORE PUSH2 0x39D8 DUP2 PUSH2 0x3439 JUMP JUMPDEST SWAP1 POP SWAP2 SWAP1 POP JUMP JUMPDEST PUSH1 0x0 PUSH1 0x20 DUP3 ADD SWAP1 POP DUP2 DUP2 SUB PUSH1 0x0 DUP4 ADD MSTORE PUSH2 0x39F8 DUP2 PUSH2 0x345C JUMP JUMPDEST SWAP1 POP SWAP2 SWAP1 POP JUMP JUMPDEST PUSH1 0x0 PUSH1 0x20 DUP3 ADD SWAP1 POP DUP2 DUP2 SUB PUSH1 0x0 DUP4 ADD MSTORE PUSH2 0x3A18 DUP2 PUSH2 0x347F JUMP JUMPDEST SWAP1 POP SWAP2 SWAP1 POP JUMP JUMPDEST PUSH1 0x0 PUSH1 0x20 DUP3 ADD SWAP1 POP DUP2 DUP2 SUB PUSH1 0x0 DUP4 ADD MSTORE PUSH2 0x3A38 DUP2 PUSH2 0x34A2 JUMP JUMPDEST SWAP1 POP SWAP2 SWAP1 POP JUMP JUMPDEST PUSH1 0x0 PUSH1 0x20 DUP3 ADD SWAP1 POP DUP2 DUP2 SUB PUSH1 0x0 DUP4 ADD MSTORE PUSH2 0x3A58 DUP2 PUSH2 0x34C5 JUMP JUMPDEST SWAP1 POP SWAP2 SWAP1 POP JUMP JUMPDEST PUSH1 0x0 PUSH1 0x20 DUP3 ADD SWAP1 POP DUP2 DUP2 SUB PUSH1 0x0 DUP4 ADD MSTORE PUSH2 0x3A78 DUP2 PUSH2 0x34E8 JUMP JUMPDEST SWAP1 POP SWAP2 SWAP1 POP JUMP JUMPDEST PUSH1 0x0 PUSH1 0x20 DUP3 ADD SWAP1 POP DUP2 DUP2 SUB PUSH1 0x0 DUP4 ADD MSTORE PUSH2 0x3A98 DUP2 PUSH2 0x350B JUMP JUMPDEST SWAP1 POP SWAP2 SWAP1 POP JUMP JUMPDEST PUSH1 0x0 PUSH1 0x20 DUP3 ADD SWAP1 POP DUP2 DUP2 SUB PUSH1 0x0 DUP4 ADD MSTORE PUSH2 0x3AB8 DUP2 PUSH2 0x352E JUMP JUMPDEST SWAP1 POP SWAP2 SWAP1 POP JUMP JUMPDEST PUSH1 0x0 PUSH1 0x20 DUP3 ADD SWAP1 POP DUP2 DUP2 SUB PUSH1 0x0 DUP4 ADD MSTORE PUSH2 0x3AD8 DUP2 PUSH2 0x3551 JUMP JUMPDEST SWAP1 POP SWAP2 SWAP1 POP JUMP JUMPDEST PUSH1 0x0 PUSH1 0x20 DUP3 ADD SWAP1 POP DUP2 DUP2 SUB PUSH1 0x0 DUP4 ADD MSTORE PUSH2 0x3AF8 DUP2 PUSH2 0x3574 JUMP JUMPDEST SWAP1 POP SWAP2 SWAP1 POP JUMP JUMPDEST PUSH1 0x0 PUSH1 0x20 DUP3 ADD SWAP1 POP DUP2 DUP2 SUB PUSH1 0x0 DUP4 ADD MSTORE PUSH2 0x3B18 DUP2 PUSH2 0x3597 JUMP JUMPDEST SWAP1 POP SWAP2 SWAP1 POP JUMP JUMPDEST PUSH1 0x0 PUSH1 0x20 DUP3 ADD SWAP1 POP DUP2 DUP2 SUB PUSH1 0x0 DUP4 ADD MSTORE PUSH2 0x3B38 DUP2 PUSH2 0x35BA JUMP JUMPDEST SWAP1 POP SWAP2 SWAP1 POP JUMP JUMPDEST PUSH1 0x0 PUSH1 0x20 DUP3 ADD SWAP1 POP DUP2 DUP2 SUB PUSH1 0x0 DUP4 ADD MSTORE PUSH2 0x3B58 DUP2 PUSH2 0x35DD JUMP JUMPDEST SWAP1 POP SWAP2 SWAP1 POP JUMP JUMPDEST PUSH1 0x0 PUSH1 0x20 DUP3 ADD SWAP1 POP DUP2 DUP2 SUB PUSH1 0x0 DUP4 ADD MSTORE PUSH2 0x3B78 DUP2 PUSH2 0x3600 JUMP JUMPDEST SWAP1 POP SWAP2 SWAP1 POP JUMP JUMPDEST PUSH1 0x0 PUSH1 0x20 DUP3 ADD SWAP1 POP DUP2 DUP2 SUB PUSH1 0x0 DUP4 ADD MSTORE PUSH2 0x3B98 DUP2 PUSH2 0x3623 JUMP JUMPDEST SWAP1 POP SWAP2 SWAP1 POP JUMP JUMPDEST PUSH1 0x0 PUSH1 0x20 DUP3 ADD SWAP1 POP DUP2 DUP2 SUB PUSH1 0x0 DUP4 ADD MSTORE PUSH2 0x3BB8 DUP2 PUSH2 0x3646 JUMP JUMPDEST SWAP1 POP SWAP2 SWAP1 POP JUMP JUMPDEST PUSH1 0x0 PUSH1 0x20 DUP3 ADD SWAP1 POP DUP2 DUP2 SUB PUSH1 0x0 DUP4 ADD MSTORE PUSH2 0x3BD8 DUP2 PUSH2 0x3669 JUMP JUMPDEST SWAP1 POP SWAP2 SWAP1 POP JUMP JUMPDEST PUSH1 0x0 PUSH1 0x20 DUP3 ADD SWAP1 POP DUP2 DUP2 SUB PUSH1 0x0 DUP4 ADD MSTORE PUSH2 0x3BF8 DUP2 PUSH2 0x368C JUMP JUMPDEST SWAP1 POP SWAP2 SWAP1 POP JUMP JUMPDEST PUSH1 0x0 PUSH1 0x20 DUP3 ADD SWAP1 POP DUP2 DUP2 SUB PUSH1 0x0 DUP4 ADD MSTORE PUSH2 0x3C18 DUP2 PUSH2 0x36AF JUMP JUMPDEST SWAP1 POP SWAP2 SWAP1 POP JUMP JUMPDEST PUSH1 0x0 PUSH1 0x20 DUP3 ADD SWAP1 POP DUP2 DUP2 SUB PUSH1 0x0 DUP4 ADD MSTORE PUSH2 0x3C38 DUP2 PUSH2 0x36D2 JUMP JUMPDEST SWAP1 POP SWAP2 SWAP1 POP JUMP JUMPDEST PUSH1 0x0 PUSH1 0x20 DUP3 ADD SWAP1 POP DUP2 DUP2 SUB PUSH1 0x0 DUP4 ADD MSTORE PUSH2 0x3C58 DUP2 PUSH2 0x36F5 JUMP JUMPDEST SWAP1 POP SWAP2 SWAP1 POP JUMP JUMPDEST PUSH1 0x0 PUSH1 0x20 DUP3 ADD SWAP1 POP DUP2 DUP2 SUB PUSH1 0x0 DUP4 ADD MSTORE PUSH2 0x3C78 DUP2 PUSH2 0x3718 JUMP JUMPDEST SWAP1 POP SWAP2 SWAP1 POP JUMP JUMPDEST PUSH1 0x0 PUSH1 0x20 DUP3 ADD SWAP1 POP DUP2 DUP2 SUB PUSH1 0x0 DUP4 ADD MSTORE PUSH2 0x3C98 DUP2 PUSH2 0x373B JUMP JUMPDEST SWAP1 POP SWAP2 SWAP1 POP JUMP JUMPDEST PUSH1 0x0 PUSH1 0x20 DUP3 ADD SWAP1 POP DUP2 DUP2 SUB PUSH1 0x0 DUP4 ADD MSTORE PUSH2 0x3CB8 DUP2 PUSH2 0x375E JUMP JUMPDEST SWAP1 POP SWAP2 SWAP1 POP JUMP JUMPDEST PUSH1 0x0 PUSH1 0x20 DUP3 ADD SWAP1 POP DUP2 DUP2 SUB PUSH1 0x0 DUP4 ADD MSTORE PUSH2 0x3CD8 DUP2 PUSH2 0x3781 JUMP JUMPDEST SWAP1 POP SWAP2 SWAP1 POP JUMP JUMPDEST PUSH1 0x0 PUSH1 0x20 DUP3 ADD SWAP1 POP DUP2 DUP2 SUB PUSH1 0x0 DUP4 ADD MSTORE PUSH2 0x3CF8 DUP2 PUSH2 0x37A4 JUMP JUMPDEST SWAP1 POP SWAP2 SWAP1 POP JUMP JUMPDEST PUSH1 0x0 PUSH1 0x20 DUP3 ADD SWAP1 POP DUP2 DUP2 SUB PUSH1 0x0 DUP4 ADD MSTORE PUSH2 0x3D18 DUP2 PUSH2 0x37C7 JUMP JUMPDEST SWAP1 POP SWAP2 SWAP1 POP JUMP JUMPDEST PUSH1 0x0 PUSH1 0x20 DUP3 ADD SWAP1 POP DUP2 DUP2 SUB PUSH1 0x0 DUP4 ADD MSTORE PUSH2 0x3D38 DUP2 PUSH2 0x37EA JUMP JUMPDEST SWAP1 POP SWAP2 SWAP1 POP JUMP JUMPDEST PUSH1 0x0 PUSH1 0x20 DUP3 ADD SWAP1 POP PUSH2 0x3D54 PUSH1 0x0 DUP4 ADD DUP5 PUSH2 0x380D JUMP JUMPDEST SWAP3 SWAP2 POP POP JUMP JUMPDEST PUSH1 0x0 PUSH1 0x40 DUP3 ADD SWAP1 POP PUSH2 0x3D6F PUSH1 0x0 DUP4 ADD DUP6 PUSH2 0x380D JUMP JUMPDEST PUSH2 0x3D7C PUSH1 0x20 DUP4 ADD DUP5 PUSH2 0x380D JUMP JUMPDEST SWAP4 SWAP3 POP POP POP JUMP JUMPDEST PUSH1 0x0 PUSH2 0x3D8D PUSH2 0x3D9E JUMP JUMPDEST SWAP1 POP PUSH2 0x3D99 DUP3 DUP3 PUSH2 0x4106 JUMP JUMPDEST SWAP2 SWAP1 POP JUMP JUMPDEST PUSH1 0x0 PUSH1 0x40 MLOAD SWAP1 POP SWAP1 JUMP JUMPDEST PUSH1 0x0 PUSH8 0xFFFFFFFFFFFFFFFF DUP3 GT ISZERO PUSH2 0x3DC3 JUMPI PUSH2 0x3DC2 PUSH2 0x429A JUMP JUMPDEST JUMPDEST PUSH1 0x20 DUP3 MUL SWAP1 POP SWAP2 SWAP1 POP JUMP JUMPDEST PUSH1 0x0 DUP2 SWAP1 POP PUSH1 0x20 DUP3 ADD SWAP1 POP SWAP2 SWAP1 POP JUMP JUMPDEST PUSH1 0x0 DUP2 MLOAD SWAP1 POP SWAP2 SWAP1 POP JUMP JUMPDEST PUSH1 0x0 DUP2 MLOAD SWAP1 POP SWAP2 SWAP1 POP JUMP JUMPDEST PUSH1 0x0 DUP2 MLOAD SWAP1 POP SWAP2 SWAP1 POP JUMP JUMPDEST PUSH1 0x0 PUSH1 0x20 DUP3 ADD SWAP1 POP SWAP2 SWAP1 POP JUMP JUMPDEST PUSH1 0x0 DUP3 DUP3 MSTORE PUSH1 0x20 DUP3 ADD SWAP1 POP SWAP3 SWAP2 POP POP JUMP JUMPDEST PUSH1 0x0 DUP2 SWAP1 POP SWAP3 SWAP2 POP POP JUMP JUMPDEST PUSH1 0x0 DUP3 DUP3 MSTORE PUSH1 0x20 DUP3 ADD SWAP1 POP SWAP3 SWAP2 POP POP JUMP JUMPDEST PUSH1 0x0 PUSH2 0x3E44 DUP3 PUSH2 0x4035 JUMP JUMPDEST SWAP2 POP PUSH2 0x3E4F DUP4 PUSH2 0x4035 JUMP JUMPDEST SWAP3 POP DUP3 PUSH32 0xFFFFFFFFFFFFFFFFFFFFFFFFFFFFFFFFFFFFFFFFFFFFFFFFFFFFFFFFFFFFFFFF SUB DUP3 GT ISZERO PUSH2 0x3E84 JUMPI PUSH2 0x3E83 PUSH2 0x41DE JUMP JUMPDEST JUMPDEST DUP3 DUP3 ADD SWAP1 POP SWAP3 SWAP2 POP POP JUMP JUMPDEST PUSH1 0x0 PUSH2 0x3E9A DUP3 PUSH2 0x403F JUMP JUMPDEST SWAP2 POP PUSH2 0x3EA5 DUP4 PUSH2 0x403F JUMP JUMPDEST SWAP3 POP DUP3 PUSH4 0xFFFFFFFF SUB DUP3 GT ISZERO PUSH2 0x3EBE JUMPI PUSH2 0x3EBD PUSH2 0x41DE JUMP JUMPDEST JUMPDEST DUP3 DUP3 ADD SWAP1 POP SWAP3 SWAP2 POP POP JUMP JUMPDEST PUSH1 0x0 PUSH2 0x3ED4 DUP3 PUSH2 0x4035 JUMP JUMPDEST SWAP2 POP PUSH2 0x3EDF DUP4 PUSH2 0x4035 JUMP JUMPDEST SWAP3 POP DUP3 PUSH2 0x3EEF JUMPI PUSH2 0x3EEE PUSH2 0x420D JUMP JUMPDEST JUMPDEST DUP3 DUP3 DIV SWAP1 POP SWAP3 SWAP2 POP POP JUMP JUMPDEST PUSH1 0x0 PUSH2 0x3F05 DUP3 PUSH2 0x4035 JUMP JUMPDEST SWAP2 POP PUSH2 0x3F10 DUP4 PUSH2 0x4035 JUMP JUMPDEST SWAP3 POP DUP2 PUSH32 0xFFFFFFFFFFFFFFFFFFFFFFFFFFFFFFFFFFFFFFFFFFFFFFFFFFFFFFFFFFFFFFFF DIV DUP4 GT DUP3 ISZERO ISZERO AND ISZERO PUSH2 0x3F49 JUMPI PUSH2 0x3F48 PUSH2 0x41DE JUMP JUMPDEST JUMPDEST DUP3 DUP3 MUL SWAP1 POP SWAP3 SWAP2 POP POP JUMP JUMPDEST PUSH1 0x0 PUSH2 0x3F5F DUP3 PUSH2 0x4035 JUMP JUMPDEST SWAP2 POP PUSH2 0x3F6A DUP4 PUSH2 0x4035 JUMP JUMPDEST SWAP3 POP DUP3 DUP3 LT ISZERO PUSH2 0x3F7D JUMPI PUSH2 0x3F7C PUSH2 0x41DE JUMP JUMPDEST JUMPDEST DUP3 DUP3 SUB SWAP1 POP SWAP3 SWAP2 POP POP JUMP JUMPDEST PUSH1 0x0 PUSH2 0x3F93 DUP3 PUSH2 0x403F JUMP JUMPDEST SWAP2 POP PUSH2 0x3F9E DUP4 PUSH2 0x403F JUMP JUMPDEST SWAP3 POP DUP3 DUP3 LT ISZERO PUSH2 0x3FB1 JUMPI PUSH2 0x3FB0 PUSH2 0x41DE JUMP JUMPDEST JUMPDEST DUP3 DUP3 SUB SWAP1 POP SWAP3 SWAP2 POP POP JUMP JUMPDEST PUSH1 0x0 PUSH2 0x3FC7 DUP3 PUSH2 0x3FED JUMP JUMPDEST SWAP1 POP SWAP2 SWAP1 POP JUMP JUMPDEST PUSH1 0x0 DUP2 ISZERO ISZERO SWAP1 POP SWAP2 SWAP1 POP JUMP JUMPDEST PUSH1 0x0 DUP2 SWAP1 POP PUSH2 0x3FE8 DUP3 PUSH2 0x49AC JUMP JUMPDEST SWAP2 SWAP1 POP JUMP JUMPDEST PUSH1 0x0 PUSH20 0xFFFFFFFFFFFFFFFFFFFFFFFFFFFFFFFFFFFFFFFF DUP3 AND SWAP1 POP SWAP2 SWAP1 POP JUMP JUMPDEST PUSH1 0x0 PUSH28 0xFFFFFFFFFFFFFFFFFFFFFFFFFFFFFFFFFFFFFFFFFFFFFFFFFFFFFFFF DUP3 AND SWAP1 POP SWAP2 SWAP1 POP JUMP JUMPDEST PUSH1 0x0 DUP2 SWAP1 POP SWAP2 SWAP1 POP JUMP JUMPDEST PUSH1 0x0 PUSH4 0xFFFFFFFF DUP3 AND SWAP1 POP SWAP2 SWAP1 POP JUMP JUMPDEST PUSH1 0x0 PUSH2 0x405A DUP3 PUSH2 0x4061 JUMP JUMPDEST SWAP1 POP SWAP2 SWAP1 POP JUMP JUMPDEST PUSH1 0x0 PUSH2 0x406C DUP3 PUSH2 0x3FED JUMP JUMPDEST SWAP1 POP SWAP2 SWAP1 POP JUMP JUMPDEST PUSH1 0x0 PUSH2 0x407E DUP3 PUSH2 0x4085 JUMP JUMPDEST SWAP1 POP SWAP2 SWAP1 POP JUMP JUMPDEST PUSH1 0x0 PUSH2 0x4090 DUP3 PUSH2 0x3FED JUMP JUMPDEST SWAP1 POP SWAP2 SWAP1 POP JUMP JUMPDEST PUSH1 0x0 PUSH2 0x40A2 DUP3 PUSH2 0x3FDA JUMP JUMPDEST SWAP1 POP SWAP2 SWAP1 POP JUMP JUMPDEST PUSH1 0x0 JUMPDEST DUP4 DUP2 LT ISZERO PUSH2 0x40C7 JUMPI DUP1 DUP3 ADD MLOAD DUP2 DUP5 ADD MSTORE PUSH1 0x20 DUP2 ADD SWAP1 POP PUSH2 0x40AC JUMP JUMPDEST DUP4 DUP2 GT ISZERO PUSH2 0x40D6 JUMPI PUSH1 0x0 DUP5 DUP5 ADD MSTORE JUMPDEST POP POP POP POP JUMP JUMPDEST PUSH1 0x0 PUSH2 0x40E7 DUP3 PUSH2 0x4035 JUMP JUMPDEST SWAP2 POP PUSH1 0x0 DUP3 EQ ISZERO PUSH2 0x40FB JUMPI PUSH2 0x40FA PUSH2 0x41DE JUMP JUMPDEST JUMPDEST PUSH1 0x1 DUP3 SUB SWAP1 POP SWAP2 SWAP1 POP JUMP JUMPDEST PUSH2 0x410F DUP3 PUSH2 0x42E2 JUMP JUMPDEST DUP2 ADD DUP2 DUP2 LT PUSH8 0xFFFFFFFFFFFFFFFF DUP3 GT OR ISZERO PUSH2 0x412E JUMPI PUSH2 0x412D PUSH2 0x429A JUMP JUMPDEST JUMPDEST DUP1 PUSH1 0x40 MSTORE POP POP POP JUMP JUMPDEST PUSH1 0x0 PUSH2 0x4142 DUP3 PUSH2 0x4035 JUMP JUMPDEST SWAP2 POP PUSH32 0xFFFFFFFFFFFFFFFFFFFFFFFFFFFFFFFFFFFFFFFFFFFFFFFFFFFFFFFFFFFFFFFF DUP3 EQ ISZERO PUSH2 0x4175 JUMPI PUSH2 0x4174 PUSH2 0x41DE JUMP JUMPDEST JUMPDEST PUSH1 0x1 DUP3 ADD SWAP1 POP SWAP2 SWAP1 POP JUMP JUMPDEST PUSH1 0x0 PUSH2 0x418B DUP3 PUSH2 0x403F JUMP JUMPDEST SWAP2 POP PUSH4 0xFFFFFFFF DUP3 EQ ISZERO PUSH2 0x41A2 JUMPI PUSH2 0x41A1 PUSH2 0x41DE JUMP JUMPDEST JUMPDEST PUSH1 0x1 DUP3 ADD SWAP1 POP SWAP2 SWAP1 POP JUMP JUMPDEST PUSH1 0x0 PUSH2 0x41B8 DUP3 PUSH2 0x4035 JUMP JUMPDEST SWAP2 POP PUSH2 0x41C3 DUP4 PUSH2 0x4035 JUMP JUMPDEST SWAP3 POP DUP3 PUSH2 0x41D3 JUMPI PUSH2 0x41D2 PUSH2 0x420D JUMP JUMPDEST JUMPDEST DUP3 DUP3 MOD SWAP1 POP SWAP3 SWAP2 POP POP JUMP JUMPDEST PUSH32 0x4E487B7100000000000000000000000000000000000000000000000000000000 PUSH1 0x0 MSTORE PUSH1 0x11 PUSH1 0x4 MSTORE PUSH1 0x24 PUSH1 0x0 REVERT JUMPDEST PUSH32 0x4E487B7100000000000000000000000000000000000000000000000000000000 PUSH1 0x0 MSTORE PUSH1 0x12 PUSH1 0x4 MSTORE PUSH1 0x24 PUSH1 0x0 REVERT JUMPDEST PUSH32 0x4E487B7100000000000000000000000000000000000000000000000000000000 PUSH1 0x0 MSTORE PUSH1 0x21 PUSH1 0x4 MSTORE PUSH1 0x24 PUSH1 0x0 REVERT JUMPDEST PUSH32 0x4E487B7100000000000000000000000000000000000000000000000000000000 PUSH1 0x0 MSTORE PUSH1 0x32 PUSH1 0x4 MSTORE PUSH1 0x24 PUSH1 0x0 REVERT JUMPDEST PUSH32 0x4E487B7100000000000000000000000000000000000000000000000000000000 PUSH1 0x0 MSTORE PUSH1 0x41 PUSH1 0x4 MSTORE PUSH1 0x24 PUSH1 0x0 REVERT JUMPDEST PUSH1 0x0 DUP1 REVERT JUMPDEST PUSH1 0x0 DUP1 REVERT JUMPDEST PUSH1 0x0 DUP1 REVERT JUMPDEST PUSH1 0x0 DUP1 REVERT JUMPDEST PUSH1 0x0 DUP1 REVERT JUMPDEST PUSH1 0x0 PUSH1 0x1F NOT PUSH1 0x1F DUP4 ADD AND SWAP1 POP SWAP2 SWAP1 POP JUMP JUMPDEST PUSH32 0x43616E6E6F74207374617274206C6F7474657279206265666F72652073746172 PUSH1 0x0 DUP3 ADD MSTORE PUSH32 0x7454696D65000000000000000000000000000000000000000000000000000000 PUSH1 0x20 DUP3 ADD MSTORE POP JUMP JUMPDEST PUSH32 0x7265717565737452616E646F6D6E6573732063616E6E6F742062652063616C6C PUSH1 0x0 DUP3 ADD MSTORE PUSH32 0x656420696E207468652073616D6520626C6F636B20617320636C6F73654C6F74 PUSH1 0x20 DUP3 ADD MSTORE PUSH32 0x7465727900000000000000000000000000000000000000000000000000000000 PUSH1 0x40 DUP3 ADD MSTORE POP JUMP JUMPDEST PUSH32 0x496E76616C6964207469636B6574496400000000000000000000000000000000 PUSH1 0x0 DUP3 ADD MSTORE POP JUMP JUMPDEST PUSH32 0x43616E6E6F742072657365742077697468203020737461727454696D6520616E PUSH1 0x0 DUP3 ADD MSTORE PUSH32 0x6420656E6454696D650000000000000000000000000000000000000000000000 PUSH1 0x20 DUP3 ADD MSTORE POP JUMP JUMPDEST PUSH32 0x4F776E61626C653A206E6577206F776E657220697320746865207A65726F2061 PUSH1 0x0 DUP3 ADD MSTORE PUSH32 0x6464726573730000000000000000000000000000000000000000000000000000 PUSH1 0x20 DUP3 ADD MSTORE POP JUMP JUMPDEST PUSH32 0x43616E6E6F742064726177206C6F747465727920616674657220656E64526577 PUSH1 0x0 DUP3 ADD MSTORE PUSH32 0x61726454696D6500000000000000000000000000000000000000000000000000 PUSH1 0x20 DUP3 ADD MSTORE POP JUMP JUMPDEST PUSH32 0x436F6E7472616374206E6F7420616C6C6F776564000000000000000000000000 PUSH1 0x0 DUP3 ADD MSTORE POP JUMP JUMPDEST PUSH32 0x43616E2774206368616E67652072657761726473206E6F770000000000000000 PUSH1 0x0 DUP3 ADD MSTORE POP JUMP JUMPDEST PUSH32 0x4C6F747465727920616C72656164792073746172746564000000000000000000 PUSH1 0x0 DUP3 ADD MSTORE POP JUMP JUMPDEST PUSH32 0x43616E6E6F7420636C61696D207469636B65747320616674657220656E645265 PUSH1 0x0 DUP3 ADD MSTORE PUSH32 0x7761726454696D65000000000000000000000000000000000000000000000000 PUSH1 0x20 DUP3 ADD MSTORE POP JUMP JUMPDEST PUSH32 0x416464726573733A20696E73756666696369656E742062616C616E636520666F PUSH1 0x0 DUP3 ADD MSTORE PUSH32 0x722063616C6C0000000000000000000000000000000000000000000000000000 PUSH1 0x20 DUP3 ADD MSTORE POP JUMP JUMPDEST PUSH32 0x43616E6E6F74207374617274207769746820737461727454696D6520696E2074 PUSH1 0x0 DUP3 ADD MSTORE PUSH32 0x6865207061737400000000000000000000000000000000000000000000000000 PUSH1 0x20 DUP3 ADD MSTORE POP JUMP JUMPDEST PUSH32 0x4C6F7474657279206E6F7420636C61696D61626C650000000000000000000000 PUSH1 0x0 DUP3 ADD MSTORE POP JUMP JUMPDEST PUSH32 0x72657665616C52616E646F6D6E6573732063616E6E6F742062652063616C6C65 PUSH1 0x0 DUP3 ADD MSTORE PUSH32 0x6420696E207468652073616D6520626C6F636B20617320726571756573745261 PUSH1 0x20 DUP3 ADD MSTORE PUSH32 0x6E646F6D6E657373000000000000000000000000000000000000000000000000 PUSH1 0x40 DUP3 ADD MSTORE POP JUMP JUMPDEST PUSH32 0x4E6F7420656E6F7567682055534420746F20627579207469636B657400000000 PUSH1 0x0 DUP3 ADD MSTORE POP JUMP JUMPDEST PUSH32 0x43616E6E6F74206275792030207469636B657473000000000000000000000000 PUSH1 0x0 DUP3 ADD MSTORE POP JUMP JUMPDEST PUSH32 0x50726F787920636F6E7472616374206E6F7420616C6C6F776564000000000000 PUSH1 0x0 DUP3 ADD MSTORE POP JUMP JUMPDEST PUSH32 0x4E6F207265776172640000000000000000000000000000000000000000000000 PUSH1 0x0 DUP3 ADD MSTORE POP JUMP JUMPDEST PUSH32 0x4F776E61626C653A2063616C6C6572206973206E6F7420746865206F776E6572 PUSH1 0x0 DUP3 ADD MSTORE POP JUMP JUMPDEST PUSH32 0x43616E6E6F7420627579207469636B65747320616674657220656E6454696D65 PUSH1 0x0 DUP3 ADD MSTORE POP JUMP JUMPDEST PUSH32 0x4C6F7474657279206E6F74206F70656E00000000000000000000000000000000 PUSH1 0x0 DUP3 ADD MSTORE POP JUMP JUMPDEST PUSH32 0x43616E6E6F7420636C61696D2030207469636B65747300000000000000000000 PUSH1 0x0 DUP3 ADD MSTORE POP JUMP JUMPDEST PUSH32 0x43616E6E6F7420636C6F7365206C6F7474657279206265666F726520656E6454 PUSH1 0x0 DUP3 ADD MSTORE PUSH32 0x696D650000000000000000000000000000000000000000000000000000000000 PUSH1 0x20 DUP3 ADD MSTORE POP JUMP JUMPDEST PUSH32 0x416464726573733A2063616C6C20746F206E6F6E2D636F6E7472616374000000 PUSH1 0x0 DUP3 ADD MSTORE POP JUMP JUMPDEST PUSH32 0x43616E6E6F74207265736574206265666F726520656E6452657761726454696D PUSH1 0x0 DUP3 ADD MSTORE PUSH32 0x6500000000000000000000000000000000000000000000000000000000000000 PUSH1 0x20 DUP3 ADD MSTORE POP JUMP JUMPDEST PUSH32 0x5361666545524332303A204552433230206F7065726174696F6E20646964206E PUSH1 0x0 DUP3 ADD MSTORE PUSH32 0x6F74207375636365656400000000000000000000000000000000000000000000 PUSH1 0x20 DUP3 ADD MSTORE POP JUMP JUMPDEST PUSH32 0x5265656E7472616E637947756172643A207265656E7472616E742063616C6C00 PUSH1 0x0 DUP3 ADD MSTORE POP JUMP JUMPDEST PUSH32 0x4C6F7474657279206E6F7420636C6F7365640000000000000000000000000000 PUSH1 0x0 DUP3 ADD MSTORE POP JUMP JUMPDEST PUSH32 0x4E6F7420746865206F776E6572206F6620746865207469636B65740000000000 PUSH1 0x0 DUP3 ADD MSTORE POP JUMP JUMPDEST PUSH1 0x4 DUP2 LT PUSH2 0x49BD JUMPI PUSH2 0x49BC PUSH2 0x423C JUMP JUMPDEST JUMPDEST POP JUMP JUMPDEST PUSH2 0x49C9 DUP2 PUSH2 0x3FBC JUMP JUMPDEST DUP2 EQ PUSH2 0x49D4 JUMPI PUSH1 0x0 DUP1 REVERT JUMPDEST POP JUMP JUMPDEST PUSH2 0x49E0 DUP2 PUSH2 0x3FCE JUMP JUMPDEST DUP2 EQ PUSH2 0x49EB JUMPI PUSH1 0x0 DUP1 REVERT JUMPDEST POP JUMP JUMPDEST PUSH2 0x49F7 DUP2 PUSH2 0x400D JUMP JUMPDEST DUP2 EQ PUSH2 0x4A02 JUMPI PUSH1 0x0 DUP1 REVERT JUMPDEST POP JUMP JUMPDEST PUSH2 0x4A0E DUP2 PUSH2 0x4035 JUMP JUMPDEST DUP2 EQ PUSH2 0x4A19 JUMPI PUSH1 0x0 DUP1 REVERT JUMPDEST POP JUMP INVALID LOG2 PUSH5 0x6970667358 0x22 SLT KECCAK256 CODESIZE 0x4B 0xE2 0xC0 0xEF SHL REVERT 0xA8 CODECOPY PUSH17 0xBD9D271F2C1493E06947FF001C24E083D 0xA6 0xDF SWAP5 OR LOG3 PUSH5 0x736F6C6343 STOP ADDMOD MOD STOP CALLER "},"methodIdentifiers":{"buyTickets(uint224[])":"35879247","claimTickets(uint256[])":"88c61855","closeBlockNumber()":"c079fead","closeLottery()":"6fd09816","currentTicketId()":"686465b8","endRewardTime()":"02a24770","endTime()":"3197cbb6","finalNumber()":"dae58da8","jackpotAmount()":"b1eac37e","lotteryLength()":"49c01d3f","owner()":"8da5cb5b","randomGenerator()":"dcbad90d","renounceOwnership()":"715018a6","requestRandomness(uint256)":"7363ae1f","requestRandomnessBlockNumber()":"e94f6955","resetForNewLottery(uint256,uint256)":"5fea10c6","revealRandomness(uint256)":"d75cd444","rewardingLength()":"42043170","rewardsBreakdown(uint256)":"97ff1cac","rewardsForBracket(uint256)":"1d0769ca","setEndRewardTime(uint256)":"e76a0526","setEndTime(uint256)":"ccb98ffc","setRandomGenerator(address)":"4bc19fee","setRewardsBreakdown(uint256[6])":"68f5f2b0","setStartTime(uint256)":"3e0a322d","setTicketPrice(uint256)":"15981650","setTreasuryAddresses(address)":"ec573d1c","setTreasuryFee(uint256)":"77e741c7","setUSDToken(address)":"218fe3a5","startLottery()":"160344e2","startTime()":"78e97925","status()":"200d2ed2","ticketNumber(uint256)":"3b05cb2f","ticketPrice()":"1209b1f6","transferOwnership(address)":"f2fde38b","treasuryAddress()":"c5f956af","treasuryFee()":"cc32d176","usdToken()":"f897a22b","viewResult()":"3cff0380","viewTicket(uint256)":"6b9a7d01","viewTicketNumber(uint256)":"1ca1502f"}}}}}