{"contracts/Lotto.sol":{"Lotto666":{"abi":[{"inputs":[{"internalType":"address","name":"_usdTokenAddress","type":"address"},{"internalType":"address","name":"_randomGeneratorAddress","type":"address"},{"internalType":"address","name":"_treasuryAddress","type":"address"}],"stateMutability":"nonpayable","type":"constructor"},{"anonymous":false,"inputs":[{"indexed":true,"internalType":"uint256","name":"startTime","type":"uint256"},{"indexed":false,"internalType":"uint256","name":"finalNumber","type":"uint256"},{"indexed":false,"internalType":"uint256","name":"countWinningTickets","type":"uint256"}],"name":"LotteryDrawn","type":"event"},{"anonymous":false,"inputs":[{"indexed":true,"internalType":"uint256","name":"startTime","type":"uint256"}],"name":"LotterySet","type":"event"},{"anonymous":false,"inputs":[{"indexed":true,"internalType":"address","name":"randomGenerator","type":"address"}],"name":"NewRandomGenerator","type":"event"},{"anonymous":false,"inputs":[{"indexed":true,"internalType":"address","name":"treasury","type":"address"}],"name":"NewTreasuryAddress","type":"event"},{"anonymous":false,"inputs":[{"indexed":true,"internalType":"address","name":"previousOwner","type":"address"},{"indexed":true,"internalType":"address","name":"newOwner","type":"address"}],"name":"OwnershipTransferred","type":"event"},{"anonymous":false,"inputs":[{"indexed":true,"internalType":"address","name":"claimer","type":"address"},{"indexed":false,"internalType":"uint256","name":"amount","type":"uint256"}],"name":"TicketsClaim","type":"event"},{"anonymous":false,"inputs":[{"indexed":true,"internalType":"address","name":"buyer","type":"address"},{"indexed":false,"internalType":"uint256","name":"numberTickets","type":"uint256"}],"name":"TicketsPurchase","type":"event"},{"inputs":[{"internalType":"uint256[]","name":"_ticketNumbers","type":"uint256[]"}],"name":"buyTickets","outputs":[],"stateMutability":"nonpayable","type":"function"},{"inputs":[{"internalType":"uint256[]","name":"_ticketIds","type":"uint256[]"}],"name":"claimTickets","outputs":[],"stateMutability":"nonpayable","type":"function"},{"inputs":[],"name":"closeBlockNumber","outputs":[{"internalType":"uint256","name":"","type":"uint256"}],"stateMutability":"view","type":"function"},{"inputs":[],"name":"closeLottery","outputs":[],"stateMutability":"nonpayable","type":"function"},{"inputs":[],"name":"currentTicketId","outputs":[{"internalType":"uint256","name":"","type":"uint256"}],"stateMutability":"view","type":"function"},{"inputs":[],"name":"endRewardTime","outputs":[{"internalType":"uint256","name":"","type":"uint256"}],"stateMutability":"view","type":"function"},{"inputs":[],"name":"endTime","outputs":[{"internalType":"uint256","name":"","type":"uint256"}],"stateMutability":"view","type":"function"},{"inputs":[],"name":"finalNumber","outputs":[{"internalType":"uint256","name":"","type":"uint256"}],"stateMutability":"view","type":"function"},{"inputs":[{"internalType":"uint256","name":"randomNumber","type":"uint256"}],"name":"getRandomTicketNumber","outputs":[{"internalType":"uint256","name":"","type":"uint256"}],"stateMutability":"pure","type":"function"},{"inputs":[],"name":"jackpotAmount","outputs":[{"internalType":"uint256","name":"","type":"uint256"}],"stateMutability":"view","type":"function"},{"inputs":[],"name":"lotteryLength","outputs":[{"internalType":"uint256","name":"","type":"uint256"}],"stateMutability":"view","type":"function"},{"inputs":[],"name":"owner","outputs":[{"internalType":"address","name":"","type":"address"}],"stateMutability":"view","type":"function"},{"inputs":[],"name":"randomGenerator","outputs":[{"internalType":"contract IRandomNumberGenerator","name":"","type":"address"}],"stateMutability":"view","type":"function"},{"inputs":[],"name":"renounceOwnership","outputs":[],"stateMutability":"nonpayable","type":"function"},{"inputs":[{"internalType":"uint256","name":"seedHash","type":"uint256"}],"name":"requestRandomness","outputs":[],"stateMutability":"nonpayable","type":"function"},{"inputs":[],"name":"requestRandomnessBlockNumber","outputs":[{"internalType":"uint256","name":"","type":"uint256"}],"stateMutability":"view","type":"function"},{"inputs":[{"internalType":"uint256","name":"_startTime","type":"uint256"},{"internalType":"uint256","name":"_endTime","type":"uint256"}],"name":"resetForNewLottery","outputs":[],"stateMutability":"nonpayable","type":"function"},{"inputs":[{"internalType":"uint256","name":"seed","type":"uint256"}],"name":"revealRandomness","outputs":[],"stateMutability":"nonpayable","type":"function"},{"inputs":[],"name":"rewardingLength","outputs":[{"internalType":"uint256","name":"","type":"uint256"}],"stateMutability":"view","type":"function"},{"inputs":[{"internalType":"uint256","name":"","type":"uint256"}],"name":"rewardsBreakdown","outputs":[{"internalType":"uint256","name":"","type":"uint256"}],"stateMutability":"view","type":"function"},{"inputs":[{"internalType":"uint256","name":"","type":"uint256"}],"name":"rewardsForBracket","outputs":[{"internalType":"uint256","name":"","type":"uint256"}],"stateMutability":"view","type":"function"},{"inputs":[{"internalType":"uint256","name":"_endRewardTime","type":"uint256"}],"name":"setEndRewardTime","outputs":[],"stateMutability":"nonpayable","type":"function"},{"inputs":[{"internalType":"uint256","name":"_endTime","type":"uint256"}],"name":"setEndTime","outputs":[],"stateMutability":"nonpayable","type":"function"},{"inputs":[{"internalType":"address","name":"_randomGeneratorAddress","type":"address"}],"name":"setRandomGenerator","outputs":[],"stateMutability":"nonpayable","type":"function"},{"inputs":[{"internalType":"uint256[6]","name":"_rewardsBreakdown","type":"uint256[6]"}],"name":"setRewardsBreakdown","outputs":[],"stateMutability":"nonpayable","type":"function"},{"inputs":[{"internalType":"uint256","name":"_startTime","type":"uint256"}],"name":"setStartTime","outputs":[],"stateMutability":"nonpayable","type":"function"},{"inputs":[{"internalType":"uint256","name":"_ticketPrice","type":"uint256"}],"name":"setTicketPrice","outputs":[],"stateMutability":"nonpayable","type":"function"},{"inputs":[{"internalType":"address","name":"_treasuryAddress","type":"address"}],"name":"setTreasuryAddresses","outputs":[],"stateMutability":"nonpayable","type":"function"},{"inputs":[{"internalType":"uint256","name":"_treasuryFee","type":"uint256"}],"name":"setTreasuryFee","outputs":[],"stateMutability":"nonpayable","type":"function"},{"inputs":[{"internalType":"address","name":"_usdTokenAddress","type":"address"}],"name":"setUSDToken","outputs":[],"stateMutability":"nonpayable","type":"function"},{"inputs":[],"name":"startLottery","outputs":[],"stateMutability":"nonpayable","type":"function"},{"inputs":[],"name":"startTime","outputs":[{"internalType":"uint256","name":"","type":"uint256"}],"stateMutability":"view","type":"function"},{"inputs":[],"name":"status","outputs":[{"internalType":"enum Lotto666.Status","name":"","type":"uint8"}],"stateMutability":"view","type":"function"},{"inputs":[],"name":"ticketPrice","outputs":[{"internalType":"uint256","name":"","type":"uint256"}],"stateMutability":"view","type":"function"},{"inputs":[{"internalType":"address","name":"newOwner","type":"address"}],"name":"transferOwnership","outputs":[],"stateMutability":"nonpayable","type":"function"},{"inputs":[],"name":"treasuryAddress","outputs":[{"internalType":"address","name":"","type":"address"}],"stateMutability":"view","type":"function"},{"inputs":[],"name":"treasuryFee","outputs":[{"internalType":"uint256","name":"","type":"uint256"}],"stateMutability":"view","type":"function"},{"inputs":[],"name":"usdToken","outputs":[{"internalType":"contract IERC20","name":"","type":"address"}],"stateMutability":"view","type":"function"},{"inputs":[{"internalType":"address","name":"owner","type":"address"}],"name":"viewClaimableTicketsOfAddress","outputs":[{"internalType":"uint256[]","name":"","type":"uint256[]"}],"stateMutability":"view","type":"function"},{"inputs":[],"name":"viewMyRewardsAmount","outputs":[{"internalType":"uint256","name":"","type":"uint256"}],"stateMutability":"view","type":"function"},{"inputs":[],"name":"viewResult","outputs":[{"internalType":"uint32[]","name":"","type":"uint32[]"}],"stateMutability":"view","type":"function"},{"inputs":[{"internalType":"uint256[]","name":"_ticketIds","type":"uint256[]"}],"name":"viewRewardsAmount","outputs":[{"internalType":"uint256","name":"","type":"uint256"}],"stateMutability":"view","type":"function"},{"inputs":[],"name":"viewRewardsBreakdown","outputs":[{"internalType":"uint256[6]","name":"","type":"uint256[6]"}],"stateMutability":"view","type":"function"},{"inputs":[],"name":"viewRewardsForBracket","outputs":[{"internalType":"uint256[6]","name":"","type":"uint256[6]"}],"stateMutability":"view","type":"function"},{"inputs":[{"internalType":"uint256","name":"ticketId","type":"uint256"}],"name":"viewTicket","outputs":[{"internalType":"uint32[]","name":"","type":"uint32[]"},{"internalType":"uint32","name":"","type":"uint32"},{"internalType":"address","name":"","type":"address"}],"stateMutability":"view","type":"function"},{"inputs":[{"internalType":"uint256","name":"number","type":"uint256"}],"name":"viewTicketNumber","outputs":[{"internalType":"uint32[]","name":"","type":"uint32[]"}],"stateMutability":"pure","type":"function"},{"inputs":[{"internalType":"address","name":"owner","type":"address"}],"name":"viewTicketsOfAddress","outputs":[{"internalType":"uint256[]","name":"","type":"uint256[]"}],"stateMutability":"view","type":"function"},{"inputs":[],"name":"withdrawAll","outputs":[],"stateMutability":"nonpayable","type":"function"}],"evm":{"bytecode":{"linkReferences":{},"object":"60806040526001600255671bc16d674ec800006004556000600755600060085560006009556000600b5562069780600c5562026ac0600d556000600e60006101000a81548160ff0219169083600381111562000060576200005f6200041f565b5b02179055506040518060c00160405280600060ff168152602001600f60ff168152602001600f60ff168152602001600f60ff168152602001600f60ff168152602001602860ff168152506012906006620000bc9291906200030f565b506040518060c00160405280600060ff168152602001600060ff168152602001600060ff168152602001600060ff168152602001600060ff168152602001600060ff168152506018906006620001149291906200030f565b506000601e553480156200012757600080fd5b50604051620058af380380620058af83398181016040528101906200014d91906200038f565b600160008190555062000175620001696200024160201b60201c565b6200024960201b60201c565b82600560006101000a81548173ffffffffffffffffffffffffffffffffffffffff021916908373ffffffffffffffffffffffffffffffffffffffff16021790555081600660006101000a81548173ffffffffffffffffffffffffffffffffffffffff021916908373ffffffffffffffffffffffffffffffffffffffff16021790555080600360006101000a81548173ffffffffffffffffffffffffffffffffffffffff021916908373ffffffffffffffffffffffffffffffffffffffff1602179055505050506200046d565b600033905090565b6000600160009054906101000a900473ffffffffffffffffffffffffffffffffffffffff16905081600160006101000a81548173ffffffffffffffffffffffffffffffffffffffff021916908373ffffffffffffffffffffffffffffffffffffffff1602179055508173ffffffffffffffffffffffffffffffffffffffff168173ffffffffffffffffffffffffffffffffffffffff167f8be0079c531659141344cd1fd0a4f28419497f9722a3daafe3b4186f6b6457e060405160405180910390a35050565b826006810192821562000346579160200282015b8281111562000345578251829060ff1690559160200191906001019062000323565b5b50905062000355919062000359565b5090565b5b80821115620003745760008160009055506001016200035a565b5090565b600081519050620003898162000453565b92915050565b600080600060608486031215620003ab57620003aa6200044e565b5b6000620003bb8682870162000378565b9350506020620003ce8682870162000378565b9250506040620003e18682870162000378565b9150509250925092565b6000620003f882620003ff565b9050919050565b600073ffffffffffffffffffffffffffffffffffffffff82169050919050565b7f4e487b7100000000000000000000000000000000000000000000000000000000600052602160045260246000fd5b600080fd5b6200045e81620003eb565b81146200046a57600080fd5b50565b615432806200047d6000396000f3fe608060405234801561001057600080fd5b506004361061029f5760003560e01c8063715018a611610167578063cc32d176116100ce578063e76a052611610087578063e76a0526146107ba578063e94f6955146107d6578063ec573d1c146107f4578063f2fde38b14610810578063f897a22b1461082c578063fca6d0df1461084a5761029f565b8063cc32d1761461070c578063ccb98ffc1461072a578063d0fbe7fe14610746578063d75cd44414610762578063dae58da81461077e578063dcbad90d1461079c5761029f565b80638da5cb5b116101205780638da5cb5b1461063457806397ff1cac14610652578063b1eac37e14610682578063c079fead146106a0578063c5f956af146106be578063cba15a8e146106dc5761029f565b8063715018a6146105ae5780637363ae1f146105b857806377e741c7146105d457806378e97925146105f0578063853828b61461060e57806388c61855146106185761029f565b80633f5bffb71161020b5780635fea10c6116101c45780635fea10c6146104fe57806365d4517c1461051a578063686465b81461053857806368f5f2b0146105565780636b9a7d01146105725780636fd09816146105a45761029f565b80633f5bffb71461041657806342043170146104465780634704370c14610464578063477f4eaf1461049457806349c01d3f146104c45780634bc19fee146104e25761029f565b80631d0769ca1161025d5780631d0769ca14610354578063200d2ed214610384578063218fe3a5146103a25780633197cbb6146103be5780633cff0380146103dc5780633e0a322d146103fa5761029f565b806294cd31146102a457806302a24770146102c25780631209b1f6146102e057806315981650146102fe578063160344e21461031a5780631ca1502f14610324575b600080fd5b6102ac610868565b6040516102b9919061421c565b60405180910390f35b6102ca6108b3565b6040516102d791906146cc565b60405180910390f35b6102e86108b9565b6040516102f591906146cc565b60405180910390f35b61031860048036038101906103139190613ad4565b6108bf565b005b6103226108d1565b005b61033e60048036038101906103399190613ad4565b610a70565b60405161034b9190614259565b60405180910390f35b61036e60048036038101906103699190613ad4565b610b3e565b60405161037b91906146cc565b60405180910390f35b61038c610b59565b60405161039991906142ef565b60405180910390f35b6103bc60048036038101906103b791906139b7565b610b6c565b005b6103c6610bb8565b6040516103d391906146cc565b60405180910390f35b6103e4610bbe565b6040516103f19190614259565b60405180910390f35b610414600480360381019061040f9190613ad4565b610c45565b005b610430600480360381019061042b91906139b7565b610c57565b60405161043d9190614237565b60405180910390f35b61044e610e12565b60405161045b91906146cc565b60405180910390f35b61047e600480360381019061047991906139b7565b610e18565b60405161048b9190614237565b60405180910390f35b6104ae60048036038101906104a99190613a5e565b610ff9565b6040516104bb91906146cc565b60405180910390f35b6104cc6110e0565b6040516104d991906146cc565b60405180910390f35b6104fc60048036038101906104f791906139b7565b6110e6565b005b61051860048036038101906105139190613b2e565b611175565b005b6105226113f0565b60405161052f919061421c565b60405180910390f35b61054061143b565b60405161054d91906146cc565b60405180910390f35b610570600480360381019061056b91906139e4565b611441565b005b61058c60048036038101906105879190613ad4565b6114d4565b60405161059b9392919061427b565b60405180910390f35b6105ac61166c565b005b6105b6611812565b005b6105d260048036038101906105cd9190613ad4565b611826565b005b6105ee60048036038101906105e99190613ad4565b611a7b565b005b6105f8611a8d565b60405161060591906146cc565b60405180910390f35b610616611a93565b005b610632600480360381019061062d9190613a11565b611c19565b005b61063c6120d7565b60405161064991906141a1565b60405180910390f35b61066c60048036038101906106679190613ad4565b612101565b60405161067991906146cc565b60405180910390f35b61068a61211c565b60405161069791906146cc565b60405180910390f35b6106a8612122565b6040516106b591906146cc565b60405180910390f35b6106c6612128565b6040516106d391906141a1565b60405180910390f35b6106f660048036038101906106f19190613ad4565b61214e565b60405161070391906146cc565b60405180910390f35b61071461230a565b60405161072191906146cc565b60405180910390f35b610744600480360381019061073f9190613ad4565b612310565b005b610760600480360381019061075b9190613a11565b612322565b005b61077c60048036038101906107779190613ad4565b612812565b005b610786612ac7565b60405161079391906146cc565b60405180910390f35b6107a4612acd565b6040516107b191906142d4565b60405180910390f35b6107d460048036038101906107cf9190613ad4565b612af3565b005b6107de612b05565b6040516107eb91906146cc565b60405180910390f35b61080e600480360381019061080991906139b7565b612b0b565b005b61082a600480360381019061082591906139b7565b612b9a565b005b610834612c1e565b60405161084191906142b9565b60405180910390f35b610852612c44565b60405161085f91906146cc565b60405180910390f35b61087061375e565b60186006806020026040519081016040528092919082600680156108a9576020028201915b815481526020019060010190808311610895575b5050505050905090565b60115481565b60045481565b6108c7612c5c565b8060048190555050565b6108da33612cda565b1561091a576040517f08c379a0000000000000000000000000000000000000000000000000000000008152600401610911906143ec565b60405180910390fd5b3273ffffffffffffffffffffffffffffffffffffffff163373ffffffffffffffffffffffffffffffffffffffff1614610988576040517f08c379a000000000000000000000000000000000000000000000000000000000815260040161097f9061452c565b60405180910390fd5b6000600381111561099c5761099b614c33565b5b600e60009054906101000a900460ff1660038111156109be576109bd614c33565b5b146109fe576040517f08c379a00000000000000000000000000000000000000000000000000000000081526004016109f59061442c565b60405180910390fd5b42600f541115610a43576040517f08c379a0000000000000000000000000000000000000000000000000000000008152600401610a3a9061432c565b60405180910390fd5b6001600e60006101000a81548160ff02191690836003811115610a6957610a68614c33565b5b0217905550565b60606000600667ffffffffffffffff811115610a8f57610a8e614c91565b5b604051908082528060200260200182016040528015610abd5781602001602082028036833780820191505090505b50905060005b6006811015610b34576001604285610adb9190614ba4565b610ae591906148ae565b828281518110610af857610af7614c62565b5b602002602001019063ffffffff16908163ffffffff1681525050604284610b1f91906148e8565b93508080610b2c90614b2e565b915050610ac3565b5080915050919050565b60188160068110610b4e57600080fd5b016000915090505481565b600e60009054906101000a900460ff1681565b610b74612c5c565b80600560006101000a81548173ffffffffffffffffffffffffffffffffffffffff021916908373ffffffffffffffffffffffffffffffffffffffff16021790555050565b60105481565b6060600380811115610bd357610bd2614c33565b5b600e60009054906101000a900460ff166003811115610bf557610bf4614c33565b5b14610c35576040517f08c379a0000000000000000000000000000000000000000000000000000000008152600401610c2c906144ac565b60405180910390fd5b610c40601e54610a70565b905090565b610c4d612c5c565b80600f8190555050565b60606000600b5467ffffffffffffffff811115610c7757610c76614c91565b5b604051908082528060200260200182016040528015610ca55781602001602082028036833780820191505090505b5090506000805b600b54811015610d60578473ffffffffffffffffffffffffffffffffffffffff16600a600083815260200190815260200160002060010160009054906101000a900473ffffffffffffffffffffffffffffffffffffffff1673ffffffffffffffffffffffffffffffffffffffff161415610d4d5780838380610d2d90614b2e565b945081518110610d4057610d3f614c62565b5b6020026020010181815250505b8080610d5890614b2e565b915050610cac565b5060008167ffffffffffffffff811115610d7d57610d7c614c91565b5b604051908082528060200260200182016040528015610dab5781602001602082028036833780820191505090505b50905060005b82811015610e0657838181518110610dcc57610dcb614c62565b5b6020026020010151828281518110610de757610de6614c62565b5b6020026020010181815250508080610dfe90614b2e565b915050610db1565b50809350505050919050565b600d5481565b60606000610e2583610c57565b90506000815167ffffffffffffffff811115610e4457610e43614c91565b5b604051908082528060200260200182016040528015610e725781602001602082028036833780820191505090505b5090506000805b8351811015610f46576000600a6000868481518110610e9b57610e9a614c62565b5b60200260200101518152602001908152602001600020600001601c9054906101000a900463ffffffff1663ffffffff169050600060188260068110610ee357610ee2614c62565b5b01541115610f3257848281518110610efe57610efd614c62565b5b6020026020010151848480610f1290614b2e565b955081518110610f2557610f24614c62565b5b6020026020010181815250505b508080610f3e90614b2e565b915050610e79565b5060008167ffffffffffffffff811115610f6357610f62614c91565b5b604051908082528060200260200182016040528015610f915781602001602082028036833780820191505090505b50905060005b82811015610fec57838181518110610fb257610fb1614c62565b5b6020026020010151828281518110610fcd57610fcc614c62565b5b6020026020010181815250508080610fe490614b2e565b915050610f97565b5080945050505050919050565b600060038081111561100e5761100d614c33565b5b600e60009054906101000a900460ff1660038111156110305761102f614c33565b5b14158061103e575060008251145b1561104c57600090506110db565b6000805b83518110156110d5576018600a600086848151811061107257611071614c62565b5b60200260200101518152602001908152602001600020600001601c9054906101000a900463ffffffff1663ffffffff16600681106110b3576110b2614c62565b5b0154826110c09190614858565b915080806110cd90614b2e565b915050611050565b50809150505b919050565b600c5481565b6110ee612c5c565b80600660006101000a81548173ffffffffffffffffffffffffffffffffffffffff021916908373ffffffffffffffffffffffffffffffffffffffff1602179055508073ffffffffffffffffffffffffffffffffffffffff167f383f8cb39dfa7c3fb901a460dd449ea924868f0a92ff03da64740fffa5f1de6260405160405180910390a250565b61117d612c5c565b6003808111156111905761118f614c33565b5b600e60009054906101000a900460ff1660038111156111b2576111b1614c33565b5b14156111fd5760115442116111fc576040517f08c379a00000000000000000000000000000000000000000000000000000000081526004016111f39061462c565b60405180910390fd5b5b60008214158061120e575060008114155b61124d576040517f08c379a00000000000000000000000000000000000000000000000000000000081526004016112449061438c565b60405180910390fd5b6000811461126657600c54816112639190614973565b91505b4282116112a8576040517f08c379a000000000000000000000000000000000000000000000000000000000815260040161129f9061448c565b60405180910390fd5b6000600e60006101000a81548160ff021916908360038111156112ce576112cd614c33565b5b021790555081600f81905550600c54826112e89190614858565b601081905550600d546010546112fe9190614858565b6011819055506000600b81905550600560009054906101000a900473ffffffffffffffffffffffffffffffffffffffff1673ffffffffffffffffffffffffffffffffffffffff166370a08231306040518263ffffffff1660e01b815260040161136791906141a1565b60206040518083038186803b15801561137f57600080fd5b505afa158015611393573d6000803e3d6000fd5b505050506040513d601f19601f820116820180604052508101906113b79190613b01565b600981905550600f547f931b31da73fd887ac2b49ca80ca85bcd1a4c2803b58f53d7d9fcc85ebec3b9fa60405160405180910390a25050565b6113f861375e565b6012600680602002604051908101604052809291908260068015611431576020028201915b81548152602001906001019080831161141d575b5050505050905090565b600b5481565b611449612c5c565b6000600381111561145d5761145c614c33565b5b600e60009054906101000a900460ff16600381111561147f5761147e614c33565b5b146114bf576040517f08c379a00000000000000000000000000000000000000000000000000000000081526004016114b69061440c565b60405180910390fd5b8060129060066114d0929190613780565b5050565b6060600080600b54841061151d576040517f08c379a00000000000000000000000000000000000000000000000000000000081526004016115149061436c565b60405180910390fd5b6000600a60008681526020019081526020016000206040518060600160405290816000820160009054906101000a90047bffffffffffffffffffffffffffffffffffffffffffffffffffffffff167bffffffffffffffffffffffffffffffffffffffffffffffffffffffff167bffffffffffffffffffffffffffffffffffffffffffffffffffffffff16815260200160008201601c9054906101000a900463ffffffff1663ffffffff1663ffffffff1681526020016001820160009054906101000a900473ffffffffffffffffffffffffffffffffffffffff1673ffffffffffffffffffffffffffffffffffffffff1673ffffffffffffffffffffffffffffffffffffffff1681525050905061165481600001517bffffffffffffffffffffffffffffffffffffffffffffffffffffffff16610a70565b81602001518260400151935093509350509193909250565b61167533612cda565b156116b5576040517f08c379a00000000000000000000000000000000000000000000000000000000081526004016116ac906143ec565b60405180910390fd5b3273ffffffffffffffffffffffffffffffffffffffff163373ffffffffffffffffffffffffffffffffffffffff1614611723576040517f08c379a000000000000000000000000000000000000000000000000000000000815260040161171a9061452c565b60405180910390fd5b426010541115611768576040517f08c379a000000000000000000000000000000000000000000000000000000000815260040161175f906145ec565b60405180910390fd5b6001600381111561177c5761177b614c33565b5b600e60009054906101000a900460ff16600381111561179e5761179d614c33565b5b146117de576040517f08c379a00000000000000000000000000000000000000000000000000000000081526004016117d5906145ac565b60405180910390fd5b6002600e60006101000a81548160ff0219169083600381111561180457611803614c33565b5b021790555043600781905550565b61181a612c5c565b6118246000612ced565b565b61182f33612cda565b1561186f576040517f08c379a0000000000000000000000000000000000000000000000000000000008152600401611866906143ec565b60405180910390fd5b3273ffffffffffffffffffffffffffffffffffffffff163373ffffffffffffffffffffffffffffffffffffffff16146118dd576040517f08c379a00000000000000000000000000000000000000000000000000000000081526004016118d49061452c565b60405180910390fd5b6118e5612c5c565b600260038111156118f9576118f8614c33565b5b600e60009054906101000a900460ff16600381111561191b5761191a614c33565b5b1461195b576040517f08c379a00000000000000000000000000000000000000000000000000000000081526004016119529061468c565b60405180910390fd5b426011541161199f576040517f08c379a0000000000000000000000000000000000000000000000000000000008152600401611996906143cc565b60405180910390fd5b6007544314156119e4576040517f08c379a00000000000000000000000000000000000000000000000000000000081526004016119db9061434c565b60405180910390fd5b43600881905550600660009054906101000a900473ffffffffffffffffffffffffffffffffffffffff1673ffffffffffffffffffffffffffffffffffffffff1663ce0d44a5826040518263ffffffff1660e01b8152600401611a4691906146cc565b600060405180830381600087803b158015611a6057600080fd5b505af1158015611a74573d6000803e3d6000fd5b5050505050565b611a83612c5c565b8060028190555050565b600f5481565b611a9b612c5c565b600560009054906101000a900473ffffffffffffffffffffffffffffffffffffffff1673ffffffffffffffffffffffffffffffffffffffff1663a9059cbb600360009054906101000a900473ffffffffffffffffffffffffffffffffffffffff16600560009054906101000a900473ffffffffffffffffffffffffffffffffffffffff1673ffffffffffffffffffffffffffffffffffffffff166370a08231306040518263ffffffff1660e01b8152600401611b5791906141a1565b60206040518083038186803b158015611b6f57600080fd5b505afa158015611b83573d6000803e3d6000fd5b505050506040513d601f19601f82011682018060405250810190611ba79190613b01565b6040518363ffffffff1660e01b8152600401611bc49291906141f3565b602060405180830381600087803b158015611bde57600080fd5b505af1158015611bf2573d6000803e3d6000fd5b505050506040513d601f19601f82011682018060405250810190611c169190613aa7565b50565b611c2233612cda565b15611c62576040517f08c379a0000000000000000000000000000000000000000000000000000000008152600401611c59906143ec565b60405180910390fd5b3273ffffffffffffffffffffffffffffffffffffffff163373ffffffffffffffffffffffffffffffffffffffff1614611cd0576040517f08c379a0000000000000000000000000000000000000000000000000000000008152600401611cc79061452c565b60405180910390fd5b611cd8612db3565b600380811115611ceb57611cea614c33565b5b600e60009054906101000a900460ff166003811115611d0d57611d0c614c33565b5b14611d4d576040517f08c379a0000000000000000000000000000000000000000000000000000000008152600401611d44906144ac565b60405180910390fd5b60008282905011611d93576040517f08c379a0000000000000000000000000000000000000000000000000000000008152600401611d8a906145cc565b60405180910390fd5b6011544210611dd7576040517f08c379a0000000000000000000000000000000000000000000000000000000008152600401611dce9061444c565b60405180910390fd5b6000805b83839050811015611feb576000848483818110611dfb57611dfa614c62565b5b905060200201359050600b548110611e48576040517f08c379a0000000000000000000000000000000000000000000000000000000008152600401611e3f9061436c565b60405180910390fd5b3373ffffffffffffffffffffffffffffffffffffffff16600a600083815260200190815260200160002060010160009054906101000a900473ffffffffffffffffffffffffffffffffffffffff1673ffffffffffffffffffffffffffffffffffffffff1614611eec576040517f08c379a0000000000000000000000000000000000000000000000000000000008152600401611ee3906146ac565b60405180910390fd5b6018600a6000838152602001908152602001600020600001601c9054906101000a900463ffffffff1663ffffffff1660068110611f2c57611f2b614c62565b5b015483611f399190614858565b9250600a6000868685818110611f5257611f51614c62565b5b905060200201358152602001908152602001600020600080820160006101000a8154907bffffffffffffffffffffffffffffffffffffffffffffffffffffffff021916905560008201601c6101000a81549063ffffffff02191690556001820160006101000a81549073ffffffffffffffffffffffffffffffffffffffff02191690555050508080611fe390614b2e565b915050611ddb565b506000811161202f576040517f08c379a00000000000000000000000000000000000000000000000000000000081526004016120269061454c565b60405180910390fd5b61207c3382600560009054906101000a900473ffffffffffffffffffffffffffffffffffffffff1673ffffffffffffffffffffffffffffffffffffffff16612e039092919063ffffffff16565b3373ffffffffffffffffffffffffffffffffffffffff167fc471ef95ea81f4f24bb1a51ba0bd8904858507d29dfdbde1882413b20fcc36ee826040516120c291906146cc565b60405180910390a2506120d3612e89565b5050565b6000600160009054906101000a900473ffffffffffffffffffffffffffffffffffffffff16905090565b6012816006811061211157600080fd5b016000915090505481565b60095481565b60075481565b600360009054906101000a900473ffffffffffffffffffffffffffffffffffffffff1681565b600080604267ffffffffffffffff81111561216c5761216b614c91565b5b60405190808252806020026020018201604052801561219a5781602001602082028036833780820191505090505b5090506000805b600681101561226d5760428160426121b99190614973565b866121c49190614ba4565b836121cf9190614858565b6121d99190614ba4565b9150610100856121e991906148e8565b94505b600083838151811061220157612200614c62565b5b602002602001015160ff161461223157818061221c90614b2e565b9250506042821061222c57600091505b6121ec565b600183838151811061224657612245614c62565b5b602002602001019060ff16908160ff1681525050808061226590614b2e565b9150506121a1565b506000905060006042905060005b60068110156122fe576001846001846122949190614973565b815181106122a5576122a4614c62565b5b602002602001015160ff1614156122eb576001826042856122c69190614919565b6122d09190614858565b6122da9190614973565b925080806122e790614b2e565b9150505b81806122f690614ad3565b92505061227b565b50819350505050919050565b60025481565b612318612c5c565b8060108190555050565b61232b33612cda565b1561236b576040517f08c379a0000000000000000000000000000000000000000000000000000000008152600401612362906143ec565b60405180910390fd5b3273ffffffffffffffffffffffffffffffffffffffff163373ffffffffffffffffffffffffffffffffffffffff16146123d9576040517f08c379a00000000000000000000000000000000000000000000000000000000081526004016123d09061452c565b60405180910390fd5b6123e1612db3565b600160038111156123f5576123f4614c33565b5b600e60009054906101000a900460ff16600381111561241757612416614c33565b5b14612457576040517f08c379a000000000000000000000000000000000000000000000000000000000815260040161244e906145ac565b60405180910390fd5b601054421061249b576040517f08c379a00000000000000000000000000000000000000000000000000000000081526004016124929061458c565b60405180910390fd5b600082829050116124e1576040517f08c379a00000000000000000000000000000000000000000000000000000000081526004016124d89061450c565b60405180910390fd5b6000600454838390506124f49190614919565b905080600560009054906101000a900473ffffffffffffffffffffffffffffffffffffffff1673ffffffffffffffffffffffffffffffffffffffff166370a08231336040518263ffffffff1660e01b815260040161255291906141a1565b60206040518083038186803b15801561256a57600080fd5b505afa15801561257e573d6000803e3d6000fd5b505050506040513d601f19601f820116820180604052508101906125a29190613b01565b10156125e3576040517f08c379a00000000000000000000000000000000000000000000000000000000081526004016125da906144ec565b60405180910390fd5b612632333083600560009054906101000a900473ffffffffffffffffffffffffffffffffffffffff1673ffffffffffffffffffffffffffffffffffffffff16612e93909392919063ffffffff16565b60005b838390508110156127b357604051806060016040528085858481811061265e5761265d614c62565b5b905060200201357bffffffffffffffffffffffffffffffffffffffffffffffffffffffff168152602001600063ffffffff1681526020013373ffffffffffffffffffffffffffffffffffffffff16815250600a6000600b60008154809291906126c690614b2e565b91905055815260200190815260200160002060008201518160000160006101000a8154817bffffffffffffffffffffffffffffffffffffffffffffffffffffffff02191690837bffffffffffffffffffffffffffffffffffffffffffffffffffffffff160217905550602082015181600001601c6101000a81548163ffffffff021916908363ffffffff16021790555060408201518160010160006101000a81548173ffffffffffffffffffffffffffffffffffffffff021916908373ffffffffffffffffffffffffffffffffffffffff16021790555090505080806127ab90614b2e565b915050612635565b503373ffffffffffffffffffffffffffffffffffffffff167fe23b461eeed3050b94c37e728bd38158dbcd40bb83994f44bfb639678c6a1029848490506040516127fd91906146cc565b60405180910390a25061280e612e89565b5050565b61281b33612cda565b1561285b576040517f08c379a0000000000000000000000000000000000000000000000000000000008152600401612852906143ec565b60405180910390fd5b3273ffffffffffffffffffffffffffffffffffffffff163373ffffffffffffffffffffffffffffffffffffffff16146128c9576040517f08c379a00000000000000000000000000000000000000000000000000000000081526004016128c09061452c565b60405180910390fd5b6128d1612c5c565b600260038111156128e5576128e4614c33565b5b600e60009054906101000a900460ff16600381111561290757612906614c33565b5b14612947576040517f08c379a000000000000000000000000000000000000000000000000000000000815260040161293e9061468c565b60405180910390fd5b426011541161298b576040517f08c379a0000000000000000000000000000000000000000000000000000000008152600401612982906143cc565b60405180910390fd5b6008544314156129d0576040517f08c379a00000000000000000000000000000000000000000000000000000000081526004016129c7906144cc565b60405180910390fd5b6003600e60006101000a81548160ff021916908360038111156129f6576129f5614c33565b5b02179055506000600660009054906101000a900473ffffffffffffffffffffffffffffffffffffffff1673ffffffffffffffffffffffffffffffffffffffff166389c16e08836040518263ffffffff1660e01b8152600401612a5891906146cc565b602060405180830381600087803b158015612a7257600080fd5b505af1158015612a86573d6000803e3d6000fd5b505050506040513d601f19601f82011682018060405250810190612aaa9190613b01565b9050612ab58161214e565b601e81905550612ac3612f1c565b5050565b601e5481565b600660009054906101000a900473ffffffffffffffffffffffffffffffffffffffff1681565b612afb612c5c565b8060118190555050565b60085481565b612b13612c5c565b80600360006101000a81548173ffffffffffffffffffffffffffffffffffffffff021916908373ffffffffffffffffffffffffffffffffffffffff1602179055508073ffffffffffffffffffffffffffffffffffffffff167f8b4531436af204a864adc47c345e10cb5c4df79165aa0cb85fc45ac5b551517b60405160405180910390a250565b612ba2612c5c565b600073ffffffffffffffffffffffffffffffffffffffff168173ffffffffffffffffffffffffffffffffffffffff161415612c12576040517f08c379a0000000000000000000000000000000000000000000000000000000008152600401612c09906143ac565b60405180910390fd5b612c1b81612ced565b50565b600560009054906101000a900473ffffffffffffffffffffffffffffffffffffffff1681565b6000612c57612c5233610e18565b610ff9565b905090565b612c646134c0565b73ffffffffffffffffffffffffffffffffffffffff16612c826120d7565b73ffffffffffffffffffffffffffffffffffffffff1614612cd8576040517f08c379a0000000000000000000000000000000000000000000000000000000008152600401612ccf9061456c565b60405180910390fd5b565b600080823b905060008111915050919050565b6000600160009054906101000a900473ffffffffffffffffffffffffffffffffffffffff16905081600160006101000a81548173ffffffffffffffffffffffffffffffffffffffff021916908373ffffffffffffffffffffffffffffffffffffffff1602179055508173ffffffffffffffffffffffffffffffffffffffff168173ffffffffffffffffffffffffffffffffffffffff167f8be0079c531659141344cd1fd0a4f28419497f9722a3daafe3b4186f6b6457e060405160405180910390a35050565b60026000541415612df9576040517f08c379a0000000000000000000000000000000000000000000000000000000008152600401612df09061466c565b60405180910390fd5b6002600081905550565b612e848363a9059cbb60e01b8484604051602401612e229291906141f3565b604051602081830303815290604052907bffffffffffffffffffffffffffffffffffffffffffffffffffffffff19166020820180517bffffffffffffffffffffffffffffffffffffffffffffffffffffffff83818316178352505050506134c8565b505050565b6001600081905550565b612f16846323b872dd60e01b858585604051602401612eb4939291906141bc565b604051602081830303815290604052907bffffffffffffffffffffffffffffffffffffffffffffffffffffffff19166020820180517bffffffffffffffffffffffffffffffffffffffffffffffffffffffff83818316178352505050506134c8565b50505050565b6000600667ffffffffffffffff811115612f3957612f38614c91565b5b604051908082528060200260200182016040528015612f675781602001602082028036833780820191505090505b50905060005b600b5481101561316e576000600a600083815260200190815260200160002090506000601e54905060008260000160009054906101000a90047bffffffffffffffffffffffffffffffffffffffffffffffffffffffff167bffffffffffffffffffffffffffffffffffffffffffffffffffffffff1690506000805b600681101561305157604283612ffe9190614ba4565b60428561300b9190614ba4565b141561302057818061301c90614b77565b9250505b60428461302d91906148e8565b935060428361303c91906148e8565b9250808061304990614b2e565b915050612fe8565b5060008163ffffffff1611156130d35760018161306e91906149a7565b84600001601c6101000a81548163ffffffff021916908363ffffffff1602179055508560018261309e91906149a7565b63ffffffff16815181106130b5576130b4614c62565b5b6020026020010180518091906130ca90614b2e565b81525050613157565b600a6000868152602001908152602001600020600080820160006101000a8154907bffffffffffffffffffffffffffffffffffffffffffffffffffffffff021916905560008201601c6101000a81549063ffffffff02191690556001820160006101000a81549073ffffffffffffffffffffffffffffffffffffffff021916905550505b50505050808061316690614b2e565b915050612f6d565b506000600954600560009054906101000a900473ffffffffffffffffffffffffffffffffffffffff1673ffffffffffffffffffffffffffffffffffffffff166370a08231306040518263ffffffff1660e01b81526004016131cf91906141a1565b60206040518083038186803b1580156131e757600080fd5b505afa1580156131fb573d6000803e3d6000fd5b505050506040513d601f19601f8201168201806040525081019061321f9190613b01565b6132299190614973565b9050600060646002548361323d9190614919565b61324791906148e8565b9050600560009054906101000a900473ffffffffffffffffffffffffffffffffffffffff1673ffffffffffffffffffffffffffffffffffffffff1663a9059cbb600360009054906101000a900473ffffffffffffffffffffffffffffffffffffffff16836040518363ffffffff1660e01b81526004016132c89291906141f3565b602060405180830381600087803b1580156132e257600080fd5b505af11580156132f6573d6000803e3d6000fd5b505050506040513d601f19601f8201168201806040525081019061331a9190613aa7565b5080826133279190614973565b915060005b60058110156133c257600084828151811061334a57613349614c62565b5b60200260200101519050600081146133ae578060646012846006811061337357613372614c62565b5b0154866133809190614919565b61338a91906148e8565b61339491906148e8565b601883600681106133a8576133a7614c62565b5b01819055505b5080806133ba90614b2e565b91505061332c565b506000836005815181106133d9576133d8614c62565b5b60200260200101511461346257826005815181106133fa576133f9614c62565b5b60200260200101516064601260056006811061341957613418614c62565b5b0154846134269190614919565b61343091906148e8565b60095461343d9190614858565b61344791906148e8565b601860056006811061345c5761345b614c62565b5b01819055505b600f547f9d53f2b115229c0fb6c01a6dcc67fcc582e8eea41b8d0318191c52190c9d3de6601e548560058151811061349d5761349c614c62565b5b60200260200101516040516134b39291906146e7565b60405180910390a2505050565b600033905090565b600061352a826040518060400160405280602081526020017f5361666545524332303a206c6f772d6c6576656c2063616c6c206661696c65648152508573ffffffffffffffffffffffffffffffffffffffff166135909092919063ffffffff16565b905060008151148061354c57508080602001905181019061354b9190613aa7565b5b61358b576040517f08c379a00000000000000000000000000000000000000000000000000000000081526004016135829061464c565b60405180910390fd5b505050565b606061359f84846000856135a8565b90509392505050565b6060824710156135ed576040517f08c379a00000000000000000000000000000000000000000000000000000000081526004016135e49061446c565b60405180910390fd5b6000808673ffffffffffffffffffffffffffffffffffffffff168587604051613616919061418a565b60006040518083038185875af1925050503d8060008114613653576040519150601f19603f3d011682016040523d82523d6000602084013e613658565b606091505b509150915061366987838387613675565b92505050949350505050565b606083156136d8576000835114156136d057613690856136eb565b6136cf576040517f08c379a00000000000000000000000000000000000000000000000000000000081526004016136c69061460c565b60405180910390fd5b5b8290506136e3565b6136e2838361370e565b5b949350505050565b6000808273ffffffffffffffffffffffffffffffffffffffff163b119050919050565b6000825111156137215781518083602001fd5b806040517f08c379a0000000000000000000000000000000000000000000000000000000008152600401613755919061430a565b60405180910390fd5b6040518060c00160405280600690602082028036833780820191505090505090565b82600681019282156137af579160200282015b828111156137ae578251825591602001919060010190613793565b5b5090506137bc91906137c0565b5090565b5b808211156137d95760008160009055506001016137c1565b5090565b60006137f06137eb84614735565b614710565b9050808285602086028201111561380a57613809614cca565b5b60005b8581101561383a5781613820888261398d565b84526020840193506020830192505060018101905061380d565b5050509392505050565b60006138576138528461475b565b614710565b9050808382526020820190508285602086028201111561387a57613879614cca565b5b60005b858110156138aa5781613890888261398d565b84526020840193506020830192505060018101905061387d565b5050509392505050565b6000813590506138c3816153b7565b92915050565b600082601f8301126138de576138dd614cc5565b5b60066138eb8482856137dd565b91505092915050565b60008083601f84011261390a57613909614cc5565b5b8235905067ffffffffffffffff81111561392757613926614cc0565b5b60208301915083602082028301111561394357613942614cca565b5b9250929050565b600082601f83011261395f5761395e614cc5565b5b813561396f848260208601613844565b91505092915050565b600081519050613987816153ce565b92915050565b60008135905061399c816153e5565b92915050565b6000815190506139b1816153e5565b92915050565b6000602082840312156139cd576139cc614cd4565b5b60006139db848285016138b4565b91505092915050565b600060c082840312156139fa576139f9614cd4565b5b6000613a08848285016138c9565b91505092915050565b60008060208385031215613a2857613a27614cd4565b5b600083013567ffffffffffffffff811115613a4657613a45614ccf565b5b613a52858286016138f4565b92509250509250929050565b600060208284031215613a7457613a73614cd4565b5b600082013567ffffffffffffffff811115613a9257613a91614ccf565b5b613a9e8482850161394a565b91505092915050565b600060208284031215613abd57613abc614cd4565b5b6000613acb84828501613978565b91505092915050565b600060208284031215613aea57613ae9614cd4565b5b6000613af88482850161398d565b91505092915050565b600060208284031215613b1757613b16614cd4565b5b6000613b25848285016139a2565b91505092915050565b60008060408385031215613b4557613b44614cd4565b5b6000613b538582860161398d565b9250506020613b648582860161398d565b9150509250929050565b6000613b7a838361414e565b60208301905092915050565b6000613b92838361416c565b60208301905092915050565b613ba7816149db565b82525050565b613bb6816147b1565b613bc0818461480f565b9250613bcb82614787565b8060005b83811015613bfc578151613be38782613b6e565b9650613bee836147e8565b925050600181019050613bcf565b505050505050565b6000613c0f826147bc565b613c19818561481a565b9350613c2483614791565b8060005b83811015613c55578151613c3c8882613b6e565b9750613c47836147f5565b925050600181019050613c28565b5085935050505092915050565b6000613c6d826147c7565b613c77818561482b565b9350613c82836147a1565b8060005b83811015613cb3578151613c9a8882613b86565b9750613ca583614802565b925050600181019050613c86565b5085935050505092915050565b6000613ccb826147d2565b613cd5818561483c565b9350613ce5818560208601614aa0565b80840191505092915050565b613cfa81614a46565b82525050565b613d0981614a6a565b82525050565b613d1881614a8e565b82525050565b6000613d29826147dd565b613d338185614847565b9350613d43818560208601614aa0565b613d4c81614cd9565b840191505092915050565b6000613d64602583614847565b9150613d6f82614cea565b604082019050919050565b6000613d87604483614847565b9150613d9282614d39565b606082019050919050565b6000613daa601083614847565b9150613db582614dae565b602082019050919050565b6000613dcd602983614847565b9150613dd882614dd7565b604082019050919050565b6000613df0602683614847565b9150613dfb82614e26565b604082019050919050565b6000613e13602783614847565b9150613e1e82614e75565b604082019050919050565b6000613e36601483614847565b9150613e4182614ec4565b602082019050919050565b6000613e59601883614847565b9150613e6482614eed565b602082019050919050565b6000613e7c601783614847565b9150613e8782614f16565b602082019050919050565b6000613e9f602883614847565b9150613eaa82614f3f565b604082019050919050565b6000613ec2602683614847565b9150613ecd82614f8e565b604082019050919050565b6000613ee5602783614847565b9150613ef082614fdd565b604082019050919050565b6000613f08601583614847565b9150613f138261502c565b602082019050919050565b6000613f2b604883614847565b9150613f3682615055565b606082019050919050565b6000613f4e601c83614847565b9150613f59826150ca565b602082019050919050565b6000613f71601483614847565b9150613f7c826150f3565b602082019050919050565b6000613f94601a83614847565b9150613f9f8261511c565b602082019050919050565b6000613fb7600983614847565b9150613fc282615145565b602082019050919050565b6000613fda602083614847565b9150613fe58261516e565b602082019050919050565b6000613ffd602083614847565b915061400882615197565b602082019050919050565b6000614020601083614847565b915061402b826151c0565b602082019050919050565b6000614043601683614847565b915061404e826151e9565b602082019050919050565b6000614066602383614847565b915061407182615212565b604082019050919050565b6000614089601d83614847565b915061409482615261565b602082019050919050565b60006140ac602183614847565b91506140b78261528a565b604082019050919050565b60006140cf602a83614847565b91506140da826152d9565b604082019050919050565b60006140f2601f83614847565b91506140fd82615328565b602082019050919050565b6000614115601283614847565b915061412082615351565b602082019050919050565b6000614138601b83614847565b91506141438261537a565b602082019050919050565b61415781614a2c565b82525050565b61416681614a2c565b82525050565b61417581614a36565b82525050565b61418481614a36565b82525050565b60006141968284613cc0565b915081905092915050565b60006020820190506141b66000830184613b9e565b92915050565b60006060820190506141d16000830186613b9e565b6141de6020830185613b9e565b6141eb604083018461415d565b949350505050565b60006040820190506142086000830185613b9e565b614215602083018461415d565b9392505050565b600060c0820190506142316000830184613bad565b92915050565b600060208201905081810360008301526142518184613c04565b905092915050565b600060208201905081810360008301526142738184613c62565b905092915050565b600060608201905081810360008301526142958186613c62565b90506142a4602083018561417b565b6142b16040830184613b9e565b949350505050565b60006020820190506142ce6000830184613cf1565b92915050565b60006020820190506142e96000830184613d00565b92915050565b60006020820190506143046000830184613d0f565b92915050565b600060208201905081810360008301526143248184613d1e565b905092915050565b6000602082019050818103600083015261434581613d57565b9050919050565b6000602082019050818103600083015261436581613d7a565b9050919050565b6000602082019050818103600083015261438581613d9d565b9050919050565b600060208201905081810360008301526143a581613dc0565b9050919050565b600060208201905081810360008301526143c581613de3565b9050919050565b600060208201905081810360008301526143e581613e06565b9050919050565b6000602082019050818103600083015261440581613e29565b9050919050565b6000602082019050818103600083015261442581613e4c565b9050919050565b6000602082019050818103600083015261444581613e6f565b9050919050565b6000602082019050818103600083015261446581613e92565b9050919050565b6000602082019050818103600083015261448581613eb5565b9050919050565b600060208201905081810360008301526144a581613ed8565b9050919050565b600060208201905081810360008301526144c581613efb565b9050919050565b600060208201905081810360008301526144e581613f1e565b9050919050565b6000602082019050818103600083015261450581613f41565b9050919050565b6000602082019050818103600083015261452581613f64565b9050919050565b6000602082019050818103600083015261454581613f87565b9050919050565b6000602082019050818103600083015261456581613faa565b9050919050565b6000602082019050818103600083015261458581613fcd565b9050919050565b600060208201905081810360008301526145a581613ff0565b9050919050565b600060208201905081810360008301526145c581614013565b9050919050565b600060208201905081810360008301526145e581614036565b9050919050565b6000602082019050818103600083015261460581614059565b9050919050565b600060208201905081810360008301526146258161407c565b9050919050565b600060208201905081810360008301526146458161409f565b9050919050565b60006020820190508181036000830152614665816140c2565b9050919050565b60006020820190508181036000830152614685816140e5565b9050919050565b600060208201905081810360008301526146a581614108565b9050919050565b600060208201905081810360008301526146c58161412b565b9050919050565b60006020820190506146e1600083018461415d565b92915050565b60006040820190506146fc600083018561415d565b614709602083018461415d565b9392505050565b600061471a61472b565b90506147268282614afd565b919050565b6000604051905090565b600067ffffffffffffffff8211156147505761474f614c91565b5b602082029050919050565b600067ffffffffffffffff82111561477657614775614c91565b5b602082029050602081019050919050565b6000819050919050565b6000819050602082019050919050565b6000819050602082019050919050565b600060069050919050565b600081519050919050565b600081519050919050565b600081519050919050565b600081519050919050565b6000602082019050919050565b6000602082019050919050565b6000602082019050919050565b600081905092915050565b600082825260208201905092915050565b600082825260208201905092915050565b600081905092915050565b600082825260208201905092915050565b600061486382614a2c565b915061486e83614a2c565b9250827fffffffffffffffffffffffffffffffffffffffffffffffffffffffffffffffff038211156148a3576148a2614bd5565b5b828201905092915050565b60006148b982614a36565b91506148c483614a36565b92508263ffffffff038211156148dd576148dc614bd5565b5b828201905092915050565b60006148f382614a2c565b91506148fe83614a2c565b92508261490e5761490d614c04565b5b828204905092915050565b600061492482614a2c565b915061492f83614a2c565b9250817fffffffffffffffffffffffffffffffffffffffffffffffffffffffffffffffff048311821515161561496857614967614bd5565b5b828202905092915050565b600061497e82614a2c565b915061498983614a2c565b92508282101561499c5761499b614bd5565b5b828203905092915050565b60006149b282614a36565b91506149bd83614a36565b9250828210156149d0576149cf614bd5565b5b828203905092915050565b60006149e682614a0c565b9050919050565b60008115159050919050565b6000819050614a07826153a3565b919050565b600073ffffffffffffffffffffffffffffffffffffffff82169050919050565b6000819050919050565b600063ffffffff82169050919050565b6000614a5182614a58565b9050919050565b6000614a6382614a0c565b9050919050565b6000614a7582614a7c565b9050919050565b6000614a8782614a0c565b9050919050565b6000614a99826149f9565b9050919050565b60005b83811015614abe578082015181840152602081019050614aa3565b83811115614acd576000848401525b50505050565b6000614ade82614a2c565b91506000821415614af257614af1614bd5565b5b600182039050919050565b614b0682614cd9565b810181811067ffffffffffffffff82111715614b2557614b24614c91565b5b80604052505050565b6000614b3982614a2c565b91507fffffffffffffffffffffffffffffffffffffffffffffffffffffffffffffffff821415614b6c57614b6b614bd5565b5b600182019050919050565b6000614b8282614a36565b915063ffffffff821415614b9957614b98614bd5565b5b600182019050919050565b6000614baf82614a2c565b9150614bba83614a2c565b925082614bca57614bc9614c04565b5b828206905092915050565b7f4e487b7100000000000000000000000000000000000000000000000000000000600052601160045260246000fd5b7f4e487b7100000000000000000000000000000000000000000000000000000000600052601260045260246000fd5b7f4e487b7100000000000000000000000000000000000000000000000000000000600052602160045260246000fd5b7f4e487b7100000000000000000000000000000000000000000000000000000000600052603260045260246000fd5b7f4e487b7100000000000000000000000000000000000000000000000000000000600052604160045260246000fd5b600080fd5b600080fd5b600080fd5b600080fd5b600080fd5b6000601f19601f8301169050919050565b7f43616e6e6f74207374617274206c6f7474657279206265666f7265207374617260008201527f7454696d65000000000000000000000000000000000000000000000000000000602082015250565b7f7265717565737452616e646f6d6e6573732063616e6e6f742062652063616c6c60008201527f656420696e207468652073616d6520626c6f636b20617320636c6f73654c6f7460208201527f7465727900000000000000000000000000000000000000000000000000000000604082015250565b7f496e76616c6964207469636b6574496400000000000000000000000000000000600082015250565b7f43616e6e6f742072657365742077697468203020737461727454696d6520616e60008201527f6420656e6454696d650000000000000000000000000000000000000000000000602082015250565b7f4f776e61626c653a206e6577206f776e657220697320746865207a65726f206160008201527f6464726573730000000000000000000000000000000000000000000000000000602082015250565b7f43616e6e6f742064726177206c6f747465727920616674657220656e6452657760008201527f61726454696d6500000000000000000000000000000000000000000000000000602082015250565b7f436f6e7472616374206e6f7420616c6c6f776564000000000000000000000000600082015250565b7f43616e2774206368616e67652072657761726473206e6f770000000000000000600082015250565b7f4c6f747465727920616c72656164792073746172746564000000000000000000600082015250565b7f43616e6e6f7420636c61696d207469636b65747320616674657220656e64526560008201527f7761726454696d65000000000000000000000000000000000000000000000000602082015250565b7f416464726573733a20696e73756666696369656e742062616c616e636520666f60008201527f722063616c6c0000000000000000000000000000000000000000000000000000602082015250565b7f43616e6e6f74207374617274207769746820737461727454696d6520696e207460008201527f6865207061737400000000000000000000000000000000000000000000000000602082015250565b7f4c6f7474657279206e6f7420636c61696d61626c650000000000000000000000600082015250565b7f72657665616c52616e646f6d6e6573732063616e6e6f742062652063616c6c6560008201527f6420696e207468652073616d6520626c6f636b2061732072657175657374526160208201527f6e646f6d6e657373000000000000000000000000000000000000000000000000604082015250565b7f4e6f7420656e6f7567682055534420746f20627579207469636b657400000000600082015250565b7f43616e6e6f74206275792030207469636b657473000000000000000000000000600082015250565b7f50726f787920636f6e7472616374206e6f7420616c6c6f776564000000000000600082015250565b7f4e6f207265776172640000000000000000000000000000000000000000000000600082015250565b7f4f776e61626c653a2063616c6c6572206973206e6f7420746865206f776e6572600082015250565b7f43616e6e6f7420627579207469636b65747320616674657220656e6454696d65600082015250565b7f4c6f7474657279206e6f74206f70656e00000000000000000000000000000000600082015250565b7f43616e6e6f7420636c61696d2030207469636b65747300000000000000000000600082015250565b7f43616e6e6f7420636c6f7365206c6f7474657279206265666f726520656e645460008201527f696d650000000000000000000000000000000000000000000000000000000000602082015250565b7f416464726573733a2063616c6c20746f206e6f6e2d636f6e7472616374000000600082015250565b7f43616e6e6f74207265736574206265666f726520656e6452657761726454696d60008201527f6500000000000000000000000000000000000000000000000000000000000000602082015250565b7f5361666545524332303a204552433230206f7065726174696f6e20646964206e60008201527f6f74207375636365656400000000000000000000000000000000000000000000602082015250565b7f5265656e7472616e637947756172643a207265656e7472616e742063616c6c00600082015250565b7f4c6f7474657279206e6f7420636c6f7365640000000000000000000000000000600082015250565b7f4e6f7420746865206f776e6572206f6620746865207469636b65740000000000600082015250565b600481106153b4576153b3614c33565b5b50565b6153c0816149db565b81146153cb57600080fd5b50565b6153d7816149ed565b81146153e257600080fd5b50565b6153ee81614a2c565b81146153f957600080fd5b5056fea26469706673582212200198672732813fe5a2ad2f0d79d51300390e4ad19fe56d2d46fd882dfa8aa76564736f6c63430008060033","opcodes":"PUSH1 0x80 PUSH1 0x40 MSTORE PUSH1 0x1 PUSH1 0x2 SSTORE PUSH8 0x1BC16D674EC80000 PUSH1 0x4 SSTORE PUSH1 0x0 PUSH1 0x7 SSTORE PUSH1 0x0 PUSH1 0x8 SSTORE PUSH1 0x0 PUSH1 0x9 SSTORE PUSH1 0x0 PUSH1 0xB SSTORE PUSH3 0x69780 PUSH1 0xC SSTORE PUSH3 0x26AC0 PUSH1 0xD SSTORE PUSH1 0x0 PUSH1 0xE PUSH1 0x0 PUSH2 0x100 EXP DUP2 SLOAD DUP2 PUSH1 0xFF MUL NOT AND SWAP1 DUP4 PUSH1 0x3 DUP2 GT ISZERO PUSH3 0x60 JUMPI PUSH3 0x5F PUSH3 0x41F JUMP JUMPDEST JUMPDEST MUL OR SWAP1 SSTORE POP PUSH1 0x40 MLOAD DUP1 PUSH1 0xC0 ADD PUSH1 0x40 MSTORE DUP1 PUSH1 0x0 PUSH1 0xFF AND DUP2 MSTORE PUSH1 0x20 ADD PUSH1 0xF PUSH1 0xFF AND DUP2 MSTORE PUSH1 0x20 ADD PUSH1 0xF PUSH1 0xFF AND DUP2 MSTORE PUSH1 0x20 ADD PUSH1 0xF PUSH1 0xFF AND DUP2 MSTORE PUSH1 0x20 ADD PUSH1 0xF PUSH1 0xFF AND DUP2 MSTORE PUSH1 0x20 ADD PUSH1 0x28 PUSH1 0xFF AND DUP2 MSTORE POP PUSH1 0x12 SWAP1 PUSH1 0x6 PUSH3 0xBC SWAP3 SWAP2 SWAP1 PUSH3 0x30F JUMP JUMPDEST POP PUSH1 0x40 MLOAD DUP1 PUSH1 0xC0 ADD PUSH1 0x40 MSTORE DUP1 PUSH1 0x0 PUSH1 0xFF AND DUP2 MSTORE PUSH1 0x20 ADD PUSH1 0x0 PUSH1 0xFF AND DUP2 MSTORE PUSH1 0x20 ADD PUSH1 0x0 PUSH1 0xFF AND DUP2 MSTORE PUSH1 0x20 ADD PUSH1 0x0 PUSH1 0xFF AND DUP2 MSTORE PUSH1 0x20 ADD PUSH1 0x0 PUSH1 0xFF AND DUP2 MSTORE PUSH1 0x20 ADD PUSH1 0x0 PUSH1 0xFF AND DUP2 MSTORE POP PUSH1 0x18 SWAP1 PUSH1 0x6 PUSH3 0x114 SWAP3 SWAP2 SWAP1 PUSH3 0x30F JUMP JUMPDEST POP PUSH1 0x0 PUSH1 0x1E SSTORE CALLVALUE DUP1 ISZERO PUSH3 0x127 JUMPI PUSH1 0x0 DUP1 REVERT JUMPDEST POP PUSH1 0x40 MLOAD PUSH3 0x58AF CODESIZE SUB DUP1 PUSH3 0x58AF DUP4 CODECOPY DUP2 DUP2 ADD PUSH1 0x40 MSTORE DUP2 ADD SWAP1 PUSH3 0x14D SWAP2 SWAP1 PUSH3 0x38F JUMP JUMPDEST PUSH1 0x1 PUSH1 0x0 DUP2 SWAP1 SSTORE POP PUSH3 0x175 PUSH3 0x169 PUSH3 0x241 PUSH1 0x20 SHL PUSH1 0x20 SHR JUMP JUMPDEST PUSH3 0x249 PUSH1 0x20 SHL PUSH1 0x20 SHR JUMP JUMPDEST DUP3 PUSH1 0x5 PUSH1 0x0 PUSH2 0x100 EXP DUP2 SLOAD DUP2 PUSH20 0xFFFFFFFFFFFFFFFFFFFFFFFFFFFFFFFFFFFFFFFF MUL NOT AND SWAP1 DUP4 PUSH20 0xFFFFFFFFFFFFFFFFFFFFFFFFFFFFFFFFFFFFFFFF AND MUL OR SWAP1 SSTORE POP DUP2 PUSH1 0x6 PUSH1 0x0 PUSH2 0x100 EXP DUP2 SLOAD DUP2 PUSH20 0xFFFFFFFFFFFFFFFFFFFFFFFFFFFFFFFFFFFFFFFF MUL NOT AND SWAP1 DUP4 PUSH20 0xFFFFFFFFFFFFFFFFFFFFFFFFFFFFFFFFFFFFFFFF AND MUL OR SWAP1 SSTORE POP DUP1 PUSH1 0x3 PUSH1 0x0 PUSH2 0x100 EXP DUP2 SLOAD DUP2 PUSH20 0xFFFFFFFFFFFFFFFFFFFFFFFFFFFFFFFFFFFFFFFF MUL NOT AND SWAP1 DUP4 PUSH20 0xFFFFFFFFFFFFFFFFFFFFFFFFFFFFFFFFFFFFFFFF AND MUL OR SWAP1 SSTORE POP POP POP POP PUSH3 0x46D JUMP JUMPDEST PUSH1 0x0 CALLER SWAP1 POP SWAP1 JUMP JUMPDEST PUSH1 0x0 PUSH1 0x1 PUSH1 0x0 SWAP1 SLOAD SWAP1 PUSH2 0x100 EXP SWAP1 DIV PUSH20 0xFFFFFFFFFFFFFFFFFFFFFFFFFFFFFFFFFFFFFFFF AND SWAP1 POP DUP2 PUSH1 0x1 PUSH1 0x0 PUSH2 0x100 EXP DUP2 SLOAD DUP2 PUSH20 0xFFFFFFFFFFFFFFFFFFFFFFFFFFFFFFFFFFFFFFFF MUL NOT AND SWAP1 DUP4 PUSH20 0xFFFFFFFFFFFFFFFFFFFFFFFFFFFFFFFFFFFFFFFF AND MUL OR SWAP1 SSTORE POP DUP2 PUSH20 0xFFFFFFFFFFFFFFFFFFFFFFFFFFFFFFFFFFFFFFFF AND DUP2 PUSH20 0xFFFFFFFFFFFFFFFFFFFFFFFFFFFFFFFFFFFFFFFF AND PUSH32 0x8BE0079C531659141344CD1FD0A4F28419497F9722A3DAAFE3B4186F6B6457E0 PUSH1 0x40 MLOAD PUSH1 0x40 MLOAD DUP1 SWAP2 SUB SWAP1 LOG3 POP POP JUMP JUMPDEST DUP3 PUSH1 0x6 DUP2 ADD SWAP3 DUP3 ISZERO PUSH3 0x346 JUMPI SWAP2 PUSH1 0x20 MUL DUP3 ADD JUMPDEST DUP3 DUP2 GT ISZERO PUSH3 0x345 JUMPI DUP3 MLOAD DUP3 SWAP1 PUSH1 0xFF AND SWAP1 SSTORE SWAP2 PUSH1 0x20 ADD SWAP2 SWAP1 PUSH1 0x1 ADD SWAP1 PUSH3 0x323 JUMP JUMPDEST JUMPDEST POP SWAP1 POP PUSH3 0x355 SWAP2 SWAP1 PUSH3 0x359 JUMP JUMPDEST POP SWAP1 JUMP JUMPDEST JUMPDEST DUP1 DUP3 GT ISZERO PUSH3 0x374 JUMPI PUSH1 0x0 DUP2 PUSH1 0x0 SWAP1 SSTORE POP PUSH1 0x1 ADD PUSH3 0x35A JUMP JUMPDEST POP SWAP1 JUMP JUMPDEST PUSH1 0x0 DUP2 MLOAD SWAP1 POP PUSH3 0x389 DUP2 PUSH3 0x453 JUMP JUMPDEST SWAP3 SWAP2 POP POP JUMP JUMPDEST PUSH1 0x0 DUP1 PUSH1 0x0 PUSH1 0x60 DUP5 DUP7 SUB SLT ISZERO PUSH3 0x3AB JUMPI PUSH3 0x3AA PUSH3 0x44E JUMP JUMPDEST JUMPDEST PUSH1 0x0 PUSH3 0x3BB DUP7 DUP3 DUP8 ADD PUSH3 0x378 JUMP JUMPDEST SWAP4 POP POP PUSH1 0x20 PUSH3 0x3CE DUP7 DUP3 DUP8 ADD PUSH3 0x378 JUMP JUMPDEST SWAP3 POP POP PUSH1 0x40 PUSH3 0x3E1 DUP7 DUP3 DUP8 ADD PUSH3 0x378 JUMP JUMPDEST SWAP2 POP POP SWAP3 POP SWAP3 POP SWAP3 JUMP JUMPDEST PUSH1 0x0 PUSH3 0x3F8 DUP3 PUSH3 0x3FF JUMP JUMPDEST SWAP1 POP SWAP2 SWAP1 POP JUMP JUMPDEST PUSH1 0x0 PUSH20 0xFFFFFFFFFFFFFFFFFFFFFFFFFFFFFFFFFFFFFFFF DUP3 AND SWAP1 POP SWAP2 SWAP1 POP JUMP JUMPDEST PUSH32 0x4E487B7100000000000000000000000000000000000000000000000000000000 PUSH1 0x0 MSTORE PUSH1 0x21 PUSH1 0x4 MSTORE PUSH1 0x24 PUSH1 0x0 REVERT JUMPDEST PUSH1 0x0 DUP1 REVERT JUMPDEST PUSH3 0x45E DUP2 PUSH3 0x3EB JUMP JUMPDEST DUP2 EQ PUSH3 0x46A JUMPI PUSH1 0x0 DUP1 REVERT JUMPDEST POP JUMP JUMPDEST PUSH2 0x5432 DUP1 PUSH3 0x47D PUSH1 0x0 CODECOPY PUSH1 0x0 RETURN INVALID PUSH1 0x80 PUSH1 0x40 MSTORE CALLVALUE DUP1 ISZERO PUSH2 0x10 JUMPI PUSH1 0x0 DUP1 REVERT JUMPDEST POP PUSH1 0x4 CALLDATASIZE LT PUSH2 0x29F JUMPI PUSH1 0x0 CALLDATALOAD PUSH1 0xE0 SHR DUP1 PUSH4 0x715018A6 GT PUSH2 0x167 JUMPI DUP1 PUSH4 0xCC32D176 GT PUSH2 0xCE JUMPI DUP1 PUSH4 0xE76A0526 GT PUSH2 0x87 JUMPI DUP1 PUSH4 0xE76A0526 EQ PUSH2 0x7BA JUMPI DUP1 PUSH4 0xE94F6955 EQ PUSH2 0x7D6 JUMPI DUP1 PUSH4 0xEC573D1C EQ PUSH2 0x7F4 JUMPI DUP1 PUSH4 0xF2FDE38B EQ PUSH2 0x810 JUMPI DUP1 PUSH4 0xF897A22B EQ PUSH2 0x82C JUMPI DUP1 PUSH4 0xFCA6D0DF EQ PUSH2 0x84A JUMPI PUSH2 0x29F JUMP JUMPDEST DUP1 PUSH4 0xCC32D176 EQ PUSH2 0x70C JUMPI DUP1 PUSH4 0xCCB98FFC EQ PUSH2 0x72A JUMPI DUP1 PUSH4 0xD0FBE7FE EQ PUSH2 0x746 JUMPI DUP1 PUSH4 0xD75CD444 EQ PUSH2 0x762 JUMPI DUP1 PUSH4 0xDAE58DA8 EQ PUSH2 0x77E JUMPI DUP1 PUSH4 0xDCBAD90D EQ PUSH2 0x79C JUMPI PUSH2 0x29F JUMP JUMPDEST DUP1 PUSH4 0x8DA5CB5B GT PUSH2 0x120 JUMPI DUP1 PUSH4 0x8DA5CB5B EQ PUSH2 0x634 JUMPI DUP1 PUSH4 0x97FF1CAC EQ PUSH2 0x652 JUMPI DUP1 PUSH4 0xB1EAC37E EQ PUSH2 0x682 JUMPI DUP1 PUSH4 0xC079FEAD EQ PUSH2 0x6A0 JUMPI DUP1 PUSH4 0xC5F956AF EQ PUSH2 0x6BE JUMPI DUP1 PUSH4 0xCBA15A8E EQ PUSH2 0x6DC JUMPI PUSH2 0x29F JUMP JUMPDEST DUP1 PUSH4 0x715018A6 EQ PUSH2 0x5AE JUMPI DUP1 PUSH4 0x7363AE1F EQ PUSH2 0x5B8 JUMPI DUP1 PUSH4 0x77E741C7 EQ PUSH2 0x5D4 JUMPI DUP1 PUSH4 0x78E97925 EQ PUSH2 0x5F0 JUMPI DUP1 PUSH4 0x853828B6 EQ PUSH2 0x60E JUMPI DUP1 PUSH4 0x88C61855 EQ PUSH2 0x618 JUMPI PUSH2 0x29F JUMP JUMPDEST DUP1 PUSH4 0x3F5BFFB7 GT PUSH2 0x20B JUMPI DUP1 PUSH4 0x5FEA10C6 GT PUSH2 0x1C4 JUMPI DUP1 PUSH4 0x5FEA10C6 EQ PUSH2 0x4FE JUMPI DUP1 PUSH4 0x65D4517C EQ PUSH2 0x51A JUMPI DUP1 PUSH4 0x686465B8 EQ PUSH2 0x538 JUMPI DUP1 PUSH4 0x68F5F2B0 EQ PUSH2 0x556 JUMPI DUP1 PUSH4 0x6B9A7D01 EQ PUSH2 0x572 JUMPI DUP1 PUSH4 0x6FD09816 EQ PUSH2 0x5A4 JUMPI PUSH2 0x29F JUMP JUMPDEST DUP1 PUSH4 0x3F5BFFB7 EQ PUSH2 0x416 JUMPI DUP1 PUSH4 0x42043170 EQ PUSH2 0x446 JUMPI DUP1 PUSH4 0x4704370C EQ PUSH2 0x464 JUMPI DUP1 PUSH4 0x477F4EAF EQ PUSH2 0x494 JUMPI DUP1 PUSH4 0x49C01D3F EQ PUSH2 0x4C4 JUMPI DUP1 PUSH4 0x4BC19FEE EQ PUSH2 0x4E2 JUMPI PUSH2 0x29F JUMP JUMPDEST DUP1 PUSH4 0x1D0769CA GT PUSH2 0x25D JUMPI DUP1 PUSH4 0x1D0769CA EQ PUSH2 0x354 JUMPI DUP1 PUSH4 0x200D2ED2 EQ PUSH2 0x384 JUMPI DUP1 PUSH4 0x218FE3A5 EQ PUSH2 0x3A2 JUMPI DUP1 PUSH4 0x3197CBB6 EQ PUSH2 0x3BE JUMPI DUP1 PUSH4 0x3CFF0380 EQ PUSH2 0x3DC JUMPI DUP1 PUSH4 0x3E0A322D EQ PUSH2 0x3FA JUMPI PUSH2 0x29F JUMP JUMPDEST DUP1 PUSH3 0x94CD31 EQ PUSH2 0x2A4 JUMPI DUP1 PUSH4 0x2A24770 EQ PUSH2 0x2C2 JUMPI DUP1 PUSH4 0x1209B1F6 EQ PUSH2 0x2E0 JUMPI DUP1 PUSH4 0x15981650 EQ PUSH2 0x2FE JUMPI DUP1 PUSH4 0x160344E2 EQ PUSH2 0x31A JUMPI DUP1 PUSH4 0x1CA1502F EQ PUSH2 0x324 JUMPI JUMPDEST PUSH1 0x0 DUP1 REVERT JUMPDEST PUSH2 0x2AC PUSH2 0x868 JUMP JUMPDEST PUSH1 0x40 MLOAD PUSH2 0x2B9 SWAP2 SWAP1 PUSH2 0x421C JUMP JUMPDEST PUSH1 0x40 MLOAD DUP1 SWAP2 SUB SWAP1 RETURN JUMPDEST PUSH2 0x2CA PUSH2 0x8B3 JUMP JUMPDEST PUSH1 0x40 MLOAD PUSH2 0x2D7 SWAP2 SWAP1 PUSH2 0x46CC JUMP JUMPDEST PUSH1 0x40 MLOAD DUP1 SWAP2 SUB SWAP1 RETURN JUMPDEST PUSH2 0x2E8 PUSH2 0x8B9 JUMP JUMPDEST PUSH1 0x40 MLOAD PUSH2 0x2F5 SWAP2 SWAP1 PUSH2 0x46CC JUMP JUMPDEST PUSH1 0x40 MLOAD DUP1 SWAP2 SUB SWAP1 RETURN JUMPDEST PUSH2 0x318 PUSH1 0x4 DUP1 CALLDATASIZE SUB DUP2 ADD SWAP1 PUSH2 0x313 SWAP2 SWAP1 PUSH2 0x3AD4 JUMP JUMPDEST PUSH2 0x8BF JUMP JUMPDEST STOP JUMPDEST PUSH2 0x322 PUSH2 0x8D1 JUMP JUMPDEST STOP JUMPDEST PUSH2 0x33E PUSH1 0x4 DUP1 CALLDATASIZE SUB DUP2 ADD SWAP1 PUSH2 0x339 SWAP2 SWAP1 PUSH2 0x3AD4 JUMP JUMPDEST PUSH2 0xA70 JUMP JUMPDEST PUSH1 0x40 MLOAD PUSH2 0x34B SWAP2 SWAP1 PUSH2 0x4259 JUMP JUMPDEST PUSH1 0x40 MLOAD DUP1 SWAP2 SUB SWAP1 RETURN JUMPDEST PUSH2 0x36E PUSH1 0x4 DUP1 CALLDATASIZE SUB DUP2 ADD SWAP1 PUSH2 0x369 SWAP2 SWAP1 PUSH2 0x3AD4 JUMP JUMPDEST PUSH2 0xB3E JUMP JUMPDEST PUSH1 0x40 MLOAD PUSH2 0x37B SWAP2 SWAP1 PUSH2 0x46CC JUMP JUMPDEST PUSH1 0x40 MLOAD DUP1 SWAP2 SUB SWAP1 RETURN JUMPDEST PUSH2 0x38C PUSH2 0xB59 JUMP JUMPDEST PUSH1 0x40 MLOAD PUSH2 0x399 SWAP2 SWAP1 PUSH2 0x42EF JUMP JUMPDEST PUSH1 0x40 MLOAD DUP1 SWAP2 SUB SWAP1 RETURN JUMPDEST PUSH2 0x3BC PUSH1 0x4 DUP1 CALLDATASIZE SUB DUP2 ADD SWAP1 PUSH2 0x3B7 SWAP2 SWAP1 PUSH2 0x39B7 JUMP JUMPDEST PUSH2 0xB6C JUMP JUMPDEST STOP JUMPDEST PUSH2 0x3C6 PUSH2 0xBB8 JUMP JUMPDEST PUSH1 0x40 MLOAD PUSH2 0x3D3 SWAP2 SWAP1 PUSH2 0x46CC JUMP JUMPDEST PUSH1 0x40 MLOAD DUP1 SWAP2 SUB SWAP1 RETURN JUMPDEST PUSH2 0x3E4 PUSH2 0xBBE JUMP JUMPDEST PUSH1 0x40 MLOAD PUSH2 0x3F1 SWAP2 SWAP1 PUSH2 0x4259 JUMP JUMPDEST PUSH1 0x40 MLOAD DUP1 SWAP2 SUB SWAP1 RETURN JUMPDEST PUSH2 0x414 PUSH1 0x4 DUP1 CALLDATASIZE SUB DUP2 ADD SWAP1 PUSH2 0x40F SWAP2 SWAP1 PUSH2 0x3AD4 JUMP JUMPDEST PUSH2 0xC45 JUMP JUMPDEST STOP JUMPDEST PUSH2 0x430 PUSH1 0x4 DUP1 CALLDATASIZE SUB DUP2 ADD SWAP1 PUSH2 0x42B SWAP2 SWAP1 PUSH2 0x39B7 JUMP JUMPDEST PUSH2 0xC57 JUMP JUMPDEST PUSH1 0x40 MLOAD PUSH2 0x43D SWAP2 SWAP1 PUSH2 0x4237 JUMP JUMPDEST PUSH1 0x40 MLOAD DUP1 SWAP2 SUB SWAP1 RETURN JUMPDEST PUSH2 0x44E PUSH2 0xE12 JUMP JUMPDEST PUSH1 0x40 MLOAD PUSH2 0x45B SWAP2 SWAP1 PUSH2 0x46CC JUMP JUMPDEST PUSH1 0x40 MLOAD DUP1 SWAP2 SUB SWAP1 RETURN JUMPDEST PUSH2 0x47E PUSH1 0x4 DUP1 CALLDATASIZE SUB DUP2 ADD SWAP1 PUSH2 0x479 SWAP2 SWAP1 PUSH2 0x39B7 JUMP JUMPDEST PUSH2 0xE18 JUMP JUMPDEST PUSH1 0x40 MLOAD PUSH2 0x48B SWAP2 SWAP1 PUSH2 0x4237 JUMP JUMPDEST PUSH1 0x40 MLOAD DUP1 SWAP2 SUB SWAP1 RETURN JUMPDEST PUSH2 0x4AE PUSH1 0x4 DUP1 CALLDATASIZE SUB DUP2 ADD SWAP1 PUSH2 0x4A9 SWAP2 SWAP1 PUSH2 0x3A5E JUMP JUMPDEST PUSH2 0xFF9 JUMP JUMPDEST PUSH1 0x40 MLOAD PUSH2 0x4BB SWAP2 SWAP1 PUSH2 0x46CC JUMP JUMPDEST PUSH1 0x40 MLOAD DUP1 SWAP2 SUB SWAP1 RETURN JUMPDEST PUSH2 0x4CC PUSH2 0x10E0 JUMP JUMPDEST PUSH1 0x40 MLOAD PUSH2 0x4D9 SWAP2 SWAP1 PUSH2 0x46CC JUMP JUMPDEST PUSH1 0x40 MLOAD DUP1 SWAP2 SUB SWAP1 RETURN JUMPDEST PUSH2 0x4FC PUSH1 0x4 DUP1 CALLDATASIZE SUB DUP2 ADD SWAP1 PUSH2 0x4F7 SWAP2 SWAP1 PUSH2 0x39B7 JUMP JUMPDEST PUSH2 0x10E6 JUMP JUMPDEST STOP JUMPDEST PUSH2 0x518 PUSH1 0x4 DUP1 CALLDATASIZE SUB DUP2 ADD SWAP1 PUSH2 0x513 SWAP2 SWAP1 PUSH2 0x3B2E JUMP JUMPDEST PUSH2 0x1175 JUMP JUMPDEST STOP JUMPDEST PUSH2 0x522 PUSH2 0x13F0 JUMP JUMPDEST PUSH1 0x40 MLOAD PUSH2 0x52F SWAP2 SWAP1 PUSH2 0x421C JUMP JUMPDEST PUSH1 0x40 MLOAD DUP1 SWAP2 SUB SWAP1 RETURN JUMPDEST PUSH2 0x540 PUSH2 0x143B JUMP JUMPDEST PUSH1 0x40 MLOAD PUSH2 0x54D SWAP2 SWAP1 PUSH2 0x46CC JUMP JUMPDEST PUSH1 0x40 MLOAD DUP1 SWAP2 SUB SWAP1 RETURN JUMPDEST PUSH2 0x570 PUSH1 0x4 DUP1 CALLDATASIZE SUB DUP2 ADD SWAP1 PUSH2 0x56B SWAP2 SWAP1 PUSH2 0x39E4 JUMP JUMPDEST PUSH2 0x1441 JUMP JUMPDEST STOP JUMPDEST PUSH2 0x58C PUSH1 0x4 DUP1 CALLDATASIZE SUB DUP2 ADD SWAP1 PUSH2 0x587 SWAP2 SWAP1 PUSH2 0x3AD4 JUMP JUMPDEST PUSH2 0x14D4 JUMP JUMPDEST PUSH1 0x40 MLOAD PUSH2 0x59B SWAP4 SWAP3 SWAP2 SWAP1 PUSH2 0x427B JUMP JUMPDEST PUSH1 0x40 MLOAD DUP1 SWAP2 SUB SWAP1 RETURN JUMPDEST PUSH2 0x5AC PUSH2 0x166C JUMP JUMPDEST STOP JUMPDEST PUSH2 0x5B6 PUSH2 0x1812 JUMP JUMPDEST STOP JUMPDEST PUSH2 0x5D2 PUSH1 0x4 DUP1 CALLDATASIZE SUB DUP2 ADD SWAP1 PUSH2 0x5CD SWAP2 SWAP1 PUSH2 0x3AD4 JUMP JUMPDEST PUSH2 0x1826 JUMP JUMPDEST STOP JUMPDEST PUSH2 0x5EE PUSH1 0x4 DUP1 CALLDATASIZE SUB DUP2 ADD SWAP1 PUSH2 0x5E9 SWAP2 SWAP1 PUSH2 0x3AD4 JUMP JUMPDEST PUSH2 0x1A7B JUMP JUMPDEST STOP JUMPDEST PUSH2 0x5F8 PUSH2 0x1A8D JUMP JUMPDEST PUSH1 0x40 MLOAD PUSH2 0x605 SWAP2 SWAP1 PUSH2 0x46CC JUMP JUMPDEST PUSH1 0x40 MLOAD DUP1 SWAP2 SUB SWAP1 RETURN JUMPDEST PUSH2 0x616 PUSH2 0x1A93 JUMP JUMPDEST STOP JUMPDEST PUSH2 0x632 PUSH1 0x4 DUP1 CALLDATASIZE SUB DUP2 ADD SWAP1 PUSH2 0x62D SWAP2 SWAP1 PUSH2 0x3A11 JUMP JUMPDEST PUSH2 0x1C19 JUMP JUMPDEST STOP JUMPDEST PUSH2 0x63C PUSH2 0x20D7 JUMP JUMPDEST PUSH1 0x40 MLOAD PUSH2 0x649 SWAP2 SWAP1 PUSH2 0x41A1 JUMP JUMPDEST PUSH1 0x40 MLOAD DUP1 SWAP2 SUB SWAP1 RETURN JUMPDEST PUSH2 0x66C PUSH1 0x4 DUP1 CALLDATASIZE SUB DUP2 ADD SWAP1 PUSH2 0x667 SWAP2 SWAP1 PUSH2 0x3AD4 JUMP JUMPDEST PUSH2 0x2101 JUMP JUMPDEST PUSH1 0x40 MLOAD PUSH2 0x679 SWAP2 SWAP1 PUSH2 0x46CC JUMP JUMPDEST PUSH1 0x40 MLOAD DUP1 SWAP2 SUB SWAP1 RETURN JUMPDEST PUSH2 0x68A PUSH2 0x211C JUMP JUMPDEST PUSH1 0x40 MLOAD PUSH2 0x697 SWAP2 SWAP1 PUSH2 0x46CC JUMP JUMPDEST PUSH1 0x40 MLOAD DUP1 SWAP2 SUB SWAP1 RETURN JUMPDEST PUSH2 0x6A8 PUSH2 0x2122 JUMP JUMPDEST PUSH1 0x40 MLOAD PUSH2 0x6B5 SWAP2 SWAP1 PUSH2 0x46CC JUMP JUMPDEST PUSH1 0x40 MLOAD DUP1 SWAP2 SUB SWAP1 RETURN JUMPDEST PUSH2 0x6C6 PUSH2 0x2128 JUMP JUMPDEST PUSH1 0x40 MLOAD PUSH2 0x6D3 SWAP2 SWAP1 PUSH2 0x41A1 JUMP JUMPDEST PUSH1 0x40 MLOAD DUP1 SWAP2 SUB SWAP1 RETURN JUMPDEST PUSH2 0x6F6 PUSH1 0x4 DUP1 CALLDATASIZE SUB DUP2 ADD SWAP1 PUSH2 0x6F1 SWAP2 SWAP1 PUSH2 0x3AD4 JUMP JUMPDEST PUSH2 0x214E JUMP JUMPDEST PUSH1 0x40 MLOAD PUSH2 0x703 SWAP2 SWAP1 PUSH2 0x46CC JUMP JUMPDEST PUSH1 0x40 MLOAD DUP1 SWAP2 SUB SWAP1 RETURN JUMPDEST PUSH2 0x714 PUSH2 0x230A JUMP JUMPDEST PUSH1 0x40 MLOAD PUSH2 0x721 SWAP2 SWAP1 PUSH2 0x46CC JUMP JUMPDEST PUSH1 0x40 MLOAD DUP1 SWAP2 SUB SWAP1 RETURN JUMPDEST PUSH2 0x744 PUSH1 0x4 DUP1 CALLDATASIZE SUB DUP2 ADD SWAP1 PUSH2 0x73F SWAP2 SWAP1 PUSH2 0x3AD4 JUMP JUMPDEST PUSH2 0x2310 JUMP JUMPDEST STOP JUMPDEST PUSH2 0x760 PUSH1 0x4 DUP1 CALLDATASIZE SUB DUP2 ADD SWAP1 PUSH2 0x75B SWAP2 SWAP1 PUSH2 0x3A11 JUMP JUMPDEST PUSH2 0x2322 JUMP JUMPDEST STOP JUMPDEST PUSH2 0x77C PUSH1 0x4 DUP1 CALLDATASIZE SUB DUP2 ADD SWAP1 PUSH2 0x777 SWAP2 SWAP1 PUSH2 0x3AD4 JUMP JUMPDEST PUSH2 0x2812 JUMP JUMPDEST STOP JUMPDEST PUSH2 0x786 PUSH2 0x2AC7 JUMP JUMPDEST PUSH1 0x40 MLOAD PUSH2 0x793 SWAP2 SWAP1 PUSH2 0x46CC JUMP JUMPDEST PUSH1 0x40 MLOAD DUP1 SWAP2 SUB SWAP1 RETURN JUMPDEST PUSH2 0x7A4 PUSH2 0x2ACD JUMP JUMPDEST PUSH1 0x40 MLOAD PUSH2 0x7B1 SWAP2 SWAP1 PUSH2 0x42D4 JUMP JUMPDEST PUSH1 0x40 MLOAD DUP1 SWAP2 SUB SWAP1 RETURN JUMPDEST PUSH2 0x7D4 PUSH1 0x4 DUP1 CALLDATASIZE SUB DUP2 ADD SWAP1 PUSH2 0x7CF SWAP2 SWAP1 PUSH2 0x3AD4 JUMP JUMPDEST PUSH2 0x2AF3 JUMP JUMPDEST STOP JUMPDEST PUSH2 0x7DE PUSH2 0x2B05 JUMP JUMPDEST PUSH1 0x40 MLOAD PUSH2 0x7EB SWAP2 SWAP1 PUSH2 0x46CC JUMP JUMPDEST PUSH1 0x40 MLOAD DUP1 SWAP2 SUB SWAP1 RETURN JUMPDEST PUSH2 0x80E PUSH1 0x4 DUP1 CALLDATASIZE SUB DUP2 ADD SWAP1 PUSH2 0x809 SWAP2 SWAP1 PUSH2 0x39B7 JUMP JUMPDEST PUSH2 0x2B0B JUMP JUMPDEST STOP JUMPDEST PUSH2 0x82A PUSH1 0x4 DUP1 CALLDATASIZE SUB DUP2 ADD SWAP1 PUSH2 0x825 SWAP2 SWAP1 PUSH2 0x39B7 JUMP JUMPDEST PUSH2 0x2B9A JUMP JUMPDEST STOP JUMPDEST PUSH2 0x834 PUSH2 0x2C1E JUMP JUMPDEST PUSH1 0x40 MLOAD PUSH2 0x841 SWAP2 SWAP1 PUSH2 0x42B9 JUMP JUMPDEST PUSH1 0x40 MLOAD DUP1 SWAP2 SUB SWAP1 RETURN JUMPDEST PUSH2 0x852 PUSH2 0x2C44 JUMP JUMPDEST PUSH1 0x40 MLOAD PUSH2 0x85F SWAP2 SWAP1 PUSH2 0x46CC JUMP JUMPDEST PUSH1 0x40 MLOAD DUP1 SWAP2 SUB SWAP1 RETURN JUMPDEST PUSH2 0x870 PUSH2 0x375E JUMP JUMPDEST PUSH1 0x18 PUSH1 0x6 DUP1 PUSH1 0x20 MUL PUSH1 0x40 MLOAD SWAP1 DUP2 ADD PUSH1 0x40 MSTORE DUP1 SWAP3 SWAP2 SWAP1 DUP3 PUSH1 0x6 DUP1 ISZERO PUSH2 0x8A9 JUMPI PUSH1 0x20 MUL DUP3 ADD SWAP2 JUMPDEST DUP2 SLOAD DUP2 MSTORE PUSH1 0x20 ADD SWAP1 PUSH1 0x1 ADD SWAP1 DUP1 DUP4 GT PUSH2 0x895 JUMPI JUMPDEST POP POP POP POP POP SWAP1 POP SWAP1 JUMP JUMPDEST PUSH1 0x11 SLOAD DUP2 JUMP JUMPDEST PUSH1 0x4 SLOAD DUP2 JUMP JUMPDEST PUSH2 0x8C7 PUSH2 0x2C5C JUMP JUMPDEST DUP1 PUSH1 0x4 DUP2 SWAP1 SSTORE POP POP JUMP JUMPDEST PUSH2 0x8DA CALLER PUSH2 0x2CDA JUMP JUMPDEST ISZERO PUSH2 0x91A JUMPI PUSH1 0x40 MLOAD PUSH32 0x8C379A000000000000000000000000000000000000000000000000000000000 DUP2 MSTORE PUSH1 0x4 ADD PUSH2 0x911 SWAP1 PUSH2 0x43EC JUMP JUMPDEST PUSH1 0x40 MLOAD DUP1 SWAP2 SUB SWAP1 REVERT JUMPDEST ORIGIN PUSH20 0xFFFFFFFFFFFFFFFFFFFFFFFFFFFFFFFFFFFFFFFF AND CALLER PUSH20 0xFFFFFFFFFFFFFFFFFFFFFFFFFFFFFFFFFFFFFFFF AND EQ PUSH2 0x988 JUMPI PUSH1 0x40 MLOAD PUSH32 0x8C379A000000000000000000000000000000000000000000000000000000000 DUP2 MSTORE PUSH1 0x4 ADD PUSH2 0x97F SWAP1 PUSH2 0x452C JUMP JUMPDEST PUSH1 0x40 MLOAD DUP1 SWAP2 SUB SWAP1 REVERT JUMPDEST PUSH1 0x0 PUSH1 0x3 DUP2 GT ISZERO PUSH2 0x99C JUMPI PUSH2 0x99B PUSH2 0x4C33 JUMP JUMPDEST JUMPDEST PUSH1 0xE PUSH1 0x0 SWAP1 SLOAD SWAP1 PUSH2 0x100 EXP SWAP1 DIV PUSH1 0xFF AND PUSH1 0x3 DUP2 GT ISZERO PUSH2 0x9BE JUMPI PUSH2 0x9BD PUSH2 0x4C33 JUMP JUMPDEST JUMPDEST EQ PUSH2 0x9FE JUMPI PUSH1 0x40 MLOAD PUSH32 0x8C379A000000000000000000000000000000000000000000000000000000000 DUP2 MSTORE PUSH1 0x4 ADD PUSH2 0x9F5 SWAP1 PUSH2 0x442C JUMP JUMPDEST PUSH1 0x40 MLOAD DUP1 SWAP2 SUB SWAP1 REVERT JUMPDEST TIMESTAMP PUSH1 0xF SLOAD GT ISZERO PUSH2 0xA43 JUMPI PUSH1 0x40 MLOAD PUSH32 0x8C379A000000000000000000000000000000000000000000000000000000000 DUP2 MSTORE PUSH1 0x4 ADD PUSH2 0xA3A SWAP1 PUSH2 0x432C JUMP JUMPDEST PUSH1 0x40 MLOAD DUP1 SWAP2 SUB SWAP1 REVERT JUMPDEST PUSH1 0x1 PUSH1 0xE PUSH1 0x0 PUSH2 0x100 EXP DUP2 SLOAD DUP2 PUSH1 0xFF MUL NOT AND SWAP1 DUP4 PUSH1 0x3 DUP2 GT ISZERO PUSH2 0xA69 JUMPI PUSH2 0xA68 PUSH2 0x4C33 JUMP JUMPDEST JUMPDEST MUL OR SWAP1 SSTORE POP JUMP JUMPDEST PUSH1 0x60 PUSH1 0x0 PUSH1 0x6 PUSH8 0xFFFFFFFFFFFFFFFF DUP2 GT ISZERO PUSH2 0xA8F JUMPI PUSH2 0xA8E PUSH2 0x4C91 JUMP JUMPDEST JUMPDEST PUSH1 0x40 MLOAD SWAP1 DUP1 DUP3 MSTORE DUP1 PUSH1 0x20 MUL PUSH1 0x20 ADD DUP3 ADD PUSH1 0x40 MSTORE DUP1 ISZERO PUSH2 0xABD JUMPI DUP2 PUSH1 0x20 ADD PUSH1 0x20 DUP3 MUL DUP1 CALLDATASIZE DUP4 CALLDATACOPY DUP1 DUP3 ADD SWAP2 POP POP SWAP1 POP JUMPDEST POP SWAP1 POP PUSH1 0x0 JUMPDEST PUSH1 0x6 DUP2 LT ISZERO PUSH2 0xB34 JUMPI PUSH1 0x1 PUSH1 0x42 DUP6 PUSH2 0xADB SWAP2 SWAP1 PUSH2 0x4BA4 JUMP JUMPDEST PUSH2 0xAE5 SWAP2 SWAP1 PUSH2 0x48AE JUMP JUMPDEST DUP3 DUP3 DUP2 MLOAD DUP2 LT PUSH2 0xAF8 JUMPI PUSH2 0xAF7 PUSH2 0x4C62 JUMP JUMPDEST JUMPDEST PUSH1 0x20 MUL PUSH1 0x20 ADD ADD SWAP1 PUSH4 0xFFFFFFFF AND SWAP1 DUP2 PUSH4 0xFFFFFFFF AND DUP2 MSTORE POP POP PUSH1 0x42 DUP5 PUSH2 0xB1F SWAP2 SWAP1 PUSH2 0x48E8 JUMP JUMPDEST SWAP4 POP DUP1 DUP1 PUSH2 0xB2C SWAP1 PUSH2 0x4B2E JUMP JUMPDEST SWAP2 POP POP PUSH2 0xAC3 JUMP JUMPDEST POP DUP1 SWAP2 POP POP SWAP2 SWAP1 POP JUMP JUMPDEST PUSH1 0x18 DUP2 PUSH1 0x6 DUP2 LT PUSH2 0xB4E JUMPI PUSH1 0x0 DUP1 REVERT JUMPDEST ADD PUSH1 0x0 SWAP2 POP SWAP1 POP SLOAD DUP2 JUMP JUMPDEST PUSH1 0xE PUSH1 0x0 SWAP1 SLOAD SWAP1 PUSH2 0x100 EXP SWAP1 DIV PUSH1 0xFF AND DUP2 JUMP JUMPDEST PUSH2 0xB74 PUSH2 0x2C5C JUMP JUMPDEST DUP1 PUSH1 0x5 PUSH1 0x0 PUSH2 0x100 EXP DUP2 SLOAD DUP2 PUSH20 0xFFFFFFFFFFFFFFFFFFFFFFFFFFFFFFFFFFFFFFFF MUL NOT AND SWAP1 DUP4 PUSH20 0xFFFFFFFFFFFFFFFFFFFFFFFFFFFFFFFFFFFFFFFF AND MUL OR SWAP1 SSTORE POP POP JUMP JUMPDEST PUSH1 0x10 SLOAD DUP2 JUMP JUMPDEST PUSH1 0x60 PUSH1 0x3 DUP1 DUP2 GT ISZERO PUSH2 0xBD3 JUMPI PUSH2 0xBD2 PUSH2 0x4C33 JUMP JUMPDEST JUMPDEST PUSH1 0xE PUSH1 0x0 SWAP1 SLOAD SWAP1 PUSH2 0x100 EXP SWAP1 DIV PUSH1 0xFF AND PUSH1 0x3 DUP2 GT ISZERO PUSH2 0xBF5 JUMPI PUSH2 0xBF4 PUSH2 0x4C33 JUMP JUMPDEST JUMPDEST EQ PUSH2 0xC35 JUMPI PUSH1 0x40 MLOAD PUSH32 0x8C379A000000000000000000000000000000000000000000000000000000000 DUP2 MSTORE PUSH1 0x4 ADD PUSH2 0xC2C SWAP1 PUSH2 0x44AC JUMP JUMPDEST PUSH1 0x40 MLOAD DUP1 SWAP2 SUB SWAP1 REVERT JUMPDEST PUSH2 0xC40 PUSH1 0x1E SLOAD PUSH2 0xA70 JUMP JUMPDEST SWAP1 POP SWAP1 JUMP JUMPDEST PUSH2 0xC4D PUSH2 0x2C5C JUMP JUMPDEST DUP1 PUSH1 0xF DUP2 SWAP1 SSTORE POP POP JUMP JUMPDEST PUSH1 0x60 PUSH1 0x0 PUSH1 0xB SLOAD PUSH8 0xFFFFFFFFFFFFFFFF DUP2 GT ISZERO PUSH2 0xC77 JUMPI PUSH2 0xC76 PUSH2 0x4C91 JUMP JUMPDEST JUMPDEST PUSH1 0x40 MLOAD SWAP1 DUP1 DUP3 MSTORE DUP1 PUSH1 0x20 MUL PUSH1 0x20 ADD DUP3 ADD PUSH1 0x40 MSTORE DUP1 ISZERO PUSH2 0xCA5 JUMPI DUP2 PUSH1 0x20 ADD PUSH1 0x20 DUP3 MUL DUP1 CALLDATASIZE DUP4 CALLDATACOPY DUP1 DUP3 ADD SWAP2 POP POP SWAP1 POP JUMPDEST POP SWAP1 POP PUSH1 0x0 DUP1 JUMPDEST PUSH1 0xB SLOAD DUP2 LT ISZERO PUSH2 0xD60 JUMPI DUP5 PUSH20 0xFFFFFFFFFFFFFFFFFFFFFFFFFFFFFFFFFFFFFFFF AND PUSH1 0xA PUSH1 0x0 DUP4 DUP2 MSTORE PUSH1 0x20 ADD SWAP1 DUP2 MSTORE PUSH1 0x20 ADD PUSH1 0x0 KECCAK256 PUSH1 0x1 ADD PUSH1 0x0 SWAP1 SLOAD SWAP1 PUSH2 0x100 EXP SWAP1 DIV PUSH20 0xFFFFFFFFFFFFFFFFFFFFFFFFFFFFFFFFFFFFFFFF AND PUSH20 0xFFFFFFFFFFFFFFFFFFFFFFFFFFFFFFFFFFFFFFFF AND EQ ISZERO PUSH2 0xD4D JUMPI DUP1 DUP4 DUP4 DUP1 PUSH2 0xD2D SWAP1 PUSH2 0x4B2E JUMP JUMPDEST SWAP5 POP DUP2 MLOAD DUP2 LT PUSH2 0xD40 JUMPI PUSH2 0xD3F PUSH2 0x4C62 JUMP JUMPDEST JUMPDEST PUSH1 0x20 MUL PUSH1 0x20 ADD ADD DUP2 DUP2 MSTORE POP POP JUMPDEST DUP1 DUP1 PUSH2 0xD58 SWAP1 PUSH2 0x4B2E JUMP JUMPDEST SWAP2 POP POP PUSH2 0xCAC JUMP JUMPDEST POP PUSH1 0x0 DUP2 PUSH8 0xFFFFFFFFFFFFFFFF DUP2 GT ISZERO PUSH2 0xD7D JUMPI PUSH2 0xD7C PUSH2 0x4C91 JUMP JUMPDEST JUMPDEST PUSH1 0x40 MLOAD SWAP1 DUP1 DUP3 MSTORE DUP1 PUSH1 0x20 MUL PUSH1 0x20 ADD DUP3 ADD PUSH1 0x40 MSTORE DUP1 ISZERO PUSH2 0xDAB JUMPI DUP2 PUSH1 0x20 ADD PUSH1 0x20 DUP3 MUL DUP1 CALLDATASIZE DUP4 CALLDATACOPY DUP1 DUP3 ADD SWAP2 POP POP SWAP1 POP JUMPDEST POP SWAP1 POP PUSH1 0x0 JUMPDEST DUP3 DUP2 LT ISZERO PUSH2 0xE06 JUMPI DUP4 DUP2 DUP2 MLOAD DUP2 LT PUSH2 0xDCC JUMPI PUSH2 0xDCB PUSH2 0x4C62 JUMP JUMPDEST JUMPDEST PUSH1 0x20 MUL PUSH1 0x20 ADD ADD MLOAD DUP3 DUP3 DUP2 MLOAD DUP2 LT PUSH2 0xDE7 JUMPI PUSH2 0xDE6 PUSH2 0x4C62 JUMP JUMPDEST JUMPDEST PUSH1 0x20 MUL PUSH1 0x20 ADD ADD DUP2 DUP2 MSTORE POP POP DUP1 DUP1 PUSH2 0xDFE SWAP1 PUSH2 0x4B2E JUMP JUMPDEST SWAP2 POP POP PUSH2 0xDB1 JUMP JUMPDEST POP DUP1 SWAP4 POP POP POP POP SWAP2 SWAP1 POP JUMP JUMPDEST PUSH1 0xD SLOAD DUP2 JUMP JUMPDEST PUSH1 0x60 PUSH1 0x0 PUSH2 0xE25 DUP4 PUSH2 0xC57 JUMP JUMPDEST SWAP1 POP PUSH1 0x0 DUP2 MLOAD PUSH8 0xFFFFFFFFFFFFFFFF DUP2 GT ISZERO PUSH2 0xE44 JUMPI PUSH2 0xE43 PUSH2 0x4C91 JUMP JUMPDEST JUMPDEST PUSH1 0x40 MLOAD SWAP1 DUP1 DUP3 MSTORE DUP1 PUSH1 0x20 MUL PUSH1 0x20 ADD DUP3 ADD PUSH1 0x40 MSTORE DUP1 ISZERO PUSH2 0xE72 JUMPI DUP2 PUSH1 0x20 ADD PUSH1 0x20 DUP3 MUL DUP1 CALLDATASIZE DUP4 CALLDATACOPY DUP1 DUP3 ADD SWAP2 POP POP SWAP1 POP JUMPDEST POP SWAP1 POP PUSH1 0x0 DUP1 JUMPDEST DUP4 MLOAD DUP2 LT ISZERO PUSH2 0xF46 JUMPI PUSH1 0x0 PUSH1 0xA PUSH1 0x0 DUP7 DUP5 DUP2 MLOAD DUP2 LT PUSH2 0xE9B JUMPI PUSH2 0xE9A PUSH2 0x4C62 JUMP JUMPDEST JUMPDEST PUSH1 0x20 MUL PUSH1 0x20 ADD ADD MLOAD DUP2 MSTORE PUSH1 0x20 ADD SWAP1 DUP2 MSTORE PUSH1 0x20 ADD PUSH1 0x0 KECCAK256 PUSH1 0x0 ADD PUSH1 0x1C SWAP1 SLOAD SWAP1 PUSH2 0x100 EXP SWAP1 DIV PUSH4 0xFFFFFFFF AND PUSH4 0xFFFFFFFF AND SWAP1 POP PUSH1 0x0 PUSH1 0x18 DUP3 PUSH1 0x6 DUP2 LT PUSH2 0xEE3 JUMPI PUSH2 0xEE2 PUSH2 0x4C62 JUMP JUMPDEST JUMPDEST ADD SLOAD GT ISZERO PUSH2 0xF32 JUMPI DUP5 DUP3 DUP2 MLOAD DUP2 LT PUSH2 0xEFE JUMPI PUSH2 0xEFD PUSH2 0x4C62 JUMP JUMPDEST JUMPDEST PUSH1 0x20 MUL PUSH1 0x20 ADD ADD MLOAD DUP5 DUP5 DUP1 PUSH2 0xF12 SWAP1 PUSH2 0x4B2E JUMP JUMPDEST SWAP6 POP DUP2 MLOAD DUP2 LT PUSH2 0xF25 JUMPI PUSH2 0xF24 PUSH2 0x4C62 JUMP JUMPDEST JUMPDEST PUSH1 0x20 MUL PUSH1 0x20 ADD ADD DUP2 DUP2 MSTORE POP POP JUMPDEST POP DUP1 DUP1 PUSH2 0xF3E SWAP1 PUSH2 0x4B2E JUMP JUMPDEST SWAP2 POP POP PUSH2 0xE79 JUMP JUMPDEST POP PUSH1 0x0 DUP2 PUSH8 0xFFFFFFFFFFFFFFFF DUP2 GT ISZERO PUSH2 0xF63 JUMPI PUSH2 0xF62 PUSH2 0x4C91 JUMP JUMPDEST JUMPDEST PUSH1 0x40 MLOAD SWAP1 DUP1 DUP3 MSTORE DUP1 PUSH1 0x20 MUL PUSH1 0x20 ADD DUP3 ADD PUSH1 0x40 MSTORE DUP1 ISZERO PUSH2 0xF91 JUMPI DUP2 PUSH1 0x20 ADD PUSH1 0x20 DUP3 MUL DUP1 CALLDATASIZE DUP4 CALLDATACOPY DUP1 DUP3 ADD SWAP2 POP POP SWAP1 POP JUMPDEST POP SWAP1 POP PUSH1 0x0 JUMPDEST DUP3 DUP2 LT ISZERO PUSH2 0xFEC JUMPI DUP4 DUP2 DUP2 MLOAD DUP2 LT PUSH2 0xFB2 JUMPI PUSH2 0xFB1 PUSH2 0x4C62 JUMP JUMPDEST JUMPDEST PUSH1 0x20 MUL PUSH1 0x20 ADD ADD MLOAD DUP3 DUP3 DUP2 MLOAD DUP2 LT PUSH2 0xFCD JUMPI PUSH2 0xFCC PUSH2 0x4C62 JUMP JUMPDEST JUMPDEST PUSH1 0x20 MUL PUSH1 0x20 ADD ADD DUP2 DUP2 MSTORE POP POP DUP1 DUP1 PUSH2 0xFE4 SWAP1 PUSH2 0x4B2E JUMP JUMPDEST SWAP2 POP POP PUSH2 0xF97 JUMP JUMPDEST POP DUP1 SWAP5 POP POP POP POP POP SWAP2 SWAP1 POP JUMP JUMPDEST PUSH1 0x0 PUSH1 0x3 DUP1 DUP2 GT ISZERO PUSH2 0x100E JUMPI PUSH2 0x100D PUSH2 0x4C33 JUMP JUMPDEST JUMPDEST PUSH1 0xE PUSH1 0x0 SWAP1 SLOAD SWAP1 PUSH2 0x100 EXP SWAP1 DIV PUSH1 0xFF AND PUSH1 0x3 DUP2 GT ISZERO PUSH2 0x1030 JUMPI PUSH2 0x102F PUSH2 0x4C33 JUMP JUMPDEST JUMPDEST EQ ISZERO DUP1 PUSH2 0x103E JUMPI POP PUSH1 0x0 DUP3 MLOAD EQ JUMPDEST ISZERO PUSH2 0x104C JUMPI PUSH1 0x0 SWAP1 POP PUSH2 0x10DB JUMP JUMPDEST PUSH1 0x0 DUP1 JUMPDEST DUP4 MLOAD DUP2 LT ISZERO PUSH2 0x10D5 JUMPI PUSH1 0x18 PUSH1 0xA PUSH1 0x0 DUP7 DUP5 DUP2 MLOAD DUP2 LT PUSH2 0x1072 JUMPI PUSH2 0x1071 PUSH2 0x4C62 JUMP JUMPDEST JUMPDEST PUSH1 0x20 MUL PUSH1 0x20 ADD ADD MLOAD DUP2 MSTORE PUSH1 0x20 ADD SWAP1 DUP2 MSTORE PUSH1 0x20 ADD PUSH1 0x0 KECCAK256 PUSH1 0x0 ADD PUSH1 0x1C SWAP1 SLOAD SWAP1 PUSH2 0x100 EXP SWAP1 DIV PUSH4 0xFFFFFFFF AND PUSH4 0xFFFFFFFF AND PUSH1 0x6 DUP2 LT PUSH2 0x10B3 JUMPI PUSH2 0x10B2 PUSH2 0x4C62 JUMP JUMPDEST JUMPDEST ADD SLOAD DUP3 PUSH2 0x10C0 SWAP2 SWAP1 PUSH2 0x4858 JUMP JUMPDEST SWAP2 POP DUP1 DUP1 PUSH2 0x10CD SWAP1 PUSH2 0x4B2E JUMP JUMPDEST SWAP2 POP POP PUSH2 0x1050 JUMP JUMPDEST POP DUP1 SWAP2 POP POP JUMPDEST SWAP2 SWAP1 POP JUMP JUMPDEST PUSH1 0xC SLOAD DUP2 JUMP JUMPDEST PUSH2 0x10EE PUSH2 0x2C5C JUMP JUMPDEST DUP1 PUSH1 0x6 PUSH1 0x0 PUSH2 0x100 EXP DUP2 SLOAD DUP2 PUSH20 0xFFFFFFFFFFFFFFFFFFFFFFFFFFFFFFFFFFFFFFFF MUL NOT AND SWAP1 DUP4 PUSH20 0xFFFFFFFFFFFFFFFFFFFFFFFFFFFFFFFFFFFFFFFF AND MUL OR SWAP1 SSTORE POP DUP1 PUSH20 0xFFFFFFFFFFFFFFFFFFFFFFFFFFFFFFFFFFFFFFFF AND PUSH32 0x383F8CB39DFA7C3FB901A460DD449EA924868F0A92FF03DA64740FFFA5F1DE62 PUSH1 0x40 MLOAD PUSH1 0x40 MLOAD DUP1 SWAP2 SUB SWAP1 LOG2 POP JUMP JUMPDEST PUSH2 0x117D PUSH2 0x2C5C JUMP JUMPDEST PUSH1 0x3 DUP1 DUP2 GT ISZERO PUSH2 0x1190 JUMPI PUSH2 0x118F PUSH2 0x4C33 JUMP JUMPDEST JUMPDEST PUSH1 0xE PUSH1 0x0 SWAP1 SLOAD SWAP1 PUSH2 0x100 EXP SWAP1 DIV PUSH1 0xFF AND PUSH1 0x3 DUP2 GT ISZERO PUSH2 0x11B2 JUMPI PUSH2 0x11B1 PUSH2 0x4C33 JUMP JUMPDEST JUMPDEST EQ ISZERO PUSH2 0x11FD JUMPI PUSH1 0x11 SLOAD TIMESTAMP GT PUSH2 0x11FC JUMPI PUSH1 0x40 MLOAD PUSH32 0x8C379A000000000000000000000000000000000000000000000000000000000 DUP2 MSTORE PUSH1 0x4 ADD PUSH2 0x11F3 SWAP1 PUSH2 0x462C JUMP JUMPDEST PUSH1 0x40 MLOAD DUP1 SWAP2 SUB SWAP1 REVERT JUMPDEST JUMPDEST PUSH1 0x0 DUP3 EQ ISZERO DUP1 PUSH2 0x120E JUMPI POP PUSH1 0x0 DUP2 EQ ISZERO JUMPDEST PUSH2 0x124D JUMPI PUSH1 0x40 MLOAD PUSH32 0x8C379A000000000000000000000000000000000000000000000000000000000 DUP2 MSTORE PUSH1 0x4 ADD PUSH2 0x1244 SWAP1 PUSH2 0x438C JUMP JUMPDEST PUSH1 0x40 MLOAD DUP1 SWAP2 SUB SWAP1 REVERT JUMPDEST PUSH1 0x0 DUP2 EQ PUSH2 0x1266 JUMPI PUSH1 0xC SLOAD DUP2 PUSH2 0x1263 SWAP2 SWAP1 PUSH2 0x4973 JUMP JUMPDEST SWAP2 POP JUMPDEST TIMESTAMP DUP3 GT PUSH2 0x12A8 JUMPI PUSH1 0x40 MLOAD PUSH32 0x8C379A000000000000000000000000000000000000000000000000000000000 DUP2 MSTORE PUSH1 0x4 ADD PUSH2 0x129F SWAP1 PUSH2 0x448C JUMP JUMPDEST PUSH1 0x40 MLOAD DUP1 SWAP2 SUB SWAP1 REVERT JUMPDEST PUSH1 0x0 PUSH1 0xE PUSH1 0x0 PUSH2 0x100 EXP DUP2 SLOAD DUP2 PUSH1 0xFF MUL NOT AND SWAP1 DUP4 PUSH1 0x3 DUP2 GT ISZERO PUSH2 0x12CE JUMPI PUSH2 0x12CD PUSH2 0x4C33 JUMP JUMPDEST JUMPDEST MUL OR SWAP1 SSTORE POP DUP2 PUSH1 0xF DUP2 SWAP1 SSTORE POP PUSH1 0xC SLOAD DUP3 PUSH2 0x12E8 SWAP2 SWAP1 PUSH2 0x4858 JUMP JUMPDEST PUSH1 0x10 DUP2 SWAP1 SSTORE POP PUSH1 0xD SLOAD PUSH1 0x10 SLOAD PUSH2 0x12FE SWAP2 SWAP1 PUSH2 0x4858 JUMP JUMPDEST PUSH1 0x11 DUP2 SWAP1 SSTORE POP PUSH1 0x0 PUSH1 0xB DUP2 SWAP1 SSTORE POP PUSH1 0x5 PUSH1 0x0 SWAP1 SLOAD SWAP1 PUSH2 0x100 EXP SWAP1 DIV PUSH20 0xFFFFFFFFFFFFFFFFFFFFFFFFFFFFFFFFFFFFFFFF AND PUSH20 0xFFFFFFFFFFFFFFFFFFFFFFFFFFFFFFFFFFFFFFFF AND PUSH4 0x70A08231 ADDRESS PUSH1 0x40 MLOAD DUP3 PUSH4 0xFFFFFFFF AND PUSH1 0xE0 SHL DUP2 MSTORE PUSH1 0x4 ADD PUSH2 0x1367 SWAP2 SWAP1 PUSH2 0x41A1 JUMP JUMPDEST PUSH1 0x20 PUSH1 0x40 MLOAD DUP1 DUP4 SUB DUP2 DUP7 DUP1 EXTCODESIZE ISZERO DUP1 ISZERO PUSH2 0x137F JUMPI PUSH1 0x0 DUP1 REVERT JUMPDEST POP GAS STATICCALL ISZERO DUP1 ISZERO PUSH2 0x1393 JUMPI RETURNDATASIZE PUSH1 0x0 DUP1 RETURNDATACOPY RETURNDATASIZE PUSH1 0x0 REVERT JUMPDEST POP POP POP POP PUSH1 0x40 MLOAD RETURNDATASIZE PUSH1 0x1F NOT PUSH1 0x1F DUP3 ADD AND DUP3 ADD DUP1 PUSH1 0x40 MSTORE POP DUP2 ADD SWAP1 PUSH2 0x13B7 SWAP2 SWAP1 PUSH2 0x3B01 JUMP JUMPDEST PUSH1 0x9 DUP2 SWAP1 SSTORE POP PUSH1 0xF SLOAD PUSH32 0x931B31DA73FD887AC2B49CA80CA85BCD1A4C2803B58F53D7D9FCC85EBEC3B9FA PUSH1 0x40 MLOAD PUSH1 0x40 MLOAD DUP1 SWAP2 SUB SWAP1 LOG2 POP POP JUMP JUMPDEST PUSH2 0x13F8 PUSH2 0x375E JUMP JUMPDEST PUSH1 0x12 PUSH1 0x6 DUP1 PUSH1 0x20 MUL PUSH1 0x40 MLOAD SWAP1 DUP2 ADD PUSH1 0x40 MSTORE DUP1 SWAP3 SWAP2 SWAP1 DUP3 PUSH1 0x6 DUP1 ISZERO PUSH2 0x1431 JUMPI PUSH1 0x20 MUL DUP3 ADD SWAP2 JUMPDEST DUP2 SLOAD DUP2 MSTORE PUSH1 0x20 ADD SWAP1 PUSH1 0x1 ADD SWAP1 DUP1 DUP4 GT PUSH2 0x141D JUMPI JUMPDEST POP POP POP POP POP SWAP1 POP SWAP1 JUMP JUMPDEST PUSH1 0xB SLOAD DUP2 JUMP JUMPDEST PUSH2 0x1449 PUSH2 0x2C5C JUMP JUMPDEST PUSH1 0x0 PUSH1 0x3 DUP2 GT ISZERO PUSH2 0x145D JUMPI PUSH2 0x145C PUSH2 0x4C33 JUMP JUMPDEST JUMPDEST PUSH1 0xE PUSH1 0x0 SWAP1 SLOAD SWAP1 PUSH2 0x100 EXP SWAP1 DIV PUSH1 0xFF AND PUSH1 0x3 DUP2 GT ISZERO PUSH2 0x147F JUMPI PUSH2 0x147E PUSH2 0x4C33 JUMP JUMPDEST JUMPDEST EQ PUSH2 0x14BF JUMPI PUSH1 0x40 MLOAD PUSH32 0x8C379A000000000000000000000000000000000000000000000000000000000 DUP2 MSTORE PUSH1 0x4 ADD PUSH2 0x14B6 SWAP1 PUSH2 0x440C JUMP JUMPDEST PUSH1 0x40 MLOAD DUP1 SWAP2 SUB SWAP1 REVERT JUMPDEST DUP1 PUSH1 0x12 SWAP1 PUSH1 0x6 PUSH2 0x14D0 SWAP3 SWAP2 SWAP1 PUSH2 0x3780 JUMP JUMPDEST POP POP JUMP JUMPDEST PUSH1 0x60 PUSH1 0x0 DUP1 PUSH1 0xB SLOAD DUP5 LT PUSH2 0x151D JUMPI PUSH1 0x40 MLOAD PUSH32 0x8C379A000000000000000000000000000000000000000000000000000000000 DUP2 MSTORE PUSH1 0x4 ADD PUSH2 0x1514 SWAP1 PUSH2 0x436C JUMP JUMPDEST PUSH1 0x40 MLOAD DUP1 SWAP2 SUB SWAP1 REVERT JUMPDEST PUSH1 0x0 PUSH1 0xA PUSH1 0x0 DUP7 DUP2 MSTORE PUSH1 0x20 ADD SWAP1 DUP2 MSTORE PUSH1 0x20 ADD PUSH1 0x0 KECCAK256 PUSH1 0x40 MLOAD DUP1 PUSH1 0x60 ADD PUSH1 0x40 MSTORE SWAP1 DUP2 PUSH1 0x0 DUP3 ADD PUSH1 0x0 SWAP1 SLOAD SWAP1 PUSH2 0x100 EXP SWAP1 DIV PUSH28 0xFFFFFFFFFFFFFFFFFFFFFFFFFFFFFFFFFFFFFFFFFFFFFFFFFFFFFFFF AND PUSH28 0xFFFFFFFFFFFFFFFFFFFFFFFFFFFFFFFFFFFFFFFFFFFFFFFFFFFFFFFF AND PUSH28 0xFFFFFFFFFFFFFFFFFFFFFFFFFFFFFFFFFFFFFFFFFFFFFFFFFFFFFFFF AND DUP2 MSTORE PUSH1 0x20 ADD PUSH1 0x0 DUP3 ADD PUSH1 0x1C SWAP1 SLOAD SWAP1 PUSH2 0x100 EXP SWAP1 DIV PUSH4 0xFFFFFFFF AND PUSH4 0xFFFFFFFF AND PUSH4 0xFFFFFFFF AND DUP2 MSTORE PUSH1 0x20 ADD PUSH1 0x1 DUP3 ADD PUSH1 0x0 SWAP1 SLOAD SWAP1 PUSH2 0x100 EXP SWAP1 DIV PUSH20 0xFFFFFFFFFFFFFFFFFFFFFFFFFFFFFFFFFFFFFFFF AND PUSH20 0xFFFFFFFFFFFFFFFFFFFFFFFFFFFFFFFFFFFFFFFF AND PUSH20 0xFFFFFFFFFFFFFFFFFFFFFFFFFFFFFFFFFFFFFFFF AND DUP2 MSTORE POP POP SWAP1 POP PUSH2 0x1654 DUP2 PUSH1 0x0 ADD MLOAD PUSH28 0xFFFFFFFFFFFFFFFFFFFFFFFFFFFFFFFFFFFFFFFFFFFFFFFFFFFFFFFF AND PUSH2 0xA70 JUMP JUMPDEST DUP2 PUSH1 0x20 ADD MLOAD DUP3 PUSH1 0x40 ADD MLOAD SWAP4 POP SWAP4 POP SWAP4 POP POP SWAP2 SWAP4 SWAP1 SWAP3 POP JUMP JUMPDEST PUSH2 0x1675 CALLER PUSH2 0x2CDA JUMP JUMPDEST ISZERO PUSH2 0x16B5 JUMPI PUSH1 0x40 MLOAD PUSH32 0x8C379A000000000000000000000000000000000000000000000000000000000 DUP2 MSTORE PUSH1 0x4 ADD PUSH2 0x16AC SWAP1 PUSH2 0x43EC JUMP JUMPDEST PUSH1 0x40 MLOAD DUP1 SWAP2 SUB SWAP1 REVERT JUMPDEST ORIGIN PUSH20 0xFFFFFFFFFFFFFFFFFFFFFFFFFFFFFFFFFFFFFFFF AND CALLER PUSH20 0xFFFFFFFFFFFFFFFFFFFFFFFFFFFFFFFFFFFFFFFF AND EQ PUSH2 0x1723 JUMPI PUSH1 0x40 MLOAD PUSH32 0x8C379A000000000000000000000000000000000000000000000000000000000 DUP2 MSTORE PUSH1 0x4 ADD PUSH2 0x171A SWAP1 PUSH2 0x452C JUMP JUMPDEST PUSH1 0x40 MLOAD DUP1 SWAP2 SUB SWAP1 REVERT JUMPDEST TIMESTAMP PUSH1 0x10 SLOAD GT ISZERO PUSH2 0x1768 JUMPI PUSH1 0x40 MLOAD PUSH32 0x8C379A000000000000000000000000000000000000000000000000000000000 DUP2 MSTORE PUSH1 0x4 ADD PUSH2 0x175F SWAP1 PUSH2 0x45EC JUMP JUMPDEST PUSH1 0x40 MLOAD DUP1 SWAP2 SUB SWAP1 REVERT JUMPDEST PUSH1 0x1 PUSH1 0x3 DUP2 GT ISZERO PUSH2 0x177C JUMPI PUSH2 0x177B PUSH2 0x4C33 JUMP JUMPDEST JUMPDEST PUSH1 0xE PUSH1 0x0 SWAP1 SLOAD SWAP1 PUSH2 0x100 EXP SWAP1 DIV PUSH1 0xFF AND PUSH1 0x3 DUP2 GT ISZERO PUSH2 0x179E JUMPI PUSH2 0x179D PUSH2 0x4C33 JUMP JUMPDEST JUMPDEST EQ PUSH2 0x17DE JUMPI PUSH1 0x40 MLOAD PUSH32 0x8C379A000000000000000000000000000000000000000000000000000000000 DUP2 MSTORE PUSH1 0x4 ADD PUSH2 0x17D5 SWAP1 PUSH2 0x45AC JUMP JUMPDEST PUSH1 0x40 MLOAD DUP1 SWAP2 SUB SWAP1 REVERT JUMPDEST PUSH1 0x2 PUSH1 0xE PUSH1 0x0 PUSH2 0x100 EXP DUP2 SLOAD DUP2 PUSH1 0xFF MUL NOT AND SWAP1 DUP4 PUSH1 0x3 DUP2 GT ISZERO PUSH2 0x1804 JUMPI PUSH2 0x1803 PUSH2 0x4C33 JUMP JUMPDEST JUMPDEST MUL OR SWAP1 SSTORE POP NUMBER PUSH1 0x7 DUP2 SWAP1 SSTORE POP JUMP JUMPDEST PUSH2 0x181A PUSH2 0x2C5C JUMP JUMPDEST PUSH2 0x1824 PUSH1 0x0 PUSH2 0x2CED JUMP JUMPDEST JUMP JUMPDEST PUSH2 0x182F CALLER PUSH2 0x2CDA JUMP JUMPDEST ISZERO PUSH2 0x186F JUMPI PUSH1 0x40 MLOAD PUSH32 0x8C379A000000000000000000000000000000000000000000000000000000000 DUP2 MSTORE PUSH1 0x4 ADD PUSH2 0x1866 SWAP1 PUSH2 0x43EC JUMP JUMPDEST PUSH1 0x40 MLOAD DUP1 SWAP2 SUB SWAP1 REVERT JUMPDEST ORIGIN PUSH20 0xFFFFFFFFFFFFFFFFFFFFFFFFFFFFFFFFFFFFFFFF AND CALLER PUSH20 0xFFFFFFFFFFFFFFFFFFFFFFFFFFFFFFFFFFFFFFFF AND EQ PUSH2 0x18DD JUMPI PUSH1 0x40 MLOAD PUSH32 0x8C379A000000000000000000000000000000000000000000000000000000000 DUP2 MSTORE PUSH1 0x4 ADD PUSH2 0x18D4 SWAP1 PUSH2 0x452C JUMP JUMPDEST PUSH1 0x40 MLOAD DUP1 SWAP2 SUB SWAP1 REVERT JUMPDEST PUSH2 0x18E5 PUSH2 0x2C5C JUMP JUMPDEST PUSH1 0x2 PUSH1 0x3 DUP2 GT ISZERO PUSH2 0x18F9 JUMPI PUSH2 0x18F8 PUSH2 0x4C33 JUMP JUMPDEST JUMPDEST PUSH1 0xE PUSH1 0x0 SWAP1 SLOAD SWAP1 PUSH2 0x100 EXP SWAP1 DIV PUSH1 0xFF AND PUSH1 0x3 DUP2 GT ISZERO PUSH2 0x191B JUMPI PUSH2 0x191A PUSH2 0x4C33 JUMP JUMPDEST JUMPDEST EQ PUSH2 0x195B JUMPI PUSH1 0x40 MLOAD PUSH32 0x8C379A000000000000000000000000000000000000000000000000000000000 DUP2 MSTORE PUSH1 0x4 ADD PUSH2 0x1952 SWAP1 PUSH2 0x468C JUMP JUMPDEST PUSH1 0x40 MLOAD DUP1 SWAP2 SUB SWAP1 REVERT JUMPDEST TIMESTAMP PUSH1 0x11 SLOAD GT PUSH2 0x199F JUMPI PUSH1 0x40 MLOAD PUSH32 0x8C379A000000000000000000000000000000000000000000000000000000000 DUP2 MSTORE PUSH1 0x4 ADD PUSH2 0x1996 SWAP1 PUSH2 0x43CC JUMP JUMPDEST PUSH1 0x40 MLOAD DUP1 SWAP2 SUB SWAP1 REVERT JUMPDEST PUSH1 0x7 SLOAD NUMBER EQ ISZERO PUSH2 0x19E4 JUMPI PUSH1 0x40 MLOAD PUSH32 0x8C379A000000000000000000000000000000000000000000000000000000000 DUP2 MSTORE PUSH1 0x4 ADD PUSH2 0x19DB SWAP1 PUSH2 0x434C JUMP JUMPDEST PUSH1 0x40 MLOAD DUP1 SWAP2 SUB SWAP1 REVERT JUMPDEST NUMBER PUSH1 0x8 DUP2 SWAP1 SSTORE POP PUSH1 0x6 PUSH1 0x0 SWAP1 SLOAD SWAP1 PUSH2 0x100 EXP SWAP1 DIV PUSH20 0xFFFFFFFFFFFFFFFFFFFFFFFFFFFFFFFFFFFFFFFF AND PUSH20 0xFFFFFFFFFFFFFFFFFFFFFFFFFFFFFFFFFFFFFFFF AND PUSH4 0xCE0D44A5 DUP3 PUSH1 0x40 MLOAD DUP3 PUSH4 0xFFFFFFFF AND PUSH1 0xE0 SHL DUP2 MSTORE PUSH1 0x4 ADD PUSH2 0x1A46 SWAP2 SWAP1 PUSH2 0x46CC JUMP JUMPDEST PUSH1 0x0 PUSH1 0x40 MLOAD DUP1 DUP4 SUB DUP2 PUSH1 0x0 DUP8 DUP1 EXTCODESIZE ISZERO DUP1 ISZERO PUSH2 0x1A60 JUMPI PUSH1 0x0 DUP1 REVERT JUMPDEST POP GAS CALL ISZERO DUP1 ISZERO PUSH2 0x1A74 JUMPI RETURNDATASIZE PUSH1 0x0 DUP1 RETURNDATACOPY RETURNDATASIZE PUSH1 0x0 REVERT JUMPDEST POP POP POP POP POP JUMP JUMPDEST PUSH2 0x1A83 PUSH2 0x2C5C JUMP JUMPDEST DUP1 PUSH1 0x2 DUP2 SWAP1 SSTORE POP POP JUMP JUMPDEST PUSH1 0xF SLOAD DUP2 JUMP JUMPDEST PUSH2 0x1A9B PUSH2 0x2C5C JUMP JUMPDEST PUSH1 0x5 PUSH1 0x0 SWAP1 SLOAD SWAP1 PUSH2 0x100 EXP SWAP1 DIV PUSH20 0xFFFFFFFFFFFFFFFFFFFFFFFFFFFFFFFFFFFFFFFF AND PUSH20 0xFFFFFFFFFFFFFFFFFFFFFFFFFFFFFFFFFFFFFFFF AND PUSH4 0xA9059CBB PUSH1 0x3 PUSH1 0x0 SWAP1 SLOAD SWAP1 PUSH2 0x100 EXP SWAP1 DIV PUSH20 0xFFFFFFFFFFFFFFFFFFFFFFFFFFFFFFFFFFFFFFFF AND PUSH1 0x5 PUSH1 0x0 SWAP1 SLOAD SWAP1 PUSH2 0x100 EXP SWAP1 DIV PUSH20 0xFFFFFFFFFFFFFFFFFFFFFFFFFFFFFFFFFFFFFFFF AND PUSH20 0xFFFFFFFFFFFFFFFFFFFFFFFFFFFFFFFFFFFFFFFF AND PUSH4 0x70A08231 ADDRESS PUSH1 0x40 MLOAD DUP3 PUSH4 0xFFFFFFFF AND PUSH1 0xE0 SHL DUP2 MSTORE PUSH1 0x4 ADD PUSH2 0x1B57 SWAP2 SWAP1 PUSH2 0x41A1 JUMP JUMPDEST PUSH1 0x20 PUSH1 0x40 MLOAD DUP1 DUP4 SUB DUP2 DUP7 DUP1 EXTCODESIZE ISZERO DUP1 ISZERO PUSH2 0x1B6F JUMPI PUSH1 0x0 DUP1 REVERT JUMPDEST POP GAS STATICCALL ISZERO DUP1 ISZERO PUSH2 0x1B83 JUMPI RETURNDATASIZE PUSH1 0x0 DUP1 RETURNDATACOPY RETURNDATASIZE PUSH1 0x0 REVERT JUMPDEST POP POP POP POP PUSH1 0x40 MLOAD RETURNDATASIZE PUSH1 0x1F NOT PUSH1 0x1F DUP3 ADD AND DUP3 ADD DUP1 PUSH1 0x40 MSTORE POP DUP2 ADD SWAP1 PUSH2 0x1BA7 SWAP2 SWAP1 PUSH2 0x3B01 JUMP JUMPDEST PUSH1 0x40 MLOAD DUP4 PUSH4 0xFFFFFFFF AND PUSH1 0xE0 SHL DUP2 MSTORE PUSH1 0x4 ADD PUSH2 0x1BC4 SWAP3 SWAP2 SWAP1 PUSH2 0x41F3 JUMP JUMPDEST PUSH1 0x20 PUSH1 0x40 MLOAD DUP1 DUP4 SUB DUP2 PUSH1 0x0 DUP8 DUP1 EXTCODESIZE ISZERO DUP1 ISZERO PUSH2 0x1BDE JUMPI PUSH1 0x0 DUP1 REVERT JUMPDEST POP GAS CALL ISZERO DUP1 ISZERO PUSH2 0x1BF2 JUMPI RETURNDATASIZE PUSH1 0x0 DUP1 RETURNDATACOPY RETURNDATASIZE PUSH1 0x0 REVERT JUMPDEST POP POP POP POP PUSH1 0x40 MLOAD RETURNDATASIZE PUSH1 0x1F NOT PUSH1 0x1F DUP3 ADD AND DUP3 ADD DUP1 PUSH1 0x40 MSTORE POP DUP2 ADD SWAP1 PUSH2 0x1C16 SWAP2 SWAP1 PUSH2 0x3AA7 JUMP JUMPDEST POP JUMP JUMPDEST PUSH2 0x1C22 CALLER PUSH2 0x2CDA JUMP JUMPDEST ISZERO PUSH2 0x1C62 JUMPI PUSH1 0x40 MLOAD PUSH32 0x8C379A000000000000000000000000000000000000000000000000000000000 DUP2 MSTORE PUSH1 0x4 ADD PUSH2 0x1C59 SWAP1 PUSH2 0x43EC JUMP JUMPDEST PUSH1 0x40 MLOAD DUP1 SWAP2 SUB SWAP1 REVERT JUMPDEST ORIGIN PUSH20 0xFFFFFFFFFFFFFFFFFFFFFFFFFFFFFFFFFFFFFFFF AND CALLER PUSH20 0xFFFFFFFFFFFFFFFFFFFFFFFFFFFFFFFFFFFFFFFF AND EQ PUSH2 0x1CD0 JUMPI PUSH1 0x40 MLOAD PUSH32 0x8C379A000000000000000000000000000000000000000000000000000000000 DUP2 MSTORE PUSH1 0x4 ADD PUSH2 0x1CC7 SWAP1 PUSH2 0x452C JUMP JUMPDEST PUSH1 0x40 MLOAD DUP1 SWAP2 SUB SWAP1 REVERT JUMPDEST PUSH2 0x1CD8 PUSH2 0x2DB3 JUMP JUMPDEST PUSH1 0x3 DUP1 DUP2 GT ISZERO PUSH2 0x1CEB JUMPI PUSH2 0x1CEA PUSH2 0x4C33 JUMP JUMPDEST JUMPDEST PUSH1 0xE PUSH1 0x0 SWAP1 SLOAD SWAP1 PUSH2 0x100 EXP SWAP1 DIV PUSH1 0xFF AND PUSH1 0x3 DUP2 GT ISZERO PUSH2 0x1D0D JUMPI PUSH2 0x1D0C PUSH2 0x4C33 JUMP JUMPDEST JUMPDEST EQ PUSH2 0x1D4D JUMPI PUSH1 0x40 MLOAD PUSH32 0x8C379A000000000000000000000000000000000000000000000000000000000 DUP2 MSTORE PUSH1 0x4 ADD PUSH2 0x1D44 SWAP1 PUSH2 0x44AC JUMP JUMPDEST PUSH1 0x40 MLOAD DUP1 SWAP2 SUB SWAP1 REVERT JUMPDEST PUSH1 0x0 DUP3 DUP3 SWAP1 POP GT PUSH2 0x1D93 JUMPI PUSH1 0x40 MLOAD PUSH32 0x8C379A000000000000000000000000000000000000000000000000000000000 DUP2 MSTORE PUSH1 0x4 ADD PUSH2 0x1D8A SWAP1 PUSH2 0x45CC JUMP JUMPDEST PUSH1 0x40 MLOAD DUP1 SWAP2 SUB SWAP1 REVERT JUMPDEST PUSH1 0x11 SLOAD TIMESTAMP LT PUSH2 0x1DD7 JUMPI PUSH1 0x40 MLOAD PUSH32 0x8C379A000000000000000000000000000000000000000000000000000000000 DUP2 MSTORE PUSH1 0x4 ADD PUSH2 0x1DCE SWAP1 PUSH2 0x444C JUMP JUMPDEST PUSH1 0x40 MLOAD DUP1 SWAP2 SUB SWAP1 REVERT JUMPDEST PUSH1 0x0 DUP1 JUMPDEST DUP4 DUP4 SWAP1 POP DUP2 LT ISZERO PUSH2 0x1FEB JUMPI PUSH1 0x0 DUP5 DUP5 DUP4 DUP2 DUP2 LT PUSH2 0x1DFB JUMPI PUSH2 0x1DFA PUSH2 0x4C62 JUMP JUMPDEST JUMPDEST SWAP1 POP PUSH1 0x20 MUL ADD CALLDATALOAD SWAP1 POP PUSH1 0xB SLOAD DUP2 LT PUSH2 0x1E48 JUMPI PUSH1 0x40 MLOAD PUSH32 0x8C379A000000000000000000000000000000000000000000000000000000000 DUP2 MSTORE PUSH1 0x4 ADD PUSH2 0x1E3F SWAP1 PUSH2 0x436C JUMP JUMPDEST PUSH1 0x40 MLOAD DUP1 SWAP2 SUB SWAP1 REVERT JUMPDEST CALLER PUSH20 0xFFFFFFFFFFFFFFFFFFFFFFFFFFFFFFFFFFFFFFFF AND PUSH1 0xA PUSH1 0x0 DUP4 DUP2 MSTORE PUSH1 0x20 ADD SWAP1 DUP2 MSTORE PUSH1 0x20 ADD PUSH1 0x0 KECCAK256 PUSH1 0x1 ADD PUSH1 0x0 SWAP1 SLOAD SWAP1 PUSH2 0x100 EXP SWAP1 DIV PUSH20 0xFFFFFFFFFFFFFFFFFFFFFFFFFFFFFFFFFFFFFFFF AND PUSH20 0xFFFFFFFFFFFFFFFFFFFFFFFFFFFFFFFFFFFFFFFF AND EQ PUSH2 0x1EEC JUMPI PUSH1 0x40 MLOAD PUSH32 0x8C379A000000000000000000000000000000000000000000000000000000000 DUP2 MSTORE PUSH1 0x4 ADD PUSH2 0x1EE3 SWAP1 PUSH2 0x46AC JUMP JUMPDEST PUSH1 0x40 MLOAD DUP1 SWAP2 SUB SWAP1 REVERT JUMPDEST PUSH1 0x18 PUSH1 0xA PUSH1 0x0 DUP4 DUP2 MSTORE PUSH1 0x20 ADD SWAP1 DUP2 MSTORE PUSH1 0x20 ADD PUSH1 0x0 KECCAK256 PUSH1 0x0 ADD PUSH1 0x1C SWAP1 SLOAD SWAP1 PUSH2 0x100 EXP SWAP1 DIV PUSH4 0xFFFFFFFF AND PUSH4 0xFFFFFFFF AND PUSH1 0x6 DUP2 LT PUSH2 0x1F2C JUMPI PUSH2 0x1F2B PUSH2 0x4C62 JUMP JUMPDEST JUMPDEST ADD SLOAD DUP4 PUSH2 0x1F39 SWAP2 SWAP1 PUSH2 0x4858 JUMP JUMPDEST SWAP3 POP PUSH1 0xA PUSH1 0x0 DUP7 DUP7 DUP6 DUP2 DUP2 LT PUSH2 0x1F52 JUMPI PUSH2 0x1F51 PUSH2 0x4C62 JUMP JUMPDEST JUMPDEST SWAP1 POP PUSH1 0x20 MUL ADD CALLDATALOAD DUP2 MSTORE PUSH1 0x20 ADD SWAP1 DUP2 MSTORE PUSH1 0x20 ADD PUSH1 0x0 KECCAK256 PUSH1 0x0 DUP1 DUP3 ADD PUSH1 0x0 PUSH2 0x100 EXP DUP2 SLOAD SWAP1 PUSH28 0xFFFFFFFFFFFFFFFFFFFFFFFFFFFFFFFFFFFFFFFFFFFFFFFFFFFFFFFF MUL NOT AND SWAP1 SSTORE PUSH1 0x0 DUP3 ADD PUSH1 0x1C PUSH2 0x100 EXP DUP2 SLOAD SWAP1 PUSH4 0xFFFFFFFF MUL NOT AND SWAP1 SSTORE PUSH1 0x1 DUP3 ADD PUSH1 0x0 PUSH2 0x100 EXP DUP2 SLOAD SWAP1 PUSH20 0xFFFFFFFFFFFFFFFFFFFFFFFFFFFFFFFFFFFFFFFF MUL NOT AND SWAP1 SSTORE POP POP POP DUP1 DUP1 PUSH2 0x1FE3 SWAP1 PUSH2 0x4B2E JUMP JUMPDEST SWAP2 POP POP PUSH2 0x1DDB JUMP JUMPDEST POP PUSH1 0x0 DUP2 GT PUSH2 0x202F JUMPI PUSH1 0x40 MLOAD PUSH32 0x8C379A000000000000000000000000000000000000000000000000000000000 DUP2 MSTORE PUSH1 0x4 ADD PUSH2 0x2026 SWAP1 PUSH2 0x454C JUMP JUMPDEST PUSH1 0x40 MLOAD DUP1 SWAP2 SUB SWAP1 REVERT JUMPDEST PUSH2 0x207C CALLER DUP3 PUSH1 0x5 PUSH1 0x0 SWAP1 SLOAD SWAP1 PUSH2 0x100 EXP SWAP1 DIV PUSH20 0xFFFFFFFFFFFFFFFFFFFFFFFFFFFFFFFFFFFFFFFF AND PUSH20 0xFFFFFFFFFFFFFFFFFFFFFFFFFFFFFFFFFFFFFFFF AND PUSH2 0x2E03 SWAP1 SWAP3 SWAP2 SWAP1 PUSH4 0xFFFFFFFF AND JUMP JUMPDEST CALLER PUSH20 0xFFFFFFFFFFFFFFFFFFFFFFFFFFFFFFFFFFFFFFFF AND PUSH32 0xC471EF95EA81F4F24BB1A51BA0BD8904858507D29DFDBDE1882413B20FCC36EE DUP3 PUSH1 0x40 MLOAD PUSH2 0x20C2 SWAP2 SWAP1 PUSH2 0x46CC JUMP JUMPDEST PUSH1 0x40 MLOAD DUP1 SWAP2 SUB SWAP1 LOG2 POP PUSH2 0x20D3 PUSH2 0x2E89 JUMP JUMPDEST POP POP JUMP JUMPDEST PUSH1 0x0 PUSH1 0x1 PUSH1 0x0 SWAP1 SLOAD SWAP1 PUSH2 0x100 EXP SWAP1 DIV PUSH20 0xFFFFFFFFFFFFFFFFFFFFFFFFFFFFFFFFFFFFFFFF AND SWAP1 POP SWAP1 JUMP JUMPDEST PUSH1 0x12 DUP2 PUSH1 0x6 DUP2 LT PUSH2 0x2111 JUMPI PUSH1 0x0 DUP1 REVERT JUMPDEST ADD PUSH1 0x0 SWAP2 POP SWAP1 POP SLOAD DUP2 JUMP JUMPDEST PUSH1 0x9 SLOAD DUP2 JUMP JUMPDEST PUSH1 0x7 SLOAD DUP2 JUMP JUMPDEST PUSH1 0x3 PUSH1 0x0 SWAP1 SLOAD SWAP1 PUSH2 0x100 EXP SWAP1 DIV PUSH20 0xFFFFFFFFFFFFFFFFFFFFFFFFFFFFFFFFFFFFFFFF AND DUP2 JUMP JUMPDEST PUSH1 0x0 DUP1 PUSH1 0x42 PUSH8 0xFFFFFFFFFFFFFFFF DUP2 GT ISZERO PUSH2 0x216C JUMPI PUSH2 0x216B PUSH2 0x4C91 JUMP JUMPDEST JUMPDEST PUSH1 0x40 MLOAD SWAP1 DUP1 DUP3 MSTORE DUP1 PUSH1 0x20 MUL PUSH1 0x20 ADD DUP3 ADD PUSH1 0x40 MSTORE DUP1 ISZERO PUSH2 0x219A JUMPI DUP2 PUSH1 0x20 ADD PUSH1 0x20 DUP3 MUL DUP1 CALLDATASIZE DUP4 CALLDATACOPY DUP1 DUP3 ADD SWAP2 POP POP SWAP1 POP JUMPDEST POP SWAP1 POP PUSH1 0x0 DUP1 JUMPDEST PUSH1 0x6 DUP2 LT ISZERO PUSH2 0x226D JUMPI PUSH1 0x42 DUP2 PUSH1 0x42 PUSH2 0x21B9 SWAP2 SWAP1 PUSH2 0x4973 JUMP JUMPDEST DUP7 PUSH2 0x21C4 SWAP2 SWAP1 PUSH2 0x4BA4 JUMP JUMPDEST DUP4 PUSH2 0x21CF SWAP2 SWAP1 PUSH2 0x4858 JUMP JUMPDEST PUSH2 0x21D9 SWAP2 SWAP1 PUSH2 0x4BA4 JUMP JUMPDEST SWAP2 POP PUSH2 0x100 DUP6 PUSH2 0x21E9 SWAP2 SWAP1 PUSH2 0x48E8 JUMP JUMPDEST SWAP5 POP JUMPDEST PUSH1 0x0 DUP4 DUP4 DUP2 MLOAD DUP2 LT PUSH2 0x2201 JUMPI PUSH2 0x2200 PUSH2 0x4C62 JUMP JUMPDEST JUMPDEST PUSH1 0x20 MUL PUSH1 0x20 ADD ADD MLOAD PUSH1 0xFF AND EQ PUSH2 0x2231 JUMPI DUP2 DUP1 PUSH2 0x221C SWAP1 PUSH2 0x4B2E JUMP JUMPDEST SWAP3 POP POP PUSH1 0x42 DUP3 LT PUSH2 0x222C JUMPI PUSH1 0x0 SWAP2 POP JUMPDEST PUSH2 0x21EC JUMP JUMPDEST PUSH1 0x1 DUP4 DUP4 DUP2 MLOAD DUP2 LT PUSH2 0x2246 JUMPI PUSH2 0x2245 PUSH2 0x4C62 JUMP JUMPDEST JUMPDEST PUSH1 0x20 MUL PUSH1 0x20 ADD ADD SWAP1 PUSH1 0xFF AND SWAP1 DUP2 PUSH1 0xFF AND DUP2 MSTORE POP POP DUP1 DUP1 PUSH2 0x2265 SWAP1 PUSH2 0x4B2E JUMP JUMPDEST SWAP2 POP POP PUSH2 0x21A1 JUMP JUMPDEST POP PUSH1 0x0 SWAP1 POP PUSH1 0x0 PUSH1 0x42 SWAP1 POP PUSH1 0x0 JUMPDEST PUSH1 0x6 DUP2 LT ISZERO PUSH2 0x22FE JUMPI PUSH1 0x1 DUP5 PUSH1 0x1 DUP5 PUSH2 0x2294 SWAP2 SWAP1 PUSH2 0x4973 JUMP JUMPDEST DUP2 MLOAD DUP2 LT PUSH2 0x22A5 JUMPI PUSH2 0x22A4 PUSH2 0x4C62 JUMP JUMPDEST JUMPDEST PUSH1 0x20 MUL PUSH1 0x20 ADD ADD MLOAD PUSH1 0xFF AND EQ ISZERO PUSH2 0x22EB JUMPI PUSH1 0x1 DUP3 PUSH1 0x42 DUP6 PUSH2 0x22C6 SWAP2 SWAP1 PUSH2 0x4919 JUMP JUMPDEST PUSH2 0x22D0 SWAP2 SWAP1 PUSH2 0x4858 JUMP JUMPDEST PUSH2 0x22DA SWAP2 SWAP1 PUSH2 0x4973 JUMP JUMPDEST SWAP3 POP DUP1 DUP1 PUSH2 0x22E7 SWAP1 PUSH2 0x4B2E JUMP JUMPDEST SWAP2 POP POP JUMPDEST DUP2 DUP1 PUSH2 0x22F6 SWAP1 PUSH2 0x4AD3 JUMP JUMPDEST SWAP3 POP POP PUSH2 0x227B JUMP JUMPDEST POP DUP2 SWAP4 POP POP POP POP SWAP2 SWAP1 POP JUMP JUMPDEST PUSH1 0x2 SLOAD DUP2 JUMP JUMPDEST PUSH2 0x2318 PUSH2 0x2C5C JUMP JUMPDEST DUP1 PUSH1 0x10 DUP2 SWAP1 SSTORE POP POP JUMP JUMPDEST PUSH2 0x232B CALLER PUSH2 0x2CDA JUMP JUMPDEST ISZERO PUSH2 0x236B JUMPI PUSH1 0x40 MLOAD PUSH32 0x8C379A000000000000000000000000000000000000000000000000000000000 DUP2 MSTORE PUSH1 0x4 ADD PUSH2 0x2362 SWAP1 PUSH2 0x43EC JUMP JUMPDEST PUSH1 0x40 MLOAD DUP1 SWAP2 SUB SWAP1 REVERT JUMPDEST ORIGIN PUSH20 0xFFFFFFFFFFFFFFFFFFFFFFFFFFFFFFFFFFFFFFFF AND CALLER PUSH20 0xFFFFFFFFFFFFFFFFFFFFFFFFFFFFFFFFFFFFFFFF AND EQ PUSH2 0x23D9 JUMPI PUSH1 0x40 MLOAD PUSH32 0x8C379A000000000000000000000000000000000000000000000000000000000 DUP2 MSTORE PUSH1 0x4 ADD PUSH2 0x23D0 SWAP1 PUSH2 0x452C JUMP JUMPDEST PUSH1 0x40 MLOAD DUP1 SWAP2 SUB SWAP1 REVERT JUMPDEST PUSH2 0x23E1 PUSH2 0x2DB3 JUMP JUMPDEST PUSH1 0x1 PUSH1 0x3 DUP2 GT ISZERO PUSH2 0x23F5 JUMPI PUSH2 0x23F4 PUSH2 0x4C33 JUMP JUMPDEST JUMPDEST PUSH1 0xE PUSH1 0x0 SWAP1 SLOAD SWAP1 PUSH2 0x100 EXP SWAP1 DIV PUSH1 0xFF AND PUSH1 0x3 DUP2 GT ISZERO PUSH2 0x2417 JUMPI PUSH2 0x2416 PUSH2 0x4C33 JUMP JUMPDEST JUMPDEST EQ PUSH2 0x2457 JUMPI PUSH1 0x40 MLOAD PUSH32 0x8C379A000000000000000000000000000000000000000000000000000000000 DUP2 MSTORE PUSH1 0x4 ADD PUSH2 0x244E SWAP1 PUSH2 0x45AC JUMP JUMPDEST PUSH1 0x40 MLOAD DUP1 SWAP2 SUB SWAP1 REVERT JUMPDEST PUSH1 0x10 SLOAD TIMESTAMP LT PUSH2 0x249B JUMPI PUSH1 0x40 MLOAD PUSH32 0x8C379A000000000000000000000000000000000000000000000000000000000 DUP2 MSTORE PUSH1 0x4 ADD PUSH2 0x2492 SWAP1 PUSH2 0x458C JUMP JUMPDEST PUSH1 0x40 MLOAD DUP1 SWAP2 SUB SWAP1 REVERT JUMPDEST PUSH1 0x0 DUP3 DUP3 SWAP1 POP GT PUSH2 0x24E1 JUMPI PUSH1 0x40 MLOAD PUSH32 0x8C379A000000000000000000000000000000000000000000000000000000000 DUP2 MSTORE PUSH1 0x4 ADD PUSH2 0x24D8 SWAP1 PUSH2 0x450C JUMP JUMPDEST PUSH1 0x40 MLOAD DUP1 SWAP2 SUB SWAP1 REVERT JUMPDEST PUSH1 0x0 PUSH1 0x4 SLOAD DUP4 DUP4 SWAP1 POP PUSH2 0x24F4 SWAP2 SWAP1 PUSH2 0x4919 JUMP JUMPDEST SWAP1 POP DUP1 PUSH1 0x5 PUSH1 0x0 SWAP1 SLOAD SWAP1 PUSH2 0x100 EXP SWAP1 DIV PUSH20 0xFFFFFFFFFFFFFFFFFFFFFFFFFFFFFFFFFFFFFFFF AND PUSH20 0xFFFFFFFFFFFFFFFFFFFFFFFFFFFFFFFFFFFFFFFF AND PUSH4 0x70A08231 CALLER PUSH1 0x40 MLOAD DUP3 PUSH4 0xFFFFFFFF AND PUSH1 0xE0 SHL DUP2 MSTORE PUSH1 0x4 ADD PUSH2 0x2552 SWAP2 SWAP1 PUSH2 0x41A1 JUMP JUMPDEST PUSH1 0x20 PUSH1 0x40 MLOAD DUP1 DUP4 SUB DUP2 DUP7 DUP1 EXTCODESIZE ISZERO DUP1 ISZERO PUSH2 0x256A JUMPI PUSH1 0x0 DUP1 REVERT JUMPDEST POP GAS STATICCALL ISZERO DUP1 ISZERO PUSH2 0x257E JUMPI RETURNDATASIZE PUSH1 0x0 DUP1 RETURNDATACOPY RETURNDATASIZE PUSH1 0x0 REVERT JUMPDEST POP POP POP POP PUSH1 0x40 MLOAD RETURNDATASIZE PUSH1 0x1F NOT PUSH1 0x1F DUP3 ADD AND DUP3 ADD DUP1 PUSH1 0x40 MSTORE POP DUP2 ADD SWAP1 PUSH2 0x25A2 SWAP2 SWAP1 PUSH2 0x3B01 JUMP JUMPDEST LT ISZERO PUSH2 0x25E3 JUMPI PUSH1 0x40 MLOAD PUSH32 0x8C379A000000000000000000000000000000000000000000000000000000000 DUP2 MSTORE PUSH1 0x4 ADD PUSH2 0x25DA SWAP1 PUSH2 0x44EC JUMP JUMPDEST PUSH1 0x40 MLOAD DUP1 SWAP2 SUB SWAP1 REVERT JUMPDEST PUSH2 0x2632 CALLER ADDRESS DUP4 PUSH1 0x5 PUSH1 0x0 SWAP1 SLOAD SWAP1 PUSH2 0x100 EXP SWAP1 DIV PUSH20 0xFFFFFFFFFFFFFFFFFFFFFFFFFFFFFFFFFFFFFFFF AND PUSH20 0xFFFFFFFFFFFFFFFFFFFFFFFFFFFFFFFFFFFFFFFF AND PUSH2 0x2E93 SWAP1 SWAP4 SWAP3 SWAP2 SWAP1 PUSH4 0xFFFFFFFF AND JUMP JUMPDEST PUSH1 0x0 JUMPDEST DUP4 DUP4 SWAP1 POP DUP2 LT ISZERO PUSH2 0x27B3 JUMPI PUSH1 0x40 MLOAD DUP1 PUSH1 0x60 ADD PUSH1 0x40 MSTORE DUP1 DUP6 DUP6 DUP5 DUP2 DUP2 LT PUSH2 0x265E JUMPI PUSH2 0x265D PUSH2 0x4C62 JUMP JUMPDEST JUMPDEST SWAP1 POP PUSH1 0x20 MUL ADD CALLDATALOAD PUSH28 0xFFFFFFFFFFFFFFFFFFFFFFFFFFFFFFFFFFFFFFFFFFFFFFFFFFFFFFFF AND DUP2 MSTORE PUSH1 0x20 ADD PUSH1 0x0 PUSH4 0xFFFFFFFF AND DUP2 MSTORE PUSH1 0x20 ADD CALLER PUSH20 0xFFFFFFFFFFFFFFFFFFFFFFFFFFFFFFFFFFFFFFFF AND DUP2 MSTORE POP PUSH1 0xA PUSH1 0x0 PUSH1 0xB PUSH1 0x0 DUP2 SLOAD DUP1 SWAP3 SWAP2 SWAP1 PUSH2 0x26C6 SWAP1 PUSH2 0x4B2E JUMP JUMPDEST SWAP2 SWAP1 POP SSTORE DUP2 MSTORE PUSH1 0x20 ADD SWAP1 DUP2 MSTORE PUSH1 0x20 ADD PUSH1 0x0 KECCAK256 PUSH1 0x0 DUP3 ADD MLOAD DUP2 PUSH1 0x0 ADD PUSH1 0x0 PUSH2 0x100 EXP DUP2 SLOAD DUP2 PUSH28 0xFFFFFFFFFFFFFFFFFFFFFFFFFFFFFFFFFFFFFFFFFFFFFFFFFFFFFFFF MUL NOT AND SWAP1 DUP4 PUSH28 0xFFFFFFFFFFFFFFFFFFFFFFFFFFFFFFFFFFFFFFFFFFFFFFFFFFFFFFFF AND MUL OR SWAP1 SSTORE POP PUSH1 0x20 DUP3 ADD MLOAD DUP2 PUSH1 0x0 ADD PUSH1 0x1C PUSH2 0x100 EXP DUP2 SLOAD DUP2 PUSH4 0xFFFFFFFF MUL NOT AND SWAP1 DUP4 PUSH4 0xFFFFFFFF AND MUL OR SWAP1 SSTORE POP PUSH1 0x40 DUP3 ADD MLOAD DUP2 PUSH1 0x1 ADD PUSH1 0x0 PUSH2 0x100 EXP DUP2 SLOAD DUP2 PUSH20 0xFFFFFFFFFFFFFFFFFFFFFFFFFFFFFFFFFFFFFFFF MUL NOT AND SWAP1 DUP4 PUSH20 0xFFFFFFFFFFFFFFFFFFFFFFFFFFFFFFFFFFFFFFFF AND MUL OR SWAP1 SSTORE POP SWAP1 POP POP DUP1 DUP1 PUSH2 0x27AB SWAP1 PUSH2 0x4B2E JUMP JUMPDEST SWAP2 POP POP PUSH2 0x2635 JUMP JUMPDEST POP CALLER PUSH20 0xFFFFFFFFFFFFFFFFFFFFFFFFFFFFFFFFFFFFFFFF AND PUSH32 0xE23B461EEED3050B94C37E728BD38158DBCD40BB83994F44BFB639678C6A1029 DUP5 DUP5 SWAP1 POP PUSH1 0x40 MLOAD PUSH2 0x27FD SWAP2 SWAP1 PUSH2 0x46CC JUMP JUMPDEST PUSH1 0x40 MLOAD DUP1 SWAP2 SUB SWAP1 LOG2 POP PUSH2 0x280E PUSH2 0x2E89 JUMP JUMPDEST POP POP JUMP JUMPDEST PUSH2 0x281B CALLER PUSH2 0x2CDA JUMP JUMPDEST ISZERO PUSH2 0x285B JUMPI PUSH1 0x40 MLOAD PUSH32 0x8C379A000000000000000000000000000000000000000000000000000000000 DUP2 MSTORE PUSH1 0x4 ADD PUSH2 0x2852 SWAP1 PUSH2 0x43EC JUMP JUMPDEST PUSH1 0x40 MLOAD DUP1 SWAP2 SUB SWAP1 REVERT JUMPDEST ORIGIN PUSH20 0xFFFFFFFFFFFFFFFFFFFFFFFFFFFFFFFFFFFFFFFF AND CALLER PUSH20 0xFFFFFFFFFFFFFFFFFFFFFFFFFFFFFFFFFFFFFFFF AND EQ PUSH2 0x28C9 JUMPI PUSH1 0x40 MLOAD PUSH32 0x8C379A000000000000000000000000000000000000000000000000000000000 DUP2 MSTORE PUSH1 0x4 ADD PUSH2 0x28C0 SWAP1 PUSH2 0x452C JUMP JUMPDEST PUSH1 0x40 MLOAD DUP1 SWAP2 SUB SWAP1 REVERT JUMPDEST PUSH2 0x28D1 PUSH2 0x2C5C JUMP JUMPDEST PUSH1 0x2 PUSH1 0x3 DUP2 GT ISZERO PUSH2 0x28E5 JUMPI PUSH2 0x28E4 PUSH2 0x4C33 JUMP JUMPDEST JUMPDEST PUSH1 0xE PUSH1 0x0 SWAP1 SLOAD SWAP1 PUSH2 0x100 EXP SWAP1 DIV PUSH1 0xFF AND PUSH1 0x3 DUP2 GT ISZERO PUSH2 0x2907 JUMPI PUSH2 0x2906 PUSH2 0x4C33 JUMP JUMPDEST JUMPDEST EQ PUSH2 0x2947 JUMPI PUSH1 0x40 MLOAD PUSH32 0x8C379A000000000000000000000000000000000000000000000000000000000 DUP2 MSTORE PUSH1 0x4 ADD PUSH2 0x293E SWAP1 PUSH2 0x468C JUMP JUMPDEST PUSH1 0x40 MLOAD DUP1 SWAP2 SUB SWAP1 REVERT JUMPDEST TIMESTAMP PUSH1 0x11 SLOAD GT PUSH2 0x298B JUMPI PUSH1 0x40 MLOAD PUSH32 0x8C379A000000000000000000000000000000000000000000000000000000000 DUP2 MSTORE PUSH1 0x4 ADD PUSH2 0x2982 SWAP1 PUSH2 0x43CC JUMP JUMPDEST PUSH1 0x40 MLOAD DUP1 SWAP2 SUB SWAP1 REVERT JUMPDEST PUSH1 0x8 SLOAD NUMBER EQ ISZERO PUSH2 0x29D0 JUMPI PUSH1 0x40 MLOAD PUSH32 0x8C379A000000000000000000000000000000000000000000000000000000000 DUP2 MSTORE PUSH1 0x4 ADD PUSH2 0x29C7 SWAP1 PUSH2 0x44CC JUMP JUMPDEST PUSH1 0x40 MLOAD DUP1 SWAP2 SUB SWAP1 REVERT JUMPDEST PUSH1 0x3 PUSH1 0xE PUSH1 0x0 PUSH2 0x100 EXP DUP2 SLOAD DUP2 PUSH1 0xFF MUL NOT AND SWAP1 DUP4 PUSH1 0x3 DUP2 GT ISZERO PUSH2 0x29F6 JUMPI PUSH2 0x29F5 PUSH2 0x4C33 JUMP JUMPDEST JUMPDEST MUL OR SWAP1 SSTORE POP PUSH1 0x0 PUSH1 0x6 PUSH1 0x0 SWAP1 SLOAD SWAP1 PUSH2 0x100 EXP SWAP1 DIV PUSH20 0xFFFFFFFFFFFFFFFFFFFFFFFFFFFFFFFFFFFFFFFF AND PUSH20 0xFFFFFFFFFFFFFFFFFFFFFFFFFFFFFFFFFFFFFFFF AND PUSH4 0x89C16E08 DUP4 PUSH1 0x40 MLOAD DUP3 PUSH4 0xFFFFFFFF AND PUSH1 0xE0 SHL DUP2 MSTORE PUSH1 0x4 ADD PUSH2 0x2A58 SWAP2 SWAP1 PUSH2 0x46CC JUMP JUMPDEST PUSH1 0x20 PUSH1 0x40 MLOAD DUP1 DUP4 SUB DUP2 PUSH1 0x0 DUP8 DUP1 EXTCODESIZE ISZERO DUP1 ISZERO PUSH2 0x2A72 JUMPI PUSH1 0x0 DUP1 REVERT JUMPDEST POP GAS CALL ISZERO DUP1 ISZERO PUSH2 0x2A86 JUMPI RETURNDATASIZE PUSH1 0x0 DUP1 RETURNDATACOPY RETURNDATASIZE PUSH1 0x0 REVERT JUMPDEST POP POP POP POP PUSH1 0x40 MLOAD RETURNDATASIZE PUSH1 0x1F NOT PUSH1 0x1F DUP3 ADD AND DUP3 ADD DUP1 PUSH1 0x40 MSTORE POP DUP2 ADD SWAP1 PUSH2 0x2AAA SWAP2 SWAP1 PUSH2 0x3B01 JUMP JUMPDEST SWAP1 POP PUSH2 0x2AB5 DUP2 PUSH2 0x214E JUMP JUMPDEST PUSH1 0x1E DUP2 SWAP1 SSTORE POP PUSH2 0x2AC3 PUSH2 0x2F1C JUMP JUMPDEST POP POP JUMP JUMPDEST PUSH1 0x1E SLOAD DUP2 JUMP JUMPDEST PUSH1 0x6 PUSH1 0x0 SWAP1 SLOAD SWAP1 PUSH2 0x100 EXP SWAP1 DIV PUSH20 0xFFFFFFFFFFFFFFFFFFFFFFFFFFFFFFFFFFFFFFFF AND DUP2 JUMP JUMPDEST PUSH2 0x2AFB PUSH2 0x2C5C JUMP JUMPDEST DUP1 PUSH1 0x11 DUP2 SWAP1 SSTORE POP POP JUMP JUMPDEST PUSH1 0x8 SLOAD DUP2 JUMP JUMPDEST PUSH2 0x2B13 PUSH2 0x2C5C JUMP JUMPDEST DUP1 PUSH1 0x3 PUSH1 0x0 PUSH2 0x100 EXP DUP2 SLOAD DUP2 PUSH20 0xFFFFFFFFFFFFFFFFFFFFFFFFFFFFFFFFFFFFFFFF MUL NOT AND SWAP1 DUP4 PUSH20 0xFFFFFFFFFFFFFFFFFFFFFFFFFFFFFFFFFFFFFFFF AND MUL OR SWAP1 SSTORE POP DUP1 PUSH20 0xFFFFFFFFFFFFFFFFFFFFFFFFFFFFFFFFFFFFFFFF AND PUSH32 0x8B4531436AF204A864ADC47C345E10CB5C4DF79165AA0CB85FC45AC5B551517B PUSH1 0x40 MLOAD PUSH1 0x40 MLOAD DUP1 SWAP2 SUB SWAP1 LOG2 POP JUMP JUMPDEST PUSH2 0x2BA2 PUSH2 0x2C5C JUMP JUMPDEST PUSH1 0x0 PUSH20 0xFFFFFFFFFFFFFFFFFFFFFFFFFFFFFFFFFFFFFFFF AND DUP2 PUSH20 0xFFFFFFFFFFFFFFFFFFFFFFFFFFFFFFFFFFFFFFFF AND EQ ISZERO PUSH2 0x2C12 JUMPI PUSH1 0x40 MLOAD PUSH32 0x8C379A000000000000000000000000000000000000000000000000000000000 DUP2 MSTORE PUSH1 0x4 ADD PUSH2 0x2C09 SWAP1 PUSH2 0x43AC JUMP JUMPDEST PUSH1 0x40 MLOAD DUP1 SWAP2 SUB SWAP1 REVERT JUMPDEST PUSH2 0x2C1B DUP2 PUSH2 0x2CED JUMP JUMPDEST POP JUMP JUMPDEST PUSH1 0x5 PUSH1 0x0 SWAP1 SLOAD SWAP1 PUSH2 0x100 EXP SWAP1 DIV PUSH20 0xFFFFFFFFFFFFFFFFFFFFFFFFFFFFFFFFFFFFFFFF AND DUP2 JUMP JUMPDEST PUSH1 0x0 PUSH2 0x2C57 PUSH2 0x2C52 CALLER PUSH2 0xE18 JUMP JUMPDEST PUSH2 0xFF9 JUMP JUMPDEST SWAP1 POP SWAP1 JUMP JUMPDEST PUSH2 0x2C64 PUSH2 0x34C0 JUMP JUMPDEST PUSH20 0xFFFFFFFFFFFFFFFFFFFFFFFFFFFFFFFFFFFFFFFF AND PUSH2 0x2C82 PUSH2 0x20D7 JUMP JUMPDEST PUSH20 0xFFFFFFFFFFFFFFFFFFFFFFFFFFFFFFFFFFFFFFFF AND EQ PUSH2 0x2CD8 JUMPI PUSH1 0x40 MLOAD PUSH32 0x8C379A000000000000000000000000000000000000000000000000000000000 DUP2 MSTORE PUSH1 0x4 ADD PUSH2 0x2CCF SWAP1 PUSH2 0x456C JUMP JUMPDEST PUSH1 0x40 MLOAD DUP1 SWAP2 SUB SWAP1 REVERT JUMPDEST JUMP JUMPDEST PUSH1 0x0 DUP1 DUP3 EXTCODESIZE SWAP1 POP PUSH1 0x0 DUP2 GT SWAP2 POP POP SWAP2 SWAP1 POP JUMP JUMPDEST PUSH1 0x0 PUSH1 0x1 PUSH1 0x0 SWAP1 SLOAD SWAP1 PUSH2 0x100 EXP SWAP1 DIV PUSH20 0xFFFFFFFFFFFFFFFFFFFFFFFFFFFFFFFFFFFFFFFF AND SWAP1 POP DUP2 PUSH1 0x1 PUSH1 0x0 PUSH2 0x100 EXP DUP2 SLOAD DUP2 PUSH20 0xFFFFFFFFFFFFFFFFFFFFFFFFFFFFFFFFFFFFFFFF MUL NOT AND SWAP1 DUP4 PUSH20 0xFFFFFFFFFFFFFFFFFFFFFFFFFFFFFFFFFFFFFFFF AND MUL OR SWAP1 SSTORE POP DUP2 PUSH20 0xFFFFFFFFFFFFFFFFFFFFFFFFFFFFFFFFFFFFFFFF AND DUP2 PUSH20 0xFFFFFFFFFFFFFFFFFFFFFFFFFFFFFFFFFFFFFFFF AND PUSH32 0x8BE0079C531659141344CD1FD0A4F28419497F9722A3DAAFE3B4186F6B6457E0 PUSH1 0x40 MLOAD PUSH1 0x40 MLOAD DUP1 SWAP2 SUB SWAP1 LOG3 POP POP JUMP JUMPDEST PUSH1 0x2 PUSH1 0x0 SLOAD EQ ISZERO PUSH2 0x2DF9 JUMPI PUSH1 0x40 MLOAD PUSH32 0x8C379A000000000000000000000000000000000000000000000000000000000 DUP2 MSTORE PUSH1 0x4 ADD PUSH2 0x2DF0 SWAP1 PUSH2 0x466C JUMP JUMPDEST PUSH1 0x40 MLOAD DUP1 SWAP2 SUB SWAP1 REVERT JUMPDEST PUSH1 0x2 PUSH1 0x0 DUP2 SWAP1 SSTORE POP JUMP JUMPDEST PUSH2 0x2E84 DUP4 PUSH4 0xA9059CBB PUSH1 0xE0 SHL DUP5 DUP5 PUSH1 0x40 MLOAD PUSH1 0x24 ADD PUSH2 0x2E22 SWAP3 SWAP2 SWAP1 PUSH2 0x41F3 JUMP JUMPDEST PUSH1 0x40 MLOAD PUSH1 0x20 DUP2 DUP4 SUB SUB DUP2 MSTORE SWAP1 PUSH1 0x40 MSTORE SWAP1 PUSH28 0xFFFFFFFFFFFFFFFFFFFFFFFFFFFFFFFFFFFFFFFFFFFFFFFFFFFFFFFF NOT AND PUSH1 0x20 DUP3 ADD DUP1 MLOAD PUSH28 0xFFFFFFFFFFFFFFFFFFFFFFFFFFFFFFFFFFFFFFFFFFFFFFFFFFFFFFFF DUP4 DUP2 DUP4 AND OR DUP4 MSTORE POP POP POP POP PUSH2 0x34C8 JUMP JUMPDEST POP POP POP JUMP JUMPDEST PUSH1 0x1 PUSH1 0x0 DUP2 SWAP1 SSTORE POP JUMP JUMPDEST PUSH2 0x2F16 DUP5 PUSH4 0x23B872DD PUSH1 0xE0 SHL DUP6 DUP6 DUP6 PUSH1 0x40 MLOAD PUSH1 0x24 ADD PUSH2 0x2EB4 SWAP4 SWAP3 SWAP2 SWAP1 PUSH2 0x41BC JUMP JUMPDEST PUSH1 0x40 MLOAD PUSH1 0x20 DUP2 DUP4 SUB SUB DUP2 MSTORE SWAP1 PUSH1 0x40 MSTORE SWAP1 PUSH28 0xFFFFFFFFFFFFFFFFFFFFFFFFFFFFFFFFFFFFFFFFFFFFFFFFFFFFFFFF NOT AND PUSH1 0x20 DUP3 ADD DUP1 MLOAD PUSH28 0xFFFFFFFFFFFFFFFFFFFFFFFFFFFFFFFFFFFFFFFFFFFFFFFFFFFFFFFF DUP4 DUP2 DUP4 AND OR DUP4 MSTORE POP POP POP POP PUSH2 0x34C8 JUMP JUMPDEST POP POP POP POP JUMP JUMPDEST PUSH1 0x0 PUSH1 0x6 PUSH8 0xFFFFFFFFFFFFFFFF DUP2 GT ISZERO PUSH2 0x2F39 JUMPI PUSH2 0x2F38 PUSH2 0x4C91 JUMP JUMPDEST JUMPDEST PUSH1 0x40 MLOAD SWAP1 DUP1 DUP3 MSTORE DUP1 PUSH1 0x20 MUL PUSH1 0x20 ADD DUP3 ADD PUSH1 0x40 MSTORE DUP1 ISZERO PUSH2 0x2F67 JUMPI DUP2 PUSH1 0x20 ADD PUSH1 0x20 DUP3 MUL DUP1 CALLDATASIZE DUP4 CALLDATACOPY DUP1 DUP3 ADD SWAP2 POP POP SWAP1 POP JUMPDEST POP SWAP1 POP PUSH1 0x0 JUMPDEST PUSH1 0xB SLOAD DUP2 LT ISZERO PUSH2 0x316E JUMPI PUSH1 0x0 PUSH1 0xA PUSH1 0x0 DUP4 DUP2 MSTORE PUSH1 0x20 ADD SWAP1 DUP2 MSTORE PUSH1 0x20 ADD PUSH1 0x0 KECCAK256 SWAP1 POP PUSH1 0x0 PUSH1 0x1E SLOAD SWAP1 POP PUSH1 0x0 DUP3 PUSH1 0x0 ADD PUSH1 0x0 SWAP1 SLOAD SWAP1 PUSH2 0x100 EXP SWAP1 DIV PUSH28 0xFFFFFFFFFFFFFFFFFFFFFFFFFFFFFFFFFFFFFFFFFFFFFFFFFFFFFFFF AND PUSH28 0xFFFFFFFFFFFFFFFFFFFFFFFFFFFFFFFFFFFFFFFFFFFFFFFFFFFFFFFF AND SWAP1 POP PUSH1 0x0 DUP1 JUMPDEST PUSH1 0x6 DUP2 LT ISZERO PUSH2 0x3051 JUMPI PUSH1 0x42 DUP4 PUSH2 0x2FFE SWAP2 SWAP1 PUSH2 0x4BA4 JUMP JUMPDEST PUSH1 0x42 DUP6 PUSH2 0x300B SWAP2 SWAP1 PUSH2 0x4BA4 JUMP JUMPDEST EQ ISZERO PUSH2 0x3020 JUMPI DUP2 DUP1 PUSH2 0x301C SWAP1 PUSH2 0x4B77 JUMP JUMPDEST SWAP3 POP POP JUMPDEST PUSH1 0x42 DUP5 PUSH2 0x302D SWAP2 SWAP1 PUSH2 0x48E8 JUMP JUMPDEST SWAP4 POP PUSH1 0x42 DUP4 PUSH2 0x303C SWAP2 SWAP1 PUSH2 0x48E8 JUMP JUMPDEST SWAP3 POP DUP1 DUP1 PUSH2 0x3049 SWAP1 PUSH2 0x4B2E JUMP JUMPDEST SWAP2 POP POP PUSH2 0x2FE8 JUMP JUMPDEST POP PUSH1 0x0 DUP2 PUSH4 0xFFFFFFFF AND GT ISZERO PUSH2 0x30D3 JUMPI PUSH1 0x1 DUP2 PUSH2 0x306E SWAP2 SWAP1 PUSH2 0x49A7 JUMP JUMPDEST DUP5 PUSH1 0x0 ADD PUSH1 0x1C PUSH2 0x100 EXP DUP2 SLOAD DUP2 PUSH4 0xFFFFFFFF MUL NOT AND SWAP1 DUP4 PUSH4 0xFFFFFFFF AND MUL OR SWAP1 SSTORE POP DUP6 PUSH1 0x1 DUP3 PUSH2 0x309E SWAP2 SWAP1 PUSH2 0x49A7 JUMP JUMPDEST PUSH4 0xFFFFFFFF AND DUP2 MLOAD DUP2 LT PUSH2 0x30B5 JUMPI PUSH2 0x30B4 PUSH2 0x4C62 JUMP JUMPDEST JUMPDEST PUSH1 0x20 MUL PUSH1 0x20 ADD ADD DUP1 MLOAD DUP1 SWAP2 SWAP1 PUSH2 0x30CA SWAP1 PUSH2 0x4B2E JUMP JUMPDEST DUP2 MSTORE POP POP PUSH2 0x3157 JUMP JUMPDEST PUSH1 0xA PUSH1 0x0 DUP7 DUP2 MSTORE PUSH1 0x20 ADD SWAP1 DUP2 MSTORE PUSH1 0x20 ADD PUSH1 0x0 KECCAK256 PUSH1 0x0 DUP1 DUP3 ADD PUSH1 0x0 PUSH2 0x100 EXP DUP2 SLOAD SWAP1 PUSH28 0xFFFFFFFFFFFFFFFFFFFFFFFFFFFFFFFFFFFFFFFFFFFFFFFFFFFFFFFF MUL NOT AND SWAP1 SSTORE PUSH1 0x0 DUP3 ADD PUSH1 0x1C PUSH2 0x100 EXP DUP2 SLOAD SWAP1 PUSH4 0xFFFFFFFF MUL NOT AND SWAP1 SSTORE PUSH1 0x1 DUP3 ADD PUSH1 0x0 PUSH2 0x100 EXP DUP2 SLOAD SWAP1 PUSH20 0xFFFFFFFFFFFFFFFFFFFFFFFFFFFFFFFFFFFFFFFF MUL NOT AND SWAP1 SSTORE POP POP JUMPDEST POP POP POP POP DUP1 DUP1 PUSH2 0x3166 SWAP1 PUSH2 0x4B2E JUMP JUMPDEST SWAP2 POP POP PUSH2 0x2F6D JUMP JUMPDEST POP PUSH1 0x0 PUSH1 0x9 SLOAD PUSH1 0x5 PUSH1 0x0 SWAP1 SLOAD SWAP1 PUSH2 0x100 EXP SWAP1 DIV PUSH20 0xFFFFFFFFFFFFFFFFFFFFFFFFFFFFFFFFFFFFFFFF AND PUSH20 0xFFFFFFFFFFFFFFFFFFFFFFFFFFFFFFFFFFFFFFFF AND PUSH4 0x70A08231 ADDRESS PUSH1 0x40 MLOAD DUP3 PUSH4 0xFFFFFFFF AND PUSH1 0xE0 SHL DUP2 MSTORE PUSH1 0x4 ADD PUSH2 0x31CF SWAP2 SWAP1 PUSH2 0x41A1 JUMP JUMPDEST PUSH1 0x20 PUSH1 0x40 MLOAD DUP1 DUP4 SUB DUP2 DUP7 DUP1 EXTCODESIZE ISZERO DUP1 ISZERO PUSH2 0x31E7 JUMPI PUSH1 0x0 DUP1 REVERT JUMPDEST POP GAS STATICCALL ISZERO DUP1 ISZERO PUSH2 0x31FB JUMPI RETURNDATASIZE PUSH1 0x0 DUP1 RETURNDATACOPY RETURNDATASIZE PUSH1 0x0 REVERT JUMPDEST POP POP POP POP PUSH1 0x40 MLOAD RETURNDATASIZE PUSH1 0x1F NOT PUSH1 0x1F DUP3 ADD AND DUP3 ADD DUP1 PUSH1 0x40 MSTORE POP DUP2 ADD SWAP1 PUSH2 0x321F SWAP2 SWAP1 PUSH2 0x3B01 JUMP JUMPDEST PUSH2 0x3229 SWAP2 SWAP1 PUSH2 0x4973 JUMP JUMPDEST SWAP1 POP PUSH1 0x0 PUSH1 0x64 PUSH1 0x2 SLOAD DUP4 PUSH2 0x323D SWAP2 SWAP1 PUSH2 0x4919 JUMP JUMPDEST PUSH2 0x3247 SWAP2 SWAP1 PUSH2 0x48E8 JUMP JUMPDEST SWAP1 POP PUSH1 0x5 PUSH1 0x0 SWAP1 SLOAD SWAP1 PUSH2 0x100 EXP SWAP1 DIV PUSH20 0xFFFFFFFFFFFFFFFFFFFFFFFFFFFFFFFFFFFFFFFF AND PUSH20 0xFFFFFFFFFFFFFFFFFFFFFFFFFFFFFFFFFFFFFFFF AND PUSH4 0xA9059CBB PUSH1 0x3 PUSH1 0x0 SWAP1 SLOAD SWAP1 PUSH2 0x100 EXP SWAP1 DIV PUSH20 0xFFFFFFFFFFFFFFFFFFFFFFFFFFFFFFFFFFFFFFFF AND DUP4 PUSH1 0x40 MLOAD DUP4 PUSH4 0xFFFFFFFF AND PUSH1 0xE0 SHL DUP2 MSTORE PUSH1 0x4 ADD PUSH2 0x32C8 SWAP3 SWAP2 SWAP1 PUSH2 0x41F3 JUMP JUMPDEST PUSH1 0x20 PUSH1 0x40 MLOAD DUP1 DUP4 SUB DUP2 PUSH1 0x0 DUP8 DUP1 EXTCODESIZE ISZERO DUP1 ISZERO PUSH2 0x32E2 JUMPI PUSH1 0x0 DUP1 REVERT JUMPDEST POP GAS CALL ISZERO DUP1 ISZERO PUSH2 0x32F6 JUMPI RETURNDATASIZE PUSH1 0x0 DUP1 RETURNDATACOPY RETURNDATASIZE PUSH1 0x0 REVERT JUMPDEST POP POP POP POP PUSH1 0x40 MLOAD RETURNDATASIZE PUSH1 0x1F NOT PUSH1 0x1F DUP3 ADD AND DUP3 ADD DUP1 PUSH1 0x40 MSTORE POP DUP2 ADD SWAP1 PUSH2 0x331A SWAP2 SWAP1 PUSH2 0x3AA7 JUMP JUMPDEST POP DUP1 DUP3 PUSH2 0x3327 SWAP2 SWAP1 PUSH2 0x4973 JUMP JUMPDEST SWAP2 POP PUSH1 0x0 JUMPDEST PUSH1 0x5 DUP2 LT ISZERO PUSH2 0x33C2 JUMPI PUSH1 0x0 DUP5 DUP3 DUP2 MLOAD DUP2 LT PUSH2 0x334A JUMPI PUSH2 0x3349 PUSH2 0x4C62 JUMP JUMPDEST JUMPDEST PUSH1 0x20 MUL PUSH1 0x20 ADD ADD MLOAD SWAP1 POP PUSH1 0x0 DUP2 EQ PUSH2 0x33AE JUMPI DUP1 PUSH1 0x64 PUSH1 0x12 DUP5 PUSH1 0x6 DUP2 LT PUSH2 0x3373 JUMPI PUSH2 0x3372 PUSH2 0x4C62 JUMP JUMPDEST JUMPDEST ADD SLOAD DUP7 PUSH2 0x3380 SWAP2 SWAP1 PUSH2 0x4919 JUMP JUMPDEST PUSH2 0x338A SWAP2 SWAP1 PUSH2 0x48E8 JUMP JUMPDEST PUSH2 0x3394 SWAP2 SWAP1 PUSH2 0x48E8 JUMP JUMPDEST PUSH1 0x18 DUP4 PUSH1 0x6 DUP2 LT PUSH2 0x33A8 JUMPI PUSH2 0x33A7 PUSH2 0x4C62 JUMP JUMPDEST JUMPDEST ADD DUP2 SWAP1 SSTORE POP JUMPDEST POP DUP1 DUP1 PUSH2 0x33BA SWAP1 PUSH2 0x4B2E JUMP JUMPDEST SWAP2 POP POP PUSH2 0x332C JUMP JUMPDEST POP PUSH1 0x0 DUP4 PUSH1 0x5 DUP2 MLOAD DUP2 LT PUSH2 0x33D9 JUMPI PUSH2 0x33D8 PUSH2 0x4C62 JUMP JUMPDEST JUMPDEST PUSH1 0x20 MUL PUSH1 0x20 ADD ADD MLOAD EQ PUSH2 0x3462 JUMPI DUP3 PUSH1 0x5 DUP2 MLOAD DUP2 LT PUSH2 0x33FA JUMPI PUSH2 0x33F9 PUSH2 0x4C62 JUMP JUMPDEST JUMPDEST PUSH1 0x20 MUL PUSH1 0x20 ADD ADD MLOAD PUSH1 0x64 PUSH1 0x12 PUSH1 0x5 PUSH1 0x6 DUP2 LT PUSH2 0x3419 JUMPI PUSH2 0x3418 PUSH2 0x4C62 JUMP JUMPDEST JUMPDEST ADD SLOAD DUP5 PUSH2 0x3426 SWAP2 SWAP1 PUSH2 0x4919 JUMP JUMPDEST PUSH2 0x3430 SWAP2 SWAP1 PUSH2 0x48E8 JUMP JUMPDEST PUSH1 0x9 SLOAD PUSH2 0x343D SWAP2 SWAP1 PUSH2 0x4858 JUMP JUMPDEST PUSH2 0x3447 SWAP2 SWAP1 PUSH2 0x48E8 JUMP JUMPDEST PUSH1 0x18 PUSH1 0x5 PUSH1 0x6 DUP2 LT PUSH2 0x345C JUMPI PUSH2 0x345B PUSH2 0x4C62 JUMP JUMPDEST JUMPDEST ADD DUP2 SWAP1 SSTORE POP JUMPDEST PUSH1 0xF SLOAD PUSH32 0x9D53F2B115229C0FB6C01A6DCC67FCC582E8EEA41B8D0318191C52190C9D3DE6 PUSH1 0x1E SLOAD DUP6 PUSH1 0x5 DUP2 MLOAD DUP2 LT PUSH2 0x349D JUMPI PUSH2 0x349C PUSH2 0x4C62 JUMP JUMPDEST JUMPDEST PUSH1 0x20 MUL PUSH1 0x20 ADD ADD MLOAD PUSH1 0x40 MLOAD PUSH2 0x34B3 SWAP3 SWAP2 SWAP1 PUSH2 0x46E7 JUMP JUMPDEST PUSH1 0x40 MLOAD DUP1 SWAP2 SUB SWAP1 LOG2 POP POP POP JUMP JUMPDEST PUSH1 0x0 CALLER SWAP1 POP SWAP1 JUMP JUMPDEST PUSH1 0x0 PUSH2 0x352A DUP3 PUSH1 0x40 MLOAD DUP1 PUSH1 0x40 ADD PUSH1 0x40 MSTORE DUP1 PUSH1 0x20 DUP2 MSTORE PUSH1 0x20 ADD PUSH32 0x5361666545524332303A206C6F772D6C6576656C2063616C6C206661696C6564 DUP2 MSTORE POP DUP6 PUSH20 0xFFFFFFFFFFFFFFFFFFFFFFFFFFFFFFFFFFFFFFFF AND PUSH2 0x3590 SWAP1 SWAP3 SWAP2 SWAP1 PUSH4 0xFFFFFFFF AND JUMP JUMPDEST SWAP1 POP PUSH1 0x0 DUP2 MLOAD EQ DUP1 PUSH2 0x354C JUMPI POP DUP1 DUP1 PUSH1 0x20 ADD SWAP1 MLOAD DUP2 ADD SWAP1 PUSH2 0x354B SWAP2 SWAP1 PUSH2 0x3AA7 JUMP JUMPDEST JUMPDEST PUSH2 0x358B JUMPI PUSH1 0x40 MLOAD PUSH32 0x8C379A000000000000000000000000000000000000000000000000000000000 DUP2 MSTORE PUSH1 0x4 ADD PUSH2 0x3582 SWAP1 PUSH2 0x464C JUMP JUMPDEST PUSH1 0x40 MLOAD DUP1 SWAP2 SUB SWAP1 REVERT JUMPDEST POP POP POP JUMP JUMPDEST PUSH1 0x60 PUSH2 0x359F DUP5 DUP5 PUSH1 0x0 DUP6 PUSH2 0x35A8 JUMP JUMPDEST SWAP1 POP SWAP4 SWAP3 POP POP POP JUMP JUMPDEST PUSH1 0x60 DUP3 SELFBALANCE LT ISZERO PUSH2 0x35ED JUMPI PUSH1 0x40 MLOAD PUSH32 0x8C379A000000000000000000000000000000000000000000000000000000000 DUP2 MSTORE PUSH1 0x4 ADD PUSH2 0x35E4 SWAP1 PUSH2 0x446C JUMP JUMPDEST PUSH1 0x40 MLOAD DUP1 SWAP2 SUB SWAP1 REVERT JUMPDEST PUSH1 0x0 DUP1 DUP7 PUSH20 0xFFFFFFFFFFFFFFFFFFFFFFFFFFFFFFFFFFFFFFFF AND DUP6 DUP8 PUSH1 0x40 MLOAD PUSH2 0x3616 SWAP2 SWAP1 PUSH2 0x418A JUMP JUMPDEST PUSH1 0x0 PUSH1 0x40 MLOAD DUP1 DUP4 SUB DUP2 DUP6 DUP8 GAS CALL SWAP3 POP POP POP RETURNDATASIZE DUP1 PUSH1 0x0 DUP2 EQ PUSH2 0x3653 JUMPI PUSH1 0x40 MLOAD SWAP2 POP PUSH1 0x1F NOT PUSH1 0x3F RETURNDATASIZE ADD AND DUP3 ADD PUSH1 0x40 MSTORE RETURNDATASIZE DUP3 MSTORE RETURNDATASIZE PUSH1 0x0 PUSH1 0x20 DUP5 ADD RETURNDATACOPY PUSH2 0x3658 JUMP JUMPDEST PUSH1 0x60 SWAP2 POP JUMPDEST POP SWAP2 POP SWAP2 POP PUSH2 0x3669 DUP8 DUP4 DUP4 DUP8 PUSH2 0x3675 JUMP JUMPDEST SWAP3 POP POP POP SWAP5 SWAP4 POP POP POP POP JUMP JUMPDEST PUSH1 0x60 DUP4 ISZERO PUSH2 0x36D8 JUMPI PUSH1 0x0 DUP4 MLOAD EQ ISZERO PUSH2 0x36D0 JUMPI PUSH2 0x3690 DUP6 PUSH2 0x36EB JUMP JUMPDEST PUSH2 0x36CF JUMPI PUSH1 0x40 MLOAD PUSH32 0x8C379A000000000000000000000000000000000000000000000000000000000 DUP2 MSTORE PUSH1 0x4 ADD PUSH2 0x36C6 SWAP1 PUSH2 0x460C JUMP JUMPDEST PUSH1 0x40 MLOAD DUP1 SWAP2 SUB SWAP1 REVERT JUMPDEST JUMPDEST DUP3 SWAP1 POP PUSH2 0x36E3 JUMP JUMPDEST PUSH2 0x36E2 DUP4 DUP4 PUSH2 0x370E JUMP JUMPDEST JUMPDEST SWAP5 SWAP4 POP POP POP POP JUMP JUMPDEST PUSH1 0x0 DUP1 DUP3 PUSH20 0xFFFFFFFFFFFFFFFFFFFFFFFFFFFFFFFFFFFFFFFF AND EXTCODESIZE GT SWAP1 POP SWAP2 SWAP1 POP JUMP JUMPDEST PUSH1 0x0 DUP3 MLOAD GT ISZERO PUSH2 0x3721 JUMPI DUP2 MLOAD DUP1 DUP4 PUSH1 0x20 ADD REVERT JUMPDEST DUP1 PUSH1 0x40 MLOAD PUSH32 0x8C379A000000000000000000000000000000000000000000000000000000000 DUP2 MSTORE PUSH1 0x4 ADD PUSH2 0x3755 SWAP2 SWAP1 PUSH2 0x430A JUMP JUMPDEST PUSH1 0x40 MLOAD DUP1 SWAP2 SUB SWAP1 REVERT JUMPDEST PUSH1 0x40 MLOAD DUP1 PUSH1 0xC0 ADD PUSH1 0x40 MSTORE DUP1 PUSH1 0x6 SWAP1 PUSH1 0x20 DUP3 MUL DUP1 CALLDATASIZE DUP4 CALLDATACOPY DUP1 DUP3 ADD SWAP2 POP POP SWAP1 POP POP SWAP1 JUMP JUMPDEST DUP3 PUSH1 0x6 DUP2 ADD SWAP3 DUP3 ISZERO PUSH2 0x37AF JUMPI SWAP2 PUSH1 0x20 MUL DUP3 ADD JUMPDEST DUP3 DUP2 GT ISZERO PUSH2 0x37AE JUMPI DUP3 MLOAD DUP3 SSTORE SWAP2 PUSH1 0x20 ADD SWAP2 SWAP1 PUSH1 0x1 ADD SWAP1 PUSH2 0x3793 JUMP JUMPDEST JUMPDEST POP SWAP1 POP PUSH2 0x37BC SWAP2 SWAP1 PUSH2 0x37C0 JUMP JUMPDEST POP SWAP1 JUMP JUMPDEST JUMPDEST DUP1 DUP3 GT ISZERO PUSH2 0x37D9 JUMPI PUSH1 0x0 DUP2 PUSH1 0x0 SWAP1 SSTORE POP PUSH1 0x1 ADD PUSH2 0x37C1 JUMP JUMPDEST POP SWAP1 JUMP JUMPDEST PUSH1 0x0 PUSH2 0x37F0 PUSH2 0x37EB DUP5 PUSH2 0x4735 JUMP JUMPDEST PUSH2 0x4710 JUMP JUMPDEST SWAP1 POP DUP1 DUP3 DUP6 PUSH1 0x20 DUP7 MUL DUP3 ADD GT ISZERO PUSH2 0x380A JUMPI PUSH2 0x3809 PUSH2 0x4CCA JUMP JUMPDEST JUMPDEST PUSH1 0x0 JUMPDEST DUP6 DUP2 LT ISZERO PUSH2 0x383A JUMPI DUP2 PUSH2 0x3820 DUP9 DUP3 PUSH2 0x398D JUMP JUMPDEST DUP5 MSTORE PUSH1 0x20 DUP5 ADD SWAP4 POP PUSH1 0x20 DUP4 ADD SWAP3 POP POP PUSH1 0x1 DUP2 ADD SWAP1 POP PUSH2 0x380D JUMP JUMPDEST POP POP POP SWAP4 SWAP3 POP POP POP JUMP JUMPDEST PUSH1 0x0 PUSH2 0x3857 PUSH2 0x3852 DUP5 PUSH2 0x475B JUMP JUMPDEST PUSH2 0x4710 JUMP JUMPDEST SWAP1 POP DUP1 DUP4 DUP3 MSTORE PUSH1 0x20 DUP3 ADD SWAP1 POP DUP3 DUP6 PUSH1 0x20 DUP7 MUL DUP3 ADD GT ISZERO PUSH2 0x387A JUMPI PUSH2 0x3879 PUSH2 0x4CCA JUMP JUMPDEST JUMPDEST PUSH1 0x0 JUMPDEST DUP6 DUP2 LT ISZERO PUSH2 0x38AA JUMPI DUP2 PUSH2 0x3890 DUP9 DUP3 PUSH2 0x398D JUMP JUMPDEST DUP5 MSTORE PUSH1 0x20 DUP5 ADD SWAP4 POP PUSH1 0x20 DUP4 ADD SWAP3 POP POP PUSH1 0x1 DUP2 ADD SWAP1 POP PUSH2 0x387D JUMP JUMPDEST POP POP POP SWAP4 SWAP3 POP POP POP JUMP JUMPDEST PUSH1 0x0 DUP2 CALLDATALOAD SWAP1 POP PUSH2 0x38C3 DUP2 PUSH2 0x53B7 JUMP JUMPDEST SWAP3 SWAP2 POP POP JUMP JUMPDEST PUSH1 0x0 DUP3 PUSH1 0x1F DUP4 ADD SLT PUSH2 0x38DE JUMPI PUSH2 0x38DD PUSH2 0x4CC5 JUMP JUMPDEST JUMPDEST PUSH1 0x6 PUSH2 0x38EB DUP5 DUP3 DUP6 PUSH2 0x37DD JUMP JUMPDEST SWAP2 POP POP SWAP3 SWAP2 POP POP JUMP JUMPDEST PUSH1 0x0 DUP1 DUP4 PUSH1 0x1F DUP5 ADD SLT PUSH2 0x390A JUMPI PUSH2 0x3909 PUSH2 0x4CC5 JUMP JUMPDEST JUMPDEST DUP3 CALLDATALOAD SWAP1 POP PUSH8 0xFFFFFFFFFFFFFFFF DUP2 GT ISZERO PUSH2 0x3927 JUMPI PUSH2 0x3926 PUSH2 0x4CC0 JUMP JUMPDEST JUMPDEST PUSH1 0x20 DUP4 ADD SWAP2 POP DUP4 PUSH1 0x20 DUP3 MUL DUP4 ADD GT ISZERO PUSH2 0x3943 JUMPI PUSH2 0x3942 PUSH2 0x4CCA JUMP JUMPDEST JUMPDEST SWAP3 POP SWAP3 SWAP1 POP JUMP JUMPDEST PUSH1 0x0 DUP3 PUSH1 0x1F DUP4 ADD SLT PUSH2 0x395F JUMPI PUSH2 0x395E PUSH2 0x4CC5 JUMP JUMPDEST JUMPDEST DUP2 CALLDATALOAD PUSH2 0x396F DUP5 DUP3 PUSH1 0x20 DUP7 ADD PUSH2 0x3844 JUMP JUMPDEST SWAP2 POP POP SWAP3 SWAP2 POP POP JUMP JUMPDEST PUSH1 0x0 DUP2 MLOAD SWAP1 POP PUSH2 0x3987 DUP2 PUSH2 0x53CE JUMP JUMPDEST SWAP3 SWAP2 POP POP JUMP JUMPDEST PUSH1 0x0 DUP2 CALLDATALOAD SWAP1 POP PUSH2 0x399C DUP2 PUSH2 0x53E5 JUMP JUMPDEST SWAP3 SWAP2 POP POP JUMP JUMPDEST PUSH1 0x0 DUP2 MLOAD SWAP1 POP PUSH2 0x39B1 DUP2 PUSH2 0x53E5 JUMP JUMPDEST SWAP3 SWAP2 POP POP JUMP JUMPDEST PUSH1 0x0 PUSH1 0x20 DUP3 DUP5 SUB SLT ISZERO PUSH2 0x39CD JUMPI PUSH2 0x39CC PUSH2 0x4CD4 JUMP JUMPDEST JUMPDEST PUSH1 0x0 PUSH2 0x39DB DUP5 DUP3 DUP6 ADD PUSH2 0x38B4 JUMP JUMPDEST SWAP2 POP POP SWAP3 SWAP2 POP POP JUMP JUMPDEST PUSH1 0x0 PUSH1 0xC0 DUP3 DUP5 SUB SLT ISZERO PUSH2 0x39FA JUMPI PUSH2 0x39F9 PUSH2 0x4CD4 JUMP JUMPDEST JUMPDEST PUSH1 0x0 PUSH2 0x3A08 DUP5 DUP3 DUP6 ADD PUSH2 0x38C9 JUMP JUMPDEST SWAP2 POP POP SWAP3 SWAP2 POP POP JUMP JUMPDEST PUSH1 0x0 DUP1 PUSH1 0x20 DUP4 DUP6 SUB SLT ISZERO PUSH2 0x3A28 JUMPI PUSH2 0x3A27 PUSH2 0x4CD4 JUMP JUMPDEST JUMPDEST PUSH1 0x0 DUP4 ADD CALLDATALOAD PUSH8 0xFFFFFFFFFFFFFFFF DUP2 GT ISZERO PUSH2 0x3A46 JUMPI PUSH2 0x3A45 PUSH2 0x4CCF JUMP JUMPDEST JUMPDEST PUSH2 0x3A52 DUP6 DUP3 DUP7 ADD PUSH2 0x38F4 JUMP JUMPDEST SWAP3 POP SWAP3 POP POP SWAP3 POP SWAP3 SWAP1 POP JUMP JUMPDEST PUSH1 0x0 PUSH1 0x20 DUP3 DUP5 SUB SLT ISZERO PUSH2 0x3A74 JUMPI PUSH2 0x3A73 PUSH2 0x4CD4 JUMP JUMPDEST JUMPDEST PUSH1 0x0 DUP3 ADD CALLDATALOAD PUSH8 0xFFFFFFFFFFFFFFFF DUP2 GT ISZERO PUSH2 0x3A92 JUMPI PUSH2 0x3A91 PUSH2 0x4CCF JUMP JUMPDEST JUMPDEST PUSH2 0x3A9E DUP5 DUP3 DUP6 ADD PUSH2 0x394A JUMP JUMPDEST SWAP2 POP POP SWAP3 SWAP2 POP POP JUMP JUMPDEST PUSH1 0x0 PUSH1 0x20 DUP3 DUP5 SUB SLT ISZERO PUSH2 0x3ABD JUMPI PUSH2 0x3ABC PUSH2 0x4CD4 JUMP JUMPDEST JUMPDEST PUSH1 0x0 PUSH2 0x3ACB DUP5 DUP3 DUP6 ADD PUSH2 0x3978 JUMP JUMPDEST SWAP2 POP POP SWAP3 SWAP2 POP POP JUMP JUMPDEST PUSH1 0x0 PUSH1 0x20 DUP3 DUP5 SUB SLT ISZERO PUSH2 0x3AEA JUMPI PUSH2 0x3AE9 PUSH2 0x4CD4 JUMP JUMPDEST JUMPDEST PUSH1 0x0 PUSH2 0x3AF8 DUP5 DUP3 DUP6 ADD PUSH2 0x398D JUMP JUMPDEST SWAP2 POP POP SWAP3 SWAP2 POP POP JUMP JUMPDEST PUSH1 0x0 PUSH1 0x20 DUP3 DUP5 SUB SLT ISZERO PUSH2 0x3B17 JUMPI PUSH2 0x3B16 PUSH2 0x4CD4 JUMP JUMPDEST JUMPDEST PUSH1 0x0 PUSH2 0x3B25 DUP5 DUP3 DUP6 ADD PUSH2 0x39A2 JUMP JUMPDEST SWAP2 POP POP SWAP3 SWAP2 POP POP JUMP JUMPDEST PUSH1 0x0 DUP1 PUSH1 0x40 DUP4 DUP6 SUB SLT ISZERO PUSH2 0x3B45 JUMPI PUSH2 0x3B44 PUSH2 0x4CD4 JUMP JUMPDEST JUMPDEST PUSH1 0x0 PUSH2 0x3B53 DUP6 DUP3 DUP7 ADD PUSH2 0x398D JUMP JUMPDEST SWAP3 POP POP PUSH1 0x20 PUSH2 0x3B64 DUP6 DUP3 DUP7 ADD PUSH2 0x398D JUMP JUMPDEST SWAP2 POP POP SWAP3 POP SWAP3 SWAP1 POP JUMP JUMPDEST PUSH1 0x0 PUSH2 0x3B7A DUP4 DUP4 PUSH2 0x414E JUMP JUMPDEST PUSH1 0x20 DUP4 ADD SWAP1 POP SWAP3 SWAP2 POP POP JUMP JUMPDEST PUSH1 0x0 PUSH2 0x3B92 DUP4 DUP4 PUSH2 0x416C JUMP JUMPDEST PUSH1 0x20 DUP4 ADD SWAP1 POP SWAP3 SWAP2 POP POP JUMP JUMPDEST PUSH2 0x3BA7 DUP2 PUSH2 0x49DB JUMP JUMPDEST DUP3 MSTORE POP POP JUMP JUMPDEST PUSH2 0x3BB6 DUP2 PUSH2 0x47B1 JUMP JUMPDEST PUSH2 0x3BC0 DUP2 DUP5 PUSH2 0x480F JUMP JUMPDEST SWAP3 POP PUSH2 0x3BCB DUP3 PUSH2 0x4787 JUMP JUMPDEST DUP1 PUSH1 0x0 JUMPDEST DUP4 DUP2 LT ISZERO PUSH2 0x3BFC JUMPI DUP2 MLOAD PUSH2 0x3BE3 DUP8 DUP3 PUSH2 0x3B6E JUMP JUMPDEST SWAP7 POP PUSH2 0x3BEE DUP4 PUSH2 0x47E8 JUMP JUMPDEST SWAP3 POP POP PUSH1 0x1 DUP2 ADD SWAP1 POP PUSH2 0x3BCF JUMP JUMPDEST POP POP POP POP POP POP JUMP JUMPDEST PUSH1 0x0 PUSH2 0x3C0F DUP3 PUSH2 0x47BC JUMP JUMPDEST PUSH2 0x3C19 DUP2 DUP6 PUSH2 0x481A JUMP JUMPDEST SWAP4 POP PUSH2 0x3C24 DUP4 PUSH2 0x4791 JUMP JUMPDEST DUP1 PUSH1 0x0 JUMPDEST DUP4 DUP2 LT ISZERO PUSH2 0x3C55 JUMPI DUP2 MLOAD PUSH2 0x3C3C DUP9 DUP3 PUSH2 0x3B6E JUMP JUMPDEST SWAP8 POP PUSH2 0x3C47 DUP4 PUSH2 0x47F5 JUMP JUMPDEST SWAP3 POP POP PUSH1 0x1 DUP2 ADD SWAP1 POP PUSH2 0x3C28 JUMP JUMPDEST POP DUP6 SWAP4 POP POP POP POP SWAP3 SWAP2 POP POP JUMP JUMPDEST PUSH1 0x0 PUSH2 0x3C6D DUP3 PUSH2 0x47C7 JUMP JUMPDEST PUSH2 0x3C77 DUP2 DUP6 PUSH2 0x482B JUMP JUMPDEST SWAP4 POP PUSH2 0x3C82 DUP4 PUSH2 0x47A1 JUMP JUMPDEST DUP1 PUSH1 0x0 JUMPDEST DUP4 DUP2 LT ISZERO PUSH2 0x3CB3 JUMPI DUP2 MLOAD PUSH2 0x3C9A DUP9 DUP3 PUSH2 0x3B86 JUMP JUMPDEST SWAP8 POP PUSH2 0x3CA5 DUP4 PUSH2 0x4802 JUMP JUMPDEST SWAP3 POP POP PUSH1 0x1 DUP2 ADD SWAP1 POP PUSH2 0x3C86 JUMP JUMPDEST POP DUP6 SWAP4 POP POP POP POP SWAP3 SWAP2 POP POP JUMP JUMPDEST PUSH1 0x0 PUSH2 0x3CCB DUP3 PUSH2 0x47D2 JUMP JUMPDEST PUSH2 0x3CD5 DUP2 DUP6 PUSH2 0x483C JUMP JUMPDEST SWAP4 POP PUSH2 0x3CE5 DUP2 DUP6 PUSH1 0x20 DUP7 ADD PUSH2 0x4AA0 JUMP JUMPDEST DUP1 DUP5 ADD SWAP2 POP POP SWAP3 SWAP2 POP POP JUMP JUMPDEST PUSH2 0x3CFA DUP2 PUSH2 0x4A46 JUMP JUMPDEST DUP3 MSTORE POP POP JUMP JUMPDEST PUSH2 0x3D09 DUP2 PUSH2 0x4A6A JUMP JUMPDEST DUP3 MSTORE POP POP JUMP JUMPDEST PUSH2 0x3D18 DUP2 PUSH2 0x4A8E JUMP JUMPDEST DUP3 MSTORE POP POP JUMP JUMPDEST PUSH1 0x0 PUSH2 0x3D29 DUP3 PUSH2 0x47DD JUMP JUMPDEST PUSH2 0x3D33 DUP2 DUP6 PUSH2 0x4847 JUMP JUMPDEST SWAP4 POP PUSH2 0x3D43 DUP2 DUP6 PUSH1 0x20 DUP7 ADD PUSH2 0x4AA0 JUMP JUMPDEST PUSH2 0x3D4C DUP2 PUSH2 0x4CD9 JUMP JUMPDEST DUP5 ADD SWAP2 POP POP SWAP3 SWAP2 POP POP JUMP JUMPDEST PUSH1 0x0 PUSH2 0x3D64 PUSH1 0x25 DUP4 PUSH2 0x4847 JUMP JUMPDEST SWAP2 POP PUSH2 0x3D6F DUP3 PUSH2 0x4CEA JUMP JUMPDEST PUSH1 0x40 DUP3 ADD SWAP1 POP SWAP2 SWAP1 POP JUMP JUMPDEST PUSH1 0x0 PUSH2 0x3D87 PUSH1 0x44 DUP4 PUSH2 0x4847 JUMP JUMPDEST SWAP2 POP PUSH2 0x3D92 DUP3 PUSH2 0x4D39 JUMP JUMPDEST PUSH1 0x60 DUP3 ADD SWAP1 POP SWAP2 SWAP1 POP JUMP JUMPDEST PUSH1 0x0 PUSH2 0x3DAA PUSH1 0x10 DUP4 PUSH2 0x4847 JUMP JUMPDEST SWAP2 POP PUSH2 0x3DB5 DUP3 PUSH2 0x4DAE JUMP JUMPDEST PUSH1 0x20 DUP3 ADD SWAP1 POP SWAP2 SWAP1 POP JUMP JUMPDEST PUSH1 0x0 PUSH2 0x3DCD PUSH1 0x29 DUP4 PUSH2 0x4847 JUMP JUMPDEST SWAP2 POP PUSH2 0x3DD8 DUP3 PUSH2 0x4DD7 JUMP JUMPDEST PUSH1 0x40 DUP3 ADD SWAP1 POP SWAP2 SWAP1 POP JUMP JUMPDEST PUSH1 0x0 PUSH2 0x3DF0 PUSH1 0x26 DUP4 PUSH2 0x4847 JUMP JUMPDEST SWAP2 POP PUSH2 0x3DFB DUP3 PUSH2 0x4E26 JUMP JUMPDEST PUSH1 0x40 DUP3 ADD SWAP1 POP SWAP2 SWAP1 POP JUMP JUMPDEST PUSH1 0x0 PUSH2 0x3E13 PUSH1 0x27 DUP4 PUSH2 0x4847 JUMP JUMPDEST SWAP2 POP PUSH2 0x3E1E DUP3 PUSH2 0x4E75 JUMP JUMPDEST PUSH1 0x40 DUP3 ADD SWAP1 POP SWAP2 SWAP1 POP JUMP JUMPDEST PUSH1 0x0 PUSH2 0x3E36 PUSH1 0x14 DUP4 PUSH2 0x4847 JUMP JUMPDEST SWAP2 POP PUSH2 0x3E41 DUP3 PUSH2 0x4EC4 JUMP JUMPDEST PUSH1 0x20 DUP3 ADD SWAP1 POP SWAP2 SWAP1 POP JUMP JUMPDEST PUSH1 0x0 PUSH2 0x3E59 PUSH1 0x18 DUP4 PUSH2 0x4847 JUMP JUMPDEST SWAP2 POP PUSH2 0x3E64 DUP3 PUSH2 0x4EED JUMP JUMPDEST PUSH1 0x20 DUP3 ADD SWAP1 POP SWAP2 SWAP1 POP JUMP JUMPDEST PUSH1 0x0 PUSH2 0x3E7C PUSH1 0x17 DUP4 PUSH2 0x4847 JUMP JUMPDEST SWAP2 POP PUSH2 0x3E87 DUP3 PUSH2 0x4F16 JUMP JUMPDEST PUSH1 0x20 DUP3 ADD SWAP1 POP SWAP2 SWAP1 POP JUMP JUMPDEST PUSH1 0x0 PUSH2 0x3E9F PUSH1 0x28 DUP4 PUSH2 0x4847 JUMP JUMPDEST SWAP2 POP PUSH2 0x3EAA DUP3 PUSH2 0x4F3F JUMP JUMPDEST PUSH1 0x40 DUP3 ADD SWAP1 POP SWAP2 SWAP1 POP JUMP JUMPDEST PUSH1 0x0 PUSH2 0x3EC2 PUSH1 0x26 DUP4 PUSH2 0x4847 JUMP JUMPDEST SWAP2 POP PUSH2 0x3ECD DUP3 PUSH2 0x4F8E JUMP JUMPDEST PUSH1 0x40 DUP3 ADD SWAP1 POP SWAP2 SWAP1 POP JUMP JUMPDEST PUSH1 0x0 PUSH2 0x3EE5 PUSH1 0x27 DUP4 PUSH2 0x4847 JUMP JUMPDEST SWAP2 POP PUSH2 0x3EF0 DUP3 PUSH2 0x4FDD JUMP JUMPDEST PUSH1 0x40 DUP3 ADD SWAP1 POP SWAP2 SWAP1 POP JUMP JUMPDEST PUSH1 0x0 PUSH2 0x3F08 PUSH1 0x15 DUP4 PUSH2 0x4847 JUMP JUMPDEST SWAP2 POP PUSH2 0x3F13 DUP3 PUSH2 0x502C JUMP JUMPDEST PUSH1 0x20 DUP3 ADD SWAP1 POP SWAP2 SWAP1 POP JUMP JUMPDEST PUSH1 0x0 PUSH2 0x3F2B PUSH1 0x48 DUP4 PUSH2 0x4847 JUMP JUMPDEST SWAP2 POP PUSH2 0x3F36 DUP3 PUSH2 0x5055 JUMP JUMPDEST PUSH1 0x60 DUP3 ADD SWAP1 POP SWAP2 SWAP1 POP JUMP JUMPDEST PUSH1 0x0 PUSH2 0x3F4E PUSH1 0x1C DUP4 PUSH2 0x4847 JUMP JUMPDEST SWAP2 POP PUSH2 0x3F59 DUP3 PUSH2 0x50CA JUMP JUMPDEST PUSH1 0x20 DUP3 ADD SWAP1 POP SWAP2 SWAP1 POP JUMP JUMPDEST PUSH1 0x0 PUSH2 0x3F71 PUSH1 0x14 DUP4 PUSH2 0x4847 JUMP JUMPDEST SWAP2 POP PUSH2 0x3F7C DUP3 PUSH2 0x50F3 JUMP JUMPDEST PUSH1 0x20 DUP3 ADD SWAP1 POP SWAP2 SWAP1 POP JUMP JUMPDEST PUSH1 0x0 PUSH2 0x3F94 PUSH1 0x1A DUP4 PUSH2 0x4847 JUMP JUMPDEST SWAP2 POP PUSH2 0x3F9F DUP3 PUSH2 0x511C JUMP JUMPDEST PUSH1 0x20 DUP3 ADD SWAP1 POP SWAP2 SWAP1 POP JUMP JUMPDEST PUSH1 0x0 PUSH2 0x3FB7 PUSH1 0x9 DUP4 PUSH2 0x4847 JUMP JUMPDEST SWAP2 POP PUSH2 0x3FC2 DUP3 PUSH2 0x5145 JUMP JUMPDEST PUSH1 0x20 DUP3 ADD SWAP1 POP SWAP2 SWAP1 POP JUMP JUMPDEST PUSH1 0x0 PUSH2 0x3FDA PUSH1 0x20 DUP4 PUSH2 0x4847 JUMP JUMPDEST SWAP2 POP PUSH2 0x3FE5 DUP3 PUSH2 0x516E JUMP JUMPDEST PUSH1 0x20 DUP3 ADD SWAP1 POP SWAP2 SWAP1 POP JUMP JUMPDEST PUSH1 0x0 PUSH2 0x3FFD PUSH1 0x20 DUP4 PUSH2 0x4847 JUMP JUMPDEST SWAP2 POP PUSH2 0x4008 DUP3 PUSH2 0x5197 JUMP JUMPDEST PUSH1 0x20 DUP3 ADD SWAP1 POP SWAP2 SWAP1 POP JUMP JUMPDEST PUSH1 0x0 PUSH2 0x4020 PUSH1 0x10 DUP4 PUSH2 0x4847 JUMP JUMPDEST SWAP2 POP PUSH2 0x402B DUP3 PUSH2 0x51C0 JUMP JUMPDEST PUSH1 0x20 DUP3 ADD SWAP1 POP SWAP2 SWAP1 POP JUMP JUMPDEST PUSH1 0x0 PUSH2 0x4043 PUSH1 0x16 DUP4 PUSH2 0x4847 JUMP JUMPDEST SWAP2 POP PUSH2 0x404E DUP3 PUSH2 0x51E9 JUMP JUMPDEST PUSH1 0x20 DUP3 ADD SWAP1 POP SWAP2 SWAP1 POP JUMP JUMPDEST PUSH1 0x0 PUSH2 0x4066 PUSH1 0x23 DUP4 PUSH2 0x4847 JUMP JUMPDEST SWAP2 POP PUSH2 0x4071 DUP3 PUSH2 0x5212 JUMP JUMPDEST PUSH1 0x40 DUP3 ADD SWAP1 POP SWAP2 SWAP1 POP JUMP JUMPDEST PUSH1 0x0 PUSH2 0x4089 PUSH1 0x1D DUP4 PUSH2 0x4847 JUMP JUMPDEST SWAP2 POP PUSH2 0x4094 DUP3 PUSH2 0x5261 JUMP JUMPDEST PUSH1 0x20 DUP3 ADD SWAP1 POP SWAP2 SWAP1 POP JUMP JUMPDEST PUSH1 0x0 PUSH2 0x40AC PUSH1 0x21 DUP4 PUSH2 0x4847 JUMP JUMPDEST SWAP2 POP PUSH2 0x40B7 DUP3 PUSH2 0x528A JUMP JUMPDEST PUSH1 0x40 DUP3 ADD SWAP1 POP SWAP2 SWAP1 POP JUMP JUMPDEST PUSH1 0x0 PUSH2 0x40CF PUSH1 0x2A DUP4 PUSH2 0x4847 JUMP JUMPDEST SWAP2 POP PUSH2 0x40DA DUP3 PUSH2 0x52D9 JUMP JUMPDEST PUSH1 0x40 DUP3 ADD SWAP1 POP SWAP2 SWAP1 POP JUMP JUMPDEST PUSH1 0x0 PUSH2 0x40F2 PUSH1 0x1F DUP4 PUSH2 0x4847 JUMP JUMPDEST SWAP2 POP PUSH2 0x40FD DUP3 PUSH2 0x5328 JUMP JUMPDEST PUSH1 0x20 DUP3 ADD SWAP1 POP SWAP2 SWAP1 POP JUMP JUMPDEST PUSH1 0x0 PUSH2 0x4115 PUSH1 0x12 DUP4 PUSH2 0x4847 JUMP JUMPDEST SWAP2 POP PUSH2 0x4120 DUP3 PUSH2 0x5351 JUMP JUMPDEST PUSH1 0x20 DUP3 ADD SWAP1 POP SWAP2 SWAP1 POP JUMP JUMPDEST PUSH1 0x0 PUSH2 0x4138 PUSH1 0x1B DUP4 PUSH2 0x4847 JUMP JUMPDEST SWAP2 POP PUSH2 0x4143 DUP3 PUSH2 0x537A JUMP JUMPDEST PUSH1 0x20 DUP3 ADD SWAP1 POP SWAP2 SWAP1 POP JUMP JUMPDEST PUSH2 0x4157 DUP2 PUSH2 0x4A2C JUMP JUMPDEST DUP3 MSTORE POP POP JUMP JUMPDEST PUSH2 0x4166 DUP2 PUSH2 0x4A2C JUMP JUMPDEST DUP3 MSTORE POP POP JUMP JUMPDEST PUSH2 0x4175 DUP2 PUSH2 0x4A36 JUMP JUMPDEST DUP3 MSTORE POP POP JUMP JUMPDEST PUSH2 0x4184 DUP2 PUSH2 0x4A36 JUMP JUMPDEST DUP3 MSTORE POP POP JUMP JUMPDEST PUSH1 0x0 PUSH2 0x4196 DUP3 DUP5 PUSH2 0x3CC0 JUMP JUMPDEST SWAP2 POP DUP2 SWAP1 POP SWAP3 SWAP2 POP POP JUMP JUMPDEST PUSH1 0x0 PUSH1 0x20 DUP3 ADD SWAP1 POP PUSH2 0x41B6 PUSH1 0x0 DUP4 ADD DUP5 PUSH2 0x3B9E JUMP JUMPDEST SWAP3 SWAP2 POP POP JUMP JUMPDEST PUSH1 0x0 PUSH1 0x60 DUP3 ADD SWAP1 POP PUSH2 0x41D1 PUSH1 0x0 DUP4 ADD DUP7 PUSH2 0x3B9E JUMP JUMPDEST PUSH2 0x41DE PUSH1 0x20 DUP4 ADD DUP6 PUSH2 0x3B9E JUMP JUMPDEST PUSH2 0x41EB PUSH1 0x40 DUP4 ADD DUP5 PUSH2 0x415D JUMP JUMPDEST SWAP5 SWAP4 POP POP POP POP JUMP JUMPDEST PUSH1 0x0 PUSH1 0x40 DUP3 ADD SWAP1 POP PUSH2 0x4208 PUSH1 0x0 DUP4 ADD DUP6 PUSH2 0x3B9E JUMP JUMPDEST PUSH2 0x4215 PUSH1 0x20 DUP4 ADD DUP5 PUSH2 0x415D JUMP JUMPDEST SWAP4 SWAP3 POP POP POP JUMP JUMPDEST PUSH1 0x0 PUSH1 0xC0 DUP3 ADD SWAP1 POP PUSH2 0x4231 PUSH1 0x0 DUP4 ADD DUP5 PUSH2 0x3BAD JUMP JUMPDEST SWAP3 SWAP2 POP POP JUMP JUMPDEST PUSH1 0x0 PUSH1 0x20 DUP3 ADD SWAP1 POP DUP2 DUP2 SUB PUSH1 0x0 DUP4 ADD MSTORE PUSH2 0x4251 DUP2 DUP5 PUSH2 0x3C04 JUMP JUMPDEST SWAP1 POP SWAP3 SWAP2 POP POP JUMP JUMPDEST PUSH1 0x0 PUSH1 0x20 DUP3 ADD SWAP1 POP DUP2 DUP2 SUB PUSH1 0x0 DUP4 ADD MSTORE PUSH2 0x4273 DUP2 DUP5 PUSH2 0x3C62 JUMP JUMPDEST SWAP1 POP SWAP3 SWAP2 POP POP JUMP JUMPDEST PUSH1 0x0 PUSH1 0x60 DUP3 ADD SWAP1 POP DUP2 DUP2 SUB PUSH1 0x0 DUP4 ADD MSTORE PUSH2 0x4295 DUP2 DUP7 PUSH2 0x3C62 JUMP JUMPDEST SWAP1 POP PUSH2 0x42A4 PUSH1 0x20 DUP4 ADD DUP6 PUSH2 0x417B JUMP JUMPDEST PUSH2 0x42B1 PUSH1 0x40 DUP4 ADD DUP5 PUSH2 0x3B9E JUMP JUMPDEST SWAP5 SWAP4 POP POP POP POP JUMP JUMPDEST PUSH1 0x0 PUSH1 0x20 DUP3 ADD SWAP1 POP PUSH2 0x42CE PUSH1 0x0 DUP4 ADD DUP5 PUSH2 0x3CF1 JUMP JUMPDEST SWAP3 SWAP2 POP POP JUMP JUMPDEST PUSH1 0x0 PUSH1 0x20 DUP3 ADD SWAP1 POP PUSH2 0x42E9 PUSH1 0x0 DUP4 ADD DUP5 PUSH2 0x3D00 JUMP JUMPDEST SWAP3 SWAP2 POP POP JUMP JUMPDEST PUSH1 0x0 PUSH1 0x20 DUP3 ADD SWAP1 POP PUSH2 0x4304 PUSH1 0x0 DUP4 ADD DUP5 PUSH2 0x3D0F JUMP JUMPDEST SWAP3 SWAP2 POP POP JUMP JUMPDEST PUSH1 0x0 PUSH1 0x20 DUP3 ADD SWAP1 POP DUP2 DUP2 SUB PUSH1 0x0 DUP4 ADD MSTORE PUSH2 0x4324 DUP2 DUP5 PUSH2 0x3D1E JUMP JUMPDEST SWAP1 POP SWAP3 SWAP2 POP POP JUMP JUMPDEST PUSH1 0x0 PUSH1 0x20 DUP3 ADD SWAP1 POP DUP2 DUP2 SUB PUSH1 0x0 DUP4 ADD MSTORE PUSH2 0x4345 DUP2 PUSH2 0x3D57 JUMP JUMPDEST SWAP1 POP SWAP2 SWAP1 POP JUMP JUMPDEST PUSH1 0x0 PUSH1 0x20 DUP3 ADD SWAP1 POP DUP2 DUP2 SUB PUSH1 0x0 DUP4 ADD MSTORE PUSH2 0x4365 DUP2 PUSH2 0x3D7A JUMP JUMPDEST SWAP1 POP SWAP2 SWAP1 POP JUMP JUMPDEST PUSH1 0x0 PUSH1 0x20 DUP3 ADD SWAP1 POP DUP2 DUP2 SUB PUSH1 0x0 DUP4 ADD MSTORE PUSH2 0x4385 DUP2 PUSH2 0x3D9D JUMP JUMPDEST SWAP1 POP SWAP2 SWAP1 POP JUMP JUMPDEST PUSH1 0x0 PUSH1 0x20 DUP3 ADD SWAP1 POP DUP2 DUP2 SUB PUSH1 0x0 DUP4 ADD MSTORE PUSH2 0x43A5 DUP2 PUSH2 0x3DC0 JUMP JUMPDEST SWAP1 POP SWAP2 SWAP1 POP JUMP JUMPDEST PUSH1 0x0 PUSH1 0x20 DUP3 ADD SWAP1 POP DUP2 DUP2 SUB PUSH1 0x0 DUP4 ADD MSTORE PUSH2 0x43C5 DUP2 PUSH2 0x3DE3 JUMP JUMPDEST SWAP1 POP SWAP2 SWAP1 POP JUMP JUMPDEST PUSH1 0x0 PUSH1 0x20 DUP3 ADD SWAP1 POP DUP2 DUP2 SUB PUSH1 0x0 DUP4 ADD MSTORE PUSH2 0x43E5 DUP2 PUSH2 0x3E06 JUMP JUMPDEST SWAP1 POP SWAP2 SWAP1 POP JUMP JUMPDEST PUSH1 0x0 PUSH1 0x20 DUP3 ADD SWAP1 POP DUP2 DUP2 SUB PUSH1 0x0 DUP4 ADD MSTORE PUSH2 0x4405 DUP2 PUSH2 0x3E29 JUMP JUMPDEST SWAP1 POP SWAP2 SWAP1 POP JUMP JUMPDEST PUSH1 0x0 PUSH1 0x20 DUP3 ADD SWAP1 POP DUP2 DUP2 SUB PUSH1 0x0 DUP4 ADD MSTORE PUSH2 0x4425 DUP2 PUSH2 0x3E4C JUMP JUMPDEST SWAP1 POP SWAP2 SWAP1 POP JUMP JUMPDEST PUSH1 0x0 PUSH1 0x20 DUP3 ADD SWAP1 POP DUP2 DUP2 SUB PUSH1 0x0 DUP4 ADD MSTORE PUSH2 0x4445 DUP2 PUSH2 0x3E6F JUMP JUMPDEST SWAP1 POP SWAP2 SWAP1 POP JUMP JUMPDEST PUSH1 0x0 PUSH1 0x20 DUP3 ADD SWAP1 POP DUP2 DUP2 SUB PUSH1 0x0 DUP4 ADD MSTORE PUSH2 0x4465 DUP2 PUSH2 0x3E92 JUMP JUMPDEST SWAP1 POP SWAP2 SWAP1 POP JUMP JUMPDEST PUSH1 0x0 PUSH1 0x20 DUP3 ADD SWAP1 POP DUP2 DUP2 SUB PUSH1 0x0 DUP4 ADD MSTORE PUSH2 0x4485 DUP2 PUSH2 0x3EB5 JUMP JUMPDEST SWAP1 POP SWAP2 SWAP1 POP JUMP JUMPDEST PUSH1 0x0 PUSH1 0x20 DUP3 ADD SWAP1 POP DUP2 DUP2 SUB PUSH1 0x0 DUP4 ADD MSTORE PUSH2 0x44A5 DUP2 PUSH2 0x3ED8 JUMP JUMPDEST SWAP1 POP SWAP2 SWAP1 POP JUMP JUMPDEST PUSH1 0x0 PUSH1 0x20 DUP3 ADD SWAP1 POP DUP2 DUP2 SUB PUSH1 0x0 DUP4 ADD MSTORE PUSH2 0x44C5 DUP2 PUSH2 0x3EFB JUMP JUMPDEST SWAP1 POP SWAP2 SWAP1 POP JUMP JUMPDEST PUSH1 0x0 PUSH1 0x20 DUP3 ADD SWAP1 POP DUP2 DUP2 SUB PUSH1 0x0 DUP4 ADD MSTORE PUSH2 0x44E5 DUP2 PUSH2 0x3F1E JUMP JUMPDEST SWAP1 POP SWAP2 SWAP1 POP JUMP JUMPDEST PUSH1 0x0 PUSH1 0x20 DUP3 ADD SWAP1 POP DUP2 DUP2 SUB PUSH1 0x0 DUP4 ADD MSTORE PUSH2 0x4505 DUP2 PUSH2 0x3F41 JUMP JUMPDEST SWAP1 POP SWAP2 SWAP1 POP JUMP JUMPDEST PUSH1 0x0 PUSH1 0x20 DUP3 ADD SWAP1 POP DUP2 DUP2 SUB PUSH1 0x0 DUP4 ADD MSTORE PUSH2 0x4525 DUP2 PUSH2 0x3F64 JUMP JUMPDEST SWAP1 POP SWAP2 SWAP1 POP JUMP JUMPDEST PUSH1 0x0 PUSH1 0x20 DUP3 ADD SWAP1 POP DUP2 DUP2 SUB PUSH1 0x0 DUP4 ADD MSTORE PUSH2 0x4545 DUP2 PUSH2 0x3F87 JUMP JUMPDEST SWAP1 POP SWAP2 SWAP1 POP JUMP JUMPDEST PUSH1 0x0 PUSH1 0x20 DUP3 ADD SWAP1 POP DUP2 DUP2 SUB PUSH1 0x0 DUP4 ADD MSTORE PUSH2 0x4565 DUP2 PUSH2 0x3FAA JUMP JUMPDEST SWAP1 POP SWAP2 SWAP1 POP JUMP JUMPDEST PUSH1 0x0 PUSH1 0x20 DUP3 ADD SWAP1 POP DUP2 DUP2 SUB PUSH1 0x0 DUP4 ADD MSTORE PUSH2 0x4585 DUP2 PUSH2 0x3FCD JUMP JUMPDEST SWAP1 POP SWAP2 SWAP1 POP JUMP JUMPDEST PUSH1 0x0 PUSH1 0x20 DUP3 ADD SWAP1 POP DUP2 DUP2 SUB PUSH1 0x0 DUP4 ADD MSTORE PUSH2 0x45A5 DUP2 PUSH2 0x3FF0 JUMP JUMPDEST SWAP1 POP SWAP2 SWAP1 POP JUMP JUMPDEST PUSH1 0x0 PUSH1 0x20 DUP3 ADD SWAP1 POP DUP2 DUP2 SUB PUSH1 0x0 DUP4 ADD MSTORE PUSH2 0x45C5 DUP2 PUSH2 0x4013 JUMP JUMPDEST SWAP1 POP SWAP2 SWAP1 POP JUMP JUMPDEST PUSH1 0x0 PUSH1 0x20 DUP3 ADD SWAP1 POP DUP2 DUP2 SUB PUSH1 0x0 DUP4 ADD MSTORE PUSH2 0x45E5 DUP2 PUSH2 0x4036 JUMP JUMPDEST SWAP1 POP SWAP2 SWAP1 POP JUMP JUMPDEST PUSH1 0x0 PUSH1 0x20 DUP3 ADD SWAP1 POP DUP2 DUP2 SUB PUSH1 0x0 DUP4 ADD MSTORE PUSH2 0x4605 DUP2 PUSH2 0x4059 JUMP JUMPDEST SWAP1 POP SWAP2 SWAP1 POP JUMP JUMPDEST PUSH1 0x0 PUSH1 0x20 DUP3 ADD SWAP1 POP DUP2 DUP2 SUB PUSH1 0x0 DUP4 ADD MSTORE PUSH2 0x4625 DUP2 PUSH2 0x407C JUMP JUMPDEST SWAP1 POP SWAP2 SWAP1 POP JUMP JUMPDEST PUSH1 0x0 PUSH1 0x20 DUP3 ADD SWAP1 POP DUP2 DUP2 SUB PUSH1 0x0 DUP4 ADD MSTORE PUSH2 0x4645 DUP2 PUSH2 0x409F JUMP JUMPDEST SWAP1 POP SWAP2 SWAP1 POP JUMP JUMPDEST PUSH1 0x0 PUSH1 0x20 DUP3 ADD SWAP1 POP DUP2 DUP2 SUB PUSH1 0x0 DUP4 ADD MSTORE PUSH2 0x4665 DUP2 PUSH2 0x40C2 JUMP JUMPDEST SWAP1 POP SWAP2 SWAP1 POP JUMP JUMPDEST PUSH1 0x0 PUSH1 0x20 DUP3 ADD SWAP1 POP DUP2 DUP2 SUB PUSH1 0x0 DUP4 ADD MSTORE PUSH2 0x4685 DUP2 PUSH2 0x40E5 JUMP JUMPDEST SWAP1 POP SWAP2 SWAP1 POP JUMP JUMPDEST PUSH1 0x0 PUSH1 0x20 DUP3 ADD SWAP1 POP DUP2 DUP2 SUB PUSH1 0x0 DUP4 ADD MSTORE PUSH2 0x46A5 DUP2 PUSH2 0x4108 JUMP JUMPDEST SWAP1 POP SWAP2 SWAP1 POP JUMP JUMPDEST PUSH1 0x0 PUSH1 0x20 DUP3 ADD SWAP1 POP DUP2 DUP2 SUB PUSH1 0x0 DUP4 ADD MSTORE PUSH2 0x46C5 DUP2 PUSH2 0x412B JUMP JUMPDEST SWAP1 POP SWAP2 SWAP1 POP JUMP JUMPDEST PUSH1 0x0 PUSH1 0x20 DUP3 ADD SWAP1 POP PUSH2 0x46E1 PUSH1 0x0 DUP4 ADD DUP5 PUSH2 0x415D JUMP JUMPDEST SWAP3 SWAP2 POP POP JUMP JUMPDEST PUSH1 0x0 PUSH1 0x40 DUP3 ADD SWAP1 POP PUSH2 0x46FC PUSH1 0x0 DUP4 ADD DUP6 PUSH2 0x415D JUMP JUMPDEST PUSH2 0x4709 PUSH1 0x20 DUP4 ADD DUP5 PUSH2 0x415D JUMP JUMPDEST SWAP4 SWAP3 POP POP POP JUMP JUMPDEST PUSH1 0x0 PUSH2 0x471A PUSH2 0x472B JUMP JUMPDEST SWAP1 POP PUSH2 0x4726 DUP3 DUP3 PUSH2 0x4AFD JUMP JUMPDEST SWAP2 SWAP1 POP JUMP JUMPDEST PUSH1 0x0 PUSH1 0x40 MLOAD SWAP1 POP SWAP1 JUMP JUMPDEST PUSH1 0x0 PUSH8 0xFFFFFFFFFFFFFFFF DUP3 GT ISZERO PUSH2 0x4750 JUMPI PUSH2 0x474F PUSH2 0x4C91 JUMP JUMPDEST JUMPDEST PUSH1 0x20 DUP3 MUL SWAP1 POP SWAP2 SWAP1 POP JUMP JUMPDEST PUSH1 0x0 PUSH8 0xFFFFFFFFFFFFFFFF DUP3 GT ISZERO PUSH2 0x4776 JUMPI PUSH2 0x4775 PUSH2 0x4C91 JUMP JUMPDEST JUMPDEST PUSH1 0x20 DUP3 MUL SWAP1 POP PUSH1 0x20 DUP2 ADD SWAP1 POP SWAP2 SWAP1 POP JUMP JUMPDEST PUSH1 0x0 DUP2 SWAP1 POP SWAP2 SWAP1 POP JUMP JUMPDEST PUSH1 0x0 DUP2 SWAP1 POP PUSH1 0x20 DUP3 ADD SWAP1 POP SWAP2 SWAP1 POP JUMP JUMPDEST PUSH1 0x0 DUP2 SWAP1 POP PUSH1 0x20 DUP3 ADD SWAP1 POP SWAP2 SWAP1 POP JUMP JUMPDEST PUSH1 0x0 PUSH1 0x6 SWAP1 POP SWAP2 SWAP1 POP JUMP JUMPDEST PUSH1 0x0 DUP2 MLOAD SWAP1 POP SWAP2 SWAP1 POP JUMP JUMPDEST PUSH1 0x0 DUP2 MLOAD SWAP1 POP SWAP2 SWAP1 POP JUMP JUMPDEST PUSH1 0x0 DUP2 MLOAD SWAP1 POP SWAP2 SWAP1 POP JUMP JUMPDEST PUSH1 0x0 DUP2 MLOAD SWAP1 POP SWAP2 SWAP1 POP JUMP JUMPDEST PUSH1 0x0 PUSH1 0x20 DUP3 ADD SWAP1 POP SWAP2 SWAP1 POP JUMP JUMPDEST PUSH1 0x0 PUSH1 0x20 DUP3 ADD SWAP1 POP SWAP2 SWAP1 POP JUMP JUMPDEST PUSH1 0x0 PUSH1 0x20 DUP3 ADD SWAP1 POP SWAP2 SWAP1 POP JUMP JUMPDEST PUSH1 0x0 DUP2 SWAP1 POP SWAP3 SWAP2 POP POP JUMP JUMPDEST PUSH1 0x0 DUP3 DUP3 MSTORE PUSH1 0x20 DUP3 ADD SWAP1 POP SWAP3 SWAP2 POP POP JUMP JUMPDEST PUSH1 0x0 DUP3 DUP3 MSTORE PUSH1 0x20 DUP3 ADD SWAP1 POP SWAP3 SWAP2 POP POP JUMP JUMPDEST PUSH1 0x0 DUP2 SWAP1 POP SWAP3 SWAP2 POP POP JUMP JUMPDEST PUSH1 0x0 DUP3 DUP3 MSTORE PUSH1 0x20 DUP3 ADD SWAP1 POP SWAP3 SWAP2 POP POP JUMP JUMPDEST PUSH1 0x0 PUSH2 0x4863 DUP3 PUSH2 0x4A2C JUMP JUMPDEST SWAP2 POP PUSH2 0x486E DUP4 PUSH2 0x4A2C JUMP JUMPDEST SWAP3 POP DUP3 PUSH32 0xFFFFFFFFFFFFFFFFFFFFFFFFFFFFFFFFFFFFFFFFFFFFFFFFFFFFFFFFFFFFFFFF SUB DUP3 GT ISZERO PUSH2 0x48A3 JUMPI PUSH2 0x48A2 PUSH2 0x4BD5 JUMP JUMPDEST JUMPDEST DUP3 DUP3 ADD SWAP1 POP SWAP3 SWAP2 POP POP JUMP JUMPDEST PUSH1 0x0 PUSH2 0x48B9 DUP3 PUSH2 0x4A36 JUMP JUMPDEST SWAP2 POP PUSH2 0x48C4 DUP4 PUSH2 0x4A36 JUMP JUMPDEST SWAP3 POP DUP3 PUSH4 0xFFFFFFFF SUB DUP3 GT ISZERO PUSH2 0x48DD JUMPI PUSH2 0x48DC PUSH2 0x4BD5 JUMP JUMPDEST JUMPDEST DUP3 DUP3 ADD SWAP1 POP SWAP3 SWAP2 POP POP JUMP JUMPDEST PUSH1 0x0 PUSH2 0x48F3 DUP3 PUSH2 0x4A2C JUMP JUMPDEST SWAP2 POP PUSH2 0x48FE DUP4 PUSH2 0x4A2C JUMP JUMPDEST SWAP3 POP DUP3 PUSH2 0x490E JUMPI PUSH2 0x490D PUSH2 0x4C04 JUMP JUMPDEST JUMPDEST DUP3 DUP3 DIV SWAP1 POP SWAP3 SWAP2 POP POP JUMP JUMPDEST PUSH1 0x0 PUSH2 0x4924 DUP3 PUSH2 0x4A2C JUMP JUMPDEST SWAP2 POP PUSH2 0x492F DUP4 PUSH2 0x4A2C JUMP JUMPDEST SWAP3 POP DUP2 PUSH32 0xFFFFFFFFFFFFFFFFFFFFFFFFFFFFFFFFFFFFFFFFFFFFFFFFFFFFFFFFFFFFFFFF DIV DUP4 GT DUP3 ISZERO ISZERO AND ISZERO PUSH2 0x4968 JUMPI PUSH2 0x4967 PUSH2 0x4BD5 JUMP JUMPDEST JUMPDEST DUP3 DUP3 MUL SWAP1 POP SWAP3 SWAP2 POP POP JUMP JUMPDEST PUSH1 0x0 PUSH2 0x497E DUP3 PUSH2 0x4A2C JUMP JUMPDEST SWAP2 POP PUSH2 0x4989 DUP4 PUSH2 0x4A2C JUMP JUMPDEST SWAP3 POP DUP3 DUP3 LT ISZERO PUSH2 0x499C JUMPI PUSH2 0x499B PUSH2 0x4BD5 JUMP JUMPDEST JUMPDEST DUP3 DUP3 SUB SWAP1 POP SWAP3 SWAP2 POP POP JUMP JUMPDEST PUSH1 0x0 PUSH2 0x49B2 DUP3 PUSH2 0x4A36 JUMP JUMPDEST SWAP2 POP PUSH2 0x49BD DUP4 PUSH2 0x4A36 JUMP JUMPDEST SWAP3 POP DUP3 DUP3 LT ISZERO PUSH2 0x49D0 JUMPI PUSH2 0x49CF PUSH2 0x4BD5 JUMP JUMPDEST JUMPDEST DUP3 DUP3 SUB SWAP1 POP SWAP3 SWAP2 POP POP JUMP JUMPDEST PUSH1 0x0 PUSH2 0x49E6 DUP3 PUSH2 0x4A0C JUMP JUMPDEST SWAP1 POP SWAP2 SWAP1 POP JUMP JUMPDEST PUSH1 0x0 DUP2 ISZERO ISZERO SWAP1 POP SWAP2 SWAP1 POP JUMP JUMPDEST PUSH1 0x0 DUP2 SWAP1 POP PUSH2 0x4A07 DUP3 PUSH2 0x53A3 JUMP JUMPDEST SWAP2 SWAP1 POP JUMP JUMPDEST PUSH1 0x0 PUSH20 0xFFFFFFFFFFFFFFFFFFFFFFFFFFFFFFFFFFFFFFFF DUP3 AND SWAP1 POP SWAP2 SWAP1 POP JUMP JUMPDEST PUSH1 0x0 DUP2 SWAP1 POP SWAP2 SWAP1 POP JUMP JUMPDEST PUSH1 0x0 PUSH4 0xFFFFFFFF DUP3 AND SWAP1 POP SWAP2 SWAP1 POP JUMP JUMPDEST PUSH1 0x0 PUSH2 0x4A51 DUP3 PUSH2 0x4A58 JUMP JUMPDEST SWAP1 POP SWAP2 SWAP1 POP JUMP JUMPDEST PUSH1 0x0 PUSH2 0x4A63 DUP3 PUSH2 0x4A0C JUMP JUMPDEST SWAP1 POP SWAP2 SWAP1 POP JUMP JUMPDEST PUSH1 0x0 PUSH2 0x4A75 DUP3 PUSH2 0x4A7C JUMP JUMPDEST SWAP1 POP SWAP2 SWAP1 POP JUMP JUMPDEST PUSH1 0x0 PUSH2 0x4A87 DUP3 PUSH2 0x4A0C JUMP JUMPDEST SWAP1 POP SWAP2 SWAP1 POP JUMP JUMPDEST PUSH1 0x0 PUSH2 0x4A99 DUP3 PUSH2 0x49F9 JUMP JUMPDEST SWAP1 POP SWAP2 SWAP1 POP JUMP JUMPDEST PUSH1 0x0 JUMPDEST DUP4 DUP2 LT ISZERO PUSH2 0x4ABE JUMPI DUP1 DUP3 ADD MLOAD DUP2 DUP5 ADD MSTORE PUSH1 0x20 DUP2 ADD SWAP1 POP PUSH2 0x4AA3 JUMP JUMPDEST DUP4 DUP2 GT ISZERO PUSH2 0x4ACD JUMPI PUSH1 0x0 DUP5 DUP5 ADD MSTORE JUMPDEST POP POP POP POP JUMP JUMPDEST PUSH1 0x0 PUSH2 0x4ADE DUP3 PUSH2 0x4A2C JUMP JUMPDEST SWAP2 POP PUSH1 0x0 DUP3 EQ ISZERO PUSH2 0x4AF2 JUMPI PUSH2 0x4AF1 PUSH2 0x4BD5 JUMP JUMPDEST JUMPDEST PUSH1 0x1 DUP3 SUB SWAP1 POP SWAP2 SWAP1 POP JUMP JUMPDEST PUSH2 0x4B06 DUP3 PUSH2 0x4CD9 JUMP JUMPDEST DUP2 ADD DUP2 DUP2 LT PUSH8 0xFFFFFFFFFFFFFFFF DUP3 GT OR ISZERO PUSH2 0x4B25 JUMPI PUSH2 0x4B24 PUSH2 0x4C91 JUMP JUMPDEST JUMPDEST DUP1 PUSH1 0x40 MSTORE POP POP POP JUMP JUMPDEST PUSH1 0x0 PUSH2 0x4B39 DUP3 PUSH2 0x4A2C JUMP JUMPDEST SWAP2 POP PUSH32 0xFFFFFFFFFFFFFFFFFFFFFFFFFFFFFFFFFFFFFFFFFFFFFFFFFFFFFFFFFFFFFFFF DUP3 EQ ISZERO PUSH2 0x4B6C JUMPI PUSH2 0x4B6B PUSH2 0x4BD5 JUMP JUMPDEST JUMPDEST PUSH1 0x1 DUP3 ADD SWAP1 POP SWAP2 SWAP1 POP JUMP JUMPDEST PUSH1 0x0 PUSH2 0x4B82 DUP3 PUSH2 0x4A36 JUMP JUMPDEST SWAP2 POP PUSH4 0xFFFFFFFF DUP3 EQ ISZERO PUSH2 0x4B99 JUMPI PUSH2 0x4B98 PUSH2 0x4BD5 JUMP JUMPDEST JUMPDEST PUSH1 0x1 DUP3 ADD SWAP1 POP SWAP2 SWAP1 POP JUMP JUMPDEST PUSH1 0x0 PUSH2 0x4BAF DUP3 PUSH2 0x4A2C JUMP JUMPDEST SWAP2 POP PUSH2 0x4BBA DUP4 PUSH2 0x4A2C JUMP JUMPDEST SWAP3 POP DUP3 PUSH2 0x4BCA JUMPI PUSH2 0x4BC9 PUSH2 0x4C04 JUMP JUMPDEST JUMPDEST DUP3 DUP3 MOD SWAP1 POP SWAP3 SWAP2 POP POP JUMP JUMPDEST PUSH32 0x4E487B7100000000000000000000000000000000000000000000000000000000 PUSH1 0x0 MSTORE PUSH1 0x11 PUSH1 0x4 MSTORE PUSH1 0x24 PUSH1 0x0 REVERT JUMPDEST PUSH32 0x4E487B7100000000000000000000000000000000000000000000000000000000 PUSH1 0x0 MSTORE PUSH1 0x12 PUSH1 0x4 MSTORE PUSH1 0x24 PUSH1 0x0 REVERT JUMPDEST PUSH32 0x4E487B7100000000000000000000000000000000000000000000000000000000 PUSH1 0x0 MSTORE PUSH1 0x21 PUSH1 0x4 MSTORE PUSH1 0x24 PUSH1 0x0 REVERT JUMPDEST PUSH32 0x4E487B7100000000000000000000000000000000000000000000000000000000 PUSH1 0x0 MSTORE PUSH1 0x32 PUSH1 0x4 MSTORE PUSH1 0x24 PUSH1 0x0 REVERT JUMPDEST PUSH32 0x4E487B7100000000000000000000000000000000000000000000000000000000 PUSH1 0x0 MSTORE PUSH1 0x41 PUSH1 0x4 MSTORE PUSH1 0x24 PUSH1 0x0 REVERT JUMPDEST PUSH1 0x0 DUP1 REVERT JUMPDEST PUSH1 0x0 DUP1 REVERT JUMPDEST PUSH1 0x0 DUP1 REVERT JUMPDEST PUSH1 0x0 DUP1 REVERT JUMPDEST PUSH1 0x0 DUP1 REVERT JUMPDEST PUSH1 0x0 PUSH1 0x1F NOT PUSH1 0x1F DUP4 ADD AND SWAP1 POP SWAP2 SWAP1 POP JUMP JUMPDEST PUSH32 0x43616E6E6F74207374617274206C6F7474657279206265666F72652073746172 PUSH1 0x0 DUP3 ADD MSTORE PUSH32 0x7454696D65000000000000000000000000000000000000000000000000000000 PUSH1 0x20 DUP3 ADD MSTORE POP JUMP JUMPDEST PUSH32 0x7265717565737452616E646F6D6E6573732063616E6E6F742062652063616C6C PUSH1 0x0 DUP3 ADD MSTORE PUSH32 0x656420696E207468652073616D6520626C6F636B20617320636C6F73654C6F74 PUSH1 0x20 DUP3 ADD MSTORE PUSH32 0x7465727900000000000000000000000000000000000000000000000000000000 PUSH1 0x40 DUP3 ADD MSTORE POP JUMP JUMPDEST PUSH32 0x496E76616C6964207469636B6574496400000000000000000000000000000000 PUSH1 0x0 DUP3 ADD MSTORE POP JUMP JUMPDEST PUSH32 0x43616E6E6F742072657365742077697468203020737461727454696D6520616E PUSH1 0x0 DUP3 ADD MSTORE PUSH32 0x6420656E6454696D650000000000000000000000000000000000000000000000 PUSH1 0x20 DUP3 ADD MSTORE POP JUMP JUMPDEST PUSH32 0x4F776E61626C653A206E6577206F776E657220697320746865207A65726F2061 PUSH1 0x0 DUP3 ADD MSTORE PUSH32 0x6464726573730000000000000000000000000000000000000000000000000000 PUSH1 0x20 DUP3 ADD MSTORE POP JUMP JUMPDEST PUSH32 0x43616E6E6F742064726177206C6F747465727920616674657220656E64526577 PUSH1 0x0 DUP3 ADD MSTORE PUSH32 0x61726454696D6500000000000000000000000000000000000000000000000000 PUSH1 0x20 DUP3 ADD MSTORE POP JUMP JUMPDEST PUSH32 0x436F6E7472616374206E6F7420616C6C6F776564000000000000000000000000 PUSH1 0x0 DUP3 ADD MSTORE POP JUMP JUMPDEST PUSH32 0x43616E2774206368616E67652072657761726473206E6F770000000000000000 PUSH1 0x0 DUP3 ADD MSTORE POP JUMP JUMPDEST PUSH32 0x4C6F747465727920616C72656164792073746172746564000000000000000000 PUSH1 0x0 DUP3 ADD MSTORE POP JUMP JUMPDEST PUSH32 0x43616E6E6F7420636C61696D207469636B65747320616674657220656E645265 PUSH1 0x0 DUP3 ADD MSTORE PUSH32 0x7761726454696D65000000000000000000000000000000000000000000000000 PUSH1 0x20 DUP3 ADD MSTORE POP JUMP JUMPDEST PUSH32 0x416464726573733A20696E73756666696369656E742062616C616E636520666F PUSH1 0x0 DUP3 ADD MSTORE PUSH32 0x722063616C6C0000000000000000000000000000000000000000000000000000 PUSH1 0x20 DUP3 ADD MSTORE POP JUMP JUMPDEST PUSH32 0x43616E6E6F74207374617274207769746820737461727454696D6520696E2074 PUSH1 0x0 DUP3 ADD MSTORE PUSH32 0x6865207061737400000000000000000000000000000000000000000000000000 PUSH1 0x20 DUP3 ADD MSTORE POP JUMP JUMPDEST PUSH32 0x4C6F7474657279206E6F7420636C61696D61626C650000000000000000000000 PUSH1 0x0 DUP3 ADD MSTORE POP JUMP JUMPDEST PUSH32 0x72657665616C52616E646F6D6E6573732063616E6E6F742062652063616C6C65 PUSH1 0x0 DUP3 ADD MSTORE PUSH32 0x6420696E207468652073616D6520626C6F636B20617320726571756573745261 PUSH1 0x20 DUP3 ADD MSTORE PUSH32 0x6E646F6D6E657373000000000000000000000000000000000000000000000000 PUSH1 0x40 DUP3 ADD MSTORE POP JUMP JUMPDEST PUSH32 0x4E6F7420656E6F7567682055534420746F20627579207469636B657400000000 PUSH1 0x0 DUP3 ADD MSTORE POP JUMP JUMPDEST PUSH32 0x43616E6E6F74206275792030207469636B657473000000000000000000000000 PUSH1 0x0 DUP3 ADD MSTORE POP JUMP JUMPDEST PUSH32 0x50726F787920636F6E7472616374206E6F7420616C6C6F776564000000000000 PUSH1 0x0 DUP3 ADD MSTORE POP JUMP JUMPDEST PUSH32 0x4E6F207265776172640000000000000000000000000000000000000000000000 PUSH1 0x0 DUP3 ADD MSTORE POP JUMP JUMPDEST PUSH32 0x4F776E61626C653A2063616C6C6572206973206E6F7420746865206F776E6572 PUSH1 0x0 DUP3 ADD MSTORE POP JUMP JUMPDEST PUSH32 0x43616E6E6F7420627579207469636B65747320616674657220656E6454696D65 PUSH1 0x0 DUP3 ADD MSTORE POP JUMP JUMPDEST PUSH32 0x4C6F7474657279206E6F74206F70656E00000000000000000000000000000000 PUSH1 0x0 DUP3 ADD MSTORE POP JUMP JUMPDEST PUSH32 0x43616E6E6F7420636C61696D2030207469636B65747300000000000000000000 PUSH1 0x0 DUP3 ADD MSTORE POP JUMP JUMPDEST PUSH32 0x43616E6E6F7420636C6F7365206C6F7474657279206265666F726520656E6454 PUSH1 0x0 DUP3 ADD MSTORE PUSH32 0x696D650000000000000000000000000000000000000000000000000000000000 PUSH1 0x20 DUP3 ADD MSTORE POP JUMP JUMPDEST PUSH32 0x416464726573733A2063616C6C20746F206E6F6E2D636F6E7472616374000000 PUSH1 0x0 DUP3 ADD MSTORE POP JUMP JUMPDEST PUSH32 0x43616E6E6F74207265736574206265666F726520656E6452657761726454696D PUSH1 0x0 DUP3 ADD MSTORE PUSH32 0x6500000000000000000000000000000000000000000000000000000000000000 PUSH1 0x20 DUP3 ADD MSTORE POP JUMP JUMPDEST PUSH32 0x5361666545524332303A204552433230206F7065726174696F6E20646964206E PUSH1 0x0 DUP3 ADD MSTORE PUSH32 0x6F74207375636365656400000000000000000000000000000000000000000000 PUSH1 0x20 DUP3 ADD MSTORE POP JUMP JUMPDEST PUSH32 0x5265656E7472616E637947756172643A207265656E7472616E742063616C6C00 PUSH1 0x0 DUP3 ADD MSTORE POP JUMP JUMPDEST PUSH32 0x4C6F7474657279206E6F7420636C6F7365640000000000000000000000000000 PUSH1 0x0 DUP3 ADD MSTORE POP JUMP JUMPDEST PUSH32 0x4E6F7420746865206F776E6572206F6620746865207469636B65740000000000 PUSH1 0x0 DUP3 ADD MSTORE POP JUMP JUMPDEST PUSH1 0x4 DUP2 LT PUSH2 0x53B4 JUMPI PUSH2 0x53B3 PUSH2 0x4C33 JUMP JUMPDEST JUMPDEST POP JUMP JUMPDEST PUSH2 0x53C0 DUP2 PUSH2 0x49DB JUMP JUMPDEST DUP2 EQ PUSH2 0x53CB JUMPI PUSH1 0x0 DUP1 REVERT JUMPDEST POP JUMP JUMPDEST PUSH2 0x53D7 DUP2 PUSH2 0x49ED JUMP JUMPDEST DUP2 EQ PUSH2 0x53E2 JUMPI PUSH1 0x0 DUP1 REVERT JUMPDEST POP JUMP JUMPDEST PUSH2 0x53EE DUP2 PUSH2 0x4A2C JUMP JUMPDEST DUP2 EQ PUSH2 0x53F9 JUMPI PUSH1 0x0 DUP1 REVERT JUMPDEST POP JUMP INVALID LOG2 PUSH5 0x6970667358 0x22 SLT KECCAK256 ADD SWAP9 PUSH8 0x2732813FE5A2AD2F 0xD PUSH26 0xD51300390E4AD19FE56D2D46FD882DFA8AA76564736F6C634300 ADDMOD MOD STOP CALLER "},"methodIdentifiers":{"buyTickets(uint256[])":"d0fbe7fe","claimTickets(uint256[])":"88c61855","closeBlockNumber()":"c079fead","closeLottery()":"6fd09816","currentTicketId()":"686465b8","endRewardTime()":"02a24770","endTime()":"3197cbb6","finalNumber()":"dae58da8","getRandomTicketNumber(uint256)":"cba15a8e","jackpotAmount()":"b1eac37e","lotteryLength()":"49c01d3f","owner()":"8da5cb5b","randomGenerator()":"dcbad90d","renounceOwnership()":"715018a6","requestRandomness(uint256)":"7363ae1f","requestRandomnessBlockNumber()":"e94f6955","resetForNewLottery(uint256,uint256)":"5fea10c6","revealRandomness(uint256)":"d75cd444","rewardingLength()":"42043170","rewardsBreakdown(uint256)":"97ff1cac","rewardsForBracket(uint256)":"1d0769ca","setEndRewardTime(uint256)":"e76a0526","setEndTime(uint256)":"ccb98ffc","setRandomGenerator(address)":"4bc19fee","setRewardsBreakdown(uint256[6])":"68f5f2b0","setStartTime(uint256)":"3e0a322d","setTicketPrice(uint256)":"15981650","setTreasuryAddresses(address)":"ec573d1c","setTreasuryFee(uint256)":"77e741c7","setUSDToken(address)":"218fe3a5","startLottery()":"160344e2","startTime()":"78e97925","status()":"200d2ed2","ticketPrice()":"1209b1f6","transferOwnership(address)":"f2fde38b","treasuryAddress()":"c5f956af","treasuryFee()":"cc32d176","usdToken()":"f897a22b","viewClaimableTicketsOfAddress(address)":"4704370c","viewMyRewardsAmount()":"fca6d0df","viewResult()":"3cff0380","viewRewardsAmount(uint256[])":"477f4eaf","viewRewardsBreakdown()":"65d4517c","viewRewardsForBracket()":"0094cd31","viewTicket(uint256)":"6b9a7d01","viewTicketNumber(uint256)":"1ca1502f","viewTicketsOfAddress(address)":"3f5bffb7","withdrawAll()":"853828b6"}}}}}