{
  "_format": "hh-sol-artifact-1",
  "contractName": "Lotto666",
  "sourceName": "contracts/Lotto.sol",
  "abi": [
    {
      "inputs": [
        {
          "internalType": "address",
          "name": "_usdTokenAddress",
          "type": "address"
        },
        {
          "internalType": "address",
          "name": "_randomGeneratorAddress",
          "type": "address"
        },
        {
          "internalType": "address",
          "name": "_treasuryAddress",
          "type": "address"
        }
      ],
      "stateMutability": "nonpayable",
      "type": "constructor"
    },
    {
      "anonymous": false,
      "inputs": [
        {
          "indexed": true,
          "internalType": "uint256",
          "name": "startTime",
          "type": "uint256"
        },
        {
          "indexed": false,
          "internalType": "uint256",
          "name": "finalNumber",
          "type": "uint256"
        },
        {
          "indexed": false,
          "internalType": "uint256",
          "name": "countWinningTickets",
          "type": "uint256"
        }
      ],
      "name": "LotteryDrawn",
      "type": "event"
    },
    {
      "anonymous": false,
      "inputs": [
        {
          "indexed": true,
          "internalType": "uint256",
          "name": "startTime",
          "type": "uint256"
        }
      ],
      "name": "LotterySet",
      "type": "event"
    },
    {
      "anonymous": false,
      "inputs": [
        {
          "indexed": true,
          "internalType": "address",
          "name": "randomGenerator",
          "type": "address"
        }
      ],
      "name": "NewRandomGenerator",
      "type": "event"
    },
    {
      "anonymous": false,
      "inputs": [
        {
          "indexed": true,
          "internalType": "address",
          "name": "treasury",
          "type": "address"
        }
      ],
      "name": "NewTreasuryAddress",
      "type": "event"
    },
    {
      "anonymous": false,
      "inputs": [
        {
          "indexed": true,
          "internalType": "address",
          "name": "previousOwner",
          "type": "address"
        },
        {
          "indexed": true,
          "internalType": "address",
          "name": "newOwner",
          "type": "address"
        }
      ],
      "name": "OwnershipTransferred",
      "type": "event"
    },
    {
      "anonymous": false,
      "inputs": [
        {
          "indexed": true,
          "internalType": "address",
          "name": "claimer",
          "type": "address"
        },
        {
          "indexed": false,
          "internalType": "uint256",
          "name": "amount",
          "type": "uint256"
        }
      ],
      "name": "TicketsClaim",
      "type": "event"
    },
    {
      "anonymous": false,
      "inputs": [
        {
          "indexed": true,
          "internalType": "address",
          "name": "buyer",
          "type": "address"
        },
        {
          "indexed": false,
          "internalType": "uint256",
          "name": "numberTickets",
          "type": "uint256"
        }
      ],
      "name": "TicketsPurchase",
      "type": "event"
    },
    {
      "inputs": [
        {
          "internalType": "uint256[]",
          "name": "_ticketNumbers",
          "type": "uint256[]"
        }
      ],
      "name": "buyTickets",
      "outputs": [],
      "stateMutability": "nonpayable",
      "type": "function"
    },
    {
      "inputs": [
        {
          "internalType": "uint256[]",
          "name": "_ticketIds",
          "type": "uint256[]"
        }
      ],
      "name": "claimTickets",
      "outputs": [],
      "stateMutability": "nonpayable",
      "type": "function"
    },
    {
      "inputs": [],
      "name": "closeBlockNumber",
      "outputs": [
        {
          "internalType": "uint256",
          "name": "",
          "type": "uint256"
        }
      ],
      "stateMutability": "view",
      "type": "function"
    },
    {
      "inputs": [],
      "name": "closeLottery",
      "outputs": [],
      "stateMutability": "nonpayable",
      "type": "function"
    },
    {
      "inputs": [],
      "name": "currentTicketId",
      "outputs": [
        {
          "internalType": "uint256",
          "name": "",
          "type": "uint256"
        }
      ],
      "stateMutability": "view",
      "type": "function"
    },
    {
      "inputs": [],
      "name": "endRewardTime",
      "outputs": [
        {
          "internalType": "uint256",
          "name": "",
          "type": "uint256"
        }
      ],
      "stateMutability": "view",
      "type": "function"
    },
    {
      "inputs": [],
      "name": "endTime",
      "outputs": [
        {
          "internalType": "uint256",
          "name": "",
          "type": "uint256"
        }
      ],
      "stateMutability": "view",
      "type": "function"
    },
    {
      "inputs": [],
      "name": "finalNumber",
      "outputs": [
        {
          "internalType": "uint256",
          "name": "",
          "type": "uint256"
        }
      ],
      "stateMutability": "view",
      "type": "function"
    },
    {
      "inputs": [
        {
          "internalType": "uint256",
          "name": "randomNumber",
          "type": "uint256"
        }
      ],
      "name": "getRandomTicketNumber",
      "outputs": [
        {
          "internalType": "uint256",
          "name": "",
          "type": "uint256"
        }
      ],
      "stateMutability": "pure",
      "type": "function"
    },
    {
      "inputs": [],
      "name": "jackpotAmount",
      "outputs": [
        {
          "internalType": "uint256",
          "name": "",
          "type": "uint256"
        }
      ],
      "stateMutability": "view",
      "type": "function"
    },
    {
      "inputs": [],
      "name": "lotteryLength",
      "outputs": [
        {
          "internalType": "uint256",
          "name": "",
          "type": "uint256"
        }
      ],
      "stateMutability": "view",
      "type": "function"
    },
    {
      "inputs": [],
      "name": "owner",
      "outputs": [
        {
          "internalType": "address",
          "name": "",
          "type": "address"
        }
      ],
      "stateMutability": "view",
      "type": "function"
    },
    {
      "inputs": [],
      "name": "randomGenerator",
      "outputs": [
        {
          "internalType": "contract IRandomNumberGenerator",
          "name": "",
          "type": "address"
        }
      ],
      "stateMutability": "view",
      "type": "function"
    },
    {
      "inputs": [],
      "name": "renounceOwnership",
      "outputs": [],
      "stateMutability": "nonpayable",
      "type": "function"
    },
    {
      "inputs": [
        {
          "internalType": "uint256",
          "name": "seedHash",
          "type": "uint256"
        }
      ],
      "name": "requestRandomness",
      "outputs": [],
      "stateMutability": "nonpayable",
      "type": "function"
    },
    {
      "inputs": [],
      "name": "requestRandomnessBlockNumber",
      "outputs": [
        {
          "internalType": "uint256",
          "name": "",
          "type": "uint256"
        }
      ],
      "stateMutability": "view",
      "type": "function"
    },
    {
      "inputs": [
        {
          "internalType": "uint256",
          "name": "_startTime",
          "type": "uint256"
        },
        {
          "internalType": "uint256",
          "name": "_endTime",
          "type": "uint256"
        }
      ],
      "name": "resetForNewLottery",
      "outputs": [],
      "stateMutability": "nonpayable",
      "type": "function"
    },
    {
      "inputs": [
        {
          "internalType": "uint256",
          "name": "seed",
          "type": "uint256"
        }
      ],
      "name": "revealRandomness",
      "outputs": [],
      "stateMutability": "nonpayable",
      "type": "function"
    },
    {
      "inputs": [],
      "name": "rewardingLength",
      "outputs": [
        {
          "internalType": "uint256",
          "name": "",
          "type": "uint256"
        }
      ],
      "stateMutability": "view",
      "type": "function"
    },
    {
      "inputs": [
        {
          "internalType": "uint256",
          "name": "",
          "type": "uint256"
        }
      ],
      "name": "rewardsBreakdown",
      "outputs": [
        {
          "internalType": "uint256",
          "name": "",
          "type": "uint256"
        }
      ],
      "stateMutability": "view",
      "type": "function"
    },
    {
      "inputs": [
        {
          "internalType": "uint256",
          "name": "",
          "type": "uint256"
        }
      ],
      "name": "rewardsForBracket",
      "outputs": [
        {
          "internalType": "uint256",
          "name": "",
          "type": "uint256"
        }
      ],
      "stateMutability": "view",
      "type": "function"
    },
    {
      "inputs": [
        {
          "internalType": "uint256",
          "name": "_endRewardTime",
          "type": "uint256"
        }
      ],
      "name": "setEndRewardTime",
      "outputs": [],
      "stateMutability": "nonpayable",
      "type": "function"
    },
    {
      "inputs": [
        {
          "internalType": "uint256",
          "name": "_endTime",
          "type": "uint256"
        }
      ],
      "name": "setEndTime",
      "outputs": [],
      "stateMutability": "nonpayable",
      "type": "function"
    },
    {
      "inputs": [
        {
          "internalType": "address",
          "name": "_randomGeneratorAddress",
          "type": "address"
        }
      ],
      "name": "setRandomGenerator",
      "outputs": [],
      "stateMutability": "nonpayable",
      "type": "function"
    },
    {
      "inputs": [
        {
          "internalType": "uint256[6]",
          "name": "_rewardsBreakdown",
          "type": "uint256[6]"
        }
      ],
      "name": "setRewardsBreakdown",
      "outputs": [],
      "stateMutability": "nonpayable",
      "type": "function"
    },
    {
      "inputs": [
        {
          "internalType": "uint256",
          "name": "_startTime",
          "type": "uint256"
        }
      ],
      "name": "setStartTime",
      "outputs": [],
      "stateMutability": "nonpayable",
      "type": "function"
    },
    {
      "inputs": [
        {
          "internalType": "uint256",
          "name": "_ticketPrice",
          "type": "uint256"
        }
      ],
      "name": "setTicketPrice",
      "outputs": [],
      "stateMutability": "nonpayable",
      "type": "function"
    },
    {
      "inputs": [
        {
          "internalType": "address",
          "name": "_treasuryAddress",
          "type": "address"
        }
      ],
      "name": "setTreasuryAddresses",
      "outputs": [],
      "stateMutability": "nonpayable",
      "type": "function"
    },
    {
      "inputs": [
        {
          "internalType": "uint256",
          "name": "_treasuryFee",
          "type": "uint256"
        }
      ],
      "name": "setTreasuryFee",
      "outputs": [],
      "stateMutability": "nonpayable",
      "type": "function"
    },
    {
      "inputs": [
        {
          "internalType": "address",
          "name": "_usdTokenAddress",
          "type": "address"
        }
      ],
      "name": "setUSDToken",
      "outputs": [],
      "stateMutability": "nonpayable",
      "type": "function"
    },
    {
      "inputs": [],
      "name": "startLottery",
      "outputs": [],
      "stateMutability": "nonpayable",
      "type": "function"
    },
    {
      "inputs": [],
      "name": "startTime",
      "outputs": [
        {
          "internalType": "uint256",
          "name": "",
          "type": "uint256"
        }
      ],
      "stateMutability": "view",
      "type": "function"
    },
    {
      "inputs": [],
      "name": "status",
      "outputs": [
        {
          "internalType": "enum Lotto666.Status",
          "name": "",
          "type": "uint8"
        }
      ],
      "stateMutability": "view",
      "type": "function"
    },
    {
      "inputs": [],
      "name": "ticketPrice",
      "outputs": [
        {
          "internalType": "uint256",
          "name": "",
          "type": "uint256"
        }
      ],
      "stateMutability": "view",
      "type": "function"
    },
    {
      "inputs": [
        {
          "internalType": "address",
          "name": "newOwner",
          "type": "address"
        }
      ],
      "name": "transferOwnership",
      "outputs": [],
      "stateMutability": "nonpayable",
      "type": "function"
    },
    {
      "inputs": [],
      "name": "treasuryAddress",
      "outputs": [
        {
          "internalType": "address",
          "name": "",
          "type": "address"
        }
      ],
      "stateMutability": "view",
      "type": "function"
    },
    {
      "inputs": [],
      "name": "treasuryFee",
      "outputs": [
        {
          "internalType": "uint256",
          "name": "",
          "type": "uint256"
        }
      ],
      "stateMutability": "view",
      "type": "function"
    },
    {
      "inputs": [],
      "name": "usdToken",
      "outputs": [
        {
          "internalType": "contract IERC20",
          "name": "",
          "type": "address"
        }
      ],
      "stateMutability": "view",
      "type": "function"
    },
    {
      "inputs": [
        {
          "internalType": "address",
          "name": "owner",
          "type": "address"
        }
      ],
      "name": "viewClaimableTicketsOfAddress",
      "outputs": [
        {
          "internalType": "uint256[]",
          "name": "",
          "type": "uint256[]"
        }
      ],
      "stateMutability": "view",
      "type": "function"
    },
    {
      "inputs": [],
      "name": "viewMyRewardsAmount",
      "outputs": [
        {
          "internalType": "uint256",
          "name": "",
          "type": "uint256"
        }
      ],
      "stateMutability": "view",
      "type": "function"
    },
    {
      "inputs": [],
      "name": "viewResult",
      "outputs": [
        {
          "internalType": "uint32[]",
          "name": "",
          "type": "uint32[]"
        }
      ],
      "stateMutability": "view",
      "type": "function"
    },
    {
      "inputs": [
        {
          "internalType": "uint256[]",
          "name": "_ticketIds",
          "type": "uint256[]"
        }
      ],
      "name": "viewRewardsAmount",
      "outputs": [
        {
          "internalType": "uint256",
          "name": "",
          "type": "uint256"
        }
      ],
      "stateMutability": "view",
      "type": "function"
    },
    {
      "inputs": [],
      "name": "viewRewardsBreakdown",
      "outputs": [
        {
          "internalType": "uint256[6]",
          "name": "",
          "type": "uint256[6]"
        }
      ],
      "stateMutability": "view",
      "type": "function"
    },
    {
      "inputs": [],
      "name": "viewRewardsForBracket",
      "outputs": [
        {
          "internalType": "uint256[6]",
          "name": "",
          "type": "uint256[6]"
        }
      ],
      "stateMutability": "view",
      "type": "function"
    },
    {
      "inputs": [
        {
          "internalType": "uint256",
          "name": "ticketId",
          "type": "uint256"
        }
      ],
      "name": "viewTicket",
      "outputs": [
        {
          "internalType": "uint32[]",
          "name": "",
          "type": "uint32[]"
        },
        {
          "internalType": "uint32",
          "name": "",
          "type": "uint32"
        },
        {
          "internalType": "address",
          "name": "",
          "type": "address"
        }
      ],
      "stateMutability": "view",
      "type": "function"
    },
    {
      "inputs": [
        {
          "internalType": "uint256",
          "name": "number",
          "type": "uint256"
        }
      ],
      "name": "viewTicketNumber",
      "outputs": [
        {
          "internalType": "uint32[]",
          "name": "",
          "type": "uint32[]"
        }
      ],
      "stateMutability": "pure",
      "type": "function"
    },
    {
      "inputs": [
        {
          "internalType": "address",
          "name": "owner",
          "type": "address"
        }
      ],
      "name": "viewTicketsOfAddress",
      "outputs": [
        {
          "internalType": "uint256[]",
          "name": "",
          "type": "uint256[]"
        }
      ],
      "stateMutability": "view",
      "type": "function"
    },
    {
      "inputs": [],
      "name": "withdrawAll",
      "outputs": [],
      "stateMutability": "nonpayable",
      "type": "function"
    }
  ],
  "bytecode": "0x60806040526001600255671bc16d674ec800006004556000600755600060085560006009556000600b5562069780600c5562026ac0600d556000600e60006101000a81548160ff0219169083600381111562000060576200005f6200041f565b5b02179055506040518060c00160405280600060ff168152602001600f60ff168152602001600f60ff168152602001600f60ff168152602001600f60ff168152602001602860ff168152506012906006620000bc9291906200030f565b506040518060c00160405280600060ff168152602001600060ff168152602001600060ff168152602001600060ff168152602001600060ff168152602001600060ff168152506018906006620001149291906200030f565b506000601e553480156200012757600080fd5b50604051620058af380380620058af83398181016040528101906200014d91906200038f565b600160008190555062000175620001696200024160201b60201c565b6200024960201b60201c565b82600560006101000a81548173ffffffffffffffffffffffffffffffffffffffff021916908373ffffffffffffffffffffffffffffffffffffffff16021790555081600660006101000a81548173ffffffffffffffffffffffffffffffffffffffff021916908373ffffffffffffffffffffffffffffffffffffffff16021790555080600360006101000a81548173ffffffffffffffffffffffffffffffffffffffff021916908373ffffffffffffffffffffffffffffffffffffffff1602179055505050506200046d565b600033905090565b6000600160009054906101000a900473ffffffffffffffffffffffffffffffffffffffff16905081600160006101000a81548173ffffffffffffffffffffffffffffffffffffffff021916908373ffffffffffffffffffffffffffffffffffffffff1602179055508173ffffffffffffffffffffffffffffffffffffffff168173ffffffffffffffffffffffffffffffffffffffff167f8be0079c531659141344cd1fd0a4f28419497f9722a3daafe3b4186f6b6457e060405160405180910390a35050565b826006810192821562000346579160200282015b8281111562000345578251829060ff1690559160200191906001019062000323565b5b50905062000355919062000359565b5090565b5b80821115620003745760008160009055506001016200035a565b5090565b600081519050620003898162000453565b92915050565b600080600060608486031215620003ab57620003aa6200044e565b5b6000620003bb8682870162000378565b9350506020620003ce8682870162000378565b9250506040620003e18682870162000378565b9150509250925092565b6000620003f882620003ff565b9050919050565b600073ffffffffffffffffffffffffffffffffffffffff82169050919050565b7f4e487b7100000000000000000000000000000000000000000000000000000000600052602160045260246000fd5b600080fd5b6200045e81620003eb565b81146200046a57600080fd5b50565b615432806200047d6000396000f3fe608060405234801561001057600080fd5b506004361061029f5760003560e01c8063715018a611610167578063cc32d176116100ce578063e76a052611610087578063e76a0526146107ba578063e94f6955146107d6578063ec573d1c146107f4578063f2fde38b14610810578063f897a22b1461082c578063fca6d0df1461084a5761029f565b8063cc32d1761461070c578063ccb98ffc1461072a578063d0fbe7fe14610746578063d75cd44414610762578063dae58da81461077e578063dcbad90d1461079c5761029f565b80638da5cb5b116101205780638da5cb5b1461063457806397ff1cac14610652578063b1eac37e14610682578063c079fead146106a0578063c5f956af146106be578063cba15a8e146106dc5761029f565b8063715018a6146105ae5780637363ae1f146105b857806377e741c7146105d457806378e97925146105f0578063853828b61461060e57806388c61855146106185761029f565b80633f5bffb71161020b5780635fea10c6116101c45780635fea10c6146104fe57806365d4517c1461051a578063686465b81461053857806368f5f2b0146105565780636b9a7d01146105725780636fd09816146105a45761029f565b80633f5bffb71461041657806342043170146104465780634704370c14610464578063477f4eaf1461049457806349c01d3f146104c45780634bc19fee146104e25761029f565b80631d0769ca1161025d5780631d0769ca14610354578063200d2ed214610384578063218fe3a5146103a25780633197cbb6146103be5780633cff0380146103dc5780633e0a322d146103fa5761029f565b806294cd31146102a457806302a24770146102c25780631209b1f6146102e057806315981650146102fe578063160344e21461031a5780631ca1502f14610324575b600080fd5b6102ac610868565b6040516102b9919061421c565b60405180910390f35b6102ca6108b3565b6040516102d791906146cc565b60405180910390f35b6102e86108b9565b6040516102f591906146cc565b60405180910390f35b61031860048036038101906103139190613ad4565b6108bf565b005b6103226108d1565b005b61033e60048036038101906103399190613ad4565b610a70565b60405161034b9190614259565b60405180910390f35b61036e60048036038101906103699190613ad4565b610b3e565b60405161037b91906146cc565b60405180910390f35b61038c610b59565b60405161039991906142ef565b60405180910390f35b6103bc60048036038101906103b791906139b7565b610b6c565b005b6103c6610bb8565b6040516103d391906146cc565b60405180910390f35b6103e4610bbe565b6040516103f19190614259565b60405180910390f35b610414600480360381019061040f9190613ad4565b610c45565b005b610430600480360381019061042b91906139b7565b610c57565b60405161043d9190614237565b60405180910390f35b61044e610e12565b60405161045b91906146cc565b60405180910390f35b61047e600480360381019061047991906139b7565b610e18565b60405161048b9190614237565b60405180910390f35b6104ae60048036038101906104a99190613a5e565b610ff9565b6040516104bb91906146cc565b60405180910390f35b6104cc6110e0565b6040516104d991906146cc565b60405180910390f35b6104fc60048036038101906104f791906139b7565b6110e6565b005b61051860048036038101906105139190613b2e565b611175565b005b6105226113f0565b60405161052f919061421c565b60405180910390f35b61054061143b565b60405161054d91906146cc565b60405180910390f35b610570600480360381019061056b91906139e4565b611441565b005b61058c60048036038101906105879190613ad4565b6114d4565b60405161059b9392919061427b565b60405180910390f35b6105ac61166c565b005b6105b6611812565b005b6105d260048036038101906105cd9190613ad4565b611826565b005b6105ee60048036038101906105e99190613ad4565b611a7b565b005b6105f8611a8d565b60405161060591906146cc565b60405180910390f35b610616611a93565b005b610632600480360381019061062d9190613a11565b611c19565b005b61063c6120d7565b60405161064991906141a1565b60405180910390f35b61066c60048036038101906106679190613ad4565b612101565b60405161067991906146cc565b60405180910390f35b61068a61211c565b60405161069791906146cc565b60405180910390f35b6106a8612122565b6040516106b591906146cc565b60405180910390f35b6106c6612128565b6040516106d391906141a1565b60405180910390f35b6106f660048036038101906106f19190613ad4565b61214e565b60405161070391906146cc565b60405180910390f35b61071461230a565b60405161072191906146cc565b60405180910390f35b610744600480360381019061073f9190613ad4565b612310565b005b610760600480360381019061075b9190613a11565b612322565b005b61077c60048036038101906107779190613ad4565b612812565b005b610786612ac7565b60405161079391906146cc565b60405180910390f35b6107a4612acd565b6040516107b191906142d4565b60405180910390f35b6107d460048036038101906107cf9190613ad4565b612af3565b005b6107de612b05565b6040516107eb91906146cc565b60405180910390f35b61080e600480360381019061080991906139b7565b612b0b565b005b61082a600480360381019061082591906139b7565b612b9a565b005b610834612c1e565b60405161084191906142b9565b60405180910390f35b610852612c44565b60405161085f91906146cc565b60405180910390f35b61087061375e565b60186006806020026040519081016040528092919082600680156108a9576020028201915b815481526020019060010190808311610895575b5050505050905090565b60115481565b60045481565b6108c7612c5c565b8060048190555050565b6108da33612cda565b1561091a576040517f08c379a0000000000000000000000000000000000000000000000000000000008152600401610911906143ec565b60405180910390fd5b3273ffffffffffffffffffffffffffffffffffffffff163373ffffffffffffffffffffffffffffffffffffffff1614610988576040517f08c379a000000000000000000000000000000000000000000000000000000000815260040161097f9061452c565b60405180910390fd5b6000600381111561099c5761099b614c33565b5b600e60009054906101000a900460ff1660038111156109be576109bd614c33565b5b146109fe576040517f08c379a00000000000000000000000000000000000000000000000000000000081526004016109f59061442c565b60405180910390fd5b42600f541115610a43576040517f08c379a0000000000000000000000000000000000000000000000000000000008152600401610a3a9061432c565b60405180910390fd5b6001600e60006101000a81548160ff02191690836003811115610a6957610a68614c33565b5b0217905550565b60606000600667ffffffffffffffff811115610a8f57610a8e614c91565b5b604051908082528060200260200182016040528015610abd5781602001602082028036833780820191505090505b50905060005b6006811015610b34576001604285610adb9190614ba4565b610ae591906148ae565b828281518110610af857610af7614c62565b5b602002602001019063ffffffff16908163ffffffff1681525050604284610b1f91906148e8565b93508080610b2c90614b2e565b915050610ac3565b5080915050919050565b60188160068110610b4e57600080fd5b016000915090505481565b600e60009054906101000a900460ff1681565b610b74612c5c565b80600560006101000a81548173ffffffffffffffffffffffffffffffffffffffff021916908373ffffffffffffffffffffffffffffffffffffffff16021790555050565b60105481565b6060600380811115610bd357610bd2614c33565b5b600e60009054906101000a900460ff166003811115610bf557610bf4614c33565b5b14610c35576040517f08c379a0000000000000000000000000000000000000000000000000000000008152600401610c2c906144ac565b60405180910390fd5b610c40601e54610a70565b905090565b610c4d612c5c565b80600f8190555050565b60606000600b5467ffffffffffffffff811115610c7757610c76614c91565b5b604051908082528060200260200182016040528015610ca55781602001602082028036833780820191505090505b5090506000805b600b54811015610d60578473ffffffffffffffffffffffffffffffffffffffff16600a600083815260200190815260200160002060010160009054906101000a900473ffffffffffffffffffffffffffffffffffffffff1673ffffffffffffffffffffffffffffffffffffffff161415610d4d5780838380610d2d90614b2e565b945081518110610d4057610d3f614c62565b5b6020026020010181815250505b8080610d5890614b2e565b915050610cac565b5060008167ffffffffffffffff811115610d7d57610d7c614c91565b5b604051908082528060200260200182016040528015610dab5781602001602082028036833780820191505090505b50905060005b82811015610e0657838181518110610dcc57610dcb614c62565b5b6020026020010151828281518110610de757610de6614c62565b5b6020026020010181815250508080610dfe90614b2e565b915050610db1565b50809350505050919050565b600d5481565b60606000610e2583610c57565b90506000815167ffffffffffffffff811115610e4457610e43614c91565b5b604051908082528060200260200182016040528015610e725781602001602082028036833780820191505090505b5090506000805b8351811015610f46576000600a6000868481518110610e9b57610e9a614c62565b5b60200260200101518152602001908152602001600020600001601c9054906101000a900463ffffffff1663ffffffff169050600060188260068110610ee357610ee2614c62565b5b01541115610f3257848281518110610efe57610efd614c62565b5b6020026020010151848480610f1290614b2e565b955081518110610f2557610f24614c62565b5b6020026020010181815250505b508080610f3e90614b2e565b915050610e79565b5060008167ffffffffffffffff811115610f6357610f62614c91565b5b604051908082528060200260200182016040528015610f915781602001602082028036833780820191505090505b50905060005b82811015610fec57838181518110610fb257610fb1614c62565b5b6020026020010151828281518110610fcd57610fcc614c62565b5b6020026020010181815250508080610fe490614b2e565b915050610f97565b5080945050505050919050565b600060038081111561100e5761100d614c33565b5b600e60009054906101000a900460ff1660038111156110305761102f614c33565b5b14158061103e575060008251145b1561104c57600090506110db565b6000805b83518110156110d5576018600a600086848151811061107257611071614c62565b5b60200260200101518152602001908152602001600020600001601c9054906101000a900463ffffffff1663ffffffff16600681106110b3576110b2614c62565b5b0154826110c09190614858565b915080806110cd90614b2e565b915050611050565b50809150505b919050565b600c5481565b6110ee612c5c565b80600660006101000a81548173ffffffffffffffffffffffffffffffffffffffff021916908373ffffffffffffffffffffffffffffffffffffffff1602179055508073ffffffffffffffffffffffffffffffffffffffff167f383f8cb39dfa7c3fb901a460dd449ea924868f0a92ff03da64740fffa5f1de6260405160405180910390a250565b61117d612c5c565b6003808111156111905761118f614c33565b5b600e60009054906101000a900460ff1660038111156111b2576111b1614c33565b5b14156111fd5760115442116111fc576040517f08c379a00000000000000000000000000000000000000000000000000000000081526004016111f39061462c565b60405180910390fd5b5b60008214158061120e575060008114155b61124d576040517f08c379a00000000000000000000000000000000000000000000000000000000081526004016112449061438c565b60405180910390fd5b6000811461126657600c54816112639190614973565b91505b4282116112a8576040517f08c379a000000000000000000000000000000000000000000000000000000000815260040161129f9061448c565b60405180910390fd5b6000600e60006101000a81548160ff021916908360038111156112ce576112cd614c33565b5b021790555081600f81905550600c54826112e89190614858565b601081905550600d546010546112fe9190614858565b6011819055506000600b81905550600560009054906101000a900473ffffffffffffffffffffffffffffffffffffffff1673ffffffffffffffffffffffffffffffffffffffff166370a08231306040518263ffffffff1660e01b815260040161136791906141a1565b60206040518083038186803b15801561137f57600080fd5b505afa158015611393573d6000803e3d6000fd5b505050506040513d601f19601f820116820180604052508101906113b79190613b01565b600981905550600f547f931b31da73fd887ac2b49ca80ca85bcd1a4c2803b58f53d7d9fcc85ebec3b9fa60405160405180910390a25050565b6113f861375e565b6012600680602002604051908101604052809291908260068015611431576020028201915b81548152602001906001019080831161141d575b5050505050905090565b600b5481565b611449612c5c565b6000600381111561145d5761145c614c33565b5b600e60009054906101000a900460ff16600381111561147f5761147e614c33565b5b146114bf576040517f08c379a00000000000000000000000000000000000000000000000000000000081526004016114b69061440c565b60405180910390fd5b8060129060066114d0929190613780565b5050565b6060600080600b54841061151d576040517f08c379a00000000000000000000000000000000000000000000000000000000081526004016115149061436c565b60405180910390fd5b6000600a60008681526020019081526020016000206040518060600160405290816000820160009054906101000a90047bffffffffffffffffffffffffffffffffffffffffffffffffffffffff167bffffffffffffffffffffffffffffffffffffffffffffffffffffffff167bffffffffffffffffffffffffffffffffffffffffffffffffffffffff16815260200160008201601c9054906101000a900463ffffffff1663ffffffff1663ffffffff1681526020016001820160009054906101000a900473ffffffffffffffffffffffffffffffffffffffff1673ffffffffffffffffffffffffffffffffffffffff1673ffffffffffffffffffffffffffffffffffffffff1681525050905061165481600001517bffffffffffffffffffffffffffffffffffffffffffffffffffffffff16610a70565b81602001518260400151935093509350509193909250565b61167533612cda565b156116b5576040517f08c379a00000000000000000000000000000000000000000000000000000000081526004016116ac906143ec565b60405180910390fd5b3273ffffffffffffffffffffffffffffffffffffffff163373ffffffffffffffffffffffffffffffffffffffff1614611723576040517f08c379a000000000000000000000000000000000000000000000000000000000815260040161171a9061452c565b60405180910390fd5b426010541115611768576040517f08c379a000000000000000000000000000000000000000000000000000000000815260040161175f906145ec565b60405180910390fd5b6001600381111561177c5761177b614c33565b5b600e60009054906101000a900460ff16600381111561179e5761179d614c33565b5b146117de576040517f08c379a00000000000000000000000000000000000000000000000000000000081526004016117d5906145ac565b60405180910390fd5b6002600e60006101000a81548160ff0219169083600381111561180457611803614c33565b5b021790555043600781905550565b61181a612c5c565b6118246000612ced565b565b61182f33612cda565b1561186f576040517f08c379a0000000000000000000000000000000000000000000000000000000008152600401611866906143ec565b60405180910390fd5b3273ffffffffffffffffffffffffffffffffffffffff163373ffffffffffffffffffffffffffffffffffffffff16146118dd576040517f08c379a00000000000000000000000000000000000000000000000000000000081526004016118d49061452c565b60405180910390fd5b6118e5612c5c565b600260038111156118f9576118f8614c33565b5b600e60009054906101000a900460ff16600381111561191b5761191a614c33565b5b1461195b576040517f08c379a00000000000000000000000000000000000000000000000000000000081526004016119529061468c565b60405180910390fd5b426011541161199f576040517f08c379a0000000000000000000000000000000000000000000000000000000008152600401611996906143cc565b60405180910390fd5b6007544314156119e4576040517f08c379a00000000000000000000000000000000000000000000000000000000081526004016119db9061434c565b60405180910390fd5b43600881905550600660009054906101000a900473ffffffffffffffffffffffffffffffffffffffff1673ffffffffffffffffffffffffffffffffffffffff1663ce0d44a5826040518263ffffffff1660e01b8152600401611a4691906146cc565b600060405180830381600087803b158015611a6057600080fd5b505af1158015611a74573d6000803e3d6000fd5b5050505050565b611a83612c5c565b8060028190555050565b600f5481565b611a9b612c5c565b600560009054906101000a900473ffffffffffffffffffffffffffffffffffffffff1673ffffffffffffffffffffffffffffffffffffffff1663a9059cbb600360009054906101000a900473ffffffffffffffffffffffffffffffffffffffff16600560009054906101000a900473ffffffffffffffffffffffffffffffffffffffff1673ffffffffffffffffffffffffffffffffffffffff166370a08231306040518263ffffffff1660e01b8152600401611b5791906141a1565b60206040518083038186803b158015611b6f57600080fd5b505afa158015611b83573d6000803e3d6000fd5b505050506040513d601f19601f82011682018060405250810190611ba79190613b01565b6040518363ffffffff1660e01b8152600401611bc49291906141f3565b602060405180830381600087803b158015611bde57600080fd5b505af1158015611bf2573d6000803e3d6000fd5b505050506040513d601f19601f82011682018060405250810190611c169190613aa7565b50565b611c2233612cda565b15611c62576040517f08c379a0000000000000000000000000000000000000000000000000000000008152600401611c59906143ec565b60405180910390fd5b3273ffffffffffffffffffffffffffffffffffffffff163373ffffffffffffffffffffffffffffffffffffffff1614611cd0576040517f08c379a0000000000000000000000000000000000000000000000000000000008152600401611cc79061452c565b60405180910390fd5b611cd8612db3565b600380811115611ceb57611cea614c33565b5b600e60009054906101000a900460ff166003811115611d0d57611d0c614c33565b5b14611d4d576040517f08c379a0000000000000000000000000000000000000000000000000000000008152600401611d44906144ac565b60405180910390fd5b60008282905011611d93576040517f08c379a0000000000000000000000000000000000000000000000000000000008152600401611d8a906145cc565b60405180910390fd5b6011544210611dd7576040517f08c379a0000000000000000000000000000000000000000000000000000000008152600401611dce9061444c565b60405180910390fd5b6000805b83839050811015611feb576000848483818110611dfb57611dfa614c62565b5b905060200201359050600b548110611e48576040517f08c379a0000000000000000000000000000000000000000000000000000000008152600401611e3f9061436c565b60405180910390fd5b3373ffffffffffffffffffffffffffffffffffffffff16600a600083815260200190815260200160002060010160009054906101000a900473ffffffffffffffffffffffffffffffffffffffff1673ffffffffffffffffffffffffffffffffffffffff1614611eec576040517f08c379a0000000000000000000000000000000000000000000000000000000008152600401611ee3906146ac565b60405180910390fd5b6018600a6000838152602001908152602001600020600001601c9054906101000a900463ffffffff1663ffffffff1660068110611f2c57611f2b614c62565b5b015483611f399190614858565b9250600a6000868685818110611f5257611f51614c62565b5b905060200201358152602001908152602001600020600080820160006101000a8154907bffffffffffffffffffffffffffffffffffffffffffffffffffffffff021916905560008201601c6101000a81549063ffffffff02191690556001820160006101000a81549073ffffffffffffffffffffffffffffffffffffffff02191690555050508080611fe390614b2e565b915050611ddb565b506000811161202f576040517f08c379a00000000000000000000000000000000000000000000000000000000081526004016120269061454c565b60405180910390fd5b61207c3382600560009054906101000a900473ffffffffffffffffffffffffffffffffffffffff1673ffffffffffffffffffffffffffffffffffffffff16612e039092919063ffffffff16565b3373ffffffffffffffffffffffffffffffffffffffff167fc471ef95ea81f4f24bb1a51ba0bd8904858507d29dfdbde1882413b20fcc36ee826040516120c291906146cc565b60405180910390a2506120d3612e89565b5050565b6000600160009054906101000a900473ffffffffffffffffffffffffffffffffffffffff16905090565b6012816006811061211157600080fd5b016000915090505481565b60095481565b60075481565b600360009054906101000a900473ffffffffffffffffffffffffffffffffffffffff1681565b600080604267ffffffffffffffff81111561216c5761216b614c91565b5b60405190808252806020026020018201604052801561219a5781602001602082028036833780820191505090505b5090506000805b600681101561226d5760428160426121b99190614973565b866121c49190614ba4565b836121cf9190614858565b6121d99190614ba4565b9150610100856121e991906148e8565b94505b600083838151811061220157612200614c62565b5b602002602001015160ff161461223157818061221c90614b2e565b9250506042821061222c57600091505b6121ec565b600183838151811061224657612245614c62565b5b602002602001019060ff16908160ff1681525050808061226590614b2e565b9150506121a1565b506000905060006042905060005b60068110156122fe576001846001846122949190614973565b815181106122a5576122a4614c62565b5b602002602001015160ff1614156122eb576001826042856122c69190614919565b6122d09190614858565b6122da9190614973565b925080806122e790614b2e565b9150505b81806122f690614ad3565b92505061227b565b50819350505050919050565b60025481565b612318612c5c565b8060108190555050565b61232b33612cda565b1561236b576040517f08c379a0000000000000000000000000000000000000000000000000000000008152600401612362906143ec565b60405180910390fd5b3273ffffffffffffffffffffffffffffffffffffffff163373ffffffffffffffffffffffffffffffffffffffff16146123d9576040517f08c379a00000000000000000000000000000000000000000000000000000000081526004016123d09061452c565b60405180910390fd5b6123e1612db3565b600160038111156123f5576123f4614c33565b5b600e60009054906101000a900460ff16600381111561241757612416614c33565b5b14612457576040517f08c379a000000000000000000000000000000000000000000000000000000000815260040161244e906145ac565b60405180910390fd5b601054421061249b576040517f08c379a00000000000000000000000000000000000000000000000000000000081526004016124929061458c565b60405180910390fd5b600082829050116124e1576040517f08c379a00000000000000000000000000000000000000000000000000000000081526004016124d89061450c565b60405180910390fd5b6000600454838390506124f49190614919565b905080600560009054906101000a900473ffffffffffffffffffffffffffffffffffffffff1673ffffffffffffffffffffffffffffffffffffffff166370a08231336040518263ffffffff1660e01b815260040161255291906141a1565b60206040518083038186803b15801561256a57600080fd5b505afa15801561257e573d6000803e3d6000fd5b505050506040513d601f19601f820116820180604052508101906125a29190613b01565b10156125e3576040517f08c379a00000000000000000000000000000000000000000000000000000000081526004016125da906144ec565b60405180910390fd5b612632333083600560009054906101000a900473ffffffffffffffffffffffffffffffffffffffff1673ffffffffffffffffffffffffffffffffffffffff16612e93909392919063ffffffff16565b60005b838390508110156127b357604051806060016040528085858481811061265e5761265d614c62565b5b905060200201357bffffffffffffffffffffffffffffffffffffffffffffffffffffffff168152602001600063ffffffff1681526020013373ffffffffffffffffffffffffffffffffffffffff16815250600a6000600b60008154809291906126c690614b2e565b91905055815260200190815260200160002060008201518160000160006101000a8154817bffffffffffffffffffffffffffffffffffffffffffffffffffffffff02191690837bffffffffffffffffffffffffffffffffffffffffffffffffffffffff160217905550602082015181600001601c6101000a81548163ffffffff021916908363ffffffff16021790555060408201518160010160006101000a81548173ffffffffffffffffffffffffffffffffffffffff021916908373ffffffffffffffffffffffffffffffffffffffff16021790555090505080806127ab90614b2e565b915050612635565b503373ffffffffffffffffffffffffffffffffffffffff167fe23b461eeed3050b94c37e728bd38158dbcd40bb83994f44bfb639678c6a1029848490506040516127fd91906146cc565b60405180910390a25061280e612e89565b5050565b61281b33612cda565b1561285b576040517f08c379a0000000000000000000000000000000000000000000000000000000008152600401612852906143ec565b60405180910390fd5b3273ffffffffffffffffffffffffffffffffffffffff163373ffffffffffffffffffffffffffffffffffffffff16146128c9576040517f08c379a00000000000000000000000000000000000000000000000000000000081526004016128c09061452c565b60405180910390fd5b6128d1612c5c565b600260038111156128e5576128e4614c33565b5b600e60009054906101000a900460ff16600381111561290757612906614c33565b5b14612947576040517f08c379a000000000000000000000000000000000000000000000000000000000815260040161293e9061468c565b60405180910390fd5b426011541161298b576040517f08c379a0000000000000000000000000000000000000000000000000000000008152600401612982906143cc565b60405180910390fd5b6008544314156129d0576040517f08c379a00000000000000000000000000000000000000000000000000000000081526004016129c7906144cc565b60405180910390fd5b6003600e60006101000a81548160ff021916908360038111156129f6576129f5614c33565b5b02179055506000600660009054906101000a900473ffffffffffffffffffffffffffffffffffffffff1673ffffffffffffffffffffffffffffffffffffffff166389c16e08836040518263ffffffff1660e01b8152600401612a5891906146cc565b602060405180830381600087803b158015612a7257600080fd5b505af1158015612a86573d6000803e3d6000fd5b505050506040513d601f19601f82011682018060405250810190612aaa9190613b01565b9050612ab58161214e565b601e81905550612ac3612f1c565b5050565b601e5481565b600660009054906101000a900473ffffffffffffffffffffffffffffffffffffffff1681565b612afb612c5c565b8060118190555050565b60085481565b612b13612c5c565b80600360006101000a81548173ffffffffffffffffffffffffffffffffffffffff021916908373ffffffffffffffffffffffffffffffffffffffff1602179055508073ffffffffffffffffffffffffffffffffffffffff167f8b4531436af204a864adc47c345e10cb5c4df79165aa0cb85fc45ac5b551517b60405160405180910390a250565b612ba2612c5c565b600073ffffffffffffffffffffffffffffffffffffffff168173ffffffffffffffffffffffffffffffffffffffff161415612c12576040517f08c379a0000000000000000000000000000000000000000000000000000000008152600401612c09906143ac565b60405180910390fd5b612c1b81612ced565b50565b600560009054906101000a900473ffffffffffffffffffffffffffffffffffffffff1681565b6000612c57612c5233610e18565b610ff9565b905090565b612c646134c0565b73ffffffffffffffffffffffffffffffffffffffff16612c826120d7565b73ffffffffffffffffffffffffffffffffffffffff1614612cd8576040517f08c379a0000000000000000000000000000000000000000000000000000000008152600401612ccf9061456c565b60405180910390fd5b565b600080823b905060008111915050919050565b6000600160009054906101000a900473ffffffffffffffffffffffffffffffffffffffff16905081600160006101000a81548173ffffffffffffffffffffffffffffffffffffffff021916908373ffffffffffffffffffffffffffffffffffffffff1602179055508173ffffffffffffffffffffffffffffffffffffffff168173ffffffffffffffffffffffffffffffffffffffff167f8be0079c531659141344cd1fd0a4f28419497f9722a3daafe3b4186f6b6457e060405160405180910390a35050565b60026000541415612df9576040517f08c379a0000000000000000000000000000000000000000000000000000000008152600401612df09061466c565b60405180910390fd5b6002600081905550565b612e848363a9059cbb60e01b8484604051602401612e229291906141f3565b604051602081830303815290604052907bffffffffffffffffffffffffffffffffffffffffffffffffffffffff19166020820180517bffffffffffffffffffffffffffffffffffffffffffffffffffffffff83818316178352505050506134c8565b505050565b6001600081905550565b612f16846323b872dd60e01b858585604051602401612eb4939291906141bc565b604051602081830303815290604052907bffffffffffffffffffffffffffffffffffffffffffffffffffffffff19166020820180517bffffffffffffffffffffffffffffffffffffffffffffffffffffffff83818316178352505050506134c8565b50505050565b6000600667ffffffffffffffff811115612f3957612f38614c91565b5b604051908082528060200260200182016040528015612f675781602001602082028036833780820191505090505b50905060005b600b5481101561316e576000600a600083815260200190815260200160002090506000601e54905060008260000160009054906101000a90047bffffffffffffffffffffffffffffffffffffffffffffffffffffffff167bffffffffffffffffffffffffffffffffffffffffffffffffffffffff1690506000805b600681101561305157604283612ffe9190614ba4565b60428561300b9190614ba4565b141561302057818061301c90614b77565b9250505b60428461302d91906148e8565b935060428361303c91906148e8565b9250808061304990614b2e565b915050612fe8565b5060008163ffffffff1611156130d35760018161306e91906149a7565b84600001601c6101000a81548163ffffffff021916908363ffffffff1602179055508560018261309e91906149a7565b63ffffffff16815181106130b5576130b4614c62565b5b6020026020010180518091906130ca90614b2e565b81525050613157565b600a6000868152602001908152602001600020600080820160006101000a8154907bffffffffffffffffffffffffffffffffffffffffffffffffffffffff021916905560008201601c6101000a81549063ffffffff02191690556001820160006101000a81549073ffffffffffffffffffffffffffffffffffffffff021916905550505b50505050808061316690614b2e565b915050612f6d565b506000600954600560009054906101000a900473ffffffffffffffffffffffffffffffffffffffff1673ffffffffffffffffffffffffffffffffffffffff166370a08231306040518263ffffffff1660e01b81526004016131cf91906141a1565b60206040518083038186803b1580156131e757600080fd5b505afa1580156131fb573d6000803e3d6000fd5b505050506040513d601f19601f8201168201806040525081019061321f9190613b01565b6132299190614973565b9050600060646002548361323d9190614919565b61324791906148e8565b9050600560009054906101000a900473ffffffffffffffffffffffffffffffffffffffff1673ffffffffffffffffffffffffffffffffffffffff1663a9059cbb600360009054906101000a900473ffffffffffffffffffffffffffffffffffffffff16836040518363ffffffff1660e01b81526004016132c89291906141f3565b602060405180830381600087803b1580156132e257600080fd5b505af11580156132f6573d6000803e3d6000fd5b505050506040513d601f19601f8201168201806040525081019061331a9190613aa7565b5080826133279190614973565b915060005b60058110156133c257600084828151811061334a57613349614c62565b5b60200260200101519050600081146133ae578060646012846006811061337357613372614c62565b5b0154866133809190614919565b61338a91906148e8565b61339491906148e8565b601883600681106133a8576133a7614c62565b5b01819055505b5080806133ba90614b2e565b91505061332c565b506000836005815181106133d9576133d8614c62565b5b60200260200101511461346257826005815181106133fa576133f9614c62565b5b60200260200101516064601260056006811061341957613418614c62565b5b0154846134269190614919565b61343091906148e8565b60095461343d9190614858565b61344791906148e8565b601860056006811061345c5761345b614c62565b5b01819055505b600f547f9d53f2b115229c0fb6c01a6dcc67fcc582e8eea41b8d0318191c52190c9d3de6601e548560058151811061349d5761349c614c62565b5b60200260200101516040516134b39291906146e7565b60405180910390a2505050565b600033905090565b600061352a826040518060400160405280602081526020017f5361666545524332303a206c6f772d6c6576656c2063616c6c206661696c65648152508573ffffffffffffffffffffffffffffffffffffffff166135909092919063ffffffff16565b905060008151148061354c57508080602001905181019061354b9190613aa7565b5b61358b576040517f08c379a00000000000000000000000000000000000000000000000000000000081526004016135829061464c565b60405180910390fd5b505050565b606061359f84846000856135a8565b90509392505050565b6060824710156135ed576040517f08c379a00000000000000000000000000000000000000000000000000000000081526004016135e49061446c565b60405180910390fd5b6000808673ffffffffffffffffffffffffffffffffffffffff168587604051613616919061418a565b60006040518083038185875af1925050503d8060008114613653576040519150601f19603f3d011682016040523d82523d6000602084013e613658565b606091505b509150915061366987838387613675565b92505050949350505050565b606083156136d8576000835114156136d057613690856136eb565b6136cf576040517f08c379a00000000000000000000000000000000000000000000000000000000081526004016136c69061460c565b60405180910390fd5b5b8290506136e3565b6136e2838361370e565b5b949350505050565b6000808273ffffffffffffffffffffffffffffffffffffffff163b119050919050565b6000825111156137215781518083602001fd5b806040517f08c379a0000000000000000000000000000000000000000000000000000000008152600401613755919061430a565b60405180910390fd5b6040518060c00160405280600690602082028036833780820191505090505090565b82600681019282156137af579160200282015b828111156137ae578251825591602001919060010190613793565b5b5090506137bc91906137c0565b5090565b5b808211156137d95760008160009055506001016137c1565b5090565b60006137f06137eb84614735565b614710565b9050808285602086028201111561380a57613809614cca565b5b60005b8581101561383a5781613820888261398d565b84526020840193506020830192505060018101905061380d565b5050509392505050565b60006138576138528461475b565b614710565b9050808382526020820190508285602086028201111561387a57613879614cca565b5b60005b858110156138aa5781613890888261398d565b84526020840193506020830192505060018101905061387d565b5050509392505050565b6000813590506138c3816153b7565b92915050565b600082601f8301126138de576138dd614cc5565b5b60066138eb8482856137dd565b91505092915050565b60008083601f84011261390a57613909614cc5565b5b8235905067ffffffffffffffff81111561392757613926614cc0565b5b60208301915083602082028301111561394357613942614cca565b5b9250929050565b600082601f83011261395f5761395e614cc5565b5b813561396f848260208601613844565b91505092915050565b600081519050613987816153ce565b92915050565b60008135905061399c816153e5565b92915050565b6000815190506139b1816153e5565b92915050565b6000602082840312156139cd576139cc614cd4565b5b60006139db848285016138b4565b91505092915050565b600060c082840312156139fa576139f9614cd4565b5b6000613a08848285016138c9565b91505092915050565b60008060208385031215613a2857613a27614cd4565b5b600083013567ffffffffffffffff811115613a4657613a45614ccf565b5b613a52858286016138f4565b92509250509250929050565b600060208284031215613a7457613a73614cd4565b5b600082013567ffffffffffffffff811115613a9257613a91614ccf565b5b613a9e8482850161394a565b91505092915050565b600060208284031215613abd57613abc614cd4565b5b6000613acb84828501613978565b91505092915050565b600060208284031215613aea57613ae9614cd4565b5b6000613af88482850161398d565b91505092915050565b600060208284031215613b1757613b16614cd4565b5b6000613b25848285016139a2565b91505092915050565b60008060408385031215613b4557613b44614cd4565b5b6000613b538582860161398d565b9250506020613b648582860161398d565b9150509250929050565b6000613b7a838361414e565b60208301905092915050565b6000613b92838361416c565b60208301905092915050565b613ba7816149db565b82525050565b613bb6816147b1565b613bc0818461480f565b9250613bcb82614787565b8060005b83811015613bfc578151613be38782613b6e565b9650613bee836147e8565b925050600181019050613bcf565b505050505050565b6000613c0f826147bc565b613c19818561481a565b9350613c2483614791565b8060005b83811015613c55578151613c3c8882613b6e565b9750613c47836147f5565b925050600181019050613c28565b5085935050505092915050565b6000613c6d826147c7565b613c77818561482b565b9350613c82836147a1565b8060005b83811015613cb3578151613c9a8882613b86565b9750613ca583614802565b925050600181019050613c86565b5085935050505092915050565b6000613ccb826147d2565b613cd5818561483c565b9350613ce5818560208601614aa0565b80840191505092915050565b613cfa81614a46565b82525050565b613d0981614a6a565b82525050565b613d1881614a8e565b82525050565b6000613d29826147dd565b613d338185614847565b9350613d43818560208601614aa0565b613d4c81614cd9565b840191505092915050565b6000613d64602583614847565b9150613d6f82614cea565b604082019050919050565b6000613d87604483614847565b9150613d9282614d39565b606082019050919050565b6000613daa601083614847565b9150613db582614dae565b602082019050919050565b6000613dcd602983614847565b9150613dd882614dd7565b604082019050919050565b6000613df0602683614847565b9150613dfb82614e26565b604082019050919050565b6000613e13602783614847565b9150613e1e82614e75565b604082019050919050565b6000613e36601483614847565b9150613e4182614ec4565b602082019050919050565b6000613e59601883614847565b9150613e6482614eed565b602082019050919050565b6000613e7c601783614847565b9150613e8782614f16565b602082019050919050565b6000613e9f602883614847565b9150613eaa82614f3f565b604082019050919050565b6000613ec2602683614847565b9150613ecd82614f8e565b604082019050919050565b6000613ee5602783614847565b9150613ef082614fdd565b604082019050919050565b6000613f08601583614847565b9150613f138261502c565b602082019050919050565b6000613f2b604883614847565b9150613f3682615055565b606082019050919050565b6000613f4e601c83614847565b9150613f59826150ca565b602082019050919050565b6000613f71601483614847565b9150613f7c826150f3565b602082019050919050565b6000613f94601a83614847565b9150613f9f8261511c565b602082019050919050565b6000613fb7600983614847565b9150613fc282615145565b602082019050919050565b6000613fda602083614847565b9150613fe58261516e565b602082019050919050565b6000613ffd602083614847565b915061400882615197565b602082019050919050565b6000614020601083614847565b915061402b826151c0565b602082019050919050565b6000614043601683614847565b915061404e826151e9565b602082019050919050565b6000614066602383614847565b915061407182615212565b604082019050919050565b6000614089601d83614847565b915061409482615261565b602082019050919050565b60006140ac602183614847565b91506140b78261528a565b604082019050919050565b60006140cf602a83614847565b91506140da826152d9565b604082019050919050565b60006140f2601f83614847565b91506140fd82615328565b602082019050919050565b6000614115601283614847565b915061412082615351565b602082019050919050565b6000614138601b83614847565b91506141438261537a565b602082019050919050565b61415781614a2c565b82525050565b61416681614a2c565b82525050565b61417581614a36565b82525050565b61418481614a36565b82525050565b60006141968284613cc0565b915081905092915050565b60006020820190506141b66000830184613b9e565b92915050565b60006060820190506141d16000830186613b9e565b6141de6020830185613b9e565b6141eb604083018461415d565b949350505050565b60006040820190506142086000830185613b9e565b614215602083018461415d565b9392505050565b600060c0820190506142316000830184613bad565b92915050565b600060208201905081810360008301526142518184613c04565b905092915050565b600060208201905081810360008301526142738184613c62565b905092915050565b600060608201905081810360008301526142958186613c62565b90506142a4602083018561417b565b6142b16040830184613b9e565b949350505050565b60006020820190506142ce6000830184613cf1565b92915050565b60006020820190506142e96000830184613d00565b92915050565b60006020820190506143046000830184613d0f565b92915050565b600060208201905081810360008301526143248184613d1e565b905092915050565b6000602082019050818103600083015261434581613d57565b9050919050565b6000602082019050818103600083015261436581613d7a565b9050919050565b6000602082019050818103600083015261438581613d9d565b9050919050565b600060208201905081810360008301526143a581613dc0565b9050919050565b600060208201905081810360008301526143c581613de3565b9050919050565b600060208201905081810360008301526143e581613e06565b9050919050565b6000602082019050818103600083015261440581613e29565b9050919050565b6000602082019050818103600083015261442581613e4c565b9050919050565b6000602082019050818103600083015261444581613e6f565b9050919050565b6000602082019050818103600083015261446581613e92565b9050919050565b6000602082019050818103600083015261448581613eb5565b9050919050565b600060208201905081810360008301526144a581613ed8565b9050919050565b600060208201905081810360008301526144c581613efb565b9050919050565b600060208201905081810360008301526144e581613f1e565b9050919050565b6000602082019050818103600083015261450581613f41565b9050919050565b6000602082019050818103600083015261452581613f64565b9050919050565b6000602082019050818103600083015261454581613f87565b9050919050565b6000602082019050818103600083015261456581613faa565b9050919050565b6000602082019050818103600083015261458581613fcd565b9050919050565b600060208201905081810360008301526145a581613ff0565b9050919050565b600060208201905081810360008301526145c581614013565b9050919050565b600060208201905081810360008301526145e581614036565b9050919050565b6000602082019050818103600083015261460581614059565b9050919050565b600060208201905081810360008301526146258161407c565b9050919050565b600060208201905081810360008301526146458161409f565b9050919050565b60006020820190508181036000830152614665816140c2565b9050919050565b60006020820190508181036000830152614685816140e5565b9050919050565b600060208201905081810360008301526146a581614108565b9050919050565b600060208201905081810360008301526146c58161412b565b9050919050565b60006020820190506146e1600083018461415d565b92915050565b60006040820190506146fc600083018561415d565b614709602083018461415d565b9392505050565b600061471a61472b565b90506147268282614afd565b919050565b6000604051905090565b600067ffffffffffffffff8211156147505761474f614c91565b5b602082029050919050565b600067ffffffffffffffff82111561477657614775614c91565b5b602082029050602081019050919050565b6000819050919050565b6000819050602082019050919050565b6000819050602082019050919050565b600060069050919050565b600081519050919050565b600081519050919050565b600081519050919050565b600081519050919050565b6000602082019050919050565b6000602082019050919050565b6000602082019050919050565b600081905092915050565b600082825260208201905092915050565b600082825260208201905092915050565b600081905092915050565b600082825260208201905092915050565b600061486382614a2c565b915061486e83614a2c565b9250827fffffffffffffffffffffffffffffffffffffffffffffffffffffffffffffffff038211156148a3576148a2614bd5565b5b828201905092915050565b60006148b982614a36565b91506148c483614a36565b92508263ffffffff038211156148dd576148dc614bd5565b5b828201905092915050565b60006148f382614a2c565b91506148fe83614a2c565b92508261490e5761490d614c04565b5b828204905092915050565b600061492482614a2c565b915061492f83614a2c565b9250817fffffffffffffffffffffffffffffffffffffffffffffffffffffffffffffffff048311821515161561496857614967614bd5565b5b828202905092915050565b600061497e82614a2c565b915061498983614a2c565b92508282101561499c5761499b614bd5565b5b828203905092915050565b60006149b282614a36565b91506149bd83614a36565b9250828210156149d0576149cf614bd5565b5b828203905092915050565b60006149e682614a0c565b9050919050565b60008115159050919050565b6000819050614a07826153a3565b919050565b600073ffffffffffffffffffffffffffffffffffffffff82169050919050565b6000819050919050565b600063ffffffff82169050919050565b6000614a5182614a58565b9050919050565b6000614a6382614a0c565b9050919050565b6000614a7582614a7c565b9050919050565b6000614a8782614a0c565b9050919050565b6000614a99826149f9565b9050919050565b60005b83811015614abe578082015181840152602081019050614aa3565b83811115614acd576000848401525b50505050565b6000614ade82614a2c565b91506000821415614af257614af1614bd5565b5b600182039050919050565b614b0682614cd9565b810181811067ffffffffffffffff82111715614b2557614b24614c91565b5b80604052505050565b6000614b3982614a2c565b91507fffffffffffffffffffffffffffffffffffffffffffffffffffffffffffffffff821415614b6c57614b6b614bd5565b5b600182019050919050565b6000614b8282614a36565b915063ffffffff821415614b9957614b98614bd5565b5b600182019050919050565b6000614baf82614a2c565b9150614bba83614a2c565b925082614bca57614bc9614c04565b5b828206905092915050565b7f4e487b7100000000000000000000000000000000000000000000000000000000600052601160045260246000fd5b7f4e487b7100000000000000000000000000000000000000000000000000000000600052601260045260246000fd5b7f4e487b7100000000000000000000000000000000000000000000000000000000600052602160045260246000fd5b7f4e487b7100000000000000000000000000000000000000000000000000000000600052603260045260246000fd5b7f4e487b7100000000000000000000000000000000000000000000000000000000600052604160045260246000fd5b600080fd5b600080fd5b600080fd5b600080fd5b600080fd5b6000601f19601f8301169050919050565b7f43616e6e6f74207374617274206c6f7474657279206265666f7265207374617260008201527f7454696d65000000000000000000000000000000000000000000000000000000602082015250565b7f7265717565737452616e646f6d6e6573732063616e6e6f742062652063616c6c60008201527f656420696e207468652073616d6520626c6f636b20617320636c6f73654c6f7460208201527f7465727900000000000000000000000000000000000000000000000000000000604082015250565b7f496e76616c6964207469636b6574496400000000000000000000000000000000600082015250565b7f43616e6e6f742072657365742077697468203020737461727454696d6520616e60008201527f6420656e6454696d650000000000000000000000000000000000000000000000602082015250565b7f4f776e61626c653a206e6577206f776e657220697320746865207a65726f206160008201527f6464726573730000000000000000000000000000000000000000000000000000602082015250565b7f43616e6e6f742064726177206c6f747465727920616674657220656e6452657760008201527f61726454696d6500000000000000000000000000000000000000000000000000602082015250565b7f436f6e7472616374206e6f7420616c6c6f776564000000000000000000000000600082015250565b7f43616e2774206368616e67652072657761726473206e6f770000000000000000600082015250565b7f4c6f747465727920616c72656164792073746172746564000000000000000000600082015250565b7f43616e6e6f7420636c61696d207469636b65747320616674657220656e64526560008201527f7761726454696d65000000000000000000000000000000000000000000000000602082015250565b7f416464726573733a20696e73756666696369656e742062616c616e636520666f60008201527f722063616c6c0000000000000000000000000000000000000000000000000000602082015250565b7f43616e6e6f74207374617274207769746820737461727454696d6520696e207460008201527f6865207061737400000000000000000000000000000000000000000000000000602082015250565b7f4c6f7474657279206e6f7420636c61696d61626c650000000000000000000000600082015250565b7f72657665616c52616e646f6d6e6573732063616e6e6f742062652063616c6c6560008201527f6420696e207468652073616d6520626c6f636b2061732072657175657374526160208201527f6e646f6d6e657373000000000000000000000000000000000000000000000000604082015250565b7f4e6f7420656e6f7567682055534420746f20627579207469636b657400000000600082015250565b7f43616e6e6f74206275792030207469636b657473000000000000000000000000600082015250565b7f50726f787920636f6e7472616374206e6f7420616c6c6f776564000000000000600082015250565b7f4e6f207265776172640000000000000000000000000000000000000000000000600082015250565b7f4f776e61626c653a2063616c6c6572206973206e6f7420746865206f776e6572600082015250565b7f43616e6e6f7420627579207469636b65747320616674657220656e6454696d65600082015250565b7f4c6f7474657279206e6f74206f70656e00000000000000000000000000000000600082015250565b7f43616e6e6f7420636c61696d2030207469636b65747300000000000000000000600082015250565b7f43616e6e6f7420636c6f7365206c6f7474657279206265666f726520656e645460008201527f696d650000000000000000000000000000000000000000000000000000000000602082015250565b7f416464726573733a2063616c6c20746f206e6f6e2d636f6e7472616374000000600082015250565b7f43616e6e6f74207265736574206265666f726520656e6452657761726454696d60008201527f6500000000000000000000000000000000000000000000000000000000000000602082015250565b7f5361666545524332303a204552433230206f7065726174696f6e20646964206e60008201527f6f74207375636365656400000000000000000000000000000000000000000000602082015250565b7f5265656e7472616e637947756172643a207265656e7472616e742063616c6c00600082015250565b7f4c6f7474657279206e6f7420636c6f7365640000000000000000000000000000600082015250565b7f4e6f7420746865206f776e6572206f6620746865207469636b65740000000000600082015250565b600481106153b4576153b3614c33565b5b50565b6153c0816149db565b81146153cb57600080fd5b50565b6153d7816149ed565b81146153e257600080fd5b50565b6153ee81614a2c565b81146153f957600080fd5b5056fea26469706673582212200198672732813fe5a2ad2f0d79d51300390e4ad19fe56d2d46fd882dfa8aa76564736f6c63430008060033",
  "linkReferences": {},
  "deployedLinkReferences": {}
}