{
  "_format": "hh-sol-artifact-1",
  "contractName": "HelloWorld",
  "sourceName": "contracts/HelloWorld.sol",
  "abi": [
    {
      "inputs": [
        {
          "internalType": "string",
          "name": "_helloMessage",
          "type": "string"
        }
      ],
      "stateMutability": "nonpayable",
      "type": "constructor"
    },
    {
      "inputs": [],
      "name": "hello",
      "outputs": [
        {
          "internalType": "string",
          "name": "",
          "type": "string"
        }
      ],
      "stateMutability": "view",
      "type": "function"
    },
    {
      "inputs": [
        {
          "internalType": "string",
          "name": "_helloMessage",
          "type": "string"
        }
      ],
      "name": "setHello",
      "outputs": [],
      "stateMutability": "nonpayable",
      "type": "function"
    }
  ],
  "bytecode": "0x60806040523480156200001157600080fd5b5060405162000cbc38038062000cbc8339818101604052810190620000379190620002a8565b6200004d816200006d60201b620001ce1760201c565b8060009080519060200190620000659291906200016e565b50506200052d565b6200010d816040516024016200008491906200033a565b6040516020818303038152906040527f41304fac000000000000000000000000000000000000000000000000000000007bffffffffffffffffffffffffffffffffffffffffffffffffffffffff19166020820180517bffffffffffffffffffffffffffffffffffffffffffffffffffffffff83818316178352505050506200011060201b60201c565b50565b6200013681620001316200013960201b62000267176200015a60201b60201c565b60201c565b50565b60006a636f6e736f6c652e6c6f679050600080835160208501845afa505050565b620001ff60201b6200034c17819050919050565b8280546200017c906200040f565b90600052602060002090601f016020900481019282620001a05760008555620001ec565b82601f10620001bb57805160ff1916838001178555620001ec565b82800160010185558215620001ec579182015b82811115620001eb578251825591602001919060010190620001ce565b5b509050620001fb91906200020b565b5090565b62000209620004d9565b565b5b80821115620002265760008160009055506001016200020c565b5090565b6000620002416200023b8462000387565b6200035e565b90508281526020810184848401111562000260576200025f6200050d565b5b6200026d848285620003d9565b509392505050565b600082601f8301126200028d576200028c62000508565b5b81516200029f8482602086016200022a565b91505092915050565b600060208284031215620002c157620002c062000517565b5b600082015167ffffffffffffffff811115620002e257620002e162000512565b5b620002f08482850162000275565b91505092915050565b60006200030682620003bd565b620003128185620003c8565b935062000324818560208601620003d9565b6200032f816200051c565b840191505092915050565b60006020820190508181036000830152620003568184620002f9565b905092915050565b60006200036a6200037d565b905062000378828262000445565b919050565b6000604051905090565b600067ffffffffffffffff821115620003a557620003a4620004aa565b5b620003b0826200051c565b9050602081019050919050565b600081519050919050565b600082825260208201905092915050565b60005b83811015620003f9578082015181840152602081019050620003dc565b8381111562000409576000848401525b50505050565b600060028204905060018216806200042857607f821691505b602082108114156200043f576200043e6200047b565b5b50919050565b62000450826200051c565b810181811067ffffffffffffffff82111715620004725762000471620004aa565b5b80604052505050565b7f4e487b7100000000000000000000000000000000000000000000000000000000600052602260045260246000fd5b7f4e487b7100000000000000000000000000000000000000000000000000000000600052604160045260246000fd5b7f4e487b7100000000000000000000000000000000000000000000000000000000600052605160045260246000fd5b600080fd5b600080fd5b600080fd5b600080fd5b6000601f19601f8301169050919050565b61077f806200053d6000396000f3fe608060405234801561001057600080fd5b50600436106100365760003560e01c806319ff1d211461003b578063435ffe9414610059575b600080fd5b610043610075565b60405161005091906104eb565b60405180910390f35b610073600480360381019061006e9190610469565b610107565b005b6060600080546100849061060d565b80601f01602080910402602001604051908101604052809291908181526020018280546100b09061060d565b80156100fd5780601f106100d2576101008083540402835291602001916100fd565b820191906000526020600020905b8154815290600101906020018083116100e057829003601f168201915b5050505050905090565b6101b460405180606001604052806027815260200161072360279139600080546101309061060d565b80601f016020809104026020016040519081016040528092919081815260200182805461015c9061060d565b80156101a95780601f1061017e576101008083540402835291602001916101a9565b820191906000526020600020905b81548152906001019060200180831161018c57829003601f168201915b505050505083610288565b80600090805190602001906101ca929190610356565b5050565b610264816040516024016101e291906104eb565b6040516020818303038152906040527f41304fac000000000000000000000000000000000000000000000000000000007bffffffffffffffffffffffffffffffffffffffffffffffffffffffff19166020820180517bffffffffffffffffffffffffffffffffffffffffffffffffffffffff8381831617835250505050610327565b50565b60006a636f6e736f6c652e6c6f679050600080835160208501845afa505050565b6103228383836040516024016102a09392919061050d565b6040516020818303038152906040527f2ced7cef000000000000000000000000000000000000000000000000000000007bffffffffffffffffffffffffffffffffffffffffffffffffffffffff19166020820180517bffffffffffffffffffffffffffffffffffffffffffffffffffffffff8381831617835250505050610327565b505050565b61033e81610336610267610341565b63ffffffff16565b50565b61034c819050919050565b6103546106ce565b565b8280546103629061060d565b90600052602060002090601f01602090048101928261038457600085556103cb565b82601f1061039d57805160ff19168380011785556103cb565b828001600101855582156103cb579182015b828111156103ca5782518255916020019190600101906103af565b5b5090506103d891906103dc565b5090565b5b808211156103f55760008160009055506001016103dd565b5090565b600061040c6104078461057e565b610559565b90508281526020810184848401111561042857610427610702565b5b6104338482856105cb565b509392505050565b600082601f8301126104505761044f6106fd565b5b81356104608482602086016103f9565b91505092915050565b60006020828403121561047f5761047e61070c565b5b600082013567ffffffffffffffff81111561049d5761049c610707565b5b6104a98482850161043b565b91505092915050565b60006104bd826105af565b6104c781856105ba565b93506104d78185602086016105da565b6104e081610711565b840191505092915050565b6000602082019050818103600083015261050581846104b2565b905092915050565b6000606082019050818103600083015261052781866104b2565b9050818103602083015261053b81856104b2565b9050818103604083015261054f81846104b2565b9050949350505050565b6000610563610574565b905061056f828261063f565b919050565b6000604051905090565b600067ffffffffffffffff8211156105995761059861069f565b5b6105a282610711565b9050602081019050919050565b600081519050919050565b600082825260208201905092915050565b82818337600083830152505050565b60005b838110156105f85780820151818401526020810190506105dd565b83811115610607576000848401525b50505050565b6000600282049050600182168061062557607f821691505b6020821081141561063957610638610670565b5b50919050565b61064882610711565b810181811067ffffffffffffffff821117156106675761066661069f565b5b80604052505050565b7f4e487b7100000000000000000000000000000000000000000000000000000000600052602260045260246000fd5b7f4e487b7100000000000000000000000000000000000000000000000000000000600052604160045260246000fd5b7f4e487b7100000000000000000000000000000000000000000000000000000000600052605160045260246000fd5b600080fd5b600080fd5b600080fd5b600080fd5b6000601f19601f830116905091905056fe4368616e67696e672068656c6c6f4d6573736167652066726f6d202725732720746f2027257327a26469706673582212202cf5a652f30ef150dfbaeabd1d5c4b6bd228a14ece9fc34a86555313b0bab72464736f6c63430008060033",
  "linkReferences": {},
  "deployedLinkReferences": {}
}