{
  "_format": "hh-sol-artifact-1",
  "contractName": "RandomNumberGenerator",
  "sourceName": "contracts/RandomNumberGenerator.sol",
  "abi": [
    {
      "anonymous": false,
      "inputs": [
        {
          "indexed": true,
          "internalType": "address",
          "name": "previousOwner",
          "type": "address"
        },
        {
          "indexed": true,
          "internalType": "address",
          "name": "newOwner",
          "type": "address"
        }
      ],
      "name": "OwnershipTransferred",
      "type": "event"
    },
    {
      "inputs": [],
      "name": "owner",
      "outputs": [
        {
          "internalType": "address",
          "name": "",
          "type": "address"
        }
      ],
      "stateMutability": "view",
      "type": "function"
    },
    {
      "inputs": [],
      "name": "randomResult",
      "outputs": [
        {
          "internalType": "uint256",
          "name": "",
          "type": "uint256"
        }
      ],
      "stateMutability": "view",
      "type": "function"
    },
    {
      "inputs": [],
      "name": "renounceOwnership",
      "outputs": [],
      "stateMutability": "nonpayable",
      "type": "function"
    },
    {
      "inputs": [
        {
          "internalType": "uint256",
          "name": "_seedHash",
          "type": "uint256"
        }
      ],
      "name": "requestRandomValue",
      "outputs": [],
      "stateMutability": "nonpayable",
      "type": "function"
    },
    {
      "inputs": [
        {
          "internalType": "uint256",
          "name": "_seed",
          "type": "uint256"
        }
      ],
      "name": "revealRandomValue",
      "outputs": [
        {
          "internalType": "uint256",
          "name": "",
          "type": "uint256"
        }
      ],
      "stateMutability": "nonpayable",
      "type": "function"
    },
    {
      "inputs": [
        {
          "internalType": "address",
          "name": "newOwner",
          "type": "address"
        }
      ],
      "name": "transferOwnership",
      "outputs": [],
      "stateMutability": "nonpayable",
      "type": "function"
    },
    {
      "inputs": [],
      "name": "viewRandomResult",
      "outputs": [
        {
          "internalType": "uint256",
          "name": "",
          "type": "uint256"
        }
      ],
      "stateMutability": "view",
      "type": "function"
    }
  ],
  "bytecode": "0x608060405234801561001057600080fd5b5061002d61002261003260201b60201c565b61003a60201b60201c565b6100fe565b600033905090565b60008060009054906101000a900473ffffffffffffffffffffffffffffffffffffffff169050816000806101000a81548173ffffffffffffffffffffffffffffffffffffffff021916908373ffffffffffffffffffffffffffffffffffffffff1602179055508173ffffffffffffffffffffffffffffffffffffffff168173ffffffffffffffffffffffffffffffffffffffff167f8be0079c531659141344cd1fd0a4f28419497f9722a3daafe3b4186f6b6457e060405160405180910390a35050565b6109408061010d6000396000f3fe608060405234801561001057600080fd5b506004361061007d5760003560e01c80638da5cb5b1161005b5780638da5cb5b146100da578063a1c4f55a146100f8578063ce0d44a514610116578063f2fde38b146101325761007d565b806342619f6614610082578063715018a6146100a057806389c16e08146100aa575b600080fd5b61008a61014e565b6040516100979190610726565b60405180910390f35b6100a8610154565b005b6100c460048036038101906100bf919061053f565b610168565b6040516100d19190610726565b60405180910390f35b6100e26102c1565b6040516100ef919061066b565b60405180910390f35b6101006102ea565b60405161010d9190610726565b60405180910390f35b610130600480360381019061012b919061053f565b6102f4565b005b61014c60048036038101906101479190610512565b61031a565b005b60045481565b61015c61039e565b610166600061041c565b565b600061017261039e565b6000600154141580156101885750600060025414155b6101c7576040517f08c379a00000000000000000000000000000000000000000000000000000000081526004016101be90610706565b60405180910390fd5b600354431161020b576040517f08c379a0000000000000000000000000000000000000000000000000000000008152600401610202906106c6565b60405180910390fd5b60008260405160200161021e9190610650565b6040516020818303038152906040528051906020012060001c9050600154811461027d576040517f08c379a0000000000000000000000000000000000000000000000000000000008152600401610274906106a6565b60405180910390fd5b6003544083600254186040516020016102969190610650565b604051602081830303815290604052805190602001201860001c600481905550600454915050919050565b60008060009054906101000a900473ffffffffffffffffffffffffffffffffffffffff16905090565b6000600454905090565b6102fc61039e565b80600181905550600154424418186002819055504360038190555050565b61032261039e565b600073ffffffffffffffffffffffffffffffffffffffff168173ffffffffffffffffffffffffffffffffffffffff161415610392576040517f08c379a000000000000000000000000000000000000000000000000000000000815260040161038990610686565b60405180910390fd5b61039b8161041c565b50565b6103a66104e0565b73ffffffffffffffffffffffffffffffffffffffff166103c46102c1565b73ffffffffffffffffffffffffffffffffffffffff161461041a576040517f08c379a0000000000000000000000000000000000000000000000000000000008152600401610411906106e6565b60405180910390fd5b565b60008060009054906101000a900473ffffffffffffffffffffffffffffffffffffffff169050816000806101000a81548173ffffffffffffffffffffffffffffffffffffffff021916908373ffffffffffffffffffffffffffffffffffffffff1602179055508173ffffffffffffffffffffffffffffffffffffffff168173ffffffffffffffffffffffffffffffffffffffff167f8be0079c531659141344cd1fd0a4f28419497f9722a3daafe3b4186f6b6457e060405160405180910390a35050565b600033905090565b6000813590506104f7816108dc565b92915050565b60008135905061050c816108f3565b92915050565b60006020828403121561052857610527610798565b5b6000610536848285016104e8565b91505092915050565b60006020828403121561055557610554610798565b5b6000610563848285016104fd565b91505092915050565b61057581610752565b82525050565b6000610588602683610741565b91506105938261079d565b604082019050919050565b60006105ab602883610741565b91506105b6826107ec565b604082019050919050565b60006105ce603f83610741565b91506105d98261083b565b604082019050919050565b60006105f1602083610741565b91506105fc8261088a565b602082019050919050565b6000610614602083610741565b915061061f826108b3565b602082019050919050565b61063381610784565b82525050565b61064a61064582610784565b61078e565b82525050565b600061065c8284610639565b60208201915081905092915050565b6000602082019050610680600083018461056c565b92915050565b6000602082019050818103600083015261069f8161057b565b9050919050565b600060208201905081810360008301526106bf8161059e565b9050919050565b600060208201905081810360008301526106df816105c1565b9050919050565b600060208201905081810360008301526106ff816105e4565b9050919050565b6000602082019050818103600083015261071f81610607565b9050919050565b600060208201905061073b600083018461062a565b92915050565b600082825260208201905092915050565b600061075d82610764565b9050919050565b600073ffffffffffffffffffffffffffffffffffffffff82169050919050565b6000819050919050565b6000819050919050565b600080fd5b7f4f776e61626c653a206e6577206f776e657220697320746865207a65726f206160008201527f6464726573730000000000000000000000000000000000000000000000000000602082015250565b7f52616e646f6d4e756d62657247656e657261746f723a2073656564486173682060008201527f6d69736d61746368000000000000000000000000000000000000000000000000602082015250565b7f52616e646f6d4e756d62657247656e657261746f723a2063616e206e6f74207260008201527f65717565737420616e642072657665616c20696e2073616d6520626c6f636b00602082015250565b7f4f776e61626c653a2063616c6c6572206973206e6f7420746865206f776e6572600082015250565b7f52616e646f6d4e756d62657247656e657261746f723a206e6f74207265616479600082015250565b6108e581610752565b81146108f057600080fd5b50565b6108fc81610784565b811461090757600080fd5b5056fea264697066735822122084cec06b4c14c1ec40929c81caff12145ed58b3457b4aa2b8e88e3d96ee77a4864736f6c63430008060033",
  "linkReferences": {},
  "deployedLinkReferences": {}
}